{
	"BNB_Chain_chellange/FirstCont.sol": {
		"FirstContract": {
			"abi": [
				{
					"inputs": [],
					"name": "addOne",
					"outputs": [],
					"stateMutability": "nonpayable",
					"type": "function"
				},
				{
					"inputs": [],
					"name": "callNumber",
					"outputs": [
						{
							"internalType": "int256",
							"name": "",
							"type": "int256"
						}
					],
					"stateMutability": "view",
					"type": "function"
				},
				{
					"inputs": [],
					"name": "isLoading",
					"outputs": [
						{
							"internalType": "bool",
							"name": "",
							"type": "bool"
						}
					],
					"stateMutability": "view",
					"type": "function"
				},
				{
					"inputs": [],
					"name": "uNumber",
					"outputs": [
						{
							"internalType": "uint256",
							"name": "",
							"type": "uint256"
						}
					],
					"stateMutability": "view",
					"type": "function"
				}
			],
			"devdoc": {
				"kind": "dev",
				"methods": {},
				"version": 1
			},
			"evm": {
				"assembly": "    /* \"BNB_Chain_chellange/FirstCont.sol\":60:378  contract FirstContract {\r... */\n  mstore(0x40, 0x80)\n    /* \"BNB_Chain_chellange/FirstCont.sol\":111:115  1000 */\n  0x03e8\n    /* \"BNB_Chain_chellange/FirstCont.sol\":90:115  int private number = 1000 */\n  0x00\n  sstore\n    /* \"BNB_Chain_chellange/FirstCont.sol\":144:147  100 */\n  0x64\n    /* \"BNB_Chain_chellange/FirstCont.sol\":122:147  uint public uNumber = 100 */\n  0x01\n  sstore\n    /* \"BNB_Chain_chellange/FirstCont.sol\":154:181  string private name = \"Tom\" */\n  mload(0x40)\n  dup1\n  0x40\n  add\n  0x40\n  mstore\n  dup1\n  0x03\n  dup2\n  mstore\n  0x20\n  add\n  0x546f6d0000000000000000000000000000000000000000000000000000000000\n  dup2\n  mstore\n  pop\n  0x02\n  swap1\n  dup1\n  mload\n  swap1\n  0x20\n  add\n  swap1\n  tag_1\n  swap3\n  swap2\n  swap1\n  tag_2\n  jump\t// in\ntag_1:\n  pop\n    /* \"BNB_Chain_chellange/FirstCont.sol\":212:216  true */\n  0x01\n    /* \"BNB_Chain_chellange/FirstCont.sol\":188:216  bool public isLoading = true */\n  0x03\n  exp(0x0100, 0x00)\n  dup2\n  sload\n  dup2\n  0xff\n  mul\n  not\n  and\n  swap1\n  dup4\n  iszero\n  iszero\n  mul\n  or\n  swap1\n  sstore\n  pop\n    /* \"BNB_Chain_chellange/FirstCont.sol\":60:378  contract FirstContract {\r... */\n  callvalue\n  dup1\n  iszero\n  tag_3\n  jumpi\n  0x00\n  dup1\n  revert\ntag_3:\n  pop\n  jump(tag_4)\ntag_2:\n  dup3\n  dup1\n  sload\n  tag_5\n  swap1\n  tag_6\n  jump\t// in\ntag_5:\n  swap1\n  0x00\n  mstore\n  keccak256(0x00, 0x20)\n  swap1\n  0x1f\n  add\n  0x20\n  swap1\n  div\n  dup2\n  add\n  swap3\n  dup3\n  tag_8\n  jumpi\n  0x00\n  dup6\n  sstore\n  jump(tag_7)\ntag_8:\n  dup3\n  0x1f\n  lt\n  tag_9\n  jumpi\n  dup1\n  mload\n  not(0xff)\n  and\n  dup4\n  dup1\n  add\n  or\n  dup6\n  sstore\n  jump(tag_7)\ntag_9:\n  dup3\n  dup1\n  add\n  0x01\n  add\n  dup6\n  sstore\n  dup3\n  iszero\n  tag_7\n  jumpi\n  swap2\n  dup3\n  add\ntag_10:\n  dup3\n  dup2\n  gt\n  iszero\n  tag_11\n  jumpi\n  dup3\n  mload\n  dup3\n  sstore\n  swap2\n  0x20\n  add\n  swap2\n  swap1\n  0x01\n  add\n  swap1\n  jump(tag_10)\ntag_11:\ntag_7:\n  pop\n  swap1\n  pop\n  tag_12\n  swap2\n  swap1\n  tag_13\n  jump\t// in\ntag_12:\n  pop\n  swap1\n  jump\t// out\ntag_13:\ntag_14:\n  dup1\n  dup3\n  gt\n  iszero\n  tag_15\n  jumpi\n  0x00\n  dup2\n  0x00\n  swap1\n  sstore\n  pop\n  0x01\n  add\n  jump(tag_14)\ntag_15:\n  pop\n  swap1\n  jump\t// out\n    /* \"#utility.yul\":7:327   */\ntag_6:\n    /* \"#utility.yul\":51:57   */\n  0x00\n    /* \"#utility.yul\":88:89   */\n  0x02\n    /* \"#utility.yul\":82:86   */\n  dup3\n    /* \"#utility.yul\":78:90   */\n  div\n    /* \"#utility.yul\":68:90   */\n  swap1\n  pop\n    /* \"#utility.yul\":135:136   */\n  0x01\n    /* \"#utility.yul\":129:133   */\n  dup3\n    /* \"#utility.yul\":125:137   */\n  and\n    /* \"#utility.yul\":156:174   */\n  dup1\n    /* \"#utility.yul\":146:227   */\n  tag_18\n  jumpi\n    /* \"#utility.yul\":212:216   */\n  0x7f\n    /* \"#utility.yul\":204:210   */\n  dup3\n    /* \"#utility.yul\":200:217   */\n  and\n    /* \"#utility.yul\":190:217   */\n  swap2\n  pop\n    /* \"#utility.yul\":146:227   */\ntag_18:\n    /* \"#utility.yul\":274:276   */\n  0x20\n    /* \"#utility.yul\":266:272   */\n  dup3\n    /* \"#utility.yul\":263:277   */\n  lt\n    /* \"#utility.yul\":243:261   */\n  dup2\n    /* \"#utility.yul\":240:278   */\n  eq\n    /* \"#utility.yul\":237:321   */\n  iszero\n  tag_19\n  jumpi\n    /* \"#utility.yul\":293:311   */\n  tag_20\n  tag_21\n  jump\t// in\ntag_20:\n    /* \"#utility.yul\":237:321   */\ntag_19:\n    /* \"#utility.yul\":58:327   */\n  pop\n    /* \"#utility.yul\":7:327   */\n  swap2\n  swap1\n  pop\n  jump\t// out\n    /* \"#utility.yul\":333:513   */\ntag_21:\n    /* \"#utility.yul\":381:458   */\n  0x4e487b7100000000000000000000000000000000000000000000000000000000\n    /* \"#utility.yul\":378:379   */\n  0x00\n    /* \"#utility.yul\":371:459   */\n  mstore\n    /* \"#utility.yul\":478:482   */\n  0x22\n    /* \"#utility.yul\":475:476   */\n  0x04\n    /* \"#utility.yul\":468:483   */\n  mstore\n    /* \"#utility.yul\":502:506   */\n  0x24\n    /* \"#utility.yul\":499:500   */\n  0x00\n    /* \"#utility.yul\":492:507   */\n  revert\n    /* \"BNB_Chain_chellange/FirstCont.sol\":60:378  contract FirstContract {\r... */\ntag_4:\n  dataSize(sub_0)\n  dup1\n  dataOffset(sub_0)\n  0x00\n  codecopy\n  0x00\n  return\nstop\n\nsub_0: assembly {\n        /* \"BNB_Chain_chellange/FirstCont.sol\":60:378  contract FirstContract {\r... */\n      mstore(0x40, 0x80)\n      callvalue\n      dup1\n      iszero\n      tag_1\n      jumpi\n      0x00\n      dup1\n      revert\n    tag_1:\n      pop\n      jumpi(tag_2, lt(calldatasize, 0x04))\n      shr(0xe0, calldataload(0x00))\n      dup1\n      0x6057d3ee\n      eq\n      tag_3\n      jumpi\n      dup1\n      0x8adfb021\n      eq\n      tag_4\n      jumpi\n      dup1\n      0x9d9b5a52\n      eq\n      tag_5\n      jumpi\n      dup1\n      0xe6683dde\n      eq\n      tag_6\n      jumpi\n    tag_2:\n      0x00\n      dup1\n      revert\n        /* \"BNB_Chain_chellange/FirstCont.sol\":311:373  function addOne() public{\r... */\n    tag_3:\n      tag_7\n      tag_8\n      jump\t// in\n    tag_7:\n      stop\n        /* \"BNB_Chain_chellange/FirstCont.sol\":225:303  function callNumber() public view returns(int){\r... */\n    tag_4:\n      tag_9\n      tag_10\n      jump\t// in\n    tag_9:\n      mload(0x40)\n      tag_11\n      swap2\n      swap1\n      tag_12\n      jump\t// in\n    tag_11:\n      mload(0x40)\n      dup1\n      swap2\n      sub\n      swap1\n      return\n        /* \"BNB_Chain_chellange/FirstCont.sol\":188:216  bool public isLoading = true */\n    tag_5:\n      tag_13\n      tag_14\n      jump\t// in\n    tag_13:\n      mload(0x40)\n      tag_15\n      swap2\n      swap1\n      tag_16\n      jump\t// in\n    tag_15:\n      mload(0x40)\n      dup1\n      swap2\n      sub\n      swap1\n      return\n        /* \"BNB_Chain_chellange/FirstCont.sol\":122:147  uint public uNumber = 100 */\n    tag_6:\n      tag_17\n      tag_18\n      jump\t// in\n    tag_17:\n      mload(0x40)\n      tag_19\n      swap2\n      swap1\n      tag_20\n      jump\t// in\n    tag_19:\n      mload(0x40)\n      dup1\n      swap2\n      sub\n      swap1\n      return\n        /* \"BNB_Chain_chellange/FirstCont.sol\":311:373  function addOne() public{\r... */\n    tag_8:\n        /* \"BNB_Chain_chellange/FirstCont.sol\":364:365  1 */\n      0x01\n        /* \"BNB_Chain_chellange/FirstCont.sol\":355:361  number */\n      sload(0x00)\n        /* \"BNB_Chain_chellange/FirstCont.sol\":355:365  number + 1 */\n      tag_22\n      swap2\n      swap1\n      tag_23\n      jump\t// in\n    tag_22:\n        /* \"BNB_Chain_chellange/FirstCont.sol\":346:352  number */\n      0x00\n        /* \"BNB_Chain_chellange/FirstCont.sol\":346:365  number = number + 1 */\n      dup2\n      swap1\n      sstore\n      pop\n        /* \"BNB_Chain_chellange/FirstCont.sol\":311:373  function addOne() public{\r... */\n      jump\t// out\n        /* \"BNB_Chain_chellange/FirstCont.sol\":225:303  function callNumber() public view returns(int){\r... */\n    tag_10:\n        /* \"BNB_Chain_chellange/FirstCont.sol\":267:270  int */\n      0x00\n        /* \"BNB_Chain_chellange/FirstCont.sol\":289:295  number */\n      dup1\n      sload\n        /* \"BNB_Chain_chellange/FirstCont.sol\":282:295  return number */\n      swap1\n      pop\n        /* \"BNB_Chain_chellange/FirstCont.sol\":225:303  function callNumber() public view returns(int){\r... */\n      swap1\n      jump\t// out\n        /* \"BNB_Chain_chellange/FirstCont.sol\":188:216  bool public isLoading = true */\n    tag_14:\n      0x03\n      0x00\n      swap1\n      sload\n      swap1\n      0x0100\n      exp\n      swap1\n      div\n      0xff\n      and\n      dup2\n      jump\t// out\n        /* \"BNB_Chain_chellange/FirstCont.sol\":122:147  uint public uNumber = 100 */\n    tag_18:\n      sload(0x01)\n      dup2\n      jump\t// out\n        /* \"#utility.yul\":7:116   */\n    tag_26:\n        /* \"#utility.yul\":88:109   */\n      tag_28\n        /* \"#utility.yul\":103:108   */\n      dup2\n        /* \"#utility.yul\":88:109   */\n      tag_29\n      jump\t// in\n    tag_28:\n        /* \"#utility.yul\":83:86   */\n      dup3\n        /* \"#utility.yul\":76:110   */\n      mstore\n        /* \"#utility.yul\":7:116   */\n      pop\n      pop\n      jump\t// out\n        /* \"#utility.yul\":122:237   */\n    tag_30:\n        /* \"#utility.yul\":207:230   */\n      tag_32\n        /* \"#utility.yul\":224:229   */\n      dup2\n        /* \"#utility.yul\":207:230   */\n      tag_33\n      jump\t// in\n    tag_32:\n        /* \"#utility.yul\":202:205   */\n      dup3\n        /* \"#utility.yul\":195:231   */\n      mstore\n        /* \"#utility.yul\":122:237   */\n      pop\n      pop\n      jump\t// out\n        /* \"#utility.yul\":243:361   */\n    tag_34:\n        /* \"#utility.yul\":330:354   */\n      tag_36\n        /* \"#utility.yul\":348:353   */\n      dup2\n        /* \"#utility.yul\":330:354   */\n      tag_37\n      jump\t// in\n    tag_36:\n        /* \"#utility.yul\":325:328   */\n      dup3\n        /* \"#utility.yul\":318:355   */\n      mstore\n        /* \"#utility.yul\":243:361   */\n      pop\n      pop\n      jump\t// out\n        /* \"#utility.yul\":367:577   */\n    tag_16:\n        /* \"#utility.yul\":454:458   */\n      0x00\n        /* \"#utility.yul\":492:494   */\n      0x20\n        /* \"#utility.yul\":481:490   */\n      dup3\n        /* \"#utility.yul\":477:495   */\n      add\n        /* \"#utility.yul\":469:495   */\n      swap1\n      pop\n        /* \"#utility.yul\":505:570   */\n      tag_39\n        /* \"#utility.yul\":567:568   */\n      0x00\n        /* \"#utility.yul\":556:565   */\n      dup4\n        /* \"#utility.yul\":552:569   */\n      add\n        /* \"#utility.yul\":543:549   */\n      dup5\n        /* \"#utility.yul\":505:570   */\n      tag_26\n      jump\t// in\n    tag_39:\n        /* \"#utility.yul\":367:577   */\n      swap3\n      swap2\n      pop\n      pop\n      jump\t// out\n        /* \"#utility.yul\":583:801   */\n    tag_12:\n        /* \"#utility.yul\":674:678   */\n      0x00\n        /* \"#utility.yul\":712:714   */\n      0x20\n        /* \"#utility.yul\":701:710   */\n      dup3\n        /* \"#utility.yul\":697:715   */\n      add\n        /* \"#utility.yul\":689:715   */\n      swap1\n      pop\n        /* \"#utility.yul\":725:794   */\n      tag_41\n        /* \"#utility.yul\":791:792   */\n      0x00\n        /* \"#utility.yul\":780:789   */\n      dup4\n        /* \"#utility.yul\":776:793   */\n      add\n        /* \"#utility.yul\":767:773   */\n      dup5\n        /* \"#utility.yul\":725:794   */\n      tag_30\n      jump\t// in\n    tag_41:\n        /* \"#utility.yul\":583:801   */\n      swap3\n      swap2\n      pop\n      pop\n      jump\t// out\n        /* \"#utility.yul\":807:1029   */\n    tag_20:\n        /* \"#utility.yul\":900:904   */\n      0x00\n        /* \"#utility.yul\":938:940   */\n      0x20\n        /* \"#utility.yul\":927:936   */\n      dup3\n        /* \"#utility.yul\":923:941   */\n      add\n        /* \"#utility.yul\":915:941   */\n      swap1\n      pop\n        /* \"#utility.yul\":951:1022   */\n      tag_43\n        /* \"#utility.yul\":1019:1020   */\n      0x00\n        /* \"#utility.yul\":1008:1017   */\n      dup4\n        /* \"#utility.yul\":1004:1021   */\n      add\n        /* \"#utility.yul\":995:1001   */\n      dup5\n        /* \"#utility.yul\":951:1022   */\n      tag_34\n      jump\t// in\n    tag_43:\n        /* \"#utility.yul\":807:1029   */\n      swap3\n      swap2\n      pop\n      pop\n      jump\t// out\n        /* \"#utility.yul\":1035:1560   */\n    tag_23:\n        /* \"#utility.yul\":1074:1077   */\n      0x00\n        /* \"#utility.yul\":1093:1112   */\n      tag_45\n        /* \"#utility.yul\":1110:1111   */\n      dup3\n        /* \"#utility.yul\":1093:1112   */\n      tag_33\n      jump\t// in\n    tag_45:\n        /* \"#utility.yul\":1088:1112   */\n      swap2\n      pop\n        /* \"#utility.yul\":1126:1145   */\n      tag_46\n        /* \"#utility.yul\":1143:1144   */\n      dup4\n        /* \"#utility.yul\":1126:1145   */\n      tag_33\n      jump\t// in\n    tag_46:\n        /* \"#utility.yul\":1121:1145   */\n      swap3\n      pop\n        /* \"#utility.yul\":1314:1315   */\n      dup2\n        /* \"#utility.yul\":1246:1312   */\n      0x7fffffffffffffffffffffffffffffffffffffffffffffffffffffffffffffff\n        /* \"#utility.yul\":1242:1316   */\n      sub\n        /* \"#utility.yul\":1239:1240   */\n      dup4\n        /* \"#utility.yul\":1235:1317   */\n      sgt\n        /* \"#utility.yul\":1230:1231   */\n      0x00\n        /* \"#utility.yul\":1227:1228   */\n      dup4\n        /* \"#utility.yul\":1223:1232   */\n      slt\n        /* \"#utility.yul\":1216:1233   */\n      iszero\n        /* \"#utility.yul\":1212:1318   */\n      and\n        /* \"#utility.yul\":1209:1341   */\n      iszero\n      tag_47\n      jumpi\n        /* \"#utility.yul\":1321:1339   */\n      tag_48\n      tag_49\n      jump\t// in\n    tag_48:\n        /* \"#utility.yul\":1209:1341   */\n    tag_47:\n        /* \"#utility.yul\":1501:1502   */\n      dup2\n        /* \"#utility.yul\":1433:1499   */\n      0x8000000000000000000000000000000000000000000000000000000000000000\n        /* \"#utility.yul\":1429:1503   */\n      sub\n        /* \"#utility.yul\":1426:1427   */\n      dup4\n        /* \"#utility.yul\":1422:1504   */\n      slt\n        /* \"#utility.yul\":1418:1419   */\n      0x00\n        /* \"#utility.yul\":1415:1416   */\n      dup4\n        /* \"#utility.yul\":1411:1420   */\n      slt\n        /* \"#utility.yul\":1407:1505   */\n      and\n        /* \"#utility.yul\":1404:1528   */\n      iszero\n      tag_50\n      jumpi\n        /* \"#utility.yul\":1508:1526   */\n      tag_51\n      tag_49\n      jump\t// in\n    tag_51:\n        /* \"#utility.yul\":1404:1528   */\n    tag_50:\n        /* \"#utility.yul\":1552:1553   */\n      dup3\n        /* \"#utility.yul\":1549:1550   */\n      dup3\n        /* \"#utility.yul\":1545:1554   */\n      add\n        /* \"#utility.yul\":1538:1554   */\n      swap1\n      pop\n        /* \"#utility.yul\":1035:1560   */\n      swap3\n      swap2\n      pop\n      pop\n      jump\t// out\n        /* \"#utility.yul\":1566:1656   */\n    tag_29:\n        /* \"#utility.yul\":1600:1607   */\n      0x00\n        /* \"#utility.yul\":1643:1648   */\n      dup2\n        /* \"#utility.yul\":1636:1649   */\n      iszero\n        /* \"#utility.yul\":1629:1650   */\n      iszero\n        /* \"#utility.yul\":1618:1650   */\n      swap1\n      pop\n        /* \"#utility.yul\":1566:1656   */\n      swap2\n      swap1\n      pop\n      jump\t// out\n        /* \"#utility.yul\":1662:1738   */\n    tag_33:\n        /* \"#utility.yul\":1698:1705   */\n      0x00\n        /* \"#utility.yul\":1727:1732   */\n      dup2\n        /* \"#utility.yul\":1716:1732   */\n      swap1\n      pop\n        /* \"#utility.yul\":1662:1738   */\n      swap2\n      swap1\n      pop\n      jump\t// out\n        /* \"#utility.yul\":1744:1821   */\n    tag_37:\n        /* \"#utility.yul\":1781:1788   */\n      0x00\n        /* \"#utility.yul\":1810:1815   */\n      dup2\n        /* \"#utility.yul\":1799:1815   */\n      swap1\n      pop\n        /* \"#utility.yul\":1744:1821   */\n      swap2\n      swap1\n      pop\n      jump\t// out\n        /* \"#utility.yul\":1827:2007   */\n    tag_49:\n        /* \"#utility.yul\":1875:1952   */\n      0x4e487b7100000000000000000000000000000000000000000000000000000000\n        /* \"#utility.yul\":1872:1873   */\n      0x00\n        /* \"#utility.yul\":1865:1953   */\n      mstore\n        /* \"#utility.yul\":1972:1976   */\n      0x11\n        /* \"#utility.yul\":1969:1970   */\n      0x04\n        /* \"#utility.yul\":1962:1977   */\n      mstore\n        /* \"#utility.yul\":1996:2000   */\n      0x24\n        /* \"#utility.yul\":1993:1994   */\n      0x00\n        /* \"#utility.yul\":1986:2001   */\n      revert\n\n    auxdata: 0xa2646970667358221220d285cad08e98b1510f3af6f71cf652b5e69cdf1210a8f4c26ac316674fe84ef864736f6c63430008070033\n}\n",
				"bytecode": {
					"linkReferences": {},
					"object": "60806040526103e860005560646001556040518060400160405280600381526020017f546f6d00000000000000000000000000000000000000000000000000000000008152506002908051906020019061005a929190610088565b506001600360006101000a81548160ff02191690831515021790555034801561008257600080fd5b5061018c565b8280546100949061012b565b90600052602060002090601f0160209004810192826100b657600085556100fd565b82601f106100cf57805160ff19168380011785556100fd565b828001600101855582156100fd579182015b828111156100fc5782518255916020019190600101906100e1565b5b50905061010a919061010e565b5090565b5b8082111561012757600081600090555060010161010f565b5090565b6000600282049050600182168061014357607f821691505b602082108114156101575761015661015d565b5b50919050565b7f4e487b7100000000000000000000000000000000000000000000000000000000600052602260045260246000fd5b6102858061019b6000396000f3fe608060405234801561001057600080fd5b506004361061004c5760003560e01c80636057d3ee146100515780638adfb0211461005b5780639d9b5a5214610079578063e6683dde14610097575b600080fd5b6100596100b5565b005b6100636100cc565b6040516100709190610136565b60405180910390f35b6100816100d5565b60405161008e919061011b565b60405180910390f35b61009f6100e8565b6040516100ac9190610151565b60405180910390f35b60016000546100c4919061016c565b600081905550565b60008054905090565b600360009054906101000a900460ff1681565b60015481565b6100f781610200565b82525050565b6101068161020c565b82525050565b61011581610216565b82525050565b600060208201905061013060008301846100ee565b92915050565b600060208201905061014b60008301846100fd565b92915050565b6000602082019050610166600083018461010c565b92915050565b60006101778261020c565b91506101828361020c565b9250817f7fffffffffffffffffffffffffffffffffffffffffffffffffffffffffffffff038313600083121516156101bd576101bc610220565b5b817f80000000000000000000000000000000000000000000000000000000000000000383126000831216156101f5576101f4610220565b5b828201905092915050565b60008115159050919050565b6000819050919050565b6000819050919050565b7f4e487b7100000000000000000000000000000000000000000000000000000000600052601160045260246000fdfea2646970667358221220d285cad08e98b1510f3af6f71cf652b5e69cdf1210a8f4c26ac316674fe84ef864736f6c63430008070033",
					"opcodes": "PUSH1 0x80 PUSH1 0x40 MSTORE PUSH2 0x3E8 PUSH1 0x0 SSTORE PUSH1 0x64 PUSH1 0x1 SSTORE PUSH1 0x40 MLOAD DUP1 PUSH1 0x40 ADD PUSH1 0x40 MSTORE DUP1 PUSH1 0x3 DUP2 MSTORE PUSH1 0x20 ADD PUSH32 0x546F6D0000000000000000000000000000000000000000000000000000000000 DUP2 MSTORE POP PUSH1 0x2 SWAP1 DUP1 MLOAD SWAP1 PUSH1 0x20 ADD SWAP1 PUSH2 0x5A SWAP3 SWAP2 SWAP1 PUSH2 0x88 JUMP JUMPDEST POP PUSH1 0x1 PUSH1 0x3 PUSH1 0x0 PUSH2 0x100 EXP DUP2 SLOAD DUP2 PUSH1 0xFF MUL NOT AND SWAP1 DUP4 ISZERO ISZERO MUL OR SWAP1 SSTORE POP CALLVALUE DUP1 ISZERO PUSH2 0x82 JUMPI PUSH1 0x0 DUP1 REVERT JUMPDEST POP PUSH2 0x18C JUMP JUMPDEST DUP3 DUP1 SLOAD PUSH2 0x94 SWAP1 PUSH2 0x12B JUMP JUMPDEST SWAP1 PUSH1 0x0 MSTORE PUSH1 0x20 PUSH1 0x0 KECCAK256 SWAP1 PUSH1 0x1F ADD PUSH1 0x20 SWAP1 DIV DUP2 ADD SWAP3 DUP3 PUSH2 0xB6 JUMPI PUSH1 0x0 DUP6 SSTORE PUSH2 0xFD JUMP JUMPDEST DUP3 PUSH1 0x1F LT PUSH2 0xCF JUMPI DUP1 MLOAD PUSH1 0xFF NOT AND DUP4 DUP1 ADD OR DUP6 SSTORE PUSH2 0xFD JUMP JUMPDEST DUP3 DUP1 ADD PUSH1 0x1 ADD DUP6 SSTORE DUP3 ISZERO PUSH2 0xFD JUMPI SWAP2 DUP3 ADD JUMPDEST DUP3 DUP2 GT ISZERO PUSH2 0xFC JUMPI DUP3 MLOAD DUP3 SSTORE SWAP2 PUSH1 0x20 ADD SWAP2 SWAP1 PUSH1 0x1 ADD SWAP1 PUSH2 0xE1 JUMP JUMPDEST JUMPDEST POP SWAP1 POP PUSH2 0x10A SWAP2 SWAP1 PUSH2 0x10E JUMP JUMPDEST POP SWAP1 JUMP JUMPDEST JUMPDEST DUP1 DUP3 GT ISZERO PUSH2 0x127 JUMPI PUSH1 0x0 DUP2 PUSH1 0x0 SWAP1 SSTORE POP PUSH1 0x1 ADD PUSH2 0x10F JUMP JUMPDEST POP SWAP1 JUMP JUMPDEST PUSH1 0x0 PUSH1 0x2 DUP3 DIV SWAP1 POP PUSH1 0x1 DUP3 AND DUP1 PUSH2 0x143 JUMPI PUSH1 0x7F DUP3 AND SWAP2 POP JUMPDEST PUSH1 0x20 DUP3 LT DUP2 EQ ISZERO PUSH2 0x157 JUMPI PUSH2 0x156 PUSH2 0x15D JUMP JUMPDEST JUMPDEST POP SWAP2 SWAP1 POP JUMP JUMPDEST PUSH32 0x4E487B7100000000000000000000000000000000000000000000000000000000 PUSH1 0x0 MSTORE PUSH1 0x22 PUSH1 0x4 MSTORE PUSH1 0x24 PUSH1 0x0 REVERT JUMPDEST PUSH2 0x285 DUP1 PUSH2 0x19B PUSH1 0x0 CODECOPY PUSH1 0x0 RETURN INVALID PUSH1 0x80 PUSH1 0x40 MSTORE CALLVALUE DUP1 ISZERO PUSH2 0x10 JUMPI PUSH1 0x0 DUP1 REVERT JUMPDEST POP PUSH1 0x4 CALLDATASIZE LT PUSH2 0x4C JUMPI PUSH1 0x0 CALLDATALOAD PUSH1 0xE0 SHR DUP1 PUSH4 0x6057D3EE EQ PUSH2 0x51 JUMPI DUP1 PUSH4 0x8ADFB021 EQ PUSH2 0x5B JUMPI DUP1 PUSH4 0x9D9B5A52 EQ PUSH2 0x79 JUMPI DUP1 PUSH4 0xE6683DDE EQ PUSH2 0x97 JUMPI JUMPDEST PUSH1 0x0 DUP1 REVERT JUMPDEST PUSH2 0x59 PUSH2 0xB5 JUMP JUMPDEST STOP JUMPDEST PUSH2 0x63 PUSH2 0xCC JUMP JUMPDEST PUSH1 0x40 MLOAD PUSH2 0x70 SWAP2 SWAP1 PUSH2 0x136 JUMP JUMPDEST PUSH1 0x40 MLOAD DUP1 SWAP2 SUB SWAP1 RETURN JUMPDEST PUSH2 0x81 PUSH2 0xD5 JUMP JUMPDEST PUSH1 0x40 MLOAD PUSH2 0x8E SWAP2 SWAP1 PUSH2 0x11B JUMP JUMPDEST PUSH1 0x40 MLOAD DUP1 SWAP2 SUB SWAP1 RETURN JUMPDEST PUSH2 0x9F PUSH2 0xE8 JUMP JUMPDEST PUSH1 0x40 MLOAD PUSH2 0xAC SWAP2 SWAP1 PUSH2 0x151 JUMP JUMPDEST PUSH1 0x40 MLOAD DUP1 SWAP2 SUB SWAP1 RETURN JUMPDEST PUSH1 0x1 PUSH1 0x0 SLOAD PUSH2 0xC4 SWAP2 SWAP1 PUSH2 0x16C JUMP JUMPDEST PUSH1 0x0 DUP2 SWAP1 SSTORE POP JUMP JUMPDEST PUSH1 0x0 DUP1 SLOAD SWAP1 POP SWAP1 JUMP JUMPDEST PUSH1 0x3 PUSH1 0x0 SWAP1 SLOAD SWAP1 PUSH2 0x100 EXP SWAP1 DIV PUSH1 0xFF AND DUP2 JUMP JUMPDEST PUSH1 0x1 SLOAD DUP2 JUMP JUMPDEST PUSH2 0xF7 DUP2 PUSH2 0x200 JUMP JUMPDEST DUP3 MSTORE POP POP JUMP JUMPDEST PUSH2 0x106 DUP2 PUSH2 0x20C JUMP JUMPDEST DUP3 MSTORE POP POP JUMP JUMPDEST PUSH2 0x115 DUP2 PUSH2 0x216 JUMP JUMPDEST DUP3 MSTORE POP POP JUMP JUMPDEST PUSH1 0x0 PUSH1 0x20 DUP3 ADD SWAP1 POP PUSH2 0x130 PUSH1 0x0 DUP4 ADD DUP5 PUSH2 0xEE JUMP JUMPDEST SWAP3 SWAP2 POP POP JUMP JUMPDEST PUSH1 0x0 PUSH1 0x20 DUP3 ADD SWAP1 POP PUSH2 0x14B PUSH1 0x0 DUP4 ADD DUP5 PUSH2 0xFD JUMP JUMPDEST SWAP3 SWAP2 POP POP JUMP JUMPDEST PUSH1 0x0 PUSH1 0x20 DUP3 ADD SWAP1 POP PUSH2 0x166 PUSH1 0x0 DUP4 ADD DUP5 PUSH2 0x10C JUMP JUMPDEST SWAP3 SWAP2 POP POP JUMP JUMPDEST PUSH1 0x0 PUSH2 0x177 DUP3 PUSH2 0x20C JUMP JUMPDEST SWAP2 POP PUSH2 0x182 DUP4 PUSH2 0x20C JUMP JUMPDEST SWAP3 POP DUP2 PUSH32 0x7FFFFFFFFFFFFFFFFFFFFFFFFFFFFFFFFFFFFFFFFFFFFFFFFFFFFFFFFFFFFFFF SUB DUP4 SGT PUSH1 0x0 DUP4 SLT ISZERO AND ISZERO PUSH2 0x1BD JUMPI PUSH2 0x1BC PUSH2 0x220 JUMP JUMPDEST JUMPDEST DUP2 PUSH32 0x8000000000000000000000000000000000000000000000000000000000000000 SUB DUP4 SLT PUSH1 0x0 DUP4 SLT AND ISZERO PUSH2 0x1F5 JUMPI PUSH2 0x1F4 PUSH2 0x220 JUMP JUMPDEST JUMPDEST DUP3 DUP3 ADD SWAP1 POP SWAP3 SWAP2 POP POP JUMP JUMPDEST PUSH1 0x0 DUP2 ISZERO ISZERO SWAP1 POP SWAP2 SWAP1 POP JUMP JUMPDEST PUSH1 0x0 DUP2 SWAP1 POP SWAP2 SWAP1 POP JUMP JUMPDEST PUSH1 0x0 DUP2 SWAP1 POP SWAP2 SWAP1 POP JUMP JUMPDEST PUSH32 0x4E487B7100000000000000000000000000000000000000000000000000000000 PUSH1 0x0 MSTORE PUSH1 0x11 PUSH1 0x4 MSTORE PUSH1 0x24 PUSH1 0x0 REVERT INVALID LOG2 PUSH5 0x6970667358 0x22 SLT KECCAK256 0xD2 DUP6 0xCA 0xD0 DUP15 SWAP9 0xB1 MLOAD 0xF GASPRICE 0xF6 0xF7 SHR 0xF6 MSTORE 0xB5 0xE6 SWAP13 0xDF SLT LT 0xA8 DELEGATECALL 0xC2 PUSH11 0xC316674FE84EF864736F6C PUSH4 0x43000807 STOP CALLER "
				},
				"gasEstimates": {
					"creation": {
						"codeDepositCost": "129000",
						"executionCost": "infinite",
						"totalCost": "infinite"
					},
					"external": {
						"addOne()": "infinite",
						"callNumber()": "2437",
						"isLoading()": "2493",
						"uNumber()": "2473"
					}
				},
				"methodIdentifiers": {
					"addOne()": "6057d3ee",
					"callNumber()": "8adfb021",
					"isLoading()": "9d9b5a52",
					"uNumber()": "e6683dde"
				}
			},
			"storageLayout": {
				"storage": [
					{
						"astId": 4,
						"contract": "BNB_Chain_chellange/FirstCont.sol:FirstContract",
						"label": "number",
						"offset": 0,
						"slot": "0",
						"type": "t_int256"
					},
					{
						"astId": 7,
						"contract": "BNB_Chain_chellange/FirstCont.sol:FirstContract",
						"label": "uNumber",
						"offset": 0,
						"slot": "1",
						"type": "t_uint256"
					},
					{
						"astId": 10,
						"contract": "BNB_Chain_chellange/FirstCont.sol:FirstContract",
						"label": "name",
						"offset": 0,
						"slot": "2",
						"type": "t_string_storage"
					},
					{
						"astId": 13,
						"contract": "BNB_Chain_chellange/FirstCont.sol:FirstContract",
						"label": "isLoading",
						"offset": 0,
						"slot": "3",
						"type": "t_bool"
					}
				],
				"types": {
					"t_bool": {
						"encoding": "inplace",
						"label": "bool",
						"numberOfBytes": "1"
					},
					"t_int256": {
						"encoding": "inplace",
						"label": "int256",
						"numberOfBytes": "32"
					},
					"t_string_storage": {
						"encoding": "bytes",
						"label": "string",
						"numberOfBytes": "32"
					},
					"t_uint256": {
						"encoding": "inplace",
						"label": "uint256",
						"numberOfBytes": "32"
					}
				}
			},
			"userdoc": {
				"kind": "user",
				"methods": {},
				"version": 1
			}
		}
	}
}