{
	"BNB_Chain_chellange/FirstCont.sol": {
		"FirstContract": {
			"abi": [
				{
					"inputs": [],
					"name": "callNumber",
					"outputs": [
						{
							"internalType": "int256",
							"name": "",
							"type": "int256"
						}
					],
					"stateMutability": "nonpayable",
					"type": "function"
				},
				{
					"inputs": [],
					"name": "isLoading",
					"outputs": [
						{
							"internalType": "bool",
							"name": "",
							"type": "bool"
						}
					],
					"stateMutability": "view",
					"type": "function"
				},
				{
					"inputs": [],
					"name": "uNumber",
					"outputs": [
						{
							"internalType": "uint256",
							"name": "",
							"type": "uint256"
						}
					],
					"stateMutability": "view",
					"type": "function"
				}
			],
			"devdoc": {
				"kind": "dev",
				"methods": {},
				"version": 1
			},
			"evm": {
				"assembly": "    /* \"BNB_Chain_chellange/FirstCont.sol\":60:303  contract FirstContract {\r... */\n  mstore(0x40, 0x80)\n    /* \"BNB_Chain_chellange/FirstCont.sol\":111:115  1000 */\n  0x03e8\n    /* \"BNB_Chain_chellange/FirstCont.sol\":90:115  int private number = 1000 */\n  0x00\n  sstore\n    /* \"BNB_Chain_chellange/FirstCont.sol\":144:147  100 */\n  0x64\n    /* \"BNB_Chain_chellange/FirstCont.sol\":122:147  uint public uNumber = 100 */\n  0x01\n  sstore\n    /* \"BNB_Chain_chellange/FirstCont.sol\":154:181  string private name = \"Tom\" */\n  mload(0x40)\n  dup1\n  0x40\n  add\n  0x40\n  mstore\n  dup1\n  0x03\n  dup2\n  mstore\n  0x20\n  add\n  0x546f6d0000000000000000000000000000000000000000000000000000000000\n  dup2\n  mstore\n  pop\n  0x02\n  swap1\n  dup1\n  mload\n  swap1\n  0x20\n  add\n  swap1\n  tag_1\n  swap3\n  swap2\n  swap1\n  tag_2\n  jump\t// in\ntag_1:\n  pop\n    /* \"BNB_Chain_chellange/FirstCont.sol\":212:216  true */\n  0x01\n    /* \"BNB_Chain_chellange/FirstCont.sol\":188:216  bool public isLoading = true */\n  0x03\n  exp(0x0100, 0x00)\n  dup2\n  sload\n  dup2\n  0xff\n  mul\n  not\n  and\n  swap1\n  dup4\n  iszero\n  iszero\n  mul\n  or\n  swap1\n  sstore\n  pop\n    /* \"BNB_Chain_chellange/FirstCont.sol\":60:303  contract FirstContract {\r... */\n  callvalue\n  dup1\n  iszero\n  tag_3\n  jumpi\n  0x00\n  dup1\n  revert\ntag_3:\n  pop\n  jump(tag_4)\ntag_2:\n  dup3\n  dup1\n  sload\n  tag_5\n  swap1\n  tag_6\n  jump\t// in\ntag_5:\n  swap1\n  0x00\n  mstore\n  keccak256(0x00, 0x20)\n  swap1\n  0x1f\n  add\n  0x20\n  swap1\n  div\n  dup2\n  add\n  swap3\n  dup3\n  tag_8\n  jumpi\n  0x00\n  dup6\n  sstore\n  jump(tag_7)\ntag_8:\n  dup3\n  0x1f\n  lt\n  tag_9\n  jumpi\n  dup1\n  mload\n  not(0xff)\n  and\n  dup4\n  dup1\n  add\n  or\n  dup6\n  sstore\n  jump(tag_7)\ntag_9:\n  dup3\n  dup1\n  add\n  0x01\n  add\n  dup6\n  sstore\n  dup3\n  iszero\n  tag_7\n  jumpi\n  swap2\n  dup3\n  add\ntag_10:\n  dup3\n  dup2\n  gt\n  iszero\n  tag_11\n  jumpi\n  dup3\n  mload\n  dup3\n  sstore\n  swap2\n  0x20\n  add\n  swap2\n  swap1\n  0x01\n  add\n  swap1\n  jump(tag_10)\ntag_11:\ntag_7:\n  pop\n  swap1\n  pop\n  tag_12\n  swap2\n  swap1\n  tag_13\n  jump\t// in\ntag_12:\n  pop\n  swap1\n  jump\t// out\ntag_13:\ntag_14:\n  dup1\n  dup3\n  gt\n  iszero\n  tag_15\n  jumpi\n  0x00\n  dup2\n  0x00\n  swap1\n  sstore\n  pop\n  0x01\n  add\n  jump(tag_14)\ntag_15:\n  pop\n  swap1\n  jump\t// out\n    /* \"#utility.yul\":7:327   */\ntag_6:\n    /* \"#utility.yul\":51:57   */\n  0x00\n    /* \"#utility.yul\":88:89   */\n  0x02\n    /* \"#utility.yul\":82:86   */\n  dup3\n    /* \"#utility.yul\":78:90   */\n  div\n    /* \"#utility.yul\":68:90   */\n  swap1\n  pop\n    /* \"#utility.yul\":135:136   */\n  0x01\n    /* \"#utility.yul\":129:133   */\n  dup3\n    /* \"#utility.yul\":125:137   */\n  and\n    /* \"#utility.yul\":156:174   */\n  dup1\n    /* \"#utility.yul\":146:227   */\n  tag_18\n  jumpi\n    /* \"#utility.yul\":212:216   */\n  0x7f\n    /* \"#utility.yul\":204:210   */\n  dup3\n    /* \"#utility.yul\":200:217   */\n  and\n    /* \"#utility.yul\":190:217   */\n  swap2\n  pop\n    /* \"#utility.yul\":146:227   */\ntag_18:\n    /* \"#utility.yul\":274:276   */\n  0x20\n    /* \"#utility.yul\":266:272   */\n  dup3\n    /* \"#utility.yul\":263:277   */\n  lt\n    /* \"#utility.yul\":243:261   */\n  dup2\n    /* \"#utility.yul\":240:278   */\n  eq\n    /* \"#utility.yul\":237:321   */\n  iszero\n  tag_19\n  jumpi\n    /* \"#utility.yul\":293:311   */\n  tag_20\n  tag_21\n  jump\t// in\ntag_20:\n    /* \"#utility.yul\":237:321   */\ntag_19:\n    /* \"#utility.yul\":58:327   */\n  pop\n    /* \"#utility.yul\":7:327   */\n  swap2\n  swap1\n  pop\n  jump\t// out\n    /* \"#utility.yul\":333:513   */\ntag_21:\n    /* \"#utility.yul\":381:458   */\n  0x4e487b7100000000000000000000000000000000000000000000000000000000\n    /* \"#utility.yul\":378:379   */\n  0x00\n    /* \"#utility.yul\":371:459   */\n  mstore\n    /* \"#utility.yul\":478:482   */\n  0x22\n    /* \"#utility.yul\":475:476   */\n  0x04\n    /* \"#utility.yul\":468:483   */\n  mstore\n    /* \"#utility.yul\":502:506   */\n  0x24\n    /* \"#utility.yul\":499:500   */\n  0x00\n    /* \"#utility.yul\":492:507   */\n  revert\n    /* \"BNB_Chain_chellange/FirstCont.sol\":60:303  contract FirstContract {\r... */\ntag_4:\n  dataSize(sub_0)\n  dup1\n  dataOffset(sub_0)\n  0x00\n  codecopy\n  0x00\n  return\nstop\n\nsub_0: assembly {\n        /* \"BNB_Chain_chellange/FirstCont.sol\":60:303  contract FirstContract {\r... */\n      mstore(0x40, 0x80)\n      callvalue\n      dup1\n      iszero\n      tag_1\n      jumpi\n      0x00\n      dup1\n      revert\n    tag_1:\n      pop\n      jumpi(tag_2, lt(calldatasize, 0x04))\n      shr(0xe0, calldataload(0x00))\n      dup1\n      0x8adfb021\n      eq\n      tag_3\n      jumpi\n      dup1\n      0x9d9b5a52\n      eq\n      tag_4\n      jumpi\n      dup1\n      0xe6683dde\n      eq\n      tag_5\n      jumpi\n    tag_2:\n      0x00\n      dup1\n      revert\n        /* \"BNB_Chain_chellange/FirstCont.sol\":225:298  function callNumber() public returns(int){\r... */\n    tag_3:\n      tag_6\n      tag_7\n      jump\t// in\n    tag_6:\n      mload(0x40)\n      tag_8\n      swap2\n      swap1\n      tag_9\n      jump\t// in\n    tag_8:\n      mload(0x40)\n      dup1\n      swap2\n      sub\n      swap1\n      return\n        /* \"BNB_Chain_chellange/FirstCont.sol\":188:216  bool public isLoading = true */\n    tag_4:\n      tag_10\n      tag_11\n      jump\t// in\n    tag_10:\n      mload(0x40)\n      tag_12\n      swap2\n      swap1\n      tag_13\n      jump\t// in\n    tag_12:\n      mload(0x40)\n      dup1\n      swap2\n      sub\n      swap1\n      return\n        /* \"BNB_Chain_chellange/FirstCont.sol\":122:147  uint public uNumber = 100 */\n    tag_5:\n      tag_14\n      tag_15\n      jump\t// in\n    tag_14:\n      mload(0x40)\n      tag_16\n      swap2\n      swap1\n      tag_17\n      jump\t// in\n    tag_16:\n      mload(0x40)\n      dup1\n      swap2\n      sub\n      swap1\n      return\n        /* \"BNB_Chain_chellange/FirstCont.sol\":225:298  function callNumber() public returns(int){\r... */\n    tag_7:\n        /* \"BNB_Chain_chellange/FirstCont.sol\":262:265  int */\n      0x00\n        /* \"BNB_Chain_chellange/FirstCont.sol\":284:290  number */\n      dup1\n      sload\n        /* \"BNB_Chain_chellange/FirstCont.sol\":277:290  return number */\n      swap1\n      pop\n        /* \"BNB_Chain_chellange/FirstCont.sol\":225:298  function callNumber() public returns(int){\r... */\n      swap1\n      jump\t// out\n        /* \"BNB_Chain_chellange/FirstCont.sol\":188:216  bool public isLoading = true */\n    tag_11:\n      0x03\n      0x00\n      swap1\n      sload\n      swap1\n      0x0100\n      exp\n      swap1\n      div\n      0xff\n      and\n      dup2\n      jump\t// out\n        /* \"BNB_Chain_chellange/FirstCont.sol\":122:147  uint public uNumber = 100 */\n    tag_15:\n      sload(0x01)\n      dup2\n      jump\t// out\n        /* \"#utility.yul\":7:116   */\n    tag_20:\n        /* \"#utility.yul\":88:109   */\n      tag_22\n        /* \"#utility.yul\":103:108   */\n      dup2\n        /* \"#utility.yul\":88:109   */\n      tag_23\n      jump\t// in\n    tag_22:\n        /* \"#utility.yul\":83:86   */\n      dup3\n        /* \"#utility.yul\":76:110   */\n      mstore\n        /* \"#utility.yul\":7:116   */\n      pop\n      pop\n      jump\t// out\n        /* \"#utility.yul\":122:237   */\n    tag_24:\n        /* \"#utility.yul\":207:230   */\n      tag_26\n        /* \"#utility.yul\":224:229   */\n      dup2\n        /* \"#utility.yul\":207:230   */\n      tag_27\n      jump\t// in\n    tag_26:\n        /* \"#utility.yul\":202:205   */\n      dup3\n        /* \"#utility.yul\":195:231   */\n      mstore\n        /* \"#utility.yul\":122:237   */\n      pop\n      pop\n      jump\t// out\n        /* \"#utility.yul\":243:361   */\n    tag_28:\n        /* \"#utility.yul\":330:354   */\n      tag_30\n        /* \"#utility.yul\":348:353   */\n      dup2\n        /* \"#utility.yul\":330:354   */\n      tag_31\n      jump\t// in\n    tag_30:\n        /* \"#utility.yul\":325:328   */\n      dup3\n        /* \"#utility.yul\":318:355   */\n      mstore\n        /* \"#utility.yul\":243:361   */\n      pop\n      pop\n      jump\t// out\n        /* \"#utility.yul\":367:577   */\n    tag_13:\n        /* \"#utility.yul\":454:458   */\n      0x00\n        /* \"#utility.yul\":492:494   */\n      0x20\n        /* \"#utility.yul\":481:490   */\n      dup3\n        /* \"#utility.yul\":477:495   */\n      add\n        /* \"#utility.yul\":469:495   */\n      swap1\n      pop\n        /* \"#utility.yul\":505:570   */\n      tag_33\n        /* \"#utility.yul\":567:568   */\n      0x00\n        /* \"#utility.yul\":556:565   */\n      dup4\n        /* \"#utility.yul\":552:569   */\n      add\n        /* \"#utility.yul\":543:549   */\n      dup5\n        /* \"#utility.yul\":505:570   */\n      tag_20\n      jump\t// in\n    tag_33:\n        /* \"#utility.yul\":367:577   */\n      swap3\n      swap2\n      pop\n      pop\n      jump\t// out\n        /* \"#utility.yul\":583:801   */\n    tag_9:\n        /* \"#utility.yul\":674:678   */\n      0x00\n        /* \"#utility.yul\":712:714   */\n      0x20\n        /* \"#utility.yul\":701:710   */\n      dup3\n        /* \"#utility.yul\":697:715   */\n      add\n        /* \"#utility.yul\":689:715   */\n      swap1\n      pop\n        /* \"#utility.yul\":725:794   */\n      tag_35\n        /* \"#utility.yul\":791:792   */\n      0x00\n        /* \"#utility.yul\":780:789   */\n      dup4\n        /* \"#utility.yul\":776:793   */\n      add\n        /* \"#utility.yul\":767:773   */\n      dup5\n        /* \"#utility.yul\":725:794   */\n      tag_24\n      jump\t// in\n    tag_35:\n        /* \"#utility.yul\":583:801   */\n      swap3\n      swap2\n      pop\n      pop\n      jump\t// out\n        /* \"#utility.yul\":807:1029   */\n    tag_17:\n        /* \"#utility.yul\":900:904   */\n      0x00\n        /* \"#utility.yul\":938:940   */\n      0x20\n        /* \"#utility.yul\":927:936   */\n      dup3\n        /* \"#utility.yul\":923:941   */\n      add\n        /* \"#utility.yul\":915:941   */\n      swap1\n      pop\n        /* \"#utility.yul\":951:1022   */\n      tag_37\n        /* \"#utility.yul\":1019:1020   */\n      0x00\n        /* \"#utility.yul\":1008:1017   */\n      dup4\n        /* \"#utility.yul\":1004:1021   */\n      add\n        /* \"#utility.yul\":995:1001   */\n      dup5\n        /* \"#utility.yul\":951:1022   */\n      tag_28\n      jump\t// in\n    tag_37:\n        /* \"#utility.yul\":807:1029   */\n      swap3\n      swap2\n      pop\n      pop\n      jump\t// out\n        /* \"#utility.yul\":1035:1125   */\n    tag_23:\n        /* \"#utility.yul\":1069:1076   */\n      0x00\n        /* \"#utility.yul\":1112:1117   */\n      dup2\n        /* \"#utility.yul\":1105:1118   */\n      iszero\n        /* \"#utility.yul\":1098:1119   */\n      iszero\n        /* \"#utility.yul\":1087:1119   */\n      swap1\n      pop\n        /* \"#utility.yul\":1035:1125   */\n      swap2\n      swap1\n      pop\n      jump\t// out\n        /* \"#utility.yul\":1131:1207   */\n    tag_27:\n        /* \"#utility.yul\":1167:1174   */\n      0x00\n        /* \"#utility.yul\":1196:1201   */\n      dup2\n        /* \"#utility.yul\":1185:1201   */\n      swap1\n      pop\n        /* \"#utility.yul\":1131:1207   */\n      swap2\n      swap1\n      pop\n      jump\t// out\n        /* \"#utility.yul\":1213:1290   */\n    tag_31:\n        /* \"#utility.yul\":1250:1257   */\n      0x00\n        /* \"#utility.yul\":1279:1284   */\n      dup2\n        /* \"#utility.yul\":1268:1284   */\n      swap1\n      pop\n        /* \"#utility.yul\":1213:1290   */\n      swap2\n      swap1\n      pop\n      jump\t// out\n\n    auxdata: 0xa2646970667358221220a1faa4408455028c0768f363b527534ddda5eec567bf50fe0f01e89d61d5744964736f6c63430008070033\n}\n",
				"bytecode": {
					"linkReferences": {},
					"object": "60806040526103e860005560646001556040518060400160405280600381526020017f546f6d00000000000000000000000000000000000000000000000000000000008152506002908051906020019061005a929190610088565b506001600360006101000a81548160ff02191690831515021790555034801561008257600080fd5b5061018c565b8280546100949061012b565b90600052602060002090601f0160209004810192826100b657600085556100fd565b82601f106100cf57805160ff19168380011785556100fd565b828001600101855582156100fd579182015b828111156100fc5782518255916020019190600101906100e1565b5b50905061010a919061010e565b5090565b5b8082111561012757600081600090555060010161010f565b5090565b6000600282049050600182168061014357607f821691505b602082108114156101575761015661015d565b5b50919050565b7f4e487b7100000000000000000000000000000000000000000000000000000000600052602260045260246000fd5b6101968061019b6000396000f3fe608060405234801561001057600080fd5b50600436106100415760003560e01c80638adfb021146100465780639d9b5a5214610064578063e6683dde14610082575b600080fd5b61004e6100a0565b60405161005b919061010a565b60405180910390f35b61006c6100a9565b60405161007991906100ef565b60405180910390f35b61008a6100bc565b6040516100979190610125565b60405180910390f35b60008054905090565b600360009054906101000a900460ff1681565b60015481565b6100cb81610140565b82525050565b6100da8161014c565b82525050565b6100e981610156565b82525050565b600060208201905061010460008301846100c2565b92915050565b600060208201905061011f60008301846100d1565b92915050565b600060208201905061013a60008301846100e0565b92915050565b60008115159050919050565b6000819050919050565b600081905091905056fea2646970667358221220a1faa4408455028c0768f363b527534ddda5eec567bf50fe0f01e89d61d5744964736f6c63430008070033",
					"opcodes": "PUSH1 0x80 PUSH1 0x40 MSTORE PUSH2 0x3E8 PUSH1 0x0 SSTORE PUSH1 0x64 PUSH1 0x1 SSTORE PUSH1 0x40 MLOAD DUP1 PUSH1 0x40 ADD PUSH1 0x40 MSTORE DUP1 PUSH1 0x3 DUP2 MSTORE PUSH1 0x20 ADD PUSH32 0x546F6D0000000000000000000000000000000000000000000000000000000000 DUP2 MSTORE POP PUSH1 0x2 SWAP1 DUP1 MLOAD SWAP1 PUSH1 0x20 ADD SWAP1 PUSH2 0x5A SWAP3 SWAP2 SWAP1 PUSH2 0x88 JUMP JUMPDEST POP PUSH1 0x1 PUSH1 0x3 PUSH1 0x0 PUSH2 0x100 EXP DUP2 SLOAD DUP2 PUSH1 0xFF MUL NOT AND SWAP1 DUP4 ISZERO ISZERO MUL OR SWAP1 SSTORE POP CALLVALUE DUP1 ISZERO PUSH2 0x82 JUMPI PUSH1 0x0 DUP1 REVERT JUMPDEST POP PUSH2 0x18C JUMP JUMPDEST DUP3 DUP1 SLOAD PUSH2 0x94 SWAP1 PUSH2 0x12B JUMP JUMPDEST SWAP1 PUSH1 0x0 MSTORE PUSH1 0x20 PUSH1 0x0 KECCAK256 SWAP1 PUSH1 0x1F ADD PUSH1 0x20 SWAP1 DIV DUP2 ADD SWAP3 DUP3 PUSH2 0xB6 JUMPI PUSH1 0x0 DUP6 SSTORE PUSH2 0xFD JUMP JUMPDEST DUP3 PUSH1 0x1F LT PUSH2 0xCF JUMPI DUP1 MLOAD PUSH1 0xFF NOT AND DUP4 DUP1 ADD OR DUP6 SSTORE PUSH2 0xFD JUMP JUMPDEST DUP3 DUP1 ADD PUSH1 0x1 ADD DUP6 SSTORE DUP3 ISZERO PUSH2 0xFD JUMPI SWAP2 DUP3 ADD JUMPDEST DUP3 DUP2 GT ISZERO PUSH2 0xFC JUMPI DUP3 MLOAD DUP3 SSTORE SWAP2 PUSH1 0x20 ADD SWAP2 SWAP1 PUSH1 0x1 ADD SWAP1 PUSH2 0xE1 JUMP JUMPDEST JUMPDEST POP SWAP1 POP PUSH2 0x10A SWAP2 SWAP1 PUSH2 0x10E JUMP JUMPDEST POP SWAP1 JUMP JUMPDEST JUMPDEST DUP1 DUP3 GT ISZERO PUSH2 0x127 JUMPI PUSH1 0x0 DUP2 PUSH1 0x0 SWAP1 SSTORE POP PUSH1 0x1 ADD PUSH2 0x10F JUMP JUMPDEST POP SWAP1 JUMP JUMPDEST PUSH1 0x0 PUSH1 0x2 DUP3 DIV SWAP1 POP PUSH1 0x1 DUP3 AND DUP1 PUSH2 0x143 JUMPI PUSH1 0x7F DUP3 AND SWAP2 POP JUMPDEST PUSH1 0x20 DUP3 LT DUP2 EQ ISZERO PUSH2 0x157 JUMPI PUSH2 0x156 PUSH2 0x15D JUMP JUMPDEST JUMPDEST POP SWAP2 SWAP1 POP JUMP JUMPDEST PUSH32 0x4E487B7100000000000000000000000000000000000000000000000000000000 PUSH1 0x0 MSTORE PUSH1 0x22 PUSH1 0x4 MSTORE PUSH1 0x24 PUSH1 0x0 REVERT JUMPDEST PUSH2 0x196 DUP1 PUSH2 0x19B PUSH1 0x0 CODECOPY PUSH1 0x0 RETURN INVALID PUSH1 0x80 PUSH1 0x40 MSTORE CALLVALUE DUP1 ISZERO PUSH2 0x10 JUMPI PUSH1 0x0 DUP1 REVERT JUMPDEST POP PUSH1 0x4 CALLDATASIZE LT PUSH2 0x41 JUMPI PUSH1 0x0 CALLDATALOAD PUSH1 0xE0 SHR DUP1 PUSH4 0x8ADFB021 EQ PUSH2 0x46 JUMPI DUP1 PUSH4 0x9D9B5A52 EQ PUSH2 0x64 JUMPI DUP1 PUSH4 0xE6683DDE EQ PUSH2 0x82 JUMPI JUMPDEST PUSH1 0x0 DUP1 REVERT JUMPDEST PUSH2 0x4E PUSH2 0xA0 JUMP JUMPDEST PUSH1 0x40 MLOAD PUSH2 0x5B SWAP2 SWAP1 PUSH2 0x10A JUMP JUMPDEST PUSH1 0x40 MLOAD DUP1 SWAP2 SUB SWAP1 RETURN JUMPDEST PUSH2 0x6C PUSH2 0xA9 JUMP JUMPDEST PUSH1 0x40 MLOAD PUSH2 0x79 SWAP2 SWAP1 PUSH2 0xEF JUMP JUMPDEST PUSH1 0x40 MLOAD DUP1 SWAP2 SUB SWAP1 RETURN JUMPDEST PUSH2 0x8A PUSH2 0xBC JUMP JUMPDEST PUSH1 0x40 MLOAD PUSH2 0x97 SWAP2 SWAP1 PUSH2 0x125 JUMP JUMPDEST PUSH1 0x40 MLOAD DUP1 SWAP2 SUB SWAP1 RETURN JUMPDEST PUSH1 0x0 DUP1 SLOAD SWAP1 POP SWAP1 JUMP JUMPDEST PUSH1 0x3 PUSH1 0x0 SWAP1 SLOAD SWAP1 PUSH2 0x100 EXP SWAP1 DIV PUSH1 0xFF AND DUP2 JUMP JUMPDEST PUSH1 0x1 SLOAD DUP2 JUMP JUMPDEST PUSH2 0xCB DUP2 PUSH2 0x140 JUMP JUMPDEST DUP3 MSTORE POP POP JUMP JUMPDEST PUSH2 0xDA DUP2 PUSH2 0x14C JUMP JUMPDEST DUP3 MSTORE POP POP JUMP JUMPDEST PUSH2 0xE9 DUP2 PUSH2 0x156 JUMP JUMPDEST DUP3 MSTORE POP POP JUMP JUMPDEST PUSH1 0x0 PUSH1 0x20 DUP3 ADD SWAP1 POP PUSH2 0x104 PUSH1 0x0 DUP4 ADD DUP5 PUSH2 0xC2 JUMP JUMPDEST SWAP3 SWAP2 POP POP JUMP JUMPDEST PUSH1 0x0 PUSH1 0x20 DUP3 ADD SWAP1 POP PUSH2 0x11F PUSH1 0x0 DUP4 ADD DUP5 PUSH2 0xD1 JUMP JUMPDEST SWAP3 SWAP2 POP POP JUMP JUMPDEST PUSH1 0x0 PUSH1 0x20 DUP3 ADD SWAP1 POP PUSH2 0x13A PUSH1 0x0 DUP4 ADD DUP5 PUSH2 0xE0 JUMP JUMPDEST SWAP3 SWAP2 POP POP JUMP JUMPDEST PUSH1 0x0 DUP2 ISZERO ISZERO SWAP1 POP SWAP2 SWAP1 POP JUMP JUMPDEST PUSH1 0x0 DUP2 SWAP1 POP SWAP2 SWAP1 POP JUMP JUMPDEST PUSH1 0x0 DUP2 SWAP1 POP SWAP2 SWAP1 POP JUMP INVALID LOG2 PUSH5 0x6970667358 0x22 SLT KECCAK256 LOG1 STATICCALL LOG4 BLOCKHASH DUP5 SSTORE MUL DUP13 SMOD PUSH9 0xF363B527534DDDA5EE 0xC5 PUSH8 0xBF50FE0F01E89D61 0xD5 PUSH21 0x4964736F6C63430008070033000000000000000000 "
				},
				"gasEstimates": {
					"creation": {
						"codeDepositCost": "81200",
						"executionCost": "infinite",
						"totalCost": "infinite"
					},
					"external": {
						"callNumber()": "2415",
						"isLoading()": "2471",
						"uNumber()": "2451"
					}
				},
				"methodIdentifiers": {
					"callNumber()": "8adfb021",
					"isLoading()": "9d9b5a52",
					"uNumber()": "e6683dde"
				}
			},
			"storageLayout": {
				"storage": [
					{
						"astId": 4,
						"contract": "BNB_Chain_chellange/FirstCont.sol:FirstContract",
						"label": "number",
						"offset": 0,
						"slot": "0",
						"type": "t_int256"
					},
					{
						"astId": 7,
						"contract": "BNB_Chain_chellange/FirstCont.sol:FirstContract",
						"label": "uNumber",
						"offset": 0,
						"slot": "1",
						"type": "t_uint256"
					},
					{
						"astId": 10,
						"contract": "BNB_Chain_chellange/FirstCont.sol:FirstContract",
						"label": "name",
						"offset": 0,
						"slot": "2",
						"type": "t_string_storage"
					},
					{
						"astId": 13,
						"contract": "BNB_Chain_chellange/FirstCont.sol:FirstContract",
						"label": "isLoading",
						"offset": 0,
						"slot": "3",
						"type": "t_bool"
					}
				],
				"types": {
					"t_bool": {
						"encoding": "inplace",
						"label": "bool",
						"numberOfBytes": "1"
					},
					"t_int256": {
						"encoding": "inplace",
						"label": "int256",
						"numberOfBytes": "32"
					},
					"t_string_storage": {
						"encoding": "bytes",
						"label": "string",
						"numberOfBytes": "32"
					},
					"t_uint256": {
						"encoding": "inplace",
						"label": "uint256",
						"numberOfBytes": "32"
					}
				}
			},
			"userdoc": {
				"kind": "user",
				"methods": {},
				"version": 1
			}
		}
	}
}