{
	"BNB_Chain_chellange/FirstCont.sol": {
		"FirstContract": {
			"abi": [
				{
					"inputs": [],
					"name": "addOne",
					"outputs": [],
					"stateMutability": "nonpayable",
					"type": "function"
				},
				{
					"inputs": [
						{
							"internalType": "int256",
							"name": "_addNum",
							"type": "int256"
						}
					],
					"name": "addx",
					"outputs": [],
					"stateMutability": "nonpayable",
					"type": "function"
				},
				{
					"inputs": [],
					"name": "callNumber",
					"outputs": [
						{
							"internalType": "int256",
							"name": "",
							"type": "int256"
						}
					],
					"stateMutability": "view",
					"type": "function"
				},
				{
					"inputs": [],
					"name": "isLoading",
					"outputs": [
						{
							"internalType": "bool",
							"name": "",
							"type": "bool"
						}
					],
					"stateMutability": "view",
					"type": "function"
				},
				{
					"inputs": [],
					"name": "uNumber",
					"outputs": [
						{
							"internalType": "uint256",
							"name": "",
							"type": "uint256"
						}
					],
					"stateMutability": "view",
					"type": "function"
				}
			],
			"devdoc": {
				"kind": "dev",
				"methods": {},
				"version": 1
			},
			"evm": {
				"assembly": "    /* \"BNB_Chain_chellange/FirstCont.sol\":60:418  contract FirstContract {\r... */\n  mstore(0x40, 0x80)\n    /* \"BNB_Chain_chellange/FirstCont.sol\":111:115  1000 */\n  0x03e8\n    /* \"BNB_Chain_chellange/FirstCont.sol\":90:115  int private number = 1000 */\n  0x00\n  sstore\n    /* \"BNB_Chain_chellange/FirstCont.sol\":144:147  100 */\n  0x64\n    /* \"BNB_Chain_chellange/FirstCont.sol\":122:147  uint public uNumber = 100 */\n  0x01\n  sstore\n    /* \"BNB_Chain_chellange/FirstCont.sol\":154:181  string private name = \"Tom\" */\n  mload(0x40)\n  dup1\n  0x40\n  add\n  0x40\n  mstore\n  dup1\n  0x03\n  dup2\n  mstore\n  0x20\n  add\n  0x546f6d0000000000000000000000000000000000000000000000000000000000\n  dup2\n  mstore\n  pop\n  0x02\n  swap1\n  dup1\n  mload\n  swap1\n  0x20\n  add\n  swap1\n  tag_1\n  swap3\n  swap2\n  swap1\n  tag_2\n  jump\t// in\ntag_1:\n  pop\n    /* \"BNB_Chain_chellange/FirstCont.sol\":212:216  true */\n  0x01\n    /* \"BNB_Chain_chellange/FirstCont.sol\":188:216  bool public isLoading = true */\n  0x03\n  exp(0x0100, 0x00)\n  dup2\n  sload\n  dup2\n  0xff\n  mul\n  not\n  and\n  swap1\n  dup4\n  iszero\n  iszero\n  mul\n  or\n  swap1\n  sstore\n  pop\n    /* \"BNB_Chain_chellange/FirstCont.sol\":60:418  contract FirstContract {\r... */\n  callvalue\n  dup1\n  iszero\n  tag_3\n  jumpi\n  0x00\n  dup1\n  revert\ntag_3:\n  pop\n  jump(tag_4)\ntag_2:\n  dup3\n  dup1\n  sload\n  tag_5\n  swap1\n  tag_6\n  jump\t// in\ntag_5:\n  swap1\n  0x00\n  mstore\n  keccak256(0x00, 0x20)\n  swap1\n  0x1f\n  add\n  0x20\n  swap1\n  div\n  dup2\n  add\n  swap3\n  dup3\n  tag_8\n  jumpi\n  0x00\n  dup6\n  sstore\n  jump(tag_7)\ntag_8:\n  dup3\n  0x1f\n  lt\n  tag_9\n  jumpi\n  dup1\n  mload\n  not(0xff)\n  and\n  dup4\n  dup1\n  add\n  or\n  dup6\n  sstore\n  jump(tag_7)\ntag_9:\n  dup3\n  dup1\n  add\n  0x01\n  add\n  dup6\n  sstore\n  dup3\n  iszero\n  tag_7\n  jumpi\n  swap2\n  dup3\n  add\ntag_10:\n  dup3\n  dup2\n  gt\n  iszero\n  tag_11\n  jumpi\n  dup3\n  mload\n  dup3\n  sstore\n  swap2\n  0x20\n  add\n  swap2\n  swap1\n  0x01\n  add\n  swap1\n  jump(tag_10)\ntag_11:\ntag_7:\n  pop\n  swap1\n  pop\n  tag_12\n  swap2\n  swap1\n  tag_13\n  jump\t// in\ntag_12:\n  pop\n  swap1\n  jump\t// out\ntag_13:\ntag_14:\n  dup1\n  dup3\n  gt\n  iszero\n  tag_15\n  jumpi\n  0x00\n  dup2\n  0x00\n  swap1\n  sstore\n  pop\n  0x01\n  add\n  jump(tag_14)\ntag_15:\n  pop\n  swap1\n  jump\t// out\n    /* \"#utility.yul\":7:327   */\ntag_6:\n    /* \"#utility.yul\":51:57   */\n  0x00\n    /* \"#utility.yul\":88:89   */\n  0x02\n    /* \"#utility.yul\":82:86   */\n  dup3\n    /* \"#utility.yul\":78:90   */\n  div\n    /* \"#utility.yul\":68:90   */\n  swap1\n  pop\n    /* \"#utility.yul\":135:136   */\n  0x01\n    /* \"#utility.yul\":129:133   */\n  dup3\n    /* \"#utility.yul\":125:137   */\n  and\n    /* \"#utility.yul\":156:174   */\n  dup1\n    /* \"#utility.yul\":146:227   */\n  tag_18\n  jumpi\n    /* \"#utility.yul\":212:216   */\n  0x7f\n    /* \"#utility.yul\":204:210   */\n  dup3\n    /* \"#utility.yul\":200:217   */\n  and\n    /* \"#utility.yul\":190:217   */\n  swap2\n  pop\n    /* \"#utility.yul\":146:227   */\ntag_18:\n    /* \"#utility.yul\":274:276   */\n  0x20\n    /* \"#utility.yul\":266:272   */\n  dup3\n    /* \"#utility.yul\":263:277   */\n  lt\n    /* \"#utility.yul\":243:261   */\n  dup2\n    /* \"#utility.yul\":240:278   */\n  eq\n    /* \"#utility.yul\":237:321   */\n  iszero\n  tag_19\n  jumpi\n    /* \"#utility.yul\":293:311   */\n  tag_20\n  tag_21\n  jump\t// in\ntag_20:\n    /* \"#utility.yul\":237:321   */\ntag_19:\n    /* \"#utility.yul\":58:327   */\n  pop\n    /* \"#utility.yul\":7:327   */\n  swap2\n  swap1\n  pop\n  jump\t// out\n    /* \"#utility.yul\":333:513   */\ntag_21:\n    /* \"#utility.yul\":381:458   */\n  0x4e487b7100000000000000000000000000000000000000000000000000000000\n    /* \"#utility.yul\":378:379   */\n  0x00\n    /* \"#utility.yul\":371:459   */\n  mstore\n    /* \"#utility.yul\":478:482   */\n  0x22\n    /* \"#utility.yul\":475:476   */\n  0x04\n    /* \"#utility.yul\":468:483   */\n  mstore\n    /* \"#utility.yul\":502:506   */\n  0x24\n    /* \"#utility.yul\":499:500   */\n  0x00\n    /* \"#utility.yul\":492:507   */\n  revert\n    /* \"BNB_Chain_chellange/FirstCont.sol\":60:418  contract FirstContract {\r... */\ntag_4:\n  dataSize(sub_0)\n  dup1\n  dataOffset(sub_0)\n  0x00\n  codecopy\n  0x00\n  return\nstop\n\nsub_0: assembly {\n        /* \"BNB_Chain_chellange/FirstCont.sol\":60:418  contract FirstContract {\r... */\n      mstore(0x40, 0x80)\n      callvalue\n      dup1\n      iszero\n      tag_1\n      jumpi\n      0x00\n      dup1\n      revert\n    tag_1:\n      pop\n      jumpi(tag_2, lt(calldatasize, 0x04))\n      shr(0xe0, calldataload(0x00))\n      dup1\n      0x6057d3ee\n      eq\n      tag_3\n      jumpi\n      dup1\n      0x8adfb021\n      eq\n      tag_4\n      jumpi\n      dup1\n      0x9d9b5a52\n      eq\n      tag_5\n      jumpi\n      dup1\n      0xe6683dde\n      eq\n      tag_6\n      jumpi\n      dup1\n      0xe9f6129b\n      eq\n      tag_7\n      jumpi\n    tag_2:\n      0x00\n      dup1\n      revert\n        /* \"BNB_Chain_chellange/FirstCont.sol\":311:373  function addOne() public{\r... */\n    tag_3:\n      tag_8\n      tag_9\n      jump\t// in\n    tag_8:\n      stop\n        /* \"BNB_Chain_chellange/FirstCont.sol\":225:303  function callNumber() public view returns(int){\r... */\n    tag_4:\n      tag_10\n      tag_11\n      jump\t// in\n    tag_10:\n      mload(0x40)\n      tag_12\n      swap2\n      swap1\n      tag_13\n      jump\t// in\n    tag_12:\n      mload(0x40)\n      dup1\n      swap2\n      sub\n      swap1\n      return\n        /* \"BNB_Chain_chellange/FirstCont.sol\":188:216  bool public isLoading = true */\n    tag_5:\n      tag_14\n      tag_15\n      jump\t// in\n    tag_14:\n      mload(0x40)\n      tag_16\n      swap2\n      swap1\n      tag_17\n      jump\t// in\n    tag_16:\n      mload(0x40)\n      dup1\n      swap2\n      sub\n      swap1\n      return\n        /* \"BNB_Chain_chellange/FirstCont.sol\":122:147  uint public uNumber = 100 */\n    tag_6:\n      tag_18\n      tag_19\n      jump\t// in\n    tag_18:\n      mload(0x40)\n      tag_20\n      swap2\n      swap1\n      tag_21\n      jump\t// in\n    tag_20:\n      mload(0x40)\n      dup1\n      swap2\n      sub\n      swap1\n      return\n        /* \"BNB_Chain_chellange/FirstCont.sol\":379:415  function addx(int _addNum) public {} */\n    tag_7:\n      tag_22\n      0x04\n      dup1\n      calldatasize\n      sub\n      dup2\n      add\n      swap1\n      tag_23\n      swap2\n      swap1\n      tag_24\n      jump\t// in\n    tag_23:\n      tag_25\n      jump\t// in\n    tag_22:\n      stop\n        /* \"BNB_Chain_chellange/FirstCont.sol\":311:373  function addOne() public{\r... */\n    tag_9:\n        /* \"BNB_Chain_chellange/FirstCont.sol\":364:365  1 */\n      0x01\n        /* \"BNB_Chain_chellange/FirstCont.sol\":355:361  number */\n      sload(0x00)\n        /* \"BNB_Chain_chellange/FirstCont.sol\":355:365  number + 1 */\n      tag_27\n      swap2\n      swap1\n      tag_28\n      jump\t// in\n    tag_27:\n        /* \"BNB_Chain_chellange/FirstCont.sol\":346:352  number */\n      0x00\n        /* \"BNB_Chain_chellange/FirstCont.sol\":346:365  number = number + 1 */\n      dup2\n      swap1\n      sstore\n      pop\n        /* \"BNB_Chain_chellange/FirstCont.sol\":311:373  function addOne() public{\r... */\n      jump\t// out\n        /* \"BNB_Chain_chellange/FirstCont.sol\":225:303  function callNumber() public view returns(int){\r... */\n    tag_11:\n        /* \"BNB_Chain_chellange/FirstCont.sol\":267:270  int */\n      0x00\n        /* \"BNB_Chain_chellange/FirstCont.sol\":289:295  number */\n      dup1\n      sload\n        /* \"BNB_Chain_chellange/FirstCont.sol\":282:295  return number */\n      swap1\n      pop\n        /* \"BNB_Chain_chellange/FirstCont.sol\":225:303  function callNumber() public view returns(int){\r... */\n      swap1\n      jump\t// out\n        /* \"BNB_Chain_chellange/FirstCont.sol\":188:216  bool public isLoading = true */\n    tag_15:\n      0x03\n      0x00\n      swap1\n      sload\n      swap1\n      0x0100\n      exp\n      swap1\n      div\n      0xff\n      and\n      dup2\n      jump\t// out\n        /* \"BNB_Chain_chellange/FirstCont.sol\":122:147  uint public uNumber = 100 */\n    tag_19:\n      sload(0x01)\n      dup2\n      jump\t// out\n        /* \"BNB_Chain_chellange/FirstCont.sol\":379:415  function addx(int _addNum) public {} */\n    tag_25:\n      pop\n      jump\t// out\n        /* \"#utility.yul\":7:144   */\n    tag_32:\n        /* \"#utility.yul\":52:57   */\n      0x00\n        /* \"#utility.yul\":90:96   */\n      dup2\n        /* \"#utility.yul\":77:97   */\n      calldataload\n        /* \"#utility.yul\":68:97   */\n      swap1\n      pop\n        /* \"#utility.yul\":106:138   */\n      tag_34\n        /* \"#utility.yul\":132:137   */\n      dup2\n        /* \"#utility.yul\":106:138   */\n      tag_35\n      jump\t// in\n    tag_34:\n        /* \"#utility.yul\":7:144   */\n      swap3\n      swap2\n      pop\n      pop\n      jump\t// out\n        /* \"#utility.yul\":150:477   */\n    tag_24:\n        /* \"#utility.yul\":208:214   */\n      0x00\n        /* \"#utility.yul\":257:259   */\n      0x20\n        /* \"#utility.yul\":245:254   */\n      dup3\n        /* \"#utility.yul\":236:243   */\n      dup5\n        /* \"#utility.yul\":232:255   */\n      sub\n        /* \"#utility.yul\":228:260   */\n      slt\n        /* \"#utility.yul\":225:344   */\n      iszero\n      tag_37\n      jumpi\n        /* \"#utility.yul\":263:342   */\n      tag_38\n      tag_39\n      jump\t// in\n    tag_38:\n        /* \"#utility.yul\":225:344   */\n    tag_37:\n        /* \"#utility.yul\":383:384   */\n      0x00\n        /* \"#utility.yul\":408:460   */\n      tag_40\n        /* \"#utility.yul\":452:459   */\n      dup5\n        /* \"#utility.yul\":443:449   */\n      dup3\n        /* \"#utility.yul\":432:441   */\n      dup6\n        /* \"#utility.yul\":428:450   */\n      add\n        /* \"#utility.yul\":408:460   */\n      tag_32\n      jump\t// in\n    tag_40:\n        /* \"#utility.yul\":398:460   */\n      swap2\n      pop\n        /* \"#utility.yul\":354:470   */\n      pop\n        /* \"#utility.yul\":150:477   */\n      swap3\n      swap2\n      pop\n      pop\n      jump\t// out\n        /* \"#utility.yul\":483:592   */\n    tag_41:\n        /* \"#utility.yul\":564:585   */\n      tag_43\n        /* \"#utility.yul\":579:584   */\n      dup2\n        /* \"#utility.yul\":564:585   */\n      tag_44\n      jump\t// in\n    tag_43:\n        /* \"#utility.yul\":559:562   */\n      dup3\n        /* \"#utility.yul\":552:586   */\n      mstore\n        /* \"#utility.yul\":483:592   */\n      pop\n      pop\n      jump\t// out\n        /* \"#utility.yul\":598:713   */\n    tag_45:\n        /* \"#utility.yul\":683:706   */\n      tag_47\n        /* \"#utility.yul\":700:705   */\n      dup2\n        /* \"#utility.yul\":683:706   */\n      tag_48\n      jump\t// in\n    tag_47:\n        /* \"#utility.yul\":678:681   */\n      dup3\n        /* \"#utility.yul\":671:707   */\n      mstore\n        /* \"#utility.yul\":598:713   */\n      pop\n      pop\n      jump\t// out\n        /* \"#utility.yul\":719:837   */\n    tag_49:\n        /* \"#utility.yul\":806:830   */\n      tag_51\n        /* \"#utility.yul\":824:829   */\n      dup2\n        /* \"#utility.yul\":806:830   */\n      tag_52\n      jump\t// in\n    tag_51:\n        /* \"#utility.yul\":801:804   */\n      dup3\n        /* \"#utility.yul\":794:831   */\n      mstore\n        /* \"#utility.yul\":719:837   */\n      pop\n      pop\n      jump\t// out\n        /* \"#utility.yul\":843:1053   */\n    tag_17:\n        /* \"#utility.yul\":930:934   */\n      0x00\n        /* \"#utility.yul\":968:970   */\n      0x20\n        /* \"#utility.yul\":957:966   */\n      dup3\n        /* \"#utility.yul\":953:971   */\n      add\n        /* \"#utility.yul\":945:971   */\n      swap1\n      pop\n        /* \"#utility.yul\":981:1046   */\n      tag_54\n        /* \"#utility.yul\":1043:1044   */\n      0x00\n        /* \"#utility.yul\":1032:1041   */\n      dup4\n        /* \"#utility.yul\":1028:1045   */\n      add\n        /* \"#utility.yul\":1019:1025   */\n      dup5\n        /* \"#utility.yul\":981:1046   */\n      tag_41\n      jump\t// in\n    tag_54:\n        /* \"#utility.yul\":843:1053   */\n      swap3\n      swap2\n      pop\n      pop\n      jump\t// out\n        /* \"#utility.yul\":1059:1277   */\n    tag_13:\n        /* \"#utility.yul\":1150:1154   */\n      0x00\n        /* \"#utility.yul\":1188:1190   */\n      0x20\n        /* \"#utility.yul\":1177:1186   */\n      dup3\n        /* \"#utility.yul\":1173:1191   */\n      add\n        /* \"#utility.yul\":1165:1191   */\n      swap1\n      pop\n        /* \"#utility.yul\":1201:1270   */\n      tag_56\n        /* \"#utility.yul\":1267:1268   */\n      0x00\n        /* \"#utility.yul\":1256:1265   */\n      dup4\n        /* \"#utility.yul\":1252:1269   */\n      add\n        /* \"#utility.yul\":1243:1249   */\n      dup5\n        /* \"#utility.yul\":1201:1270   */\n      tag_45\n      jump\t// in\n    tag_56:\n        /* \"#utility.yul\":1059:1277   */\n      swap3\n      swap2\n      pop\n      pop\n      jump\t// out\n        /* \"#utility.yul\":1283:1505   */\n    tag_21:\n        /* \"#utility.yul\":1376:1380   */\n      0x00\n        /* \"#utility.yul\":1414:1416   */\n      0x20\n        /* \"#utility.yul\":1403:1412   */\n      dup3\n        /* \"#utility.yul\":1399:1417   */\n      add\n        /* \"#utility.yul\":1391:1417   */\n      swap1\n      pop\n        /* \"#utility.yul\":1427:1498   */\n      tag_58\n        /* \"#utility.yul\":1495:1496   */\n      0x00\n        /* \"#utility.yul\":1484:1493   */\n      dup4\n        /* \"#utility.yul\":1480:1497   */\n      add\n        /* \"#utility.yul\":1471:1477   */\n      dup5\n        /* \"#utility.yul\":1427:1498   */\n      tag_49\n      jump\t// in\n    tag_58:\n        /* \"#utility.yul\":1283:1505   */\n      swap3\n      swap2\n      pop\n      pop\n      jump\t// out\n        /* \"#utility.yul\":1592:2117   */\n    tag_28:\n        /* \"#utility.yul\":1631:1634   */\n      0x00\n        /* \"#utility.yul\":1650:1669   */\n      tag_62\n        /* \"#utility.yul\":1667:1668   */\n      dup3\n        /* \"#utility.yul\":1650:1669   */\n      tag_48\n      jump\t// in\n    tag_62:\n        /* \"#utility.yul\":1645:1669   */\n      swap2\n      pop\n        /* \"#utility.yul\":1683:1702   */\n      tag_63\n        /* \"#utility.yul\":1700:1701   */\n      dup4\n        /* \"#utility.yul\":1683:1702   */\n      tag_48\n      jump\t// in\n    tag_63:\n        /* \"#utility.yul\":1678:1702   */\n      swap3\n      pop\n        /* \"#utility.yul\":1871:1872   */\n      dup2\n        /* \"#utility.yul\":1803:1869   */\n      0x7fffffffffffffffffffffffffffffffffffffffffffffffffffffffffffffff\n        /* \"#utility.yul\":1799:1873   */\n      sub\n        /* \"#utility.yul\":1796:1797   */\n      dup4\n        /* \"#utility.yul\":1792:1874   */\n      sgt\n        /* \"#utility.yul\":1787:1788   */\n      0x00\n        /* \"#utility.yul\":1784:1785   */\n      dup4\n        /* \"#utility.yul\":1780:1789   */\n      slt\n        /* \"#utility.yul\":1773:1790   */\n      iszero\n        /* \"#utility.yul\":1769:1875   */\n      and\n        /* \"#utility.yul\":1766:1898   */\n      iszero\n      tag_64\n      jumpi\n        /* \"#utility.yul\":1878:1896   */\n      tag_65\n      tag_66\n      jump\t// in\n    tag_65:\n        /* \"#utility.yul\":1766:1898   */\n    tag_64:\n        /* \"#utility.yul\":2058:2059   */\n      dup2\n        /* \"#utility.yul\":1990:2056   */\n      0x8000000000000000000000000000000000000000000000000000000000000000\n        /* \"#utility.yul\":1986:2060   */\n      sub\n        /* \"#utility.yul\":1983:1984   */\n      dup4\n        /* \"#utility.yul\":1979:2061   */\n      slt\n        /* \"#utility.yul\":1975:1976   */\n      0x00\n        /* \"#utility.yul\":1972:1973   */\n      dup4\n        /* \"#utility.yul\":1968:1977   */\n      slt\n        /* \"#utility.yul\":1964:2062   */\n      and\n        /* \"#utility.yul\":1961:2085   */\n      iszero\n      tag_67\n      jumpi\n        /* \"#utility.yul\":2065:2083   */\n      tag_68\n      tag_66\n      jump\t// in\n    tag_68:\n        /* \"#utility.yul\":1961:2085   */\n    tag_67:\n        /* \"#utility.yul\":2109:2110   */\n      dup3\n        /* \"#utility.yul\":2106:2107   */\n      dup3\n        /* \"#utility.yul\":2102:2111   */\n      add\n        /* \"#utility.yul\":2095:2111   */\n      swap1\n      pop\n        /* \"#utility.yul\":1592:2117   */\n      swap3\n      swap2\n      pop\n      pop\n      jump\t// out\n        /* \"#utility.yul\":2123:2213   */\n    tag_44:\n        /* \"#utility.yul\":2157:2164   */\n      0x00\n        /* \"#utility.yul\":2200:2205   */\n      dup2\n        /* \"#utility.yul\":2193:2206   */\n      iszero\n        /* \"#utility.yul\":2186:2207   */\n      iszero\n        /* \"#utility.yul\":2175:2207   */\n      swap1\n      pop\n        /* \"#utility.yul\":2123:2213   */\n      swap2\n      swap1\n      pop\n      jump\t// out\n        /* \"#utility.yul\":2219:2295   */\n    tag_48:\n        /* \"#utility.yul\":2255:2262   */\n      0x00\n        /* \"#utility.yul\":2284:2289   */\n      dup2\n        /* \"#utility.yul\":2273:2289   */\n      swap1\n      pop\n        /* \"#utility.yul\":2219:2295   */\n      swap2\n      swap1\n      pop\n      jump\t// out\n        /* \"#utility.yul\":2301:2378   */\n    tag_52:\n        /* \"#utility.yul\":2338:2345   */\n      0x00\n        /* \"#utility.yul\":2367:2372   */\n      dup2\n        /* \"#utility.yul\":2356:2372   */\n      swap1\n      pop\n        /* \"#utility.yul\":2301:2378   */\n      swap2\n      swap1\n      pop\n      jump\t// out\n        /* \"#utility.yul\":2384:2564   */\n    tag_66:\n        /* \"#utility.yul\":2432:2509   */\n      0x4e487b7100000000000000000000000000000000000000000000000000000000\n        /* \"#utility.yul\":2429:2430   */\n      0x00\n        /* \"#utility.yul\":2422:2510   */\n      mstore\n        /* \"#utility.yul\":2529:2533   */\n      0x11\n        /* \"#utility.yul\":2526:2527   */\n      0x04\n        /* \"#utility.yul\":2519:2534   */\n      mstore\n        /* \"#utility.yul\":2553:2557   */\n      0x24\n        /* \"#utility.yul\":2550:2551   */\n      0x00\n        /* \"#utility.yul\":2543:2558   */\n      revert\n        /* \"#utility.yul\":2693:2810   */\n    tag_39:\n        /* \"#utility.yul\":2802:2803   */\n      0x00\n        /* \"#utility.yul\":2799:2800   */\n      dup1\n        /* \"#utility.yul\":2792:2804   */\n      revert\n        /* \"#utility.yul\":2816:2936   */\n    tag_35:\n        /* \"#utility.yul\":2888:2911   */\n      tag_77\n        /* \"#utility.yul\":2905:2910   */\n      dup2\n        /* \"#utility.yul\":2888:2911   */\n      tag_48\n      jump\t// in\n    tag_77:\n        /* \"#utility.yul\":2881:2886   */\n      dup2\n        /* \"#utility.yul\":2878:2912   */\n      eq\n        /* \"#utility.yul\":2868:2930   */\n      tag_78\n      jumpi\n        /* \"#utility.yul\":2926:2927   */\n      0x00\n        /* \"#utility.yul\":2923:2924   */\n      dup1\n        /* \"#utility.yul\":2916:2928   */\n      revert\n        /* \"#utility.yul\":2868:2930   */\n    tag_78:\n        /* \"#utility.yul\":2816:2936   */\n      pop\n      jump\t// out\n\n    auxdata: 0xa2646970667358221220097504d385162582f0d7beffd94a625a6ca715895cf9728555fd9408af06dcf064736f6c63430008070033\n}\n",
				"bytecode": {
					"linkReferences": {},
					"object": "60806040526103e860005560646001556040518060400160405280600381526020017f546f6d00000000000000000000000000000000000000000000000000000000008152506002908051906020019061005a929190610088565b506001600360006101000a81548160ff02191690831515021790555034801561008257600080fd5b5061018c565b8280546100949061012b565b90600052602060002090601f0160209004810192826100b657600085556100fd565b82601f106100cf57805160ff19168380011785556100fd565b828001600101855582156100fd579182015b828111156100fc5782518255916020019190600101906100e1565b5b50905061010a919061010e565b5090565b5b8082111561012757600081600090555060010161010f565b5090565b6000600282049050600182168061014357607f821691505b602082108114156101575761015661015d565b5b50919050565b7f4e487b7100000000000000000000000000000000000000000000000000000000600052602260045260246000fd5b61030d8061019b6000396000f3fe608060405234801561001057600080fd5b50600436106100575760003560e01c80636057d3ee1461005c5780638adfb021146100665780639d9b5a5214610084578063e6683dde146100a2578063e9f6129b146100c0575b600080fd5b6100646100dc565b005b61006e6100f3565b60405161007b91906101a2565b60405180910390f35b61008c6100fc565b6040516100999190610187565b60405180910390f35b6100aa61010f565b6040516100b791906101bd565b60405180910390f35b6100da60048036038101906100d5919061012d565b610115565b005b60016000546100eb91906101d8565b600081905550565b60008054905090565b600360009054906101000a900460ff1681565b60015481565b50565b600081359050610127816102c0565b92915050565b600060208284031215610143576101426102bb565b5b600061015184828501610118565b91505092915050565b6101638161026c565b82525050565b61017281610278565b82525050565b61018181610282565b82525050565b600060208201905061019c600083018461015a565b92915050565b60006020820190506101b76000830184610169565b92915050565b60006020820190506101d26000830184610178565b92915050565b60006101e382610278565b91506101ee83610278565b9250817f7fffffffffffffffffffffffffffffffffffffffffffffffffffffffffffffff038313600083121516156102295761022861028c565b5b817f80000000000000000000000000000000000000000000000000000000000000000383126000831216156102615761026061028c565b5b828201905092915050565b60008115159050919050565b6000819050919050565b6000819050919050565b7f4e487b7100000000000000000000000000000000000000000000000000000000600052601160045260246000fd5b600080fd5b6102c981610278565b81146102d457600080fd5b5056fea2646970667358221220097504d385162582f0d7beffd94a625a6ca715895cf9728555fd9408af06dcf064736f6c63430008070033",
					"opcodes": "PUSH1 0x80 PUSH1 0x40 MSTORE PUSH2 0x3E8 PUSH1 0x0 SSTORE PUSH1 0x64 PUSH1 0x1 SSTORE PUSH1 0x40 MLOAD DUP1 PUSH1 0x40 ADD PUSH1 0x40 MSTORE DUP1 PUSH1 0x3 DUP2 MSTORE PUSH1 0x20 ADD PUSH32 0x546F6D0000000000000000000000000000000000000000000000000000000000 DUP2 MSTORE POP PUSH1 0x2 SWAP1 DUP1 MLOAD SWAP1 PUSH1 0x20 ADD SWAP1 PUSH2 0x5A SWAP3 SWAP2 SWAP1 PUSH2 0x88 JUMP JUMPDEST POP PUSH1 0x1 PUSH1 0x3 PUSH1 0x0 PUSH2 0x100 EXP DUP2 SLOAD DUP2 PUSH1 0xFF MUL NOT AND SWAP1 DUP4 ISZERO ISZERO MUL OR SWAP1 SSTORE POP CALLVALUE DUP1 ISZERO PUSH2 0x82 JUMPI PUSH1 0x0 DUP1 REVERT JUMPDEST POP PUSH2 0x18C JUMP JUMPDEST DUP3 DUP1 SLOAD PUSH2 0x94 SWAP1 PUSH2 0x12B JUMP JUMPDEST SWAP1 PUSH1 0x0 MSTORE PUSH1 0x20 PUSH1 0x0 KECCAK256 SWAP1 PUSH1 0x1F ADD PUSH1 0x20 SWAP1 DIV DUP2 ADD SWAP3 DUP3 PUSH2 0xB6 JUMPI PUSH1 0x0 DUP6 SSTORE PUSH2 0xFD JUMP JUMPDEST DUP3 PUSH1 0x1F LT PUSH2 0xCF JUMPI DUP1 MLOAD PUSH1 0xFF NOT AND DUP4 DUP1 ADD OR DUP6 SSTORE PUSH2 0xFD JUMP JUMPDEST DUP3 DUP1 ADD PUSH1 0x1 ADD DUP6 SSTORE DUP3 ISZERO PUSH2 0xFD JUMPI SWAP2 DUP3 ADD JUMPDEST DUP3 DUP2 GT ISZERO PUSH2 0xFC JUMPI DUP3 MLOAD DUP3 SSTORE SWAP2 PUSH1 0x20 ADD SWAP2 SWAP1 PUSH1 0x1 ADD SWAP1 PUSH2 0xE1 JUMP JUMPDEST JUMPDEST POP SWAP1 POP PUSH2 0x10A SWAP2 SWAP1 PUSH2 0x10E JUMP JUMPDEST POP SWAP1 JUMP JUMPDEST JUMPDEST DUP1 DUP3 GT ISZERO PUSH2 0x127 JUMPI PUSH1 0x0 DUP2 PUSH1 0x0 SWAP1 SSTORE POP PUSH1 0x1 ADD PUSH2 0x10F JUMP JUMPDEST POP SWAP1 JUMP JUMPDEST PUSH1 0x0 PUSH1 0x2 DUP3 DIV SWAP1 POP PUSH1 0x1 DUP3 AND DUP1 PUSH2 0x143 JUMPI PUSH1 0x7F DUP3 AND SWAP2 POP JUMPDEST PUSH1 0x20 DUP3 LT DUP2 EQ ISZERO PUSH2 0x157 JUMPI PUSH2 0x156 PUSH2 0x15D JUMP JUMPDEST JUMPDEST POP SWAP2 SWAP1 POP JUMP JUMPDEST PUSH32 0x4E487B7100000000000000000000000000000000000000000000000000000000 PUSH1 0x0 MSTORE PUSH1 0x22 PUSH1 0x4 MSTORE PUSH1 0x24 PUSH1 0x0 REVERT JUMPDEST PUSH2 0x30D DUP1 PUSH2 0x19B PUSH1 0x0 CODECOPY PUSH1 0x0 RETURN INVALID PUSH1 0x80 PUSH1 0x40 MSTORE CALLVALUE DUP1 ISZERO PUSH2 0x10 JUMPI PUSH1 0x0 DUP1 REVERT JUMPDEST POP PUSH1 0x4 CALLDATASIZE LT PUSH2 0x57 JUMPI PUSH1 0x0 CALLDATALOAD PUSH1 0xE0 SHR DUP1 PUSH4 0x6057D3EE EQ PUSH2 0x5C JUMPI DUP1 PUSH4 0x8ADFB021 EQ PUSH2 0x66 JUMPI DUP1 PUSH4 0x9D9B5A52 EQ PUSH2 0x84 JUMPI DUP1 PUSH4 0xE6683DDE EQ PUSH2 0xA2 JUMPI DUP1 PUSH4 0xE9F6129B EQ PUSH2 0xC0 JUMPI JUMPDEST PUSH1 0x0 DUP1 REVERT JUMPDEST PUSH2 0x64 PUSH2 0xDC JUMP JUMPDEST STOP JUMPDEST PUSH2 0x6E PUSH2 0xF3 JUMP JUMPDEST PUSH1 0x40 MLOAD PUSH2 0x7B SWAP2 SWAP1 PUSH2 0x1A2 JUMP JUMPDEST PUSH1 0x40 MLOAD DUP1 SWAP2 SUB SWAP1 RETURN JUMPDEST PUSH2 0x8C PUSH2 0xFC JUMP JUMPDEST PUSH1 0x40 MLOAD PUSH2 0x99 SWAP2 SWAP1 PUSH2 0x187 JUMP JUMPDEST PUSH1 0x40 MLOAD DUP1 SWAP2 SUB SWAP1 RETURN JUMPDEST PUSH2 0xAA PUSH2 0x10F JUMP JUMPDEST PUSH1 0x40 MLOAD PUSH2 0xB7 SWAP2 SWAP1 PUSH2 0x1BD JUMP JUMPDEST PUSH1 0x40 MLOAD DUP1 SWAP2 SUB SWAP1 RETURN JUMPDEST PUSH2 0xDA PUSH1 0x4 DUP1 CALLDATASIZE SUB DUP2 ADD SWAP1 PUSH2 0xD5 SWAP2 SWAP1 PUSH2 0x12D JUMP JUMPDEST PUSH2 0x115 JUMP JUMPDEST STOP JUMPDEST PUSH1 0x1 PUSH1 0x0 SLOAD PUSH2 0xEB SWAP2 SWAP1 PUSH2 0x1D8 JUMP JUMPDEST PUSH1 0x0 DUP2 SWAP1 SSTORE POP JUMP JUMPDEST PUSH1 0x0 DUP1 SLOAD SWAP1 POP SWAP1 JUMP JUMPDEST PUSH1 0x3 PUSH1 0x0 SWAP1 SLOAD SWAP1 PUSH2 0x100 EXP SWAP1 DIV PUSH1 0xFF AND DUP2 JUMP JUMPDEST PUSH1 0x1 SLOAD DUP2 JUMP JUMPDEST POP JUMP JUMPDEST PUSH1 0x0 DUP2 CALLDATALOAD SWAP1 POP PUSH2 0x127 DUP2 PUSH2 0x2C0 JUMP JUMPDEST SWAP3 SWAP2 POP POP JUMP JUMPDEST PUSH1 0x0 PUSH1 0x20 DUP3 DUP5 SUB SLT ISZERO PUSH2 0x143 JUMPI PUSH2 0x142 PUSH2 0x2BB JUMP JUMPDEST JUMPDEST PUSH1 0x0 PUSH2 0x151 DUP5 DUP3 DUP6 ADD PUSH2 0x118 JUMP JUMPDEST SWAP2 POP POP SWAP3 SWAP2 POP POP JUMP JUMPDEST PUSH2 0x163 DUP2 PUSH2 0x26C JUMP JUMPDEST DUP3 MSTORE POP POP JUMP JUMPDEST PUSH2 0x172 DUP2 PUSH2 0x278 JUMP JUMPDEST DUP3 MSTORE POP POP JUMP JUMPDEST PUSH2 0x181 DUP2 PUSH2 0x282 JUMP JUMPDEST DUP3 MSTORE POP POP JUMP JUMPDEST PUSH1 0x0 PUSH1 0x20 DUP3 ADD SWAP1 POP PUSH2 0x19C PUSH1 0x0 DUP4 ADD DUP5 PUSH2 0x15A JUMP JUMPDEST SWAP3 SWAP2 POP POP JUMP JUMPDEST PUSH1 0x0 PUSH1 0x20 DUP3 ADD SWAP1 POP PUSH2 0x1B7 PUSH1 0x0 DUP4 ADD DUP5 PUSH2 0x169 JUMP JUMPDEST SWAP3 SWAP2 POP POP JUMP JUMPDEST PUSH1 0x0 PUSH1 0x20 DUP3 ADD SWAP1 POP PUSH2 0x1D2 PUSH1 0x0 DUP4 ADD DUP5 PUSH2 0x178 JUMP JUMPDEST SWAP3 SWAP2 POP POP JUMP JUMPDEST PUSH1 0x0 PUSH2 0x1E3 DUP3 PUSH2 0x278 JUMP JUMPDEST SWAP2 POP PUSH2 0x1EE DUP4 PUSH2 0x278 JUMP JUMPDEST SWAP3 POP DUP2 PUSH32 0x7FFFFFFFFFFFFFFFFFFFFFFFFFFFFFFFFFFFFFFFFFFFFFFFFFFFFFFFFFFFFFFF SUB DUP4 SGT PUSH1 0x0 DUP4 SLT ISZERO AND ISZERO PUSH2 0x229 JUMPI PUSH2 0x228 PUSH2 0x28C JUMP JUMPDEST JUMPDEST DUP2 PUSH32 0x8000000000000000000000000000000000000000000000000000000000000000 SUB DUP4 SLT PUSH1 0x0 DUP4 SLT AND ISZERO PUSH2 0x261 JUMPI PUSH2 0x260 PUSH2 0x28C JUMP JUMPDEST JUMPDEST DUP3 DUP3 ADD SWAP1 POP SWAP3 SWAP2 POP POP JUMP JUMPDEST PUSH1 0x0 DUP2 ISZERO ISZERO SWAP1 POP SWAP2 SWAP1 POP JUMP JUMPDEST PUSH1 0x0 DUP2 SWAP1 POP SWAP2 SWAP1 POP JUMP JUMPDEST PUSH1 0x0 DUP2 SWAP1 POP SWAP2 SWAP1 POP JUMP JUMPDEST PUSH32 0x4E487B7100000000000000000000000000000000000000000000000000000000 PUSH1 0x0 MSTORE PUSH1 0x11 PUSH1 0x4 MSTORE PUSH1 0x24 PUSH1 0x0 REVERT JUMPDEST PUSH1 0x0 DUP1 REVERT JUMPDEST PUSH2 0x2C9 DUP2 PUSH2 0x278 JUMP JUMPDEST DUP2 EQ PUSH2 0x2D4 JUMPI PUSH1 0x0 DUP1 REVERT JUMPDEST POP JUMP INVALID LOG2 PUSH5 0x6970667358 0x22 SLT KECCAK256 MULMOD PUSH22 0x4D385162582F0D7BEFFD94A625A6CA715895CF97285 SSTORE REVERT SWAP5 ADDMOD 0xAF MOD 0xDC CREATE PUSH5 0x736F6C6343 STOP ADDMOD SMOD STOP CALLER "
				},
				"gasEstimates": {
					"creation": {
						"codeDepositCost": "156200",
						"executionCost": "infinite",
						"totalCost": "infinite"
					},
					"external": {
						"addOne()": "infinite",
						"addx(int256)": "472",
						"callNumber()": "2437",
						"isLoading()": "2493",
						"uNumber()": "2473"
					}
				},
				"methodIdentifiers": {
					"addOne()": "6057d3ee",
					"addx(int256)": "e9f6129b",
					"callNumber()": "8adfb021",
					"isLoading()": "9d9b5a52",
					"uNumber()": "e6683dde"
				}
			},
			"storageLayout": {
				"storage": [
					{
						"astId": 4,
						"contract": "BNB_Chain_chellange/FirstCont.sol:FirstContract",
						"label": "number",
						"offset": 0,
						"slot": "0",
						"type": "t_int256"
					},
					{
						"astId": 7,
						"contract": "BNB_Chain_chellange/FirstCont.sol:FirstContract",
						"label": "uNumber",
						"offset": 0,
						"slot": "1",
						"type": "t_uint256"
					},
					{
						"astId": 10,
						"contract": "BNB_Chain_chellange/FirstCont.sol:FirstContract",
						"label": "name",
						"offset": 0,
						"slot": "2",
						"type": "t_string_storage"
					},
					{
						"astId": 13,
						"contract": "BNB_Chain_chellange/FirstCont.sol:FirstContract",
						"label": "isLoading",
						"offset": 0,
						"slot": "3",
						"type": "t_bool"
					}
				],
				"types": {
					"t_bool": {
						"encoding": "inplace",
						"label": "bool",
						"numberOfBytes": "1"
					},
					"t_int256": {
						"encoding": "inplace",
						"label": "int256",
						"numberOfBytes": "32"
					},
					"t_string_storage": {
						"encoding": "bytes",
						"label": "string",
						"numberOfBytes": "32"
					},
					"t_uint256": {
						"encoding": "inplace",
						"label": "uint256",
						"numberOfBytes": "32"
					}
				}
			},
			"userdoc": {
				"kind": "user",
				"methods": {},
				"version": 1
			}
		}
	}
}