{
	"BNB_Chain_chellange/FirstCont.sol": {
		"FirstContract": {
			"abi": [
				{
					"inputs": [],
					"name": "number",
					"outputs": [
						{
							"internalType": "int256",
							"name": "",
							"type": "int256"
						}
					],
					"stateMutability": "view",
					"type": "function"
				},
				{
					"inputs": [],
					"name": "uNumber",
					"outputs": [
						{
							"internalType": "uint256",
							"name": "",
							"type": "uint256"
						}
					],
					"stateMutability": "view",
					"type": "function"
				}
			],
			"devdoc": {
				"kind": "dev",
				"methods": {},
				"version": 1
			},
			"evm": {
				"assembly": "    /* \"BNB_Chain_chellange/FirstCont.sol\":60:150  contract FirstContract {\r... */\n  mstore(0x40, 0x80)\n    /* \"BNB_Chain_chellange/FirstCont.sol\":110:114  1000 */\n  0x03e8\n    /* \"BNB_Chain_chellange/FirstCont.sol\":90:114  int public number = 1000 */\n  0x00\n  sstore\n    /* \"BNB_Chain_chellange/FirstCont.sol\":143:146  100 */\n  0x64\n    /* \"BNB_Chain_chellange/FirstCont.sol\":121:146  uint public uNumber = 100 */\n  0x01\n  sstore\n    /* \"BNB_Chain_chellange/FirstCont.sol\":60:150  contract FirstContract {\r... */\n  callvalue\n  dup1\n  iszero\n  tag_1\n  jumpi\n  0x00\n  dup1\n  revert\ntag_1:\n  pop\n  dataSize(sub_0)\n  dup1\n  dataOffset(sub_0)\n  0x00\n  codecopy\n  0x00\n  return\nstop\n\nsub_0: assembly {\n        /* \"BNB_Chain_chellange/FirstCont.sol\":60:150  contract FirstContract {\r... */\n      mstore(0x40, 0x80)\n      callvalue\n      dup1\n      iszero\n      tag_1\n      jumpi\n      0x00\n      dup1\n      revert\n    tag_1:\n      pop\n      jumpi(tag_2, lt(calldatasize, 0x04))\n      shr(0xe0, calldataload(0x00))\n      dup1\n      0x8381f58a\n      eq\n      tag_3\n      jumpi\n      dup1\n      0xe6683dde\n      eq\n      tag_4\n      jumpi\n    tag_2:\n      0x00\n      dup1\n      revert\n        /* \"BNB_Chain_chellange/FirstCont.sol\":90:114  int public number = 1000 */\n    tag_3:\n      tag_5\n      tag_6\n      jump\t// in\n    tag_5:\n      mload(0x40)\n      tag_7\n      swap2\n      swap1\n      tag_8\n      jump\t// in\n    tag_7:\n      mload(0x40)\n      dup1\n      swap2\n      sub\n      swap1\n      return\n        /* \"BNB_Chain_chellange/FirstCont.sol\":121:146  uint public uNumber = 100 */\n    tag_4:\n      tag_9\n      tag_10\n      jump\t// in\n    tag_9:\n      mload(0x40)\n      tag_11\n      swap2\n      swap1\n      tag_12\n      jump\t// in\n    tag_11:\n      mload(0x40)\n      dup1\n      swap2\n      sub\n      swap1\n      return\n        /* \"BNB_Chain_chellange/FirstCont.sol\":90:114  int public number = 1000 */\n    tag_6:\n      sload(0x00)\n      dup2\n      jump\t// out\n        /* \"BNB_Chain_chellange/FirstCont.sol\":121:146  uint public uNumber = 100 */\n    tag_10:\n      sload(0x01)\n      dup2\n      jump\t// out\n        /* \"#utility.yul\":7:122   */\n    tag_14:\n        /* \"#utility.yul\":92:115   */\n      tag_16\n        /* \"#utility.yul\":109:114   */\n      dup2\n        /* \"#utility.yul\":92:115   */\n      tag_17\n      jump\t// in\n    tag_16:\n        /* \"#utility.yul\":87:90   */\n      dup3\n        /* \"#utility.yul\":80:116   */\n      mstore\n        /* \"#utility.yul\":7:122   */\n      pop\n      pop\n      jump\t// out\n        /* \"#utility.yul\":128:246   */\n    tag_18:\n        /* \"#utility.yul\":215:239   */\n      tag_20\n        /* \"#utility.yul\":233:238   */\n      dup2\n        /* \"#utility.yul\":215:239   */\n      tag_21\n      jump\t// in\n    tag_20:\n        /* \"#utility.yul\":210:213   */\n      dup3\n        /* \"#utility.yul\":203:240   */\n      mstore\n        /* \"#utility.yul\":128:246   */\n      pop\n      pop\n      jump\t// out\n        /* \"#utility.yul\":252:470   */\n    tag_8:\n        /* \"#utility.yul\":343:347   */\n      0x00\n        /* \"#utility.yul\":381:383   */\n      0x20\n        /* \"#utility.yul\":370:379   */\n      dup3\n        /* \"#utility.yul\":366:384   */\n      add\n        /* \"#utility.yul\":358:384   */\n      swap1\n      pop\n        /* \"#utility.yul\":394:463   */\n      tag_23\n        /* \"#utility.yul\":460:461   */\n      0x00\n        /* \"#utility.yul\":449:458   */\n      dup4\n        /* \"#utility.yul\":445:462   */\n      add\n        /* \"#utility.yul\":436:442   */\n      dup5\n        /* \"#utility.yul\":394:463   */\n      tag_14\n      jump\t// in\n    tag_23:\n        /* \"#utility.yul\":252:470   */\n      swap3\n      swap2\n      pop\n      pop\n      jump\t// out\n        /* \"#utility.yul\":476:698   */\n    tag_12:\n        /* \"#utility.yul\":569:573   */\n      0x00\n        /* \"#utility.yul\":607:609   */\n      0x20\n        /* \"#utility.yul\":596:605   */\n      dup3\n        /* \"#utility.yul\":592:610   */\n      add\n        /* \"#utility.yul\":584:610   */\n      swap1\n      pop\n        /* \"#utility.yul\":620:691   */\n      tag_25\n        /* \"#utility.yul\":688:689   */\n      0x00\n        /* \"#utility.yul\":677:686   */\n      dup4\n        /* \"#utility.yul\":673:690   */\n      add\n        /* \"#utility.yul\":664:670   */\n      dup5\n        /* \"#utility.yul\":620:691   */\n      tag_18\n      jump\t// in\n    tag_25:\n        /* \"#utility.yul\":476:698   */\n      swap3\n      swap2\n      pop\n      pop\n      jump\t// out\n        /* \"#utility.yul\":704:780   */\n    tag_17:\n        /* \"#utility.yul\":740:747   */\n      0x00\n        /* \"#utility.yul\":769:774   */\n      dup2\n        /* \"#utility.yul\":758:774   */\n      swap1\n      pop\n        /* \"#utility.yul\":704:780   */\n      swap2\n      swap1\n      pop\n      jump\t// out\n        /* \"#utility.yul\":786:863   */\n    tag_21:\n        /* \"#utility.yul\":823:830   */\n      0x00\n        /* \"#utility.yul\":852:857   */\n      dup2\n        /* \"#utility.yul\":841:857   */\n      swap1\n      pop\n        /* \"#utility.yul\":786:863   */\n      swap2\n      swap1\n      pop\n      jump\t// out\n\n    auxdata: 0xa2646970667358221220817a878bcf7dc57f8b3bab8efd0865f1c2172843426ea58f8d3ebc3ce0bcb5a864736f6c63430008070033\n}\n",
				"bytecode": {
					"linkReferences": {},
					"object": "60806040526103e8600055606460015534801561001b57600080fd5b5061010d8061002b6000396000f3fe6080604052348015600f57600080fd5b506004361060325760003560e01c80638381f58a146037578063e6683dde146051575b600080fd5b603d606b565b604051604891906091565b60405180910390f35b60576071565b6040516062919060aa565b60405180910390f35b60005481565b60015481565b607e8160c3565b82525050565b608b8160cd565b82525050565b600060208201905060a460008301846077565b92915050565b600060208201905060bd60008301846084565b92915050565b6000819050919050565b600081905091905056fea2646970667358221220817a878bcf7dc57f8b3bab8efd0865f1c2172843426ea58f8d3ebc3ce0bcb5a864736f6c63430008070033",
					"opcodes": "PUSH1 0x80 PUSH1 0x40 MSTORE PUSH2 0x3E8 PUSH1 0x0 SSTORE PUSH1 0x64 PUSH1 0x1 SSTORE CALLVALUE DUP1 ISZERO PUSH2 0x1B JUMPI PUSH1 0x0 DUP1 REVERT JUMPDEST POP PUSH2 0x10D DUP1 PUSH2 0x2B PUSH1 0x0 CODECOPY PUSH1 0x0 RETURN INVALID PUSH1 0x80 PUSH1 0x40 MSTORE CALLVALUE DUP1 ISZERO PUSH1 0xF JUMPI PUSH1 0x0 DUP1 REVERT JUMPDEST POP PUSH1 0x4 CALLDATASIZE LT PUSH1 0x32 JUMPI PUSH1 0x0 CALLDATALOAD PUSH1 0xE0 SHR DUP1 PUSH4 0x8381F58A EQ PUSH1 0x37 JUMPI DUP1 PUSH4 0xE6683DDE EQ PUSH1 0x51 JUMPI JUMPDEST PUSH1 0x0 DUP1 REVERT JUMPDEST PUSH1 0x3D PUSH1 0x6B JUMP JUMPDEST PUSH1 0x40 MLOAD PUSH1 0x48 SWAP2 SWAP1 PUSH1 0x91 JUMP JUMPDEST PUSH1 0x40 MLOAD DUP1 SWAP2 SUB SWAP1 RETURN JUMPDEST PUSH1 0x57 PUSH1 0x71 JUMP JUMPDEST PUSH1 0x40 MLOAD PUSH1 0x62 SWAP2 SWAP1 PUSH1 0xAA JUMP JUMPDEST PUSH1 0x40 MLOAD DUP1 SWAP2 SUB SWAP1 RETURN JUMPDEST PUSH1 0x0 SLOAD DUP2 JUMP JUMPDEST PUSH1 0x1 SLOAD DUP2 JUMP JUMPDEST PUSH1 0x7E DUP2 PUSH1 0xC3 JUMP JUMPDEST DUP3 MSTORE POP POP JUMP JUMPDEST PUSH1 0x8B DUP2 PUSH1 0xCD JUMP JUMPDEST DUP3 MSTORE POP POP JUMP JUMPDEST PUSH1 0x0 PUSH1 0x20 DUP3 ADD SWAP1 POP PUSH1 0xA4 PUSH1 0x0 DUP4 ADD DUP5 PUSH1 0x77 JUMP JUMPDEST SWAP3 SWAP2 POP POP JUMP JUMPDEST PUSH1 0x0 PUSH1 0x20 DUP3 ADD SWAP1 POP PUSH1 0xBD PUSH1 0x0 DUP4 ADD DUP5 PUSH1 0x84 JUMP JUMPDEST SWAP3 SWAP2 POP POP JUMP JUMPDEST PUSH1 0x0 DUP2 SWAP1 POP SWAP2 SWAP1 POP JUMP JUMPDEST PUSH1 0x0 DUP2 SWAP1 POP SWAP2 SWAP1 POP JUMP INVALID LOG2 PUSH5 0x6970667358 0x22 SLT KECCAK256 DUP2 PUSH27 0x878BCF7DC57F8B3BAB8EFD0865F1C2172843426EA58F8D3EBC3CE0 0xBC 0xB5 0xA8 PUSH5 0x736F6C6343 STOP ADDMOD SMOD STOP CALLER "
				},
				"gasEstimates": {
					"creation": {
						"codeDepositCost": "53800",
						"executionCost": "44317",
						"totalCost": "98117"
					},
					"external": {
						"number()": "2407",
						"uNumber()": "2429"
					}
				},
				"methodIdentifiers": {
					"number()": "8381f58a",
					"uNumber()": "e6683dde"
				}
			},
			"storageLayout": {
				"storage": [
					{
						"astId": 4,
						"contract": "BNB_Chain_chellange/FirstCont.sol:FirstContract",
						"label": "number",
						"offset": 0,
						"slot": "0",
						"type": "t_int256"
					},
					{
						"astId": 7,
						"contract": "BNB_Chain_chellange/FirstCont.sol:FirstContract",
						"label": "uNumber",
						"offset": 0,
						"slot": "1",
						"type": "t_uint256"
					}
				],
				"types": {
					"t_int256": {
						"encoding": "inplace",
						"label": "int256",
						"numberOfBytes": "32"
					},
					"t_uint256": {
						"encoding": "inplace",
						"label": "uint256",
						"numberOfBytes": "32"
					}
				}
			},
			"userdoc": {
				"kind": "user",
				"methods": {},
				"version": 1
			}
		}
	}
}