{
	"data": {
		"bytecode": {
			"linkReferences": {},
			"object": "608060405234801561001057600080fd5b5061029e806100206000396000f3fe608060405234801561001057600080fd5b50600436106100575760003560e01c8063091da0cf1461005c578063174c9c7e14610066578063e7c898ef14610070578063f0d3799c1461007a578063fc0e600814610084575b600080fd5b61006461008e565b005b61006e6100d9565b005b61007861010d565b005b610082610146565b005b61008c610192565b005b600080600190505b600b8160ff1610156100d5576001826100af91906101cb565b9150600a8260ff1611156100c2576100d5565b80806100cd9061020f565b915050610096565b5050565b600080600190505b6001826100ee91906101cb565b915080806100fb9061020f565b915050600b8160ff16106100e1575050565b600080600190505b600b8160ff16101561014257808261012d91906101cb565b9150808061013a9061020f565b915050610115565b5050565b600080600190505b600b8160ff16101561018e5760058160ff16141561016b5761017b565b60018261017891906101cb565b91505b80806101869061020f565b91505061014e565b5050565b600080600190505b600b8160ff1610156101c75780826101b291906101cb565b915080806101bf9061020f565b91505061019a565b5050565b60006101d682610202565b91506101e183610202565b92508260ff038211156101f7576101f6610239565b5b828201905092915050565b600060ff82169050919050565b600061021a82610202565b915060ff82141561022e5761022d610239565b5b600182019050919050565b7f4e487b7100000000000000000000000000000000000000000000000000000000600052601160045260246000fdfea26469706673582212205bdb0b66e6050f915648fec38dd9a4f988df9f93db09326d78126beb70dcac9f64736f6c63430008070033",
			"opcodes": "PUSH1 0x80 PUSH1 0x40 MSTORE CALLVALUE DUP1 ISZERO PUSH2 0x10 JUMPI PUSH1 0x0 DUP1 REVERT JUMPDEST POP PUSH2 0x29E DUP1 PUSH2 0x20 PUSH1 0x0 CODECOPY PUSH1 0x0 RETURN INVALID PUSH1 0x80 PUSH1 0x40 MSTORE CALLVALUE DUP1 ISZERO PUSH2 0x10 JUMPI PUSH1 0x0 DUP1 REVERT JUMPDEST POP PUSH1 0x4 CALLDATASIZE LT PUSH2 0x57 JUMPI PUSH1 0x0 CALLDATALOAD PUSH1 0xE0 SHR DUP1 PUSH4 0x91DA0CF EQ PUSH2 0x5C JUMPI DUP1 PUSH4 0x174C9C7E EQ PUSH2 0x66 JUMPI DUP1 PUSH4 0xE7C898EF EQ PUSH2 0x70 JUMPI DUP1 PUSH4 0xF0D3799C EQ PUSH2 0x7A JUMPI DUP1 PUSH4 0xFC0E6008 EQ PUSH2 0x84 JUMPI JUMPDEST PUSH1 0x0 DUP1 REVERT JUMPDEST PUSH2 0x64 PUSH2 0x8E JUMP JUMPDEST STOP JUMPDEST PUSH2 0x6E PUSH2 0xD9 JUMP JUMPDEST STOP JUMPDEST PUSH2 0x78 PUSH2 0x10D JUMP JUMPDEST STOP JUMPDEST PUSH2 0x82 PUSH2 0x146 JUMP JUMPDEST STOP JUMPDEST PUSH2 0x8C PUSH2 0x192 JUMP JUMPDEST STOP JUMPDEST PUSH1 0x0 DUP1 PUSH1 0x1 SWAP1 POP JUMPDEST PUSH1 0xB DUP2 PUSH1 0xFF AND LT ISZERO PUSH2 0xD5 JUMPI PUSH1 0x1 DUP3 PUSH2 0xAF SWAP2 SWAP1 PUSH2 0x1CB JUMP JUMPDEST SWAP2 POP PUSH1 0xA DUP3 PUSH1 0xFF AND GT ISZERO PUSH2 0xC2 JUMPI PUSH2 0xD5 JUMP JUMPDEST DUP1 DUP1 PUSH2 0xCD SWAP1 PUSH2 0x20F JUMP JUMPDEST SWAP2 POP POP PUSH2 0x96 JUMP JUMPDEST POP POP JUMP JUMPDEST PUSH1 0x0 DUP1 PUSH1 0x1 SWAP1 POP JUMPDEST PUSH1 0x1 DUP3 PUSH2 0xEE SWAP2 SWAP1 PUSH2 0x1CB JUMP JUMPDEST SWAP2 POP DUP1 DUP1 PUSH2 0xFB SWAP1 PUSH2 0x20F JUMP JUMPDEST SWAP2 POP POP PUSH1 0xB DUP2 PUSH1 0xFF AND LT PUSH2 0xE1 JUMPI POP POP JUMP JUMPDEST PUSH1 0x0 DUP1 PUSH1 0x1 SWAP1 POP JUMPDEST PUSH1 0xB DUP2 PUSH1 0xFF AND LT ISZERO PUSH2 0x142 JUMPI DUP1 DUP3 PUSH2 0x12D SWAP2 SWAP1 PUSH2 0x1CB JUMP JUMPDEST SWAP2 POP DUP1 DUP1 PUSH2 0x13A SWAP1 PUSH2 0x20F JUMP JUMPDEST SWAP2 POP POP PUSH2 0x115 JUMP JUMPDEST POP POP JUMP JUMPDEST PUSH1 0x0 DUP1 PUSH1 0x1 SWAP1 POP JUMPDEST PUSH1 0xB DUP2 PUSH1 0xFF AND LT ISZERO PUSH2 0x18E JUMPI PUSH1 0x5 DUP2 PUSH1 0xFF AND EQ ISZERO PUSH2 0x16B JUMPI PUSH2 0x17B JUMP JUMPDEST PUSH1 0x1 DUP3 PUSH2 0x178 SWAP2 SWAP1 PUSH2 0x1CB JUMP JUMPDEST SWAP2 POP JUMPDEST DUP1 DUP1 PUSH2 0x186 SWAP1 PUSH2 0x20F JUMP JUMPDEST SWAP2 POP POP PUSH2 0x14E JUMP JUMPDEST POP POP JUMP JUMPDEST PUSH1 0x0 DUP1 PUSH1 0x1 SWAP1 POP JUMPDEST PUSH1 0xB DUP2 PUSH1 0xFF AND LT ISZERO PUSH2 0x1C7 JUMPI DUP1 DUP3 PUSH2 0x1B2 SWAP2 SWAP1 PUSH2 0x1CB JUMP JUMPDEST SWAP2 POP DUP1 DUP1 PUSH2 0x1BF SWAP1 PUSH2 0x20F JUMP JUMPDEST SWAP2 POP POP PUSH2 0x19A JUMP JUMPDEST POP POP JUMP JUMPDEST PUSH1 0x0 PUSH2 0x1D6 DUP3 PUSH2 0x202 JUMP JUMPDEST SWAP2 POP PUSH2 0x1E1 DUP4 PUSH2 0x202 JUMP JUMPDEST SWAP3 POP DUP3 PUSH1 0xFF SUB DUP3 GT ISZERO PUSH2 0x1F7 JUMPI PUSH2 0x1F6 PUSH2 0x239 JUMP JUMPDEST JUMPDEST DUP3 DUP3 ADD SWAP1 POP SWAP3 SWAP2 POP POP JUMP JUMPDEST PUSH1 0x0 PUSH1 0xFF DUP3 AND SWAP1 POP SWAP2 SWAP1 POP JUMP JUMPDEST PUSH1 0x0 PUSH2 0x21A DUP3 PUSH2 0x202 JUMP JUMPDEST SWAP2 POP PUSH1 0xFF DUP3 EQ ISZERO PUSH2 0x22E JUMPI PUSH2 0x22D PUSH2 0x239 JUMP JUMPDEST JUMPDEST PUSH1 0x1 DUP3 ADD SWAP1 POP SWAP2 SWAP1 POP JUMP JUMPDEST PUSH32 0x4E487B7100000000000000000000000000000000000000000000000000000000 PUSH1 0x0 MSTORE PUSH1 0x11 PUSH1 0x4 MSTORE PUSH1 0x24 PUSH1 0x0 REVERT INVALID LOG2 PUSH5 0x6970667358 0x22 SLT KECCAK256 JUMPDEST 0xDB SIGNEXTEND PUSH7 0xE6050F915648FE 0xC3 DUP14 0xD9 LOG4 0xF9 DUP9 0xDF SWAP16 SWAP4 0xDB MULMOD ORIGIN PUSH14 0x78126BEB70DCAC9F64736F6C6343 STOP ADDMOD SMOD STOP CALLER "
		},
		"gasEstimates": {
			"creation": {
				"codeDepositCost": "134000",
				"executionCost": "177",
				"totalCost": "134177"
			},
			"external": {
				"doWhileLoop()": "infinite",
				"forLoop()": "infinite",
				"loopbreak()": "infinite",
				"loopcontinue()": "infinite",
				"whileLoop()": "infinite"
			}
		},
		"methodIdentifiers": {
			"doWhileLoop()": "174c9c7e",
			"forLoop()": "fc0e6008",
			"loopbreak()": "091da0cf",
			"loopcontinue()": "f0d3799c",
			"whileLoop()": "e7c898ef"
		}
	},
	"abi": [
		{
			"inputs": [],
			"name": "doWhileLoop",
			"outputs": [],
			"stateMutability": "nonpayable",
			"type": "function"
		},
		{
			"inputs": [],
			"name": "forLoop",
			"outputs": [],
			"stateMutability": "nonpayable",
			"type": "function"
		},
		{
			"inputs": [],
			"name": "loopbreak",
			"outputs": [],
			"stateMutability": "nonpayable",
			"type": "function"
		},
		{
			"inputs": [],
			"name": "loopcontinue",
			"outputs": [],
			"stateMutability": "nonpayable",
			"type": "function"
		},
		{
			"inputs": [],
			"name": "whileLoop",
			"outputs": [],
			"stateMutability": "nonpayable",
			"type": "function"
		}
	]
}