{
	"test/BlockProperty2.sol": {
		"BlockPropertynew": {
			"abi": [
				{
					"inputs": [],
					"name": "generateRandom",
					"outputs": [
						{
							"internalType": "uint8",
							"name": "",
							"type": "uint8"
						}
					],
					"stateMutability": "view",
					"type": "function"
				}
			],
			"devdoc": {
				"kind": "dev",
				"methods": {},
				"version": 1
			},
			"evm": {
				"assembly": "    /* \"test/BlockProperty2.sol\":35:361  contract BlockPropertynew{\r... */\n  mstore(0x40, 0x80)\n  callvalue\n  dup1\n  iszero\n  tag_1\n  jumpi\n  0x00\n  dup1\n  revert\ntag_1:\n  pop\n  dataSize(sub_0)\n  dup1\n  dataOffset(sub_0)\n  0x00\n  codecopy\n  0x00\n  return\nstop\n\nsub_0: assembly {\n        /* \"test/BlockProperty2.sol\":35:361  contract BlockPropertynew{\r... */\n      mstore(0x40, 0x80)\n      callvalue\n      dup1\n      iszero\n      tag_1\n      jumpi\n      0x00\n      dup1\n      revert\n    tag_1:\n      pop\n      jumpi(tag_2, lt(calldatasize, 0x04))\n      shr(0xe0, calldataload(0x00))\n      dup1\n      0x02e4af01\n      eq\n      tag_3\n      jumpi\n    tag_2:\n      0x00\n      dup1\n      revert\n        /* \"test/BlockProperty2.sol\":69:354  function generateRandom() public view returns(uint8){\r... */\n    tag_3:\n      tag_4\n      tag_5\n      jump\t// in\n    tag_4:\n      mload(0x40)\n      tag_6\n      swap2\n      swap1\n      tag_7\n      jump\t// in\n    tag_6:\n      mload(0x40)\n      dup1\n      swap2\n      sub\n      swap1\n      return\n    tag_5:\n        /* \"test/BlockProperty2.sol\":115:120  uint8 */\n      0x00\n        /* \"test/BlockProperty2.sol\":132:144  uint8 number */\n      dup1\n        /* \"test/BlockProperty2.sol\":225:228  251 */\n      0xfb\n        /* \"test/BlockProperty2.sol\":188:203  block.timestamp */\n      timestamp\n        /* \"test/BlockProperty2.sol\":205:221  block.difficulty */\n      difficulty\n        /* \"test/BlockProperty2.sol\":171:222  abi.encodePacked(block.timestamp, block.difficulty) */\n      add(0x20, mload(0x40))\n      tag_9\n      swap3\n      swap2\n      swap1\n      tag_10\n      jump\t// in\n    tag_9:\n      mload(0x40)\n      0x20\n      dup2\n      dup4\n      sub\n      sub\n      dup2\n      mstore\n      swap1\n      0x40\n      mstore\n        /* \"test/BlockProperty2.sol\":161:223  keccak256(abi.encodePacked(block.timestamp, block.difficulty)) */\n      dup1\n      mload\n      swap1\n      0x20\n      add\n      keccak256\n        /* \"test/BlockProperty2.sol\":153:224  uint256(keccak256(abi.encodePacked(block.timestamp, block.difficulty))) */\n      0x00\n      shr\n        /* \"test/BlockProperty2.sol\":153:228  uint256(keccak256(abi.encodePacked(block.timestamp, block.difficulty)))%251 */\n      tag_11\n      swap2\n      swap1\n      tag_12\n      jump\t// in\n    tag_11:\n        /* \"test/BlockProperty2.sol\":132:229  uint8 number = uint8(uint256(keccak256(abi.encodePacked(block.timestamp, block.difficulty)))%251) */\n      swap1\n      pop\n        /* \"test/BlockProperty2.sol\":340:346  number */\n      dup1\n        /* \"test/BlockProperty2.sol\":333:346  return number */\n      swap2\n      pop\n      pop\n        /* \"test/BlockProperty2.sol\":69:354  function generateRandom() public view returns(uint8){\r... */\n      swap1\n      jump\t// out\n        /* \"#utility.yul\":7:164   */\n    tag_14:\n        /* \"#utility.yul\":112:157   */\n      tag_16\n        /* \"#utility.yul\":132:156   */\n      tag_17\n        /* \"#utility.yul\":150:155   */\n      dup3\n        /* \"#utility.yul\":132:156   */\n      tag_18\n      jump\t// in\n    tag_17:\n        /* \"#utility.yul\":112:157   */\n      tag_19\n      jump\t// in\n    tag_16:\n        /* \"#utility.yul\":107:110   */\n      dup3\n        /* \"#utility.yul\":100:158   */\n      mstore\n        /* \"#utility.yul\":7:164   */\n      pop\n      pop\n      jump\t// out\n        /* \"#utility.yul\":170:282   */\n    tag_20:\n        /* \"#utility.yul\":253:275   */\n      tag_22\n        /* \"#utility.yul\":269:274   */\n      dup2\n        /* \"#utility.yul\":253:275   */\n      tag_23\n      jump\t// in\n    tag_22:\n        /* \"#utility.yul\":248:251   */\n      dup3\n        /* \"#utility.yul\":241:276   */\n      mstore\n        /* \"#utility.yul\":170:282   */\n      pop\n      pop\n      jump\t// out\n        /* \"#utility.yul\":288:685   */\n    tag_10:\n        /* \"#utility.yul\":428:431   */\n      0x00\n        /* \"#utility.yul\":443:518   */\n      tag_25\n        /* \"#utility.yul\":514:517   */\n      dup3\n        /* \"#utility.yul\":505:511   */\n      dup6\n        /* \"#utility.yul\":443:518   */\n      tag_14\n      jump\t// in\n    tag_25:\n        /* \"#utility.yul\":543:545   */\n      0x20\n        /* \"#utility.yul\":538:541   */\n      dup3\n        /* \"#utility.yul\":534:546   */\n      add\n        /* \"#utility.yul\":527:546   */\n      swap2\n      pop\n        /* \"#utility.yul\":556:631   */\n      tag_26\n        /* \"#utility.yul\":627:630   */\n      dup3\n        /* \"#utility.yul\":618:624   */\n      dup5\n        /* \"#utility.yul\":556:631   */\n      tag_14\n      jump\t// in\n    tag_26:\n        /* \"#utility.yul\":656:658   */\n      0x20\n        /* \"#utility.yul\":651:654   */\n      dup3\n        /* \"#utility.yul\":647:659   */\n      add\n        /* \"#utility.yul\":640:659   */\n      swap2\n      pop\n        /* \"#utility.yul\":676:679   */\n      dup2\n        /* \"#utility.yul\":669:679   */\n      swap1\n      pop\n        /* \"#utility.yul\":288:685   */\n      swap4\n      swap3\n      pop\n      pop\n      pop\n      jump\t// out\n        /* \"#utility.yul\":691:905   */\n    tag_7:\n        /* \"#utility.yul\":780:784   */\n      0x00\n        /* \"#utility.yul\":818:820   */\n      0x20\n        /* \"#utility.yul\":807:816   */\n      dup3\n        /* \"#utility.yul\":803:821   */\n      add\n        /* \"#utility.yul\":795:821   */\n      swap1\n      pop\n        /* \"#utility.yul\":831:898   */\n      tag_28\n        /* \"#utility.yul\":895:896   */\n      0x00\n        /* \"#utility.yul\":884:893   */\n      dup4\n        /* \"#utility.yul\":880:897   */\n      add\n        /* \"#utility.yul\":871:877   */\n      dup5\n        /* \"#utility.yul\":831:898   */\n      tag_20\n      jump\t// in\n    tag_28:\n        /* \"#utility.yul\":691:905   */\n      swap3\n      swap2\n      pop\n      pop\n      jump\t// out\n        /* \"#utility.yul\":911:988   */\n    tag_18:\n        /* \"#utility.yul\":948:955   */\n      0x00\n        /* \"#utility.yul\":977:982   */\n      dup2\n        /* \"#utility.yul\":966:982   */\n      swap1\n      pop\n        /* \"#utility.yul\":911:988   */\n      swap2\n      swap1\n      pop\n      jump\t// out\n        /* \"#utility.yul\":994:1080   */\n    tag_23:\n        /* \"#utility.yul\":1029:1036   */\n      0x00\n        /* \"#utility.yul\":1069:1073   */\n      0xff\n        /* \"#utility.yul\":1062:1067   */\n      dup3\n        /* \"#utility.yul\":1058:1074   */\n      and\n        /* \"#utility.yul\":1047:1074   */\n      swap1\n      pop\n        /* \"#utility.yul\":994:1080   */\n      swap2\n      swap1\n      pop\n      jump\t// out\n        /* \"#utility.yul\":1086:1165   */\n    tag_19:\n        /* \"#utility.yul\":1125:1132   */\n      0x00\n        /* \"#utility.yul\":1154:1159   */\n      dup2\n        /* \"#utility.yul\":1143:1159   */\n      swap1\n      pop\n        /* \"#utility.yul\":1086:1165   */\n      swap2\n      swap1\n      pop\n      jump\t// out\n        /* \"#utility.yul\":1171:1347   */\n    tag_12:\n        /* \"#utility.yul\":1203:1204   */\n      0x00\n        /* \"#utility.yul\":1220:1240   */\n      tag_33\n        /* \"#utility.yul\":1238:1239   */\n      dup3\n        /* \"#utility.yul\":1220:1240   */\n      tag_18\n      jump\t// in\n    tag_33:\n        /* \"#utility.yul\":1215:1240   */\n      swap2\n      pop\n        /* \"#utility.yul\":1254:1274   */\n      tag_34\n        /* \"#utility.yul\":1272:1273   */\n      dup4\n        /* \"#utility.yul\":1254:1274   */\n      tag_18\n      jump\t// in\n    tag_34:\n        /* \"#utility.yul\":1249:1274   */\n      swap3\n      pop\n        /* \"#utility.yul\":1293:1294   */\n      dup3\n        /* \"#utility.yul\":1283:1318   */\n      tag_35\n      jumpi\n        /* \"#utility.yul\":1298:1316   */\n      tag_36\n      tag_37\n      jump\t// in\n    tag_36:\n        /* \"#utility.yul\":1283:1318   */\n    tag_35:\n        /* \"#utility.yul\":1339:1340   */\n      dup3\n        /* \"#utility.yul\":1336:1337   */\n      dup3\n        /* \"#utility.yul\":1332:1341   */\n      mod\n        /* \"#utility.yul\":1327:1341   */\n      swap1\n      pop\n        /* \"#utility.yul\":1171:1347   */\n      swap3\n      swap2\n      pop\n      pop\n      jump\t// out\n        /* \"#utility.yul\":1353:1533   */\n    tag_37:\n        /* \"#utility.yul\":1401:1478   */\n      0x4e487b7100000000000000000000000000000000000000000000000000000000\n        /* \"#utility.yul\":1398:1399   */\n      0x00\n        /* \"#utility.yul\":1391:1479   */\n      mstore\n        /* \"#utility.yul\":1498:1502   */\n      0x12\n        /* \"#utility.yul\":1495:1496   */\n      0x04\n        /* \"#utility.yul\":1488:1503   */\n      mstore\n        /* \"#utility.yul\":1522:1526   */\n      0x24\n        /* \"#utility.yul\":1519:1520   */\n      0x00\n        /* \"#utility.yul\":1512:1527   */\n      revert\n\n    auxdata: 0xa2646970667358221220e479f4930278fd92a21155e200b190337df8cb0139f15c912a6f4f969e2522a664736f6c63430008070033\n}\n",
				"bytecode": {
					"linkReferences": {},
					"object": "608060405234801561001057600080fd5b506101b6806100206000396000f3fe608060405234801561001057600080fd5b506004361061002b5760003560e01c806302e4af0114610030575b600080fd5b61003861004e565b60405161004591906100e4565b60405180910390f35b60008060fb42446040516020016100669291906100b8565b6040516020818303038152906040528051906020012060001c6100899190610120565b90508091505090565b6100a361009e826100ff565b610116565b82525050565b6100b281610109565b82525050565b60006100c48285610092565b6020820191506100d48284610092565b6020820191508190509392505050565b60006020820190506100f960008301846100a9565b92915050565b6000819050919050565b600060ff82169050919050565b6000819050919050565b600061012b826100ff565b9150610136836100ff565b92508261014657610145610151565b5b828206905092915050565b7f4e487b7100000000000000000000000000000000000000000000000000000000600052601260045260246000fdfea2646970667358221220e479f4930278fd92a21155e200b190337df8cb0139f15c912a6f4f969e2522a664736f6c63430008070033",
					"opcodes": "PUSH1 0x80 PUSH1 0x40 MSTORE CALLVALUE DUP1 ISZERO PUSH2 0x10 JUMPI PUSH1 0x0 DUP1 REVERT JUMPDEST POP PUSH2 0x1B6 DUP1 PUSH2 0x20 PUSH1 0x0 CODECOPY PUSH1 0x0 RETURN INVALID PUSH1 0x80 PUSH1 0x40 MSTORE CALLVALUE DUP1 ISZERO PUSH2 0x10 JUMPI PUSH1 0x0 DUP1 REVERT JUMPDEST POP PUSH1 0x4 CALLDATASIZE LT PUSH2 0x2B JUMPI PUSH1 0x0 CALLDATALOAD PUSH1 0xE0 SHR DUP1 PUSH4 0x2E4AF01 EQ PUSH2 0x30 JUMPI JUMPDEST PUSH1 0x0 DUP1 REVERT JUMPDEST PUSH2 0x38 PUSH2 0x4E JUMP JUMPDEST PUSH1 0x40 MLOAD PUSH2 0x45 SWAP2 SWAP1 PUSH2 0xE4 JUMP JUMPDEST PUSH1 0x40 MLOAD DUP1 SWAP2 SUB SWAP1 RETURN JUMPDEST PUSH1 0x0 DUP1 PUSH1 0xFB TIMESTAMP DIFFICULTY PUSH1 0x40 MLOAD PUSH1 0x20 ADD PUSH2 0x66 SWAP3 SWAP2 SWAP1 PUSH2 0xB8 JUMP JUMPDEST PUSH1 0x40 MLOAD PUSH1 0x20 DUP2 DUP4 SUB SUB DUP2 MSTORE SWAP1 PUSH1 0x40 MSTORE DUP1 MLOAD SWAP1 PUSH1 0x20 ADD KECCAK256 PUSH1 0x0 SHR PUSH2 0x89 SWAP2 SWAP1 PUSH2 0x120 JUMP JUMPDEST SWAP1 POP DUP1 SWAP2 POP POP SWAP1 JUMP JUMPDEST PUSH2 0xA3 PUSH2 0x9E DUP3 PUSH2 0xFF JUMP JUMPDEST PUSH2 0x116 JUMP JUMPDEST DUP3 MSTORE POP POP JUMP JUMPDEST PUSH2 0xB2 DUP2 PUSH2 0x109 JUMP JUMPDEST DUP3 MSTORE POP POP JUMP JUMPDEST PUSH1 0x0 PUSH2 0xC4 DUP3 DUP6 PUSH2 0x92 JUMP JUMPDEST PUSH1 0x20 DUP3 ADD SWAP2 POP PUSH2 0xD4 DUP3 DUP5 PUSH2 0x92 JUMP JUMPDEST PUSH1 0x20 DUP3 ADD SWAP2 POP DUP2 SWAP1 POP SWAP4 SWAP3 POP POP POP JUMP JUMPDEST PUSH1 0x0 PUSH1 0x20 DUP3 ADD SWAP1 POP PUSH2 0xF9 PUSH1 0x0 DUP4 ADD DUP5 PUSH2 0xA9 JUMP JUMPDEST SWAP3 SWAP2 POP POP JUMP JUMPDEST PUSH1 0x0 DUP2 SWAP1 POP SWAP2 SWAP1 POP JUMP JUMPDEST PUSH1 0x0 PUSH1 0xFF DUP3 AND SWAP1 POP SWAP2 SWAP1 POP JUMP JUMPDEST PUSH1 0x0 DUP2 SWAP1 POP SWAP2 SWAP1 POP JUMP JUMPDEST PUSH1 0x0 PUSH2 0x12B DUP3 PUSH2 0xFF JUMP JUMPDEST SWAP2 POP PUSH2 0x136 DUP4 PUSH2 0xFF JUMP JUMPDEST SWAP3 POP DUP3 PUSH2 0x146 JUMPI PUSH2 0x145 PUSH2 0x151 JUMP JUMPDEST JUMPDEST DUP3 DUP3 MOD SWAP1 POP SWAP3 SWAP2 POP POP JUMP JUMPDEST PUSH32 0x4E487B7100000000000000000000000000000000000000000000000000000000 PUSH1 0x0 MSTORE PUSH1 0x12 PUSH1 0x4 MSTORE PUSH1 0x24 PUSH1 0x0 REVERT INVALID LOG2 PUSH5 0x6970667358 0x22 SLT KECCAK256 0xE4 PUSH26 0xF4930278FD92A21155E200B190337DF8CB0139F15C912A6F4F96 SWAP15 0x25 0x22 0xA6 PUSH5 0x736F6C6343 STOP ADDMOD SMOD STOP CALLER "
				},
				"gasEstimates": {
					"creation": {
						"codeDepositCost": "87600",
						"executionCost": "135",
						"totalCost": "87735"
					},
					"external": {
						"generateRandom()": "infinite"
					}
				},
				"methodIdentifiers": {
					"generateRandom()": "02e4af01"
				}
			},
			"storageLayout": {
				"storage": [],
				"types": null
			},
			"userdoc": {
				"kind": "user",
				"methods": {},
				"version": 1
			}
		}
	}
}