{
	"test/Data.sol": {
		"DataType": {
			"abi": [
				{
					"inputs": [],
					"name": "data1",
					"outputs": [
						{
							"internalType": "bool",
							"name": "",
							"type": "bool"
						}
					],
					"stateMutability": "view",
					"type": "function"
				},
				{
					"inputs": [],
					"name": "data10",
					"outputs": [
						{
							"internalType": "bytes20",
							"name": "",
							"type": "bytes20"
						}
					],
					"stateMutability": "view",
					"type": "function"
				},
				{
					"inputs": [],
					"name": "data11",
					"outputs": [
						{
							"internalType": "bytes32",
							"name": "",
							"type": "bytes32"
						}
					],
					"stateMutability": "view",
					"type": "function"
				},
				{
					"inputs": [],
					"name": "data12",
					"outputs": [
						{
							"internalType": "address",
							"name": "",
							"type": "address"
						}
					],
					"stateMutability": "view",
					"type": "function"
				},
				{
					"inputs": [],
					"name": "data2",
					"outputs": [
						{
							"internalType": "int256",
							"name": "",
							"type": "int256"
						}
					],
					"stateMutability": "view",
					"type": "function"
				},
				{
					"inputs": [],
					"name": "data3",
					"outputs": [
						{
							"internalType": "uint256",
							"name": "",
							"type": "uint256"
						}
					],
					"stateMutability": "view",
					"type": "function"
				},
				{
					"inputs": [],
					"name": "data4",
					"outputs": [
						{
							"internalType": "uint256",
							"name": "",
							"type": "uint256"
						}
					],
					"stateMutability": "view",
					"type": "function"
				},
				{
					"inputs": [],
					"name": "data5",
					"outputs": [
						{
							"internalType": "int256",
							"name": "",
							"type": "int256"
						}
					],
					"stateMutability": "view",
					"type": "function"
				},
				{
					"inputs": [],
					"name": "data6",
					"outputs": [
						{
							"internalType": "uint8",
							"name": "",
							"type": "uint8"
						}
					],
					"stateMutability": "view",
					"type": "function"
				},
				{
					"inputs": [],
					"name": "data7",
					"outputs": [
						{
							"internalType": "int8",
							"name": "",
							"type": "int8"
						}
					],
					"stateMutability": "view",
					"type": "function"
				},
				{
					"inputs": [],
					"name": "data8",
					"outputs": [
						{
							"internalType": "string",
							"name": "",
							"type": "string"
						}
					],
					"stateMutability": "view",
					"type": "function"
				},
				{
					"inputs": [],
					"name": "data9",
					"outputs": [
						{
							"internalType": "bytes",
							"name": "",
							"type": "bytes"
						}
					],
					"stateMutability": "view",
					"type": "function"
				}
			],
			"devdoc": {
				"kind": "dev",
				"methods": {},
				"version": 1
			},
			"evm": {
				"assembly": "    /* \"test/Data.sol\":33:843  contract DataType{ ... */\n  mstore(0x40, 0x80)\n    /* \"test/Data.sol\":101:105  true */\n  0x01\n    /* \"test/Data.sol\":81:105  bool public data1 = true */\n  0x00\n  dup1\n  0x0100\n  exp\n  dup2\n  sload\n  dup2\n  0xff\n  mul\n  not\n  and\n  swap1\n  dup4\n  iszero\n  iszero\n  mul\n  or\n  swap1\n  sstore\n  pop\n    /* \"test/Data.sol\":138:141  -10 */\n  0xfffffffffffffffffffffffffffffffffffffffffffffffffffffffffffffff6\n    /* \"test/Data.sol\":119:141  int public data2 = -10 */\n  0x01\n  sstore\n    /* \"test/Data.sol\":167:169  10 */\n  0x0a\n    /* \"test/Data.sol\":147:169  uint public data3 = 10 */\n  0x02\n  sstore\n    /* \"test/Data.sol\":221:233  100000000000 */\n  0x174876e800\n    /* \"test/Data.sol\":198:233  uint256 public data4 = 100000000000 */\n  0x03\n  sstore\n    /* \"test/Data.sol\":274:295  -10000000000000000000 */\n  0xffffffffffffffffffffffffffffffffffffffffffffffff7538dcfb76180000\n    /* \"test/Data.sol\":252:295  int256 public data5 = -10000000000000000000 */\n  0x04\n  sstore\n    /* \"test/Data.sol\":368:371  100 */\n  0x64\n    /* \"test/Data.sol\":347:371  uint8 public data6 = 100 */\n  0x05\n  exp(0x0100, 0x00)\n  dup2\n  sload\n  dup2\n  0xff\n  mul\n  not\n  and\n  swap1\n  dup4\n  0xff\n  and\n  mul\n  or\n  swap1\n  sstore\n  pop\n    /* \"test/Data.sol\":461:465  -100 */\n  0xffffffffffffffffffffffffffffffffffffffffffffffffffffffffffffff9c\n    /* \"test/Data.sol\":441:465  int8 public data7 = -100 */\n  0x05\n  exp(0x0100, 0x01)\n  dup2\n  sload\n  dup2\n  0xff\n  mul\n  not\n  and\n  swap1\n  dup4\n  0x00\n  signextend\n  0xff\n  and\n  mul\n  or\n  swap1\n  sstore\n  pop\n    /* \"test/Data.sol\":487:520  string public data8 = \"choisangh\" */\n  mload(0x40)\n  dup1\n  0x40\n  add\n  0x40\n  mstore\n  dup1\n  0x09\n  dup2\n  mstore\n  0x20\n  add\n  0x63686f6973616e67680000000000000000000000000000000000000000000000\n  dup2\n  mstore\n  pop\n  0x06\n  swap1\n  dup1\n  mload\n  swap1\n  0x20\n  add\n  swap1\n  tag_1\n  swap3\n  swap2\n  swap1\n  tag_2\n  jump\t// in\ntag_1:\n  pop\n    /* \"test/Data.sol\":526:558  bytes public data9 = \"choisangh\" */\n  mload(0x40)\n  dup1\n  0x40\n  add\n  0x40\n  mstore\n  dup1\n  0x09\n  dup2\n  mstore\n  0x20\n  add\n  0x63686f6973616e67680000000000000000000000000000000000000000000000\n  dup2\n  mstore\n  pop\n  0x07\n  swap1\n  dup1\n  mload\n  swap1\n  0x20\n  add\n  swap1\n  tag_3\n  swap3\n  swap2\n  swap1\n  tag_4\n  jump\t// in\ntag_3:\n  pop\n    /* \"test/Data.sol\":564:633  bytes20 public data10 = hex\"8e27f274fa90b0b116b001626150d87c94993964\" */\n  0x8e27f274fa90b0b116b001626150d87c94993964000000000000000000000000\n  0x08\n  exp(0x0100, 0x00)\n  dup2\n  sload\n  dup2\n  0xffffffffffffffffffffffffffffffffffffffff\n  mul\n  not\n  and\n  swap1\n  dup4\n  0x60\n  shr\n  mul\n  or\n  swap1\n  sstore\n  pop\n    /* \"test/Data.sol\":650:743  bytes32 public data11 = hex\"0f1c5a35d40d2831c63e41f83d0174dd0ccf294beacceb6f39bed260f7ecbe50\" */\n  sstore(0x09, 0x0f1c5a35d40d2831c63e41f83d0174dd0ccf294beacceb6f39bed260f7ecbe50)\n    /* \"test/Data.sol\":798:840  0x30AE003d9c29Cd9D403F84312744B0f1abcae95c */\n  0x30ae003d9c29cd9d403f84312744b0f1abcae95c\n    /* \"test/Data.sol\":774:840  address public data12 = 0x30AE003d9c29Cd9D403F84312744B0f1abcae95c */\n  0x0a\n  exp(0x0100, 0x00)\n  dup2\n  sload\n  dup2\n  0xffffffffffffffffffffffffffffffffffffffff\n  mul\n  not\n  and\n  swap1\n  dup4\n  0xffffffffffffffffffffffffffffffffffffffff\n  and\n  mul\n  or\n  swap1\n  sstore\n  pop\n    /* \"test/Data.sol\":33:843  contract DataType{ ... */\n  callvalue\n  dup1\n  iszero\n  tag_5\n  jumpi\n  0x00\n  dup1\n  revert\ntag_5:\n  pop\n  jump(tag_6)\ntag_2:\n  dup3\n  dup1\n  sload\n  tag_7\n  swap1\n  tag_8\n  jump\t// in\ntag_7:\n  swap1\n  0x00\n  mstore\n  keccak256(0x00, 0x20)\n  swap1\n  0x1f\n  add\n  0x20\n  swap1\n  div\n  dup2\n  add\n  swap3\n  dup3\n  tag_10\n  jumpi\n  0x00\n  dup6\n  sstore\n  jump(tag_9)\ntag_10:\n  dup3\n  0x1f\n  lt\n  tag_11\n  jumpi\n  dup1\n  mload\n  not(0xff)\n  and\n  dup4\n  dup1\n  add\n  or\n  dup6\n  sstore\n  jump(tag_9)\ntag_11:\n  dup3\n  dup1\n  add\n  0x01\n  add\n  dup6\n  sstore\n  dup3\n  iszero\n  tag_9\n  jumpi\n  swap2\n  dup3\n  add\ntag_12:\n  dup3\n  dup2\n  gt\n  iszero\n  tag_13\n  jumpi\n  dup3\n  mload\n  dup3\n  sstore\n  swap2\n  0x20\n  add\n  swap2\n  swap1\n  0x01\n  add\n  swap1\n  jump(tag_12)\ntag_13:\ntag_9:\n  pop\n  swap1\n  pop\n  tag_14\n  swap2\n  swap1\n  tag_15\n  jump\t// in\ntag_14:\n  pop\n  swap1\n  jump\t// out\ntag_4:\n  dup3\n  dup1\n  sload\n  tag_16\n  swap1\n  tag_8\n  jump\t// in\ntag_16:\n  swap1\n  0x00\n  mstore\n  keccak256(0x00, 0x20)\n  swap1\n  0x1f\n  add\n  0x20\n  swap1\n  div\n  dup2\n  add\n  swap3\n  dup3\n  tag_18\n  jumpi\n  0x00\n  dup6\n  sstore\n  jump(tag_17)\ntag_18:\n  dup3\n  0x1f\n  lt\n  tag_19\n  jumpi\n  dup1\n  mload\n  not(0xff)\n  and\n  dup4\n  dup1\n  add\n  or\n  dup6\n  sstore\n  jump(tag_17)\ntag_19:\n  dup3\n  dup1\n  add\n  0x01\n  add\n  dup6\n  sstore\n  dup3\n  iszero\n  tag_17\n  jumpi\n  swap2\n  dup3\n  add\ntag_20:\n  dup3\n  dup2\n  gt\n  iszero\n  tag_21\n  jumpi\n  dup3\n  mload\n  dup3\n  sstore\n  swap2\n  0x20\n  add\n  swap2\n  swap1\n  0x01\n  add\n  swap1\n  jump(tag_20)\ntag_21:\ntag_17:\n  pop\n  swap1\n  pop\n  tag_22\n  swap2\n  swap1\n  tag_15\n  jump\t// in\ntag_22:\n  pop\n  swap1\n  jump\t// out\ntag_15:\ntag_23:\n  dup1\n  dup3\n  gt\n  iszero\n  tag_24\n  jumpi\n  0x00\n  dup2\n  0x00\n  swap1\n  sstore\n  pop\n  0x01\n  add\n  jump(tag_23)\ntag_24:\n  pop\n  swap1\n  jump\t// out\n    /* \"#utility.yul\":7:327   */\ntag_8:\n    /* \"#utility.yul\":51:57   */\n  0x00\n    /* \"#utility.yul\":88:89   */\n  0x02\n    /* \"#utility.yul\":82:86   */\n  dup3\n    /* \"#utility.yul\":78:90   */\n  div\n    /* \"#utility.yul\":68:90   */\n  swap1\n  pop\n    /* \"#utility.yul\":135:136   */\n  0x01\n    /* \"#utility.yul\":129:133   */\n  dup3\n    /* \"#utility.yul\":125:137   */\n  and\n    /* \"#utility.yul\":156:174   */\n  dup1\n    /* \"#utility.yul\":146:227   */\n  tag_27\n  jumpi\n    /* \"#utility.yul\":212:216   */\n  0x7f\n    /* \"#utility.yul\":204:210   */\n  dup3\n    /* \"#utility.yul\":200:217   */\n  and\n    /* \"#utility.yul\":190:217   */\n  swap2\n  pop\n    /* \"#utility.yul\":146:227   */\ntag_27:\n    /* \"#utility.yul\":274:276   */\n  0x20\n    /* \"#utility.yul\":266:272   */\n  dup3\n    /* \"#utility.yul\":263:277   */\n  lt\n    /* \"#utility.yul\":243:261   */\n  dup2\n    /* \"#utility.yul\":240:278   */\n  eq\n    /* \"#utility.yul\":237:321   */\n  iszero\n  tag_28\n  jumpi\n    /* \"#utility.yul\":293:311   */\n  tag_29\n  tag_30\n  jump\t// in\ntag_29:\n    /* \"#utility.yul\":237:321   */\ntag_28:\n    /* \"#utility.yul\":58:327   */\n  pop\n    /* \"#utility.yul\":7:327   */\n  swap2\n  swap1\n  pop\n  jump\t// out\n    /* \"#utility.yul\":333:513   */\ntag_30:\n    /* \"#utility.yul\":381:458   */\n  0x4e487b7100000000000000000000000000000000000000000000000000000000\n    /* \"#utility.yul\":378:379   */\n  0x00\n    /* \"#utility.yul\":371:459   */\n  mstore\n    /* \"#utility.yul\":478:482   */\n  0x22\n    /* \"#utility.yul\":475:476   */\n  0x04\n    /* \"#utility.yul\":468:483   */\n  mstore\n    /* \"#utility.yul\":502:506   */\n  0x24\n    /* \"#utility.yul\":499:500   */\n  0x00\n    /* \"#utility.yul\":492:507   */\n  revert\n    /* \"test/Data.sol\":33:843  contract DataType{ ... */\ntag_6:\n  dataSize(sub_0)\n  dup1\n  dataOffset(sub_0)\n  0x00\n  codecopy\n  0x00\n  return\nstop\n\nsub_0: assembly {\n        /* \"test/Data.sol\":33:843  contract DataType{ ... */\n      mstore(0x40, 0x80)\n      callvalue\n      dup1\n      iszero\n      tag_1\n      jumpi\n      0x00\n      dup1\n      revert\n    tag_1:\n      pop\n      jumpi(tag_2, lt(calldatasize, 0x04))\n      shr(0xe0, calldataload(0x00))\n      dup1\n      0xc35887a7\n      gt\n      tag_15\n      jumpi\n      dup1\n      0xc35887a7\n      eq\n      tag_9\n      jumpi\n      dup1\n      0xe3a7fd75\n      eq\n      tag_10\n      jumpi\n      dup1\n      0xf80b56c9\n      eq\n      tag_11\n      jumpi\n      dup1\n      0xfab29b45\n      eq\n      tag_12\n      jumpi\n      dup1\n      0xfc26b0ab\n      eq\n      tag_13\n      jumpi\n      dup1\n      0xfdcc663f\n      eq\n      tag_14\n      jumpi\n      jump(tag_2)\n    tag_15:\n      dup1\n      0x279b95c4\n      eq\n      tag_3\n      jumpi\n      dup1\n      0x2c79b1a9\n      eq\n      tag_4\n      jumpi\n      dup1\n      0x5bff090a\n      eq\n      tag_5\n      jumpi\n      dup1\n      0x5c9fef08\n      eq\n      tag_6\n      jumpi\n      dup1\n      0x61d9e726\n      eq\n      tag_7\n      jumpi\n      dup1\n      0x9ffd85c4\n      eq\n      tag_8\n      jumpi\n    tag_2:\n      0x00\n      dup1\n      revert\n        /* \"test/Data.sol\":564:633  bytes20 public data10 = hex\"8e27f274fa90b0b116b001626150d87c94993964\" */\n    tag_3:\n      tag_16\n      tag_17\n      jump\t// in\n    tag_16:\n      mload(0x40)\n      tag_18\n      swap2\n      swap1\n      tag_19\n      jump\t// in\n    tag_18:\n      mload(0x40)\n      dup1\n      swap2\n      sub\n      swap1\n      return\n        /* \"test/Data.sol\":650:743  bytes32 public data11 = hex\"0f1c5a35d40d2831c63e41f83d0174dd0ccf294beacceb6f39bed260f7ecbe50\" */\n    tag_4:\n      tag_20\n      tag_21\n      jump\t// in\n    tag_20:\n      mload(0x40)\n      tag_22\n      swap2\n      swap1\n      tag_23\n      jump\t// in\n    tag_22:\n      mload(0x40)\n      dup1\n      swap2\n      sub\n      swap1\n      return\n        /* \"test/Data.sol\":774:840  address public data12 = 0x30AE003d9c29Cd9D403F84312744B0f1abcae95c */\n    tag_5:\n      tag_24\n      tag_25\n      jump\t// in\n    tag_24:\n      mload(0x40)\n      tag_26\n      swap2\n      swap1\n      tag_27\n      jump\t// in\n    tag_26:\n      mload(0x40)\n      dup1\n      swap2\n      sub\n      swap1\n      return\n        /* \"test/Data.sol\":526:558  bytes public data9 = \"choisangh\" */\n    tag_6:\n      tag_28\n      tag_29\n      jump\t// in\n    tag_28:\n      mload(0x40)\n      tag_30\n      swap2\n      swap1\n      tag_31\n      jump\t// in\n    tag_30:\n      mload(0x40)\n      dup1\n      swap2\n      sub\n      swap1\n      return\n        /* \"test/Data.sol\":198:233  uint256 public data4 = 100000000000 */\n    tag_7:\n      tag_32\n      tag_33\n      jump\t// in\n    tag_32:\n      mload(0x40)\n      tag_34\n      swap2\n      swap1\n      tag_35\n      jump\t// in\n    tag_34:\n      mload(0x40)\n      dup1\n      swap2\n      sub\n      swap1\n      return\n        /* \"test/Data.sol\":81:105  bool public data1 = true */\n    tag_8:\n      tag_36\n      tag_37\n      jump\t// in\n    tag_36:\n      mload(0x40)\n      tag_38\n      swap2\n      swap1\n      tag_39\n      jump\t// in\n    tag_38:\n      mload(0x40)\n      dup1\n      swap2\n      sub\n      swap1\n      return\n        /* \"test/Data.sol\":252:295  int256 public data5 = -10000000000000000000 */\n    tag_9:\n      tag_40\n      tag_41\n      jump\t// in\n    tag_40:\n      mload(0x40)\n      tag_42\n      swap2\n      swap1\n      tag_43\n      jump\t// in\n    tag_42:\n      mload(0x40)\n      dup1\n      swap2\n      sub\n      swap1\n      return\n        /* \"test/Data.sol\":119:141  int public data2 = -10 */\n    tag_10:\n      tag_44\n      tag_45\n      jump\t// in\n    tag_44:\n      mload(0x40)\n      tag_46\n      swap2\n      swap1\n      tag_43\n      jump\t// in\n    tag_46:\n      mload(0x40)\n      dup1\n      swap2\n      sub\n      swap1\n      return\n        /* \"test/Data.sol\":487:520  string public data8 = \"choisangh\" */\n    tag_11:\n      tag_47\n      tag_48\n      jump\t// in\n    tag_47:\n      mload(0x40)\n      tag_49\n      swap2\n      swap1\n      tag_50\n      jump\t// in\n    tag_49:\n      mload(0x40)\n      dup1\n      swap2\n      sub\n      swap1\n      return\n        /* \"test/Data.sol\":347:371  uint8 public data6 = 100 */\n    tag_12:\n      tag_51\n      tag_52\n      jump\t// in\n    tag_51:\n      mload(0x40)\n      tag_53\n      swap2\n      swap1\n      tag_54\n      jump\t// in\n    tag_53:\n      mload(0x40)\n      dup1\n      swap2\n      sub\n      swap1\n      return\n        /* \"test/Data.sol\":147:169  uint public data3 = 10 */\n    tag_13:\n      tag_55\n      tag_56\n      jump\t// in\n    tag_55:\n      mload(0x40)\n      tag_57\n      swap2\n      swap1\n      tag_35\n      jump\t// in\n    tag_57:\n      mload(0x40)\n      dup1\n      swap2\n      sub\n      swap1\n      return\n        /* \"test/Data.sol\":441:465  int8 public data7 = -100 */\n    tag_14:\n      tag_58\n      tag_59\n      jump\t// in\n    tag_58:\n      mload(0x40)\n      tag_60\n      swap2\n      swap1\n      tag_61\n      jump\t// in\n    tag_60:\n      mload(0x40)\n      dup1\n      swap2\n      sub\n      swap1\n      return\n        /* \"test/Data.sol\":564:633  bytes20 public data10 = hex\"8e27f274fa90b0b116b001626150d87c94993964\" */\n    tag_17:\n      0x08\n      0x00\n      swap1\n      sload\n      swap1\n      0x0100\n      exp\n      swap1\n      div\n      0x60\n      shl\n      dup2\n      jump\t// out\n        /* \"test/Data.sol\":650:743  bytes32 public data11 = hex\"0f1c5a35d40d2831c63e41f83d0174dd0ccf294beacceb6f39bed260f7ecbe50\" */\n    tag_21:\n      sload(0x09)\n      dup2\n      jump\t// out\n        /* \"test/Data.sol\":774:840  address public data12 = 0x30AE003d9c29Cd9D403F84312744B0f1abcae95c */\n    tag_25:\n      0x0a\n      0x00\n      swap1\n      sload\n      swap1\n      0x0100\n      exp\n      swap1\n      div\n      0xffffffffffffffffffffffffffffffffffffffff\n      and\n      dup2\n      jump\t// out\n        /* \"test/Data.sol\":526:558  bytes public data9 = \"choisangh\" */\n    tag_29:\n      0x07\n      dup1\n      sload\n      tag_62\n      swap1\n      tag_63\n      jump\t// in\n    tag_62:\n      dup1\n      0x1f\n      add\n      0x20\n      dup1\n      swap2\n      div\n      mul\n      0x20\n      add\n      mload(0x40)\n      swap1\n      dup2\n      add\n      0x40\n      mstore\n      dup1\n      swap3\n      swap2\n      swap1\n      dup2\n      dup2\n      mstore\n      0x20\n      add\n      dup3\n      dup1\n      sload\n      tag_64\n      swap1\n      tag_63\n      jump\t// in\n    tag_64:\n      dup1\n      iszero\n      tag_65\n      jumpi\n      dup1\n      0x1f\n      lt\n      tag_66\n      jumpi\n      0x0100\n      dup1\n      dup4\n      sload\n      div\n      mul\n      dup4\n      mstore\n      swap2\n      0x20\n      add\n      swap2\n      jump(tag_65)\n    tag_66:\n      dup3\n      add\n      swap2\n      swap1\n      0x00\n      mstore\n      keccak256(0x00, 0x20)\n      swap1\n    tag_67:\n      dup2\n      sload\n      dup2\n      mstore\n      swap1\n      0x01\n      add\n      swap1\n      0x20\n      add\n      dup1\n      dup4\n      gt\n      tag_67\n      jumpi\n      dup3\n      swap1\n      sub\n      0x1f\n      and\n      dup3\n      add\n      swap2\n    tag_65:\n      pop\n      pop\n      pop\n      pop\n      pop\n      dup2\n      jump\t// out\n        /* \"test/Data.sol\":198:233  uint256 public data4 = 100000000000 */\n    tag_33:\n      sload(0x03)\n      dup2\n      jump\t// out\n        /* \"test/Data.sol\":81:105  bool public data1 = true */\n    tag_37:\n      0x00\n      dup1\n      sload\n      swap1\n      0x0100\n      exp\n      swap1\n      div\n      0xff\n      and\n      dup2\n      jump\t// out\n        /* \"test/Data.sol\":252:295  int256 public data5 = -10000000000000000000 */\n    tag_41:\n      sload(0x04)\n      dup2\n      jump\t// out\n        /* \"test/Data.sol\":119:141  int public data2 = -10 */\n    tag_45:\n      sload(0x01)\n      dup2\n      jump\t// out\n        /* \"test/Data.sol\":487:520  string public data8 = \"choisangh\" */\n    tag_48:\n      0x06\n      dup1\n      sload\n      tag_68\n      swap1\n      tag_63\n      jump\t// in\n    tag_68:\n      dup1\n      0x1f\n      add\n      0x20\n      dup1\n      swap2\n      div\n      mul\n      0x20\n      add\n      mload(0x40)\n      swap1\n      dup2\n      add\n      0x40\n      mstore\n      dup1\n      swap3\n      swap2\n      swap1\n      dup2\n      dup2\n      mstore\n      0x20\n      add\n      dup3\n      dup1\n      sload\n      tag_69\n      swap1\n      tag_63\n      jump\t// in\n    tag_69:\n      dup1\n      iszero\n      tag_70\n      jumpi\n      dup1\n      0x1f\n      lt\n      tag_71\n      jumpi\n      0x0100\n      dup1\n      dup4\n      sload\n      div\n      mul\n      dup4\n      mstore\n      swap2\n      0x20\n      add\n      swap2\n      jump(tag_70)\n    tag_71:\n      dup3\n      add\n      swap2\n      swap1\n      0x00\n      mstore\n      keccak256(0x00, 0x20)\n      swap1\n    tag_72:\n      dup2\n      sload\n      dup2\n      mstore\n      swap1\n      0x01\n      add\n      swap1\n      0x20\n      add\n      dup1\n      dup4\n      gt\n      tag_72\n      jumpi\n      dup3\n      swap1\n      sub\n      0x1f\n      and\n      dup3\n      add\n      swap2\n    tag_70:\n      pop\n      pop\n      pop\n      pop\n      pop\n      dup2\n      jump\t// out\n        /* \"test/Data.sol\":347:371  uint8 public data6 = 100 */\n    tag_52:\n      0x05\n      0x00\n      swap1\n      sload\n      swap1\n      0x0100\n      exp\n      swap1\n      div\n      0xff\n      and\n      dup2\n      jump\t// out\n        /* \"test/Data.sol\":147:169  uint public data3 = 10 */\n    tag_56:\n      sload(0x02)\n      dup2\n      jump\t// out\n        /* \"test/Data.sol\":441:465  int8 public data7 = -100 */\n    tag_59:\n      0x05\n      0x01\n      swap1\n      sload\n      swap1\n      0x0100\n      exp\n      swap1\n      div\n      0x00\n      signextend\n      dup2\n      jump\t// out\n        /* \"#utility.yul\":7:125   */\n    tag_74:\n        /* \"#utility.yul\":94:118   */\n      tag_76\n        /* \"#utility.yul\":112:117   */\n      dup2\n        /* \"#utility.yul\":94:118   */\n      tag_77\n      jump\t// in\n    tag_76:\n        /* \"#utility.yul\":89:92   */\n      dup3\n        /* \"#utility.yul\":82:119   */\n      mstore\n        /* \"#utility.yul\":7:125   */\n      pop\n      pop\n      jump\t// out\n        /* \"#utility.yul\":131:240   */\n    tag_78:\n        /* \"#utility.yul\":212:233   */\n      tag_80\n        /* \"#utility.yul\":227:232   */\n      dup2\n        /* \"#utility.yul\":212:233   */\n      tag_81\n      jump\t// in\n    tag_80:\n        /* \"#utility.yul\":207:210   */\n      dup3\n        /* \"#utility.yul\":200:234   */\n      mstore\n        /* \"#utility.yul\":131:240   */\n      pop\n      pop\n      jump\t// out\n        /* \"#utility.yul\":246:364   */\n    tag_82:\n        /* \"#utility.yul\":333:357   */\n      tag_84\n        /* \"#utility.yul\":351:356   */\n      dup2\n        /* \"#utility.yul\":333:357   */\n      tag_85\n      jump\t// in\n    tag_84:\n        /* \"#utility.yul\":328:331   */\n      dup3\n        /* \"#utility.yul\":321:358   */\n      mstore\n        /* \"#utility.yul\":246:364   */\n      pop\n      pop\n      jump\t// out\n        /* \"#utility.yul\":370:488   */\n    tag_86:\n        /* \"#utility.yul\":457:481   */\n      tag_88\n        /* \"#utility.yul\":475:480   */\n      dup2\n        /* \"#utility.yul\":457:481   */\n      tag_89\n      jump\t// in\n    tag_88:\n        /* \"#utility.yul\":452:455   */\n      dup3\n        /* \"#utility.yul\":445:482   */\n      mstore\n        /* \"#utility.yul\":370:488   */\n      pop\n      pop\n      jump\t// out\n        /* \"#utility.yul\":494:854   */\n    tag_90:\n        /* \"#utility.yul\":580:583   */\n      0x00\n        /* \"#utility.yul\":608:646   */\n      tag_92\n        /* \"#utility.yul\":640:645   */\n      dup3\n        /* \"#utility.yul\":608:646   */\n      tag_93\n      jump\t// in\n    tag_92:\n        /* \"#utility.yul\":662:732   */\n      tag_94\n        /* \"#utility.yul\":725:731   */\n      dup2\n        /* \"#utility.yul\":720:723   */\n      dup6\n        /* \"#utility.yul\":662:732   */\n      tag_95\n      jump\t// in\n    tag_94:\n        /* \"#utility.yul\":655:732   */\n      swap4\n      pop\n        /* \"#utility.yul\":741:793   */\n      tag_96\n        /* \"#utility.yul\":786:792   */\n      dup2\n        /* \"#utility.yul\":781:784   */\n      dup6\n        /* \"#utility.yul\":774:778   */\n      0x20\n        /* \"#utility.yul\":767:772   */\n      dup7\n        /* \"#utility.yul\":763:779   */\n      add\n        /* \"#utility.yul\":741:793   */\n      tag_97\n      jump\t// in\n    tag_96:\n        /* \"#utility.yul\":818:847   */\n      tag_98\n        /* \"#utility.yul\":840:846   */\n      dup2\n        /* \"#utility.yul\":818:847   */\n      tag_99\n      jump\t// in\n    tag_98:\n        /* \"#utility.yul\":813:816   */\n      dup5\n        /* \"#utility.yul\":809:848   */\n      add\n        /* \"#utility.yul\":802:848   */\n      swap2\n      pop\n        /* \"#utility.yul\":584:854   */\n      pop\n        /* \"#utility.yul\":494:854   */\n      swap3\n      swap2\n      pop\n      pop\n      jump\t// out\n        /* \"#utility.yul\":860:975   */\n    tag_100:\n        /* \"#utility.yul\":945:968   */\n      tag_102\n        /* \"#utility.yul\":962:967   */\n      dup2\n        /* \"#utility.yul\":945:968   */\n      tag_103\n      jump\t// in\n    tag_102:\n        /* \"#utility.yul\":940:943   */\n      dup3\n        /* \"#utility.yul\":933:969   */\n      mstore\n        /* \"#utility.yul\":860:975   */\n      pop\n      pop\n      jump\t// out\n        /* \"#utility.yul\":981:1090   */\n    tag_104:\n        /* \"#utility.yul\":1062:1083   */\n      tag_106\n        /* \"#utility.yul\":1077:1082   */\n      dup2\n        /* \"#utility.yul\":1062:1083   */\n      tag_107\n      jump\t// in\n    tag_106:\n        /* \"#utility.yul\":1057:1060   */\n      dup3\n        /* \"#utility.yul\":1050:1084   */\n      mstore\n        /* \"#utility.yul\":981:1090   */\n      pop\n      pop\n      jump\t// out\n        /* \"#utility.yul\":1096:1460   */\n    tag_108:\n        /* \"#utility.yul\":1184:1187   */\n      0x00\n        /* \"#utility.yul\":1212:1251   */\n      tag_110\n        /* \"#utility.yul\":1245:1250   */\n      dup3\n        /* \"#utility.yul\":1212:1251   */\n      tag_111\n      jump\t// in\n    tag_110:\n        /* \"#utility.yul\":1267:1338   */\n      tag_112\n        /* \"#utility.yul\":1331:1337   */\n      dup2\n        /* \"#utility.yul\":1326:1329   */\n      dup6\n        /* \"#utility.yul\":1267:1338   */\n      tag_113\n      jump\t// in\n    tag_112:\n        /* \"#utility.yul\":1260:1338   */\n      swap4\n      pop\n        /* \"#utility.yul\":1347:1399   */\n      tag_114\n        /* \"#utility.yul\":1392:1398   */\n      dup2\n        /* \"#utility.yul\":1387:1390   */\n      dup6\n        /* \"#utility.yul\":1380:1384   */\n      0x20\n        /* \"#utility.yul\":1373:1378   */\n      dup7\n        /* \"#utility.yul\":1369:1385   */\n      add\n        /* \"#utility.yul\":1347:1399   */\n      tag_97\n      jump\t// in\n    tag_114:\n        /* \"#utility.yul\":1424:1453   */\n      tag_115\n        /* \"#utility.yul\":1446:1452   */\n      dup2\n        /* \"#utility.yul\":1424:1453   */\n      tag_99\n      jump\t// in\n    tag_115:\n        /* \"#utility.yul\":1419:1422   */\n      dup5\n        /* \"#utility.yul\":1415:1454   */\n      add\n        /* \"#utility.yul\":1408:1454   */\n      swap2\n      pop\n        /* \"#utility.yul\":1188:1460   */\n      pop\n        /* \"#utility.yul\":1096:1460   */\n      swap3\n      swap2\n      pop\n      pop\n      jump\t// out\n        /* \"#utility.yul\":1466:1584   */\n    tag_116:\n        /* \"#utility.yul\":1553:1577   */\n      tag_118\n        /* \"#utility.yul\":1571:1576   */\n      dup2\n        /* \"#utility.yul\":1553:1577   */\n      tag_119\n      jump\t// in\n    tag_118:\n        /* \"#utility.yul\":1548:1551   */\n      dup3\n        /* \"#utility.yul\":1541:1578   */\n      mstore\n        /* \"#utility.yul\":1466:1584   */\n      pop\n      pop\n      jump\t// out\n        /* \"#utility.yul\":1590:1702   */\n    tag_120:\n        /* \"#utility.yul\":1673:1695   */\n      tag_122\n        /* \"#utility.yul\":1689:1694   */\n      dup2\n        /* \"#utility.yul\":1673:1695   */\n      tag_123\n      jump\t// in\n    tag_122:\n        /* \"#utility.yul\":1668:1671   */\n      dup3\n        /* \"#utility.yul\":1661:1696   */\n      mstore\n        /* \"#utility.yul\":1590:1702   */\n      pop\n      pop\n      jump\t// out\n        /* \"#utility.yul\":1708:1930   */\n    tag_27:\n        /* \"#utility.yul\":1801:1805   */\n      0x00\n        /* \"#utility.yul\":1839:1841   */\n      0x20\n        /* \"#utility.yul\":1828:1837   */\n      dup3\n        /* \"#utility.yul\":1824:1842   */\n      add\n        /* \"#utility.yul\":1816:1842   */\n      swap1\n      pop\n        /* \"#utility.yul\":1852:1923   */\n      tag_125\n        /* \"#utility.yul\":1920:1921   */\n      0x00\n        /* \"#utility.yul\":1909:1918   */\n      dup4\n        /* \"#utility.yul\":1905:1922   */\n      add\n        /* \"#utility.yul\":1896:1902   */\n      dup5\n        /* \"#utility.yul\":1852:1923   */\n      tag_74\n      jump\t// in\n    tag_125:\n        /* \"#utility.yul\":1708:1930   */\n      swap3\n      swap2\n      pop\n      pop\n      jump\t// out\n        /* \"#utility.yul\":1936:2146   */\n    tag_39:\n        /* \"#utility.yul\":2023:2027   */\n      0x00\n        /* \"#utility.yul\":2061:2063   */\n      0x20\n        /* \"#utility.yul\":2050:2059   */\n      dup3\n        /* \"#utility.yul\":2046:2064   */\n      add\n        /* \"#utility.yul\":2038:2064   */\n      swap1\n      pop\n        /* \"#utility.yul\":2074:2139   */\n      tag_127\n        /* \"#utility.yul\":2136:2137   */\n      0x00\n        /* \"#utility.yul\":2125:2134   */\n      dup4\n        /* \"#utility.yul\":2121:2138   */\n      add\n        /* \"#utility.yul\":2112:2118   */\n      dup5\n        /* \"#utility.yul\":2074:2139   */\n      tag_78\n      jump\t// in\n    tag_127:\n        /* \"#utility.yul\":1936:2146   */\n      swap3\n      swap2\n      pop\n      pop\n      jump\t// out\n        /* \"#utility.yul\":2152:2374   */\n    tag_19:\n        /* \"#utility.yul\":2245:2249   */\n      0x00\n        /* \"#utility.yul\":2283:2285   */\n      0x20\n        /* \"#utility.yul\":2272:2281   */\n      dup3\n        /* \"#utility.yul\":2268:2286   */\n      add\n        /* \"#utility.yul\":2260:2286   */\n      swap1\n      pop\n        /* \"#utility.yul\":2296:2367   */\n      tag_129\n        /* \"#utility.yul\":2364:2365   */\n      0x00\n        /* \"#utility.yul\":2353:2362   */\n      dup4\n        /* \"#utility.yul\":2349:2366   */\n      add\n        /* \"#utility.yul\":2340:2346   */\n      dup5\n        /* \"#utility.yul\":2296:2367   */\n      tag_82\n      jump\t// in\n    tag_129:\n        /* \"#utility.yul\":2152:2374   */\n      swap3\n      swap2\n      pop\n      pop\n      jump\t// out\n        /* \"#utility.yul\":2380:2602   */\n    tag_23:\n        /* \"#utility.yul\":2473:2477   */\n      0x00\n        /* \"#utility.yul\":2511:2513   */\n      0x20\n        /* \"#utility.yul\":2500:2509   */\n      dup3\n        /* \"#utility.yul\":2496:2514   */\n      add\n        /* \"#utility.yul\":2488:2514   */\n      swap1\n      pop\n        /* \"#utility.yul\":2524:2595   */\n      tag_131\n        /* \"#utility.yul\":2592:2593   */\n      0x00\n        /* \"#utility.yul\":2581:2590   */\n      dup4\n        /* \"#utility.yul\":2577:2594   */\n      add\n        /* \"#utility.yul\":2568:2574   */\n      dup5\n        /* \"#utility.yul\":2524:2595   */\n      tag_86\n      jump\t// in\n    tag_131:\n        /* \"#utility.yul\":2380:2602   */\n      swap3\n      swap2\n      pop\n      pop\n      jump\t// out\n        /* \"#utility.yul\":2608:2917   */\n    tag_31:\n        /* \"#utility.yul\":2719:2723   */\n      0x00\n        /* \"#utility.yul\":2757:2759   */\n      0x20\n        /* \"#utility.yul\":2746:2755   */\n      dup3\n        /* \"#utility.yul\":2742:2760   */\n      add\n        /* \"#utility.yul\":2734:2760   */\n      swap1\n      pop\n        /* \"#utility.yul\":2806:2815   */\n      dup2\n        /* \"#utility.yul\":2800:2804   */\n      dup2\n        /* \"#utility.yul\":2796:2816   */\n      sub\n        /* \"#utility.yul\":2792:2793   */\n      0x00\n        /* \"#utility.yul\":2781:2790   */\n      dup4\n        /* \"#utility.yul\":2777:2794   */\n      add\n        /* \"#utility.yul\":2770:2817   */\n      mstore\n        /* \"#utility.yul\":2834:2910   */\n      tag_133\n        /* \"#utility.yul\":2905:2909   */\n      dup2\n        /* \"#utility.yul\":2896:2902   */\n      dup5\n        /* \"#utility.yul\":2834:2910   */\n      tag_90\n      jump\t// in\n    tag_133:\n        /* \"#utility.yul\":2826:2910   */\n      swap1\n      pop\n        /* \"#utility.yul\":2608:2917   */\n      swap3\n      swap2\n      pop\n      pop\n      jump\t// out\n        /* \"#utility.yul\":2923:3141   */\n    tag_43:\n        /* \"#utility.yul\":3014:3018   */\n      0x00\n        /* \"#utility.yul\":3052:3054   */\n      0x20\n        /* \"#utility.yul\":3041:3050   */\n      dup3\n        /* \"#utility.yul\":3037:3055   */\n      add\n        /* \"#utility.yul\":3029:3055   */\n      swap1\n      pop\n        /* \"#utility.yul\":3065:3134   */\n      tag_135\n        /* \"#utility.yul\":3131:3132   */\n      0x00\n        /* \"#utility.yul\":3120:3129   */\n      dup4\n        /* \"#utility.yul\":3116:3133   */\n      add\n        /* \"#utility.yul\":3107:3113   */\n      dup5\n        /* \"#utility.yul\":3065:3134   */\n      tag_100\n      jump\t// in\n    tag_135:\n        /* \"#utility.yul\":2923:3141   */\n      swap3\n      swap2\n      pop\n      pop\n      jump\t// out\n        /* \"#utility.yul\":3147:3357   */\n    tag_61:\n        /* \"#utility.yul\":3234:3238   */\n      0x00\n        /* \"#utility.yul\":3272:3274   */\n      0x20\n        /* \"#utility.yul\":3261:3270   */\n      dup3\n        /* \"#utility.yul\":3257:3275   */\n      add\n        /* \"#utility.yul\":3249:3275   */\n      swap1\n      pop\n        /* \"#utility.yul\":3285:3350   */\n      tag_137\n        /* \"#utility.yul\":3347:3348   */\n      0x00\n        /* \"#utility.yul\":3336:3345   */\n      dup4\n        /* \"#utility.yul\":3332:3349   */\n      add\n        /* \"#utility.yul\":3323:3329   */\n      dup5\n        /* \"#utility.yul\":3285:3350   */\n      tag_104\n      jump\t// in\n    tag_137:\n        /* \"#utility.yul\":3147:3357   */\n      swap3\n      swap2\n      pop\n      pop\n      jump\t// out\n        /* \"#utility.yul\":3363:3676   */\n    tag_50:\n        /* \"#utility.yul\":3476:3480   */\n      0x00\n        /* \"#utility.yul\":3514:3516   */\n      0x20\n        /* \"#utility.yul\":3503:3512   */\n      dup3\n        /* \"#utility.yul\":3499:3517   */\n      add\n        /* \"#utility.yul\":3491:3517   */\n      swap1\n      pop\n        /* \"#utility.yul\":3563:3572   */\n      dup2\n        /* \"#utility.yul\":3557:3561   */\n      dup2\n        /* \"#utility.yul\":3553:3573   */\n      sub\n        /* \"#utility.yul\":3549:3550   */\n      0x00\n        /* \"#utility.yul\":3538:3547   */\n      dup4\n        /* \"#utility.yul\":3534:3551   */\n      add\n        /* \"#utility.yul\":3527:3574   */\n      mstore\n        /* \"#utility.yul\":3591:3669   */\n      tag_139\n        /* \"#utility.yul\":3664:3668   */\n      dup2\n        /* \"#utility.yul\":3655:3661   */\n      dup5\n        /* \"#utility.yul\":3591:3669   */\n      tag_108\n      jump\t// in\n    tag_139:\n        /* \"#utility.yul\":3583:3669   */\n      swap1\n      pop\n        /* \"#utility.yul\":3363:3676   */\n      swap3\n      swap2\n      pop\n      pop\n      jump\t// out\n        /* \"#utility.yul\":3682:3904   */\n    tag_35:\n        /* \"#utility.yul\":3775:3779   */\n      0x00\n        /* \"#utility.yul\":3813:3815   */\n      0x20\n        /* \"#utility.yul\":3802:3811   */\n      dup3\n        /* \"#utility.yul\":3798:3816   */\n      add\n        /* \"#utility.yul\":3790:3816   */\n      swap1\n      pop\n        /* \"#utility.yul\":3826:3897   */\n      tag_141\n        /* \"#utility.yul\":3894:3895   */\n      0x00\n        /* \"#utility.yul\":3883:3892   */\n      dup4\n        /* \"#utility.yul\":3879:3896   */\n      add\n        /* \"#utility.yul\":3870:3876   */\n      dup5\n        /* \"#utility.yul\":3826:3897   */\n      tag_116\n      jump\t// in\n    tag_141:\n        /* \"#utility.yul\":3682:3904   */\n      swap3\n      swap2\n      pop\n      pop\n      jump\t// out\n        /* \"#utility.yul\":3910:4124   */\n    tag_54:\n        /* \"#utility.yul\":3999:4003   */\n      0x00\n        /* \"#utility.yul\":4037:4039   */\n      0x20\n        /* \"#utility.yul\":4026:4035   */\n      dup3\n        /* \"#utility.yul\":4022:4040   */\n      add\n        /* \"#utility.yul\":4014:4040   */\n      swap1\n      pop\n        /* \"#utility.yul\":4050:4117   */\n      tag_143\n        /* \"#utility.yul\":4114:4115   */\n      0x00\n        /* \"#utility.yul\":4103:4112   */\n      dup4\n        /* \"#utility.yul\":4099:4116   */\n      add\n        /* \"#utility.yul\":4090:4096   */\n      dup5\n        /* \"#utility.yul\":4050:4117   */\n      tag_120\n      jump\t// in\n    tag_143:\n        /* \"#utility.yul\":3910:4124   */\n      swap3\n      swap2\n      pop\n      pop\n      jump\t// out\n        /* \"#utility.yul\":4130:4228   */\n    tag_93:\n        /* \"#utility.yul\":4181:4187   */\n      0x00\n        /* \"#utility.yul\":4215:4220   */\n      dup2\n        /* \"#utility.yul\":4209:4221   */\n      mload\n        /* \"#utility.yul\":4199:4221   */\n      swap1\n      pop\n        /* \"#utility.yul\":4130:4228   */\n      swap2\n      swap1\n      pop\n      jump\t// out\n        /* \"#utility.yul\":4234:4333   */\n    tag_111:\n        /* \"#utility.yul\":4286:4292   */\n      0x00\n        /* \"#utility.yul\":4320:4325   */\n      dup2\n        /* \"#utility.yul\":4314:4326   */\n      mload\n        /* \"#utility.yul\":4304:4326   */\n      swap1\n      pop\n        /* \"#utility.yul\":4234:4333   */\n      swap2\n      swap1\n      pop\n      jump\t// out\n        /* \"#utility.yul\":4339:4507   */\n    tag_95:\n        /* \"#utility.yul\":4422:4433   */\n      0x00\n        /* \"#utility.yul\":4456:4462   */\n      dup3\n        /* \"#utility.yul\":4451:4454   */\n      dup3\n        /* \"#utility.yul\":4444:4463   */\n      mstore\n        /* \"#utility.yul\":4496:4500   */\n      0x20\n        /* \"#utility.yul\":4491:4494   */\n      dup3\n        /* \"#utility.yul\":4487:4501   */\n      add\n        /* \"#utility.yul\":4472:4501   */\n      swap1\n      pop\n        /* \"#utility.yul\":4339:4507   */\n      swap3\n      swap2\n      pop\n      pop\n      jump\t// out\n        /* \"#utility.yul\":4513:4682   */\n    tag_113:\n        /* \"#utility.yul\":4597:4608   */\n      0x00\n        /* \"#utility.yul\":4631:4637   */\n      dup3\n        /* \"#utility.yul\":4626:4629   */\n      dup3\n        /* \"#utility.yul\":4619:4638   */\n      mstore\n        /* \"#utility.yul\":4671:4675   */\n      0x20\n        /* \"#utility.yul\":4666:4669   */\n      dup3\n        /* \"#utility.yul\":4662:4676   */\n      add\n        /* \"#utility.yul\":4647:4676   */\n      swap1\n      pop\n        /* \"#utility.yul\":4513:4682   */\n      swap3\n      swap2\n      pop\n      pop\n      jump\t// out\n        /* \"#utility.yul\":4688:4784   */\n    tag_77:\n        /* \"#utility.yul\":4725:4732   */\n      0x00\n        /* \"#utility.yul\":4754:4778   */\n      tag_149\n        /* \"#utility.yul\":4772:4777   */\n      dup3\n        /* \"#utility.yul\":4754:4778   */\n      tag_150\n      jump\t// in\n    tag_149:\n        /* \"#utility.yul\":4743:4778   */\n      swap1\n      pop\n        /* \"#utility.yul\":4688:4784   */\n      swap2\n      swap1\n      pop\n      jump\t// out\n        /* \"#utility.yul\":4790:4880   */\n    tag_81:\n        /* \"#utility.yul\":4824:4831   */\n      0x00\n        /* \"#utility.yul\":4867:4872   */\n      dup2\n        /* \"#utility.yul\":4860:4873   */\n      iszero\n        /* \"#utility.yul\":4853:4874   */\n      iszero\n        /* \"#utility.yul\":4842:4874   */\n      swap1\n      pop\n        /* \"#utility.yul\":4790:4880   */\n      swap2\n      swap1\n      pop\n      jump\t// out\n        /* \"#utility.yul\":4886:5036   */\n    tag_85:\n        /* \"#utility.yul\":4923:4930   */\n      0x00\n        /* \"#utility.yul\":4963:5029   */\n      0xffffffffffffffffffffffffffffffffffffffff000000000000000000000000\n        /* \"#utility.yul\":4956:4961   */\n      dup3\n        /* \"#utility.yul\":4952:5030   */\n      and\n        /* \"#utility.yul\":4941:5030   */\n      swap1\n      pop\n        /* \"#utility.yul\":4886:5036   */\n      swap2\n      swap1\n      pop\n      jump\t// out\n        /* \"#utility.yul\":5042:5119   */\n    tag_89:\n        /* \"#utility.yul\":5079:5086   */\n      0x00\n        /* \"#utility.yul\":5108:5113   */\n      dup2\n        /* \"#utility.yul\":5097:5113   */\n      swap1\n      pop\n        /* \"#utility.yul\":5042:5119   */\n      swap2\n      swap1\n      pop\n      jump\t// out\n        /* \"#utility.yul\":5125:5201   */\n    tag_103:\n        /* \"#utility.yul\":5161:5168   */\n      0x00\n        /* \"#utility.yul\":5190:5195   */\n      dup2\n        /* \"#utility.yul\":5179:5195   */\n      swap1\n      pop\n        /* \"#utility.yul\":5125:5201   */\n      swap2\n      swap1\n      pop\n      jump\t// out\n        /* \"#utility.yul\":5207:5296   */\n    tag_107:\n        /* \"#utility.yul\":5241:5248   */\n      0x00\n        /* \"#utility.yul\":5284:5289   */\n      dup2\n        /* \"#utility.yul\":5281:5282   */\n      0x00\n        /* \"#utility.yul\":5270:5290   */\n      signextend\n        /* \"#utility.yul\":5259:5290   */\n      swap1\n      pop\n        /* \"#utility.yul\":5207:5296   */\n      swap2\n      swap1\n      pop\n      jump\t// out\n        /* \"#utility.yul\":5302:5428   */\n    tag_150:\n        /* \"#utility.yul\":5339:5346   */\n      0x00\n        /* \"#utility.yul\":5379:5421   */\n      0xffffffffffffffffffffffffffffffffffffffff\n        /* \"#utility.yul\":5372:5377   */\n      dup3\n        /* \"#utility.yul\":5368:5422   */\n      and\n        /* \"#utility.yul\":5357:5422   */\n      swap1\n      pop\n        /* \"#utility.yul\":5302:5428   */\n      swap2\n      swap1\n      pop\n      jump\t// out\n        /* \"#utility.yul\":5434:5511   */\n    tag_119:\n        /* \"#utility.yul\":5471:5478   */\n      0x00\n        /* \"#utility.yul\":5500:5505   */\n      dup2\n        /* \"#utility.yul\":5489:5505   */\n      swap1\n      pop\n        /* \"#utility.yul\":5434:5511   */\n      swap2\n      swap1\n      pop\n      jump\t// out\n        /* \"#utility.yul\":5517:5603   */\n    tag_123:\n        /* \"#utility.yul\":5552:5559   */\n      0x00\n        /* \"#utility.yul\":5592:5596   */\n      0xff\n        /* \"#utility.yul\":5585:5590   */\n      dup3\n        /* \"#utility.yul\":5581:5597   */\n      and\n        /* \"#utility.yul\":5570:5597   */\n      swap1\n      pop\n        /* \"#utility.yul\":5517:5603   */\n      swap2\n      swap1\n      pop\n      jump\t// out\n        /* \"#utility.yul\":5609:5916   */\n    tag_97:\n        /* \"#utility.yul\":5677:5678   */\n      0x00\n        /* \"#utility.yul\":5687:5800   */\n    tag_160:\n        /* \"#utility.yul\":5701:5707   */\n      dup4\n        /* \"#utility.yul\":5698:5699   */\n      dup2\n        /* \"#utility.yul\":5695:5708   */\n      lt\n        /* \"#utility.yul\":5687:5800   */\n      iszero\n      tag_162\n      jumpi\n        /* \"#utility.yul\":5786:5787   */\n      dup1\n        /* \"#utility.yul\":5781:5784   */\n      dup3\n        /* \"#utility.yul\":5777:5788   */\n      add\n        /* \"#utility.yul\":5771:5789   */\n      mload\n        /* \"#utility.yul\":5767:5768   */\n      dup2\n        /* \"#utility.yul\":5762:5765   */\n      dup5\n        /* \"#utility.yul\":5758:5769   */\n      add\n        /* \"#utility.yul\":5751:5790   */\n      mstore\n        /* \"#utility.yul\":5723:5725   */\n      0x20\n        /* \"#utility.yul\":5720:5721   */\n      dup2\n        /* \"#utility.yul\":5716:5726   */\n      add\n        /* \"#utility.yul\":5711:5726   */\n      swap1\n      pop\n        /* \"#utility.yul\":5687:5800   */\n      jump(tag_160)\n    tag_162:\n        /* \"#utility.yul\":5818:5824   */\n      dup4\n        /* \"#utility.yul\":5815:5816   */\n      dup2\n        /* \"#utility.yul\":5812:5825   */\n      gt\n        /* \"#utility.yul\":5809:5910   */\n      iszero\n      tag_163\n      jumpi\n        /* \"#utility.yul\":5898:5899   */\n      0x00\n        /* \"#utility.yul\":5889:5895   */\n      dup5\n        /* \"#utility.yul\":5884:5887   */\n      dup5\n        /* \"#utility.yul\":5880:5896   */\n      add\n        /* \"#utility.yul\":5873:5900   */\n      mstore\n        /* \"#utility.yul\":5809:5910   */\n    tag_163:\n        /* \"#utility.yul\":5658:5916   */\n      pop\n        /* \"#utility.yul\":5609:5916   */\n      pop\n      pop\n      pop\n      jump\t// out\n        /* \"#utility.yul\":5922:6242   */\n    tag_63:\n        /* \"#utility.yul\":5966:5972   */\n      0x00\n        /* \"#utility.yul\":6003:6004   */\n      0x02\n        /* \"#utility.yul\":5997:6001   */\n      dup3\n        /* \"#utility.yul\":5993:6005   */\n      div\n        /* \"#utility.yul\":5983:6005   */\n      swap1\n      pop\n        /* \"#utility.yul\":6050:6051   */\n      0x01\n        /* \"#utility.yul\":6044:6048   */\n      dup3\n        /* \"#utility.yul\":6040:6052   */\n      and\n        /* \"#utility.yul\":6071:6089   */\n      dup1\n        /* \"#utility.yul\":6061:6142   */\n      tag_165\n      jumpi\n        /* \"#utility.yul\":6127:6131   */\n      0x7f\n        /* \"#utility.yul\":6119:6125   */\n      dup3\n        /* \"#utility.yul\":6115:6132   */\n      and\n        /* \"#utility.yul\":6105:6132   */\n      swap2\n      pop\n        /* \"#utility.yul\":6061:6142   */\n    tag_165:\n        /* \"#utility.yul\":6189:6191   */\n      0x20\n        /* \"#utility.yul\":6181:6187   */\n      dup3\n        /* \"#utility.yul\":6178:6192   */\n      lt\n        /* \"#utility.yul\":6158:6176   */\n      dup2\n        /* \"#utility.yul\":6155:6193   */\n      eq\n        /* \"#utility.yul\":6152:6236   */\n      iszero\n      tag_166\n      jumpi\n        /* \"#utility.yul\":6208:6226   */\n      tag_167\n      tag_168\n      jump\t// in\n    tag_167:\n        /* \"#utility.yul\":6152:6236   */\n    tag_166:\n        /* \"#utility.yul\":5973:6242   */\n      pop\n        /* \"#utility.yul\":5922:6242   */\n      swap2\n      swap1\n      pop\n      jump\t// out\n        /* \"#utility.yul\":6248:6428   */\n    tag_168:\n        /* \"#utility.yul\":6296:6373   */\n      0x4e487b7100000000000000000000000000000000000000000000000000000000\n        /* \"#utility.yul\":6293:6294   */\n      0x00\n        /* \"#utility.yul\":6286:6374   */\n      mstore\n        /* \"#utility.yul\":6393:6397   */\n      0x22\n        /* \"#utility.yul\":6390:6391   */\n      0x04\n        /* \"#utility.yul\":6383:6398   */\n      mstore\n        /* \"#utility.yul\":6417:6421   */\n      0x24\n        /* \"#utility.yul\":6414:6415   */\n      0x00\n        /* \"#utility.yul\":6407:6422   */\n      revert\n        /* \"#utility.yul\":6434:6536   */\n    tag_99:\n        /* \"#utility.yul\":6475:6481   */\n      0x00\n        /* \"#utility.yul\":6526:6528   */\n      0x1f\n        /* \"#utility.yul\":6522:6529   */\n      not\n        /* \"#utility.yul\":6517:6519   */\n      0x1f\n        /* \"#utility.yul\":6510:6515   */\n      dup4\n        /* \"#utility.yul\":6506:6520   */\n      add\n        /* \"#utility.yul\":6502:6530   */\n      and\n        /* \"#utility.yul\":6492:6530   */\n      swap1\n      pop\n        /* \"#utility.yul\":6434:6536   */\n      swap2\n      swap1\n      pop\n      jump\t// out\n\n    auxdata: 0xa264697066735822122013ce03703e551d9887703df7d4579875005b714c0d0af58c8a33f4e0e4843de764736f6c63430008070033\n}\n",
				"bytecode": {
					"linkReferences": {},
					"object": "608060405260016000806101000a81548160ff0219169083151502179055507ffffffffffffffffffffffffffffffffffffffffffffffffffffffffffffffff6600155600a60025564174876e8006003557fffffffffffffffffffffffffffffffffffffffffffffffff7538dcfb761800006004556064600560006101000a81548160ff021916908360ff1602179055507fffffffffffffffffffffffffffffffffffffffffffffffffffffffffffffff9c600560016101000a81548160ff021916908360000b60ff1602179055506040518060400160405280600981526020017f63686f6973616e67680000000000000000000000000000000000000000000000815250600690805190602001906200011b92919062000245565b506040518060400160405280600981526020017f63686f6973616e676800000000000000000000000000000000000000000000008152506007908051906020019062000169929190620002d6565b507f8e27f274fa90b0b116b001626150d87c94993964000000000000000000000000600860006101000a81548173ffffffffffffffffffffffffffffffffffffffff021916908360601c02179055507f0f1c5a35d40d2831c63e41f83d0174dd0ccf294beacceb6f39bed260f7ecbe506009557330ae003d9c29cd9d403f84312744b0f1abcae95c600a60006101000a81548173ffffffffffffffffffffffffffffffffffffffff021916908373ffffffffffffffffffffffffffffffffffffffff1602179055503480156200023e57600080fd5b50620003eb565b828054620002539062000386565b90600052602060002090601f016020900481019282620002775760008555620002c3565b82601f106200029257805160ff1916838001178555620002c3565b82800160010185558215620002c3579182015b82811115620002c2578251825591602001919060010190620002a5565b5b509050620002d2919062000367565b5090565b828054620002e49062000386565b90600052602060002090601f01602090048101928262000308576000855562000354565b82601f106200032357805160ff191683800117855562000354565b8280016001018555821562000354579182015b828111156200035357825182559160200191906001019062000336565b5b50905062000363919062000367565b5090565b5b808211156200038257600081600090555060010162000368565b5090565b600060028204905060018216806200039f57607f821691505b60208210811415620003b657620003b5620003bc565b5b50919050565b7f4e487b7100000000000000000000000000000000000000000000000000000000600052602260045260246000fd5b61078680620003fb6000396000f3fe608060405234801561001057600080fd5b50600436106100b45760003560e01c8063c35887a711610071578063c35887a71461016d578063e3a7fd751461018b578063f80b56c9146101a9578063fab29b45146101c7578063fc26b0ab146101e5578063fdcc663f14610203576100b4565b8063279b95c4146100b95780632c79b1a9146100d75780635bff090a146100f55780635c9fef081461011357806361d9e726146101315780639ffd85c41461014f575b600080fd5b6100c1610221565b6040516100ce91906104eb565b60405180910390f35b6100df610234565b6040516100ec9190610506565b60405180910390f35b6100fd61023a565b60405161010a91906104b5565b60405180910390f35b61011b610260565b6040516101289190610521565b60405180910390f35b6101396102ee565b604051610146919061059b565b60405180910390f35b6101576102f4565b60405161016491906104d0565b60405180910390f35b610175610305565b6040516101829190610543565b60405180910390f35b61019361030b565b6040516101a09190610543565b60405180910390f35b6101b1610311565b6040516101be9190610579565b60405180910390f35b6101cf61039f565b6040516101dc91906105b6565b60405180910390f35b6101ed6103b2565b6040516101fa919061059b565b60405180910390f35b61020b6103b8565b604051610218919061055e565b60405180910390f35b600860009054906101000a900460601b81565b60095481565b600a60009054906101000a900473ffffffffffffffffffffffffffffffffffffffff1681565b6007805461026d906106de565b80601f0160208091040260200160405190810160405280929190818152602001828054610299906106de565b80156102e65780601f106102bb576101008083540402835291602001916102e6565b820191906000526020600020905b8154815290600101906020018083116102c957829003601f168201915b505050505081565b60035481565b60008054906101000a900460ff1681565b60045481565b60015481565b6006805461031e906106de565b80601f016020809104026020016040519081016040528092919081815260200182805461034a906106de565b80156103975780601f1061036c57610100808354040283529160200191610397565b820191906000526020600020905b81548152906001019060200180831161037a57829003601f168201915b505050505081565b600560009054906101000a900460ff1681565b60025481565b600560019054906101000a900460000b81565b6103d481610609565b82525050565b6103e38161061b565b82525050565b6103f281610627565b82525050565b61040181610653565b82525050565b6000610412826105d1565b61041c81856105e7565b935061042c8185602086016106ab565b6104358161073f565b840191505092915050565b6104498161065d565b82525050565b61045881610667565b82525050565b6000610469826105dc565b61047381856105f8565b93506104838185602086016106ab565b61048c8161073f565b840191505092915050565b6104a081610694565b82525050565b6104af8161069e565b82525050565b60006020820190506104ca60008301846103cb565b92915050565b60006020820190506104e560008301846103da565b92915050565b600060208201905061050060008301846103e9565b92915050565b600060208201905061051b60008301846103f8565b92915050565b6000602082019050818103600083015261053b8184610407565b905092915050565b60006020820190506105586000830184610440565b92915050565b6000602082019050610573600083018461044f565b92915050565b60006020820190508181036000830152610593818461045e565b905092915050565b60006020820190506105b06000830184610497565b92915050565b60006020820190506105cb60008301846104a6565b92915050565b600081519050919050565b600081519050919050565b600082825260208201905092915050565b600082825260208201905092915050565b600061061482610674565b9050919050565b60008115159050919050565b60007fffffffffffffffffffffffffffffffffffffffff00000000000000000000000082169050919050565b6000819050919050565b6000819050919050565b60008160000b9050919050565b600073ffffffffffffffffffffffffffffffffffffffff82169050919050565b6000819050919050565b600060ff82169050919050565b60005b838110156106c95780820151818401526020810190506106ae565b838111156106d8576000848401525b50505050565b600060028204905060018216806106f657607f821691505b6020821081141561070a57610709610710565b5b50919050565b7f4e487b7100000000000000000000000000000000000000000000000000000000600052602260045260246000fd5b6000601f19601f830116905091905056fea264697066735822122013ce03703e551d9887703df7d4579875005b714c0d0af58c8a33f4e0e4843de764736f6c63430008070033",
					"opcodes": "PUSH1 0x80 PUSH1 0x40 MSTORE PUSH1 0x1 PUSH1 0x0 DUP1 PUSH2 0x100 EXP DUP2 SLOAD DUP2 PUSH1 0xFF MUL NOT AND SWAP1 DUP4 ISZERO ISZERO MUL OR SWAP1 SSTORE POP PUSH32 0xFFFFFFFFFFFFFFFFFFFFFFFFFFFFFFFFFFFFFFFFFFFFFFFFFFFFFFFFFFFFFFF6 PUSH1 0x1 SSTORE PUSH1 0xA PUSH1 0x2 SSTORE PUSH5 0x174876E800 PUSH1 0x3 SSTORE PUSH32 0xFFFFFFFFFFFFFFFFFFFFFFFFFFFFFFFFFFFFFFFFFFFFFFFF7538DCFB76180000 PUSH1 0x4 SSTORE PUSH1 0x64 PUSH1 0x5 PUSH1 0x0 PUSH2 0x100 EXP DUP2 SLOAD DUP2 PUSH1 0xFF MUL NOT AND SWAP1 DUP4 PUSH1 0xFF AND MUL OR SWAP1 SSTORE POP PUSH32 0xFFFFFFFFFFFFFFFFFFFFFFFFFFFFFFFFFFFFFFFFFFFFFFFFFFFFFFFFFFFFFF9C PUSH1 0x5 PUSH1 0x1 PUSH2 0x100 EXP DUP2 SLOAD DUP2 PUSH1 0xFF MUL NOT AND SWAP1 DUP4 PUSH1 0x0 SIGNEXTEND PUSH1 0xFF AND MUL OR SWAP1 SSTORE POP PUSH1 0x40 MLOAD DUP1 PUSH1 0x40 ADD PUSH1 0x40 MSTORE DUP1 PUSH1 0x9 DUP2 MSTORE PUSH1 0x20 ADD PUSH32 0x63686F6973616E67680000000000000000000000000000000000000000000000 DUP2 MSTORE POP PUSH1 0x6 SWAP1 DUP1 MLOAD SWAP1 PUSH1 0x20 ADD SWAP1 PUSH3 0x11B SWAP3 SWAP2 SWAP1 PUSH3 0x245 JUMP JUMPDEST POP PUSH1 0x40 MLOAD DUP1 PUSH1 0x40 ADD PUSH1 0x40 MSTORE DUP1 PUSH1 0x9 DUP2 MSTORE PUSH1 0x20 ADD PUSH32 0x63686F6973616E67680000000000000000000000000000000000000000000000 DUP2 MSTORE POP PUSH1 0x7 SWAP1 DUP1 MLOAD SWAP1 PUSH1 0x20 ADD SWAP1 PUSH3 0x169 SWAP3 SWAP2 SWAP1 PUSH3 0x2D6 JUMP JUMPDEST POP PUSH32 0x8E27F274FA90B0B116B001626150D87C94993964000000000000000000000000 PUSH1 0x8 PUSH1 0x0 PUSH2 0x100 EXP DUP2 SLOAD DUP2 PUSH20 0xFFFFFFFFFFFFFFFFFFFFFFFFFFFFFFFFFFFFFFFF MUL NOT AND SWAP1 DUP4 PUSH1 0x60 SHR MUL OR SWAP1 SSTORE POP PUSH32 0xF1C5A35D40D2831C63E41F83D0174DD0CCF294BEACCEB6F39BED260F7ECBE50 PUSH1 0x9 SSTORE PUSH20 0x30AE003D9C29CD9D403F84312744B0F1ABCAE95C PUSH1 0xA PUSH1 0x0 PUSH2 0x100 EXP DUP2 SLOAD DUP2 PUSH20 0xFFFFFFFFFFFFFFFFFFFFFFFFFFFFFFFFFFFFFFFF MUL NOT AND SWAP1 DUP4 PUSH20 0xFFFFFFFFFFFFFFFFFFFFFFFFFFFFFFFFFFFFFFFF AND MUL OR SWAP1 SSTORE POP CALLVALUE DUP1 ISZERO PUSH3 0x23E JUMPI PUSH1 0x0 DUP1 REVERT JUMPDEST POP PUSH3 0x3EB JUMP JUMPDEST DUP3 DUP1 SLOAD PUSH3 0x253 SWAP1 PUSH3 0x386 JUMP JUMPDEST SWAP1 PUSH1 0x0 MSTORE PUSH1 0x20 PUSH1 0x0 KECCAK256 SWAP1 PUSH1 0x1F ADD PUSH1 0x20 SWAP1 DIV DUP2 ADD SWAP3 DUP3 PUSH3 0x277 JUMPI PUSH1 0x0 DUP6 SSTORE PUSH3 0x2C3 JUMP JUMPDEST DUP3 PUSH1 0x1F LT PUSH3 0x292 JUMPI DUP1 MLOAD PUSH1 0xFF NOT AND DUP4 DUP1 ADD OR DUP6 SSTORE PUSH3 0x2C3 JUMP JUMPDEST DUP3 DUP1 ADD PUSH1 0x1 ADD DUP6 SSTORE DUP3 ISZERO PUSH3 0x2C3 JUMPI SWAP2 DUP3 ADD JUMPDEST DUP3 DUP2 GT ISZERO PUSH3 0x2C2 JUMPI DUP3 MLOAD DUP3 SSTORE SWAP2 PUSH1 0x20 ADD SWAP2 SWAP1 PUSH1 0x1 ADD SWAP1 PUSH3 0x2A5 JUMP JUMPDEST JUMPDEST POP SWAP1 POP PUSH3 0x2D2 SWAP2 SWAP1 PUSH3 0x367 JUMP JUMPDEST POP SWAP1 JUMP JUMPDEST DUP3 DUP1 SLOAD PUSH3 0x2E4 SWAP1 PUSH3 0x386 JUMP JUMPDEST SWAP1 PUSH1 0x0 MSTORE PUSH1 0x20 PUSH1 0x0 KECCAK256 SWAP1 PUSH1 0x1F ADD PUSH1 0x20 SWAP1 DIV DUP2 ADD SWAP3 DUP3 PUSH3 0x308 JUMPI PUSH1 0x0 DUP6 SSTORE PUSH3 0x354 JUMP JUMPDEST DUP3 PUSH1 0x1F LT PUSH3 0x323 JUMPI DUP1 MLOAD PUSH1 0xFF NOT AND DUP4 DUP1 ADD OR DUP6 SSTORE PUSH3 0x354 JUMP JUMPDEST DUP3 DUP1 ADD PUSH1 0x1 ADD DUP6 SSTORE DUP3 ISZERO PUSH3 0x354 JUMPI SWAP2 DUP3 ADD JUMPDEST DUP3 DUP2 GT ISZERO PUSH3 0x353 JUMPI DUP3 MLOAD DUP3 SSTORE SWAP2 PUSH1 0x20 ADD SWAP2 SWAP1 PUSH1 0x1 ADD SWAP1 PUSH3 0x336 JUMP JUMPDEST JUMPDEST POP SWAP1 POP PUSH3 0x363 SWAP2 SWAP1 PUSH3 0x367 JUMP JUMPDEST POP SWAP1 JUMP JUMPDEST JUMPDEST DUP1 DUP3 GT ISZERO PUSH3 0x382 JUMPI PUSH1 0x0 DUP2 PUSH1 0x0 SWAP1 SSTORE POP PUSH1 0x1 ADD PUSH3 0x368 JUMP JUMPDEST POP SWAP1 JUMP JUMPDEST PUSH1 0x0 PUSH1 0x2 DUP3 DIV SWAP1 POP PUSH1 0x1 DUP3 AND DUP1 PUSH3 0x39F JUMPI PUSH1 0x7F DUP3 AND SWAP2 POP JUMPDEST PUSH1 0x20 DUP3 LT DUP2 EQ ISZERO PUSH3 0x3B6 JUMPI PUSH3 0x3B5 PUSH3 0x3BC JUMP JUMPDEST JUMPDEST POP SWAP2 SWAP1 POP JUMP JUMPDEST PUSH32 0x4E487B7100000000000000000000000000000000000000000000000000000000 PUSH1 0x0 MSTORE PUSH1 0x22 PUSH1 0x4 MSTORE PUSH1 0x24 PUSH1 0x0 REVERT JUMPDEST PUSH2 0x786 DUP1 PUSH3 0x3FB PUSH1 0x0 CODECOPY PUSH1 0x0 RETURN INVALID PUSH1 0x80 PUSH1 0x40 MSTORE CALLVALUE DUP1 ISZERO PUSH2 0x10 JUMPI PUSH1 0x0 DUP1 REVERT JUMPDEST POP PUSH1 0x4 CALLDATASIZE LT PUSH2 0xB4 JUMPI PUSH1 0x0 CALLDATALOAD PUSH1 0xE0 SHR DUP1 PUSH4 0xC35887A7 GT PUSH2 0x71 JUMPI DUP1 PUSH4 0xC35887A7 EQ PUSH2 0x16D JUMPI DUP1 PUSH4 0xE3A7FD75 EQ PUSH2 0x18B JUMPI DUP1 PUSH4 0xF80B56C9 EQ PUSH2 0x1A9 JUMPI DUP1 PUSH4 0xFAB29B45 EQ PUSH2 0x1C7 JUMPI DUP1 PUSH4 0xFC26B0AB EQ PUSH2 0x1E5 JUMPI DUP1 PUSH4 0xFDCC663F EQ PUSH2 0x203 JUMPI PUSH2 0xB4 JUMP JUMPDEST DUP1 PUSH4 0x279B95C4 EQ PUSH2 0xB9 JUMPI DUP1 PUSH4 0x2C79B1A9 EQ PUSH2 0xD7 JUMPI DUP1 PUSH4 0x5BFF090A EQ PUSH2 0xF5 JUMPI DUP1 PUSH4 0x5C9FEF08 EQ PUSH2 0x113 JUMPI DUP1 PUSH4 0x61D9E726 EQ PUSH2 0x131 JUMPI DUP1 PUSH4 0x9FFD85C4 EQ PUSH2 0x14F JUMPI JUMPDEST PUSH1 0x0 DUP1 REVERT JUMPDEST PUSH2 0xC1 PUSH2 0x221 JUMP JUMPDEST PUSH1 0x40 MLOAD PUSH2 0xCE SWAP2 SWAP1 PUSH2 0x4EB JUMP JUMPDEST PUSH1 0x40 MLOAD DUP1 SWAP2 SUB SWAP1 RETURN JUMPDEST PUSH2 0xDF PUSH2 0x234 JUMP JUMPDEST PUSH1 0x40 MLOAD PUSH2 0xEC SWAP2 SWAP1 PUSH2 0x506 JUMP JUMPDEST PUSH1 0x40 MLOAD DUP1 SWAP2 SUB SWAP1 RETURN JUMPDEST PUSH2 0xFD PUSH2 0x23A JUMP JUMPDEST PUSH1 0x40 MLOAD PUSH2 0x10A SWAP2 SWAP1 PUSH2 0x4B5 JUMP JUMPDEST PUSH1 0x40 MLOAD DUP1 SWAP2 SUB SWAP1 RETURN JUMPDEST PUSH2 0x11B PUSH2 0x260 JUMP JUMPDEST PUSH1 0x40 MLOAD PUSH2 0x128 SWAP2 SWAP1 PUSH2 0x521 JUMP JUMPDEST PUSH1 0x40 MLOAD DUP1 SWAP2 SUB SWAP1 RETURN JUMPDEST PUSH2 0x139 PUSH2 0x2EE JUMP JUMPDEST PUSH1 0x40 MLOAD PUSH2 0x146 SWAP2 SWAP1 PUSH2 0x59B JUMP JUMPDEST PUSH1 0x40 MLOAD DUP1 SWAP2 SUB SWAP1 RETURN JUMPDEST PUSH2 0x157 PUSH2 0x2F4 JUMP JUMPDEST PUSH1 0x40 MLOAD PUSH2 0x164 SWAP2 SWAP1 PUSH2 0x4D0 JUMP JUMPDEST PUSH1 0x40 MLOAD DUP1 SWAP2 SUB SWAP1 RETURN JUMPDEST PUSH2 0x175 PUSH2 0x305 JUMP JUMPDEST PUSH1 0x40 MLOAD PUSH2 0x182 SWAP2 SWAP1 PUSH2 0x543 JUMP JUMPDEST PUSH1 0x40 MLOAD DUP1 SWAP2 SUB SWAP1 RETURN JUMPDEST PUSH2 0x193 PUSH2 0x30B JUMP JUMPDEST PUSH1 0x40 MLOAD PUSH2 0x1A0 SWAP2 SWAP1 PUSH2 0x543 JUMP JUMPDEST PUSH1 0x40 MLOAD DUP1 SWAP2 SUB SWAP1 RETURN JUMPDEST PUSH2 0x1B1 PUSH2 0x311 JUMP JUMPDEST PUSH1 0x40 MLOAD PUSH2 0x1BE SWAP2 SWAP1 PUSH2 0x579 JUMP JUMPDEST PUSH1 0x40 MLOAD DUP1 SWAP2 SUB SWAP1 RETURN JUMPDEST PUSH2 0x1CF PUSH2 0x39F JUMP JUMPDEST PUSH1 0x40 MLOAD PUSH2 0x1DC SWAP2 SWAP1 PUSH2 0x5B6 JUMP JUMPDEST PUSH1 0x40 MLOAD DUP1 SWAP2 SUB SWAP1 RETURN JUMPDEST PUSH2 0x1ED PUSH2 0x3B2 JUMP JUMPDEST PUSH1 0x40 MLOAD PUSH2 0x1FA SWAP2 SWAP1 PUSH2 0x59B JUMP JUMPDEST PUSH1 0x40 MLOAD DUP1 SWAP2 SUB SWAP1 RETURN JUMPDEST PUSH2 0x20B PUSH2 0x3B8 JUMP JUMPDEST PUSH1 0x40 MLOAD PUSH2 0x218 SWAP2 SWAP1 PUSH2 0x55E JUMP JUMPDEST PUSH1 0x40 MLOAD DUP1 SWAP2 SUB SWAP1 RETURN JUMPDEST PUSH1 0x8 PUSH1 0x0 SWAP1 SLOAD SWAP1 PUSH2 0x100 EXP SWAP1 DIV PUSH1 0x60 SHL DUP2 JUMP JUMPDEST PUSH1 0x9 SLOAD DUP2 JUMP JUMPDEST PUSH1 0xA PUSH1 0x0 SWAP1 SLOAD SWAP1 PUSH2 0x100 EXP SWAP1 DIV PUSH20 0xFFFFFFFFFFFFFFFFFFFFFFFFFFFFFFFFFFFFFFFF AND DUP2 JUMP JUMPDEST PUSH1 0x7 DUP1 SLOAD PUSH2 0x26D SWAP1 PUSH2 0x6DE JUMP JUMPDEST DUP1 PUSH1 0x1F ADD PUSH1 0x20 DUP1 SWAP2 DIV MUL PUSH1 0x20 ADD PUSH1 0x40 MLOAD SWAP1 DUP2 ADD PUSH1 0x40 MSTORE DUP1 SWAP3 SWAP2 SWAP1 DUP2 DUP2 MSTORE PUSH1 0x20 ADD DUP3 DUP1 SLOAD PUSH2 0x299 SWAP1 PUSH2 0x6DE JUMP JUMPDEST DUP1 ISZERO PUSH2 0x2E6 JUMPI DUP1 PUSH1 0x1F LT PUSH2 0x2BB JUMPI PUSH2 0x100 DUP1 DUP4 SLOAD DIV MUL DUP4 MSTORE SWAP2 PUSH1 0x20 ADD SWAP2 PUSH2 0x2E6 JUMP JUMPDEST DUP3 ADD SWAP2 SWAP1 PUSH1 0x0 MSTORE PUSH1 0x20 PUSH1 0x0 KECCAK256 SWAP1 JUMPDEST DUP2 SLOAD DUP2 MSTORE SWAP1 PUSH1 0x1 ADD SWAP1 PUSH1 0x20 ADD DUP1 DUP4 GT PUSH2 0x2C9 JUMPI DUP3 SWAP1 SUB PUSH1 0x1F AND DUP3 ADD SWAP2 JUMPDEST POP POP POP POP POP DUP2 JUMP JUMPDEST PUSH1 0x3 SLOAD DUP2 JUMP JUMPDEST PUSH1 0x0 DUP1 SLOAD SWAP1 PUSH2 0x100 EXP SWAP1 DIV PUSH1 0xFF AND DUP2 JUMP JUMPDEST PUSH1 0x4 SLOAD DUP2 JUMP JUMPDEST PUSH1 0x1 SLOAD DUP2 JUMP JUMPDEST PUSH1 0x6 DUP1 SLOAD PUSH2 0x31E SWAP1 PUSH2 0x6DE JUMP JUMPDEST DUP1 PUSH1 0x1F ADD PUSH1 0x20 DUP1 SWAP2 DIV MUL PUSH1 0x20 ADD PUSH1 0x40 MLOAD SWAP1 DUP2 ADD PUSH1 0x40 MSTORE DUP1 SWAP3 SWAP2 SWAP1 DUP2 DUP2 MSTORE PUSH1 0x20 ADD DUP3 DUP1 SLOAD PUSH2 0x34A SWAP1 PUSH2 0x6DE JUMP JUMPDEST DUP1 ISZERO PUSH2 0x397 JUMPI DUP1 PUSH1 0x1F LT PUSH2 0x36C JUMPI PUSH2 0x100 DUP1 DUP4 SLOAD DIV MUL DUP4 MSTORE SWAP2 PUSH1 0x20 ADD SWAP2 PUSH2 0x397 JUMP JUMPDEST DUP3 ADD SWAP2 SWAP1 PUSH1 0x0 MSTORE PUSH1 0x20 PUSH1 0x0 KECCAK256 SWAP1 JUMPDEST DUP2 SLOAD DUP2 MSTORE SWAP1 PUSH1 0x1 ADD SWAP1 PUSH1 0x20 ADD DUP1 DUP4 GT PUSH2 0x37A JUMPI DUP3 SWAP1 SUB PUSH1 0x1F AND DUP3 ADD SWAP2 JUMPDEST POP POP POP POP POP DUP2 JUMP JUMPDEST PUSH1 0x5 PUSH1 0x0 SWAP1 SLOAD SWAP1 PUSH2 0x100 EXP SWAP1 DIV PUSH1 0xFF AND DUP2 JUMP JUMPDEST PUSH1 0x2 SLOAD DUP2 JUMP JUMPDEST PUSH1 0x5 PUSH1 0x1 SWAP1 SLOAD SWAP1 PUSH2 0x100 EXP SWAP1 DIV PUSH1 0x0 SIGNEXTEND DUP2 JUMP JUMPDEST PUSH2 0x3D4 DUP2 PUSH2 0x609 JUMP JUMPDEST DUP3 MSTORE POP POP JUMP JUMPDEST PUSH2 0x3E3 DUP2 PUSH2 0x61B JUMP JUMPDEST DUP3 MSTORE POP POP JUMP JUMPDEST PUSH2 0x3F2 DUP2 PUSH2 0x627 JUMP JUMPDEST DUP3 MSTORE POP POP JUMP JUMPDEST PUSH2 0x401 DUP2 PUSH2 0x653 JUMP JUMPDEST DUP3 MSTORE POP POP JUMP JUMPDEST PUSH1 0x0 PUSH2 0x412 DUP3 PUSH2 0x5D1 JUMP JUMPDEST PUSH2 0x41C DUP2 DUP6 PUSH2 0x5E7 JUMP JUMPDEST SWAP4 POP PUSH2 0x42C DUP2 DUP6 PUSH1 0x20 DUP7 ADD PUSH2 0x6AB JUMP JUMPDEST PUSH2 0x435 DUP2 PUSH2 0x73F JUMP JUMPDEST DUP5 ADD SWAP2 POP POP SWAP3 SWAP2 POP POP JUMP JUMPDEST PUSH2 0x449 DUP2 PUSH2 0x65D JUMP JUMPDEST DUP3 MSTORE POP POP JUMP JUMPDEST PUSH2 0x458 DUP2 PUSH2 0x667 JUMP JUMPDEST DUP3 MSTORE POP POP JUMP JUMPDEST PUSH1 0x0 PUSH2 0x469 DUP3 PUSH2 0x5DC JUMP JUMPDEST PUSH2 0x473 DUP2 DUP6 PUSH2 0x5F8 JUMP JUMPDEST SWAP4 POP PUSH2 0x483 DUP2 DUP6 PUSH1 0x20 DUP7 ADD PUSH2 0x6AB JUMP JUMPDEST PUSH2 0x48C DUP2 PUSH2 0x73F JUMP JUMPDEST DUP5 ADD SWAP2 POP POP SWAP3 SWAP2 POP POP JUMP JUMPDEST PUSH2 0x4A0 DUP2 PUSH2 0x694 JUMP JUMPDEST DUP3 MSTORE POP POP JUMP JUMPDEST PUSH2 0x4AF DUP2 PUSH2 0x69E JUMP JUMPDEST DUP3 MSTORE POP POP JUMP JUMPDEST PUSH1 0x0 PUSH1 0x20 DUP3 ADD SWAP1 POP PUSH2 0x4CA PUSH1 0x0 DUP4 ADD DUP5 PUSH2 0x3CB JUMP JUMPDEST SWAP3 SWAP2 POP POP JUMP JUMPDEST PUSH1 0x0 PUSH1 0x20 DUP3 ADD SWAP1 POP PUSH2 0x4E5 PUSH1 0x0 DUP4 ADD DUP5 PUSH2 0x3DA JUMP JUMPDEST SWAP3 SWAP2 POP POP JUMP JUMPDEST PUSH1 0x0 PUSH1 0x20 DUP3 ADD SWAP1 POP PUSH2 0x500 PUSH1 0x0 DUP4 ADD DUP5 PUSH2 0x3E9 JUMP JUMPDEST SWAP3 SWAP2 POP POP JUMP JUMPDEST PUSH1 0x0 PUSH1 0x20 DUP3 ADD SWAP1 POP PUSH2 0x51B PUSH1 0x0 DUP4 ADD DUP5 PUSH2 0x3F8 JUMP JUMPDEST SWAP3 SWAP2 POP POP JUMP JUMPDEST PUSH1 0x0 PUSH1 0x20 DUP3 ADD SWAP1 POP DUP2 DUP2 SUB PUSH1 0x0 DUP4 ADD MSTORE PUSH2 0x53B DUP2 DUP5 PUSH2 0x407 JUMP JUMPDEST SWAP1 POP SWAP3 SWAP2 POP POP JUMP JUMPDEST PUSH1 0x0 PUSH1 0x20 DUP3 ADD SWAP1 POP PUSH2 0x558 PUSH1 0x0 DUP4 ADD DUP5 PUSH2 0x440 JUMP JUMPDEST SWAP3 SWAP2 POP POP JUMP JUMPDEST PUSH1 0x0 PUSH1 0x20 DUP3 ADD SWAP1 POP PUSH2 0x573 PUSH1 0x0 DUP4 ADD DUP5 PUSH2 0x44F JUMP JUMPDEST SWAP3 SWAP2 POP POP JUMP JUMPDEST PUSH1 0x0 PUSH1 0x20 DUP3 ADD SWAP1 POP DUP2 DUP2 SUB PUSH1 0x0 DUP4 ADD MSTORE PUSH2 0x593 DUP2 DUP5 PUSH2 0x45E JUMP JUMPDEST SWAP1 POP SWAP3 SWAP2 POP POP JUMP JUMPDEST PUSH1 0x0 PUSH1 0x20 DUP3 ADD SWAP1 POP PUSH2 0x5B0 PUSH1 0x0 DUP4 ADD DUP5 PUSH2 0x497 JUMP JUMPDEST SWAP3 SWAP2 POP POP JUMP JUMPDEST PUSH1 0x0 PUSH1 0x20 DUP3 ADD SWAP1 POP PUSH2 0x5CB PUSH1 0x0 DUP4 ADD DUP5 PUSH2 0x4A6 JUMP JUMPDEST SWAP3 SWAP2 POP POP JUMP JUMPDEST PUSH1 0x0 DUP2 MLOAD SWAP1 POP SWAP2 SWAP1 POP JUMP JUMPDEST PUSH1 0x0 DUP2 MLOAD SWAP1 POP SWAP2 SWAP1 POP JUMP JUMPDEST PUSH1 0x0 DUP3 DUP3 MSTORE PUSH1 0x20 DUP3 ADD SWAP1 POP SWAP3 SWAP2 POP POP JUMP JUMPDEST PUSH1 0x0 DUP3 DUP3 MSTORE PUSH1 0x20 DUP3 ADD SWAP1 POP SWAP3 SWAP2 POP POP JUMP JUMPDEST PUSH1 0x0 PUSH2 0x614 DUP3 PUSH2 0x674 JUMP JUMPDEST SWAP1 POP SWAP2 SWAP1 POP JUMP JUMPDEST PUSH1 0x0 DUP2 ISZERO ISZERO SWAP1 POP SWAP2 SWAP1 POP JUMP JUMPDEST PUSH1 0x0 PUSH32 0xFFFFFFFFFFFFFFFFFFFFFFFFFFFFFFFFFFFFFFFF000000000000000000000000 DUP3 AND SWAP1 POP SWAP2 SWAP1 POP JUMP JUMPDEST PUSH1 0x0 DUP2 SWAP1 POP SWAP2 SWAP1 POP JUMP JUMPDEST PUSH1 0x0 DUP2 SWAP1 POP SWAP2 SWAP1 POP JUMP JUMPDEST PUSH1 0x0 DUP2 PUSH1 0x0 SIGNEXTEND SWAP1 POP SWAP2 SWAP1 POP JUMP JUMPDEST PUSH1 0x0 PUSH20 0xFFFFFFFFFFFFFFFFFFFFFFFFFFFFFFFFFFFFFFFF DUP3 AND SWAP1 POP SWAP2 SWAP1 POP JUMP JUMPDEST PUSH1 0x0 DUP2 SWAP1 POP SWAP2 SWAP1 POP JUMP JUMPDEST PUSH1 0x0 PUSH1 0xFF DUP3 AND SWAP1 POP SWAP2 SWAP1 POP JUMP JUMPDEST PUSH1 0x0 JUMPDEST DUP4 DUP2 LT ISZERO PUSH2 0x6C9 JUMPI DUP1 DUP3 ADD MLOAD DUP2 DUP5 ADD MSTORE PUSH1 0x20 DUP2 ADD SWAP1 POP PUSH2 0x6AE JUMP JUMPDEST DUP4 DUP2 GT ISZERO PUSH2 0x6D8 JUMPI PUSH1 0x0 DUP5 DUP5 ADD MSTORE JUMPDEST POP POP POP POP JUMP JUMPDEST PUSH1 0x0 PUSH1 0x2 DUP3 DIV SWAP1 POP PUSH1 0x1 DUP3 AND DUP1 PUSH2 0x6F6 JUMPI PUSH1 0x7F DUP3 AND SWAP2 POP JUMPDEST PUSH1 0x20 DUP3 LT DUP2 EQ ISZERO PUSH2 0x70A JUMPI PUSH2 0x709 PUSH2 0x710 JUMP JUMPDEST JUMPDEST POP SWAP2 SWAP1 POP JUMP JUMPDEST PUSH32 0x4E487B7100000000000000000000000000000000000000000000000000000000 PUSH1 0x0 MSTORE PUSH1 0x22 PUSH1 0x4 MSTORE PUSH1 0x24 PUSH1 0x0 REVERT JUMPDEST PUSH1 0x0 PUSH1 0x1F NOT PUSH1 0x1F DUP4 ADD AND SWAP1 POP SWAP2 SWAP1 POP JUMP INVALID LOG2 PUSH5 0x6970667358 0x22 SLT KECCAK256 SGT 0xCE SUB PUSH17 0x3E551D9887703DF7D4579875005B714C0D EXP CREATE2 DUP13 DUP11 CALLER DELEGATECALL 0xE0 0xE4 DUP5 RETURNDATASIZE 0xE7 PUSH5 0x736F6C6343 STOP ADDMOD SMOD STOP CALLER "
				},
				"gasEstimates": {
					"creation": {
						"codeDepositCost": "385200",
						"executionCost": "infinite",
						"totalCost": "infinite"
					},
					"external": {
						"data1()": "2579",
						"data10()": "2472",
						"data11()": "2452",
						"data12()": "2559",
						"data2()": "2451",
						"data3()": "2517",
						"data4()": "2518",
						"data5()": "2429",
						"data6()": "2537",
						"data7()": "2635",
						"data8()": "infinite",
						"data9()": "infinite"
					}
				},
				"methodIdentifiers": {
					"data1()": "9ffd85c4",
					"data10()": "279b95c4",
					"data11()": "2c79b1a9",
					"data12()": "5bff090a",
					"data2()": "e3a7fd75",
					"data3()": "fc26b0ab",
					"data4()": "61d9e726",
					"data5()": "c35887a7",
					"data6()": "fab29b45",
					"data7()": "fdcc663f",
					"data8()": "f80b56c9",
					"data9()": "5c9fef08"
				}
			},
			"storageLayout": {
				"storage": [
					{
						"astId": 4,
						"contract": "test/Data.sol:DataType",
						"label": "data1",
						"offset": 0,
						"slot": "0",
						"type": "t_bool"
					},
					{
						"astId": 8,
						"contract": "test/Data.sol:DataType",
						"label": "data2",
						"offset": 0,
						"slot": "1",
						"type": "t_int256"
					},
					{
						"astId": 11,
						"contract": "test/Data.sol:DataType",
						"label": "data3",
						"offset": 0,
						"slot": "2",
						"type": "t_uint256"
					},
					{
						"astId": 14,
						"contract": "test/Data.sol:DataType",
						"label": "data4",
						"offset": 0,
						"slot": "3",
						"type": "t_uint256"
					},
					{
						"astId": 18,
						"contract": "test/Data.sol:DataType",
						"label": "data5",
						"offset": 0,
						"slot": "4",
						"type": "t_int256"
					},
					{
						"astId": 21,
						"contract": "test/Data.sol:DataType",
						"label": "data6",
						"offset": 0,
						"slot": "5",
						"type": "t_uint8"
					},
					{
						"astId": 25,
						"contract": "test/Data.sol:DataType",
						"label": "data7",
						"offset": 1,
						"slot": "5",
						"type": "t_int8"
					},
					{
						"astId": 28,
						"contract": "test/Data.sol:DataType",
						"label": "data8",
						"offset": 0,
						"slot": "6",
						"type": "t_string_storage"
					},
					{
						"astId": 31,
						"contract": "test/Data.sol:DataType",
						"label": "data9",
						"offset": 0,
						"slot": "7",
						"type": "t_bytes_storage"
					},
					{
						"astId": 34,
						"contract": "test/Data.sol:DataType",
						"label": "data10",
						"offset": 0,
						"slot": "8",
						"type": "t_bytes20"
					},
					{
						"astId": 37,
						"contract": "test/Data.sol:DataType",
						"label": "data11",
						"offset": 0,
						"slot": "9",
						"type": "t_bytes32"
					},
					{
						"astId": 40,
						"contract": "test/Data.sol:DataType",
						"label": "data12",
						"offset": 0,
						"slot": "10",
						"type": "t_address"
					}
				],
				"types": {
					"t_address": {
						"encoding": "inplace",
						"label": "address",
						"numberOfBytes": "20"
					},
					"t_bool": {
						"encoding": "inplace",
						"label": "bool",
						"numberOfBytes": "1"
					},
					"t_bytes20": {
						"encoding": "inplace",
						"label": "bytes20",
						"numberOfBytes": "20"
					},
					"t_bytes32": {
						"encoding": "inplace",
						"label": "bytes32",
						"numberOfBytes": "32"
					},
					"t_bytes_storage": {
						"encoding": "bytes",
						"label": "bytes",
						"numberOfBytes": "32"
					},
					"t_int256": {
						"encoding": "inplace",
						"label": "int256",
						"numberOfBytes": "32"
					},
					"t_int8": {
						"encoding": "inplace",
						"label": "int8",
						"numberOfBytes": "1"
					},
					"t_string_storage": {
						"encoding": "bytes",
						"label": "string",
						"numberOfBytes": "32"
					},
					"t_uint256": {
						"encoding": "inplace",
						"label": "uint256",
						"numberOfBytes": "32"
					},
					"t_uint8": {
						"encoding": "inplace",
						"label": "uint8",
						"numberOfBytes": "1"
					}
				}
			},
			"userdoc": {
				"kind": "user",
				"methods": {},
				"version": 1
			}
		}
	}
}