{
	"test/Address.sol": {
		"Address": {
			"abi": [
				{
					"inputs": [],
					"name": "getBalance",
					"outputs": [
						{
							"internalType": "uint256",
							"name": "",
							"type": "uint256"
						}
					],
					"stateMutability": "view",
					"type": "function"
				},
				{
					"inputs": [],
					"name": "payable_user",
					"outputs": [
						{
							"internalType": "address payable",
							"name": "",
							"type": "address"
						}
					],
					"stateMutability": "view",
					"type": "function"
				},
				{
					"inputs": [],
					"name": "sendEth",
					"outputs": [],
					"stateMutability": "payable",
					"type": "function"
				},
				{
					"inputs": [],
					"name": "user",
					"outputs": [
						{
							"internalType": "address",
							"name": "",
							"type": "address"
						}
					],
					"stateMutability": "view",
					"type": "function"
				}
			],
			"devdoc": {
				"kind": "dev",
				"methods": {},
				"version": 1
			},
			"evm": {
				"assembly": "    /* \"test/Address.sol\":35:475  contract Address{\r... */\n  mstore(0x40, 0x80)\n    /* \"test/Address.sol\":166:208  0x8e27f274FA90B0b116b001626150d87C94993964 */\n  0x8e27f274fa90b0b116b001626150d87c94993964\n    /* \"test/Address.sol\":144:208  address public user = 0x8e27f274FA90B0b116b001626150d87C94993964 */\n  0x00\n  dup1\n  0x0100\n  exp\n  dup2\n  sload\n  dup2\n  0xffffffffffffffffffffffffffffffffffffffff\n  mul\n  not\n  and\n  swap1\n  dup4\n  0xffffffffffffffffffffffffffffffffffffffff\n  and\n  mul\n  or\n  swap1\n  sstore\n  pop\n    /* \"test/Address.sol\":263:267  user */\n  0x00\n  dup1\n  sload\n  swap1\n  0x0100\n  exp\n  swap1\n  div\n  0xffffffffffffffffffffffffffffffffffffffff\n  and\n    /* \"test/Address.sol\":217:268  address payable public payable_user = payable(user) */\n  0x01\n  exp(0x0100, 0x00)\n  dup2\n  sload\n  dup2\n  0xffffffffffffffffffffffffffffffffffffffff\n  mul\n  not\n  and\n  swap1\n  dup4\n  0xffffffffffffffffffffffffffffffffffffffff\n  and\n  mul\n  or\n  swap1\n  sstore\n  pop\n    /* \"test/Address.sol\":35:475  contract Address{\r... */\n  callvalue\n  dup1\n  iszero\n  tag_1\n  jumpi\n  0x00\n  dup1\n  revert\ntag_1:\n  pop\n  dataSize(sub_0)\n  dup1\n  dataOffset(sub_0)\n  0x00\n  codecopy\n  0x00\n  return\nstop\n\nsub_0: assembly {\n        /* \"test/Address.sol\":35:475  contract Address{\r... */\n      mstore(0x40, 0x80)\n      jumpi(tag_1, lt(calldatasize, 0x04))\n      shr(0xe0, calldataload(0x00))\n      dup1\n      0x06e99fef\n      eq\n      tag_2\n      jumpi\n      dup1\n      0x12065fe0\n      eq\n      tag_3\n      jumpi\n      dup1\n      0x4f8632ba\n      eq\n      tag_4\n      jumpi\n      dup1\n      0xde274d18\n      eq\n      tag_5\n      jumpi\n    tag_1:\n      0x00\n      dup1\n      revert\n        /* \"test/Address.sol\":277:371  function sendEth() public payable{\r... */\n    tag_2:\n      tag_6\n      tag_7\n      jump\t// in\n    tag_6:\n      stop\n        /* \"test/Address.sol\":383:468  function getBalance() public view returns(uint){\r... */\n    tag_3:\n      callvalue\n      dup1\n      iszero\n      tag_8\n      jumpi\n      0x00\n      dup1\n      revert\n    tag_8:\n      pop\n      tag_9\n      tag_10\n      jump\t// in\n    tag_9:\n      mload(0x40)\n      tag_11\n      swap2\n      swap1\n      tag_12\n      jump\t// in\n    tag_11:\n      mload(0x40)\n      dup1\n      swap2\n      sub\n      swap1\n      return\n        /* \"test/Address.sol\":144:208  address public user = 0x8e27f274FA90B0b116b001626150d87C94993964 */\n    tag_4:\n      callvalue\n      dup1\n      iszero\n      tag_13\n      jumpi\n      0x00\n      dup1\n      revert\n    tag_13:\n      pop\n      tag_14\n      tag_15\n      jump\t// in\n    tag_14:\n      mload(0x40)\n      tag_16\n      swap2\n      swap1\n      tag_17\n      jump\t// in\n    tag_16:\n      mload(0x40)\n      dup1\n      swap2\n      sub\n      swap1\n      return\n        /* \"test/Address.sol\":217:268  address payable public payable_user = payable(user) */\n    tag_5:\n      callvalue\n      dup1\n      iszero\n      tag_18\n      jumpi\n      0x00\n      dup1\n      revert\n    tag_18:\n      pop\n      tag_19\n      tag_20\n      jump\t// in\n    tag_19:\n      mload(0x40)\n      tag_21\n      swap2\n      swap1\n      tag_22\n      jump\t// in\n    tag_21:\n      mload(0x40)\n      dup1\n      swap2\n      sub\n      swap1\n      return\n        /* \"test/Address.sol\":277:371  function sendEth() public payable{\r... */\n    tag_7:\n        /* \"test/Address.sol\":321:333  payable_user */\n      0x01\n      0x00\n      swap1\n      sload\n      swap1\n      0x0100\n      exp\n      swap1\n      div\n      0xffffffffffffffffffffffffffffffffffffffff\n      and\n        /* \"test/Address.sol\":321:342  payable_user.transfer */\n      0xffffffffffffffffffffffffffffffffffffffff\n      and\n        /* \"test/Address.sol\":321:363  payable_user.transfer(1000000000000000000) */\n      0x08fc\n        /* \"test/Address.sol\":343:362  1000000000000000000 */\n      0x0de0b6b3a7640000\n        /* \"test/Address.sol\":321:363  payable_user.transfer(1000000000000000000) */\n      swap1\n      dup2\n      iszero\n      mul\n      swap1\n      mload(0x40)\n      0x00\n      mload(0x40)\n      dup1\n      dup4\n      sub\n      dup2\n      dup6\n      dup9\n      dup9\n      call\n      swap4\n      pop\n      pop\n      pop\n      pop\n      iszero\n      dup1\n      iszero\n      tag_25\n      jumpi\n      returndatasize\n      0x00\n      dup1\n      returndatacopy\n      revert(0x00, returndatasize)\n    tag_25:\n      pop\n        /* \"test/Address.sol\":277:371  function sendEth() public payable{\r... */\n      jump\t// out\n        /* \"test/Address.sol\":383:468  function getBalance() public view returns(uint){\r... */\n    tag_10:\n        /* \"test/Address.sol\":425:429  uint */\n      0x00\n        /* \"test/Address.sol\":448:452  user */\n      dup1\n      0x00\n      swap1\n      sload\n      swap1\n      0x0100\n      exp\n      swap1\n      div\n      0xffffffffffffffffffffffffffffffffffffffff\n      and\n        /* \"test/Address.sol\":448:460  user.balance */\n      0xffffffffffffffffffffffffffffffffffffffff\n      and\n      balance\n        /* \"test/Address.sol\":441:460  return user.balance */\n      swap1\n      pop\n        /* \"test/Address.sol\":383:468  function getBalance() public view returns(uint){\r... */\n      swap1\n      jump\t// out\n        /* \"test/Address.sol\":144:208  address public user = 0x8e27f274FA90B0b116b001626150d87C94993964 */\n    tag_15:\n      0x00\n      dup1\n      sload\n      swap1\n      0x0100\n      exp\n      swap1\n      div\n      0xffffffffffffffffffffffffffffffffffffffff\n      and\n      dup2\n      jump\t// out\n        /* \"test/Address.sol\":217:268  address payable public payable_user = payable(user) */\n    tag_20:\n      0x01\n      0x00\n      swap1\n      sload\n      swap1\n      0x0100\n      exp\n      swap1\n      div\n      0xffffffffffffffffffffffffffffffffffffffff\n      and\n      dup2\n      jump\t// out\n        /* \"#utility.yul\":7:149   */\n    tag_28:\n        /* \"#utility.yul\":110:142   */\n      tag_30\n        /* \"#utility.yul\":136:141   */\n      dup2\n        /* \"#utility.yul\":110:142   */\n      tag_31\n      jump\t// in\n    tag_30:\n        /* \"#utility.yul\":105:108   */\n      dup3\n        /* \"#utility.yul\":98:143   */\n      mstore\n        /* \"#utility.yul\":7:149   */\n      pop\n      pop\n      jump\t// out\n        /* \"#utility.yul\":155:273   */\n    tag_32:\n        /* \"#utility.yul\":242:266   */\n      tag_34\n        /* \"#utility.yul\":260:265   */\n      dup2\n        /* \"#utility.yul\":242:266   */\n      tag_35\n      jump\t// in\n    tag_34:\n        /* \"#utility.yul\":237:240   */\n      dup3\n        /* \"#utility.yul\":230:267   */\n      mstore\n        /* \"#utility.yul\":155:273   */\n      pop\n      pop\n      jump\t// out\n        /* \"#utility.yul\":279:397   */\n    tag_36:\n        /* \"#utility.yul\":366:390   */\n      tag_38\n        /* \"#utility.yul\":384:389   */\n      dup2\n        /* \"#utility.yul\":366:390   */\n      tag_39\n      jump\t// in\n    tag_38:\n        /* \"#utility.yul\":361:364   */\n      dup3\n        /* \"#utility.yul\":354:391   */\n      mstore\n        /* \"#utility.yul\":279:397   */\n      pop\n      pop\n      jump\t// out\n        /* \"#utility.yul\":403:625   */\n    tag_17:\n        /* \"#utility.yul\":496:500   */\n      0x00\n        /* \"#utility.yul\":534:536   */\n      0x20\n        /* \"#utility.yul\":523:532   */\n      dup3\n        /* \"#utility.yul\":519:537   */\n      add\n        /* \"#utility.yul\":511:537   */\n      swap1\n      pop\n        /* \"#utility.yul\":547:618   */\n      tag_41\n        /* \"#utility.yul\":615:616   */\n      0x00\n        /* \"#utility.yul\":604:613   */\n      dup4\n        /* \"#utility.yul\":600:617   */\n      add\n        /* \"#utility.yul\":591:597   */\n      dup5\n        /* \"#utility.yul\":547:618   */\n      tag_32\n      jump\t// in\n    tag_41:\n        /* \"#utility.yul\":403:625   */\n      swap3\n      swap2\n      pop\n      pop\n      jump\t// out\n        /* \"#utility.yul\":631:885   */\n    tag_22:\n        /* \"#utility.yul\":740:744   */\n      0x00\n        /* \"#utility.yul\":778:780   */\n      0x20\n        /* \"#utility.yul\":767:776   */\n      dup3\n        /* \"#utility.yul\":763:781   */\n      add\n        /* \"#utility.yul\":755:781   */\n      swap1\n      pop\n        /* \"#utility.yul\":791:878   */\n      tag_43\n        /* \"#utility.yul\":875:876   */\n      0x00\n        /* \"#utility.yul\":864:873   */\n      dup4\n        /* \"#utility.yul\":860:877   */\n      add\n        /* \"#utility.yul\":851:857   */\n      dup5\n        /* \"#utility.yul\":791:878   */\n      tag_28\n      jump\t// in\n    tag_43:\n        /* \"#utility.yul\":631:885   */\n      swap3\n      swap2\n      pop\n      pop\n      jump\t// out\n        /* \"#utility.yul\":891:1113   */\n    tag_12:\n        /* \"#utility.yul\":984:988   */\n      0x00\n        /* \"#utility.yul\":1022:1024   */\n      0x20\n        /* \"#utility.yul\":1011:1020   */\n      dup3\n        /* \"#utility.yul\":1007:1025   */\n      add\n        /* \"#utility.yul\":999:1025   */\n      swap1\n      pop\n        /* \"#utility.yul\":1035:1106   */\n      tag_45\n        /* \"#utility.yul\":1103:1104   */\n      0x00\n        /* \"#utility.yul\":1092:1101   */\n      dup4\n        /* \"#utility.yul\":1088:1105   */\n      add\n        /* \"#utility.yul\":1079:1085   */\n      dup5\n        /* \"#utility.yul\":1035:1106   */\n      tag_36\n      jump\t// in\n    tag_45:\n        /* \"#utility.yul\":891:1113   */\n      swap3\n      swap2\n      pop\n      pop\n      jump\t// out\n        /* \"#utility.yul\":1119:1215   */\n    tag_35:\n        /* \"#utility.yul\":1156:1163   */\n      0x00\n        /* \"#utility.yul\":1185:1209   */\n      tag_47\n        /* \"#utility.yul\":1203:1208   */\n      dup3\n        /* \"#utility.yul\":1185:1209   */\n      tag_48\n      jump\t// in\n    tag_47:\n        /* \"#utility.yul\":1174:1209   */\n      swap1\n      pop\n        /* \"#utility.yul\":1119:1215   */\n      swap2\n      swap1\n      pop\n      jump\t// out\n        /* \"#utility.yul\":1221:1325   */\n    tag_31:\n        /* \"#utility.yul\":1266:1273   */\n      0x00\n        /* \"#utility.yul\":1295:1319   */\n      tag_50\n        /* \"#utility.yul\":1313:1318   */\n      dup3\n        /* \"#utility.yul\":1295:1319   */\n      tag_48\n      jump\t// in\n    tag_50:\n        /* \"#utility.yul\":1284:1319   */\n      swap1\n      pop\n        /* \"#utility.yul\":1221:1325   */\n      swap2\n      swap1\n      pop\n      jump\t// out\n        /* \"#utility.yul\":1331:1457   */\n    tag_48:\n        /* \"#utility.yul\":1368:1375   */\n      0x00\n        /* \"#utility.yul\":1408:1450   */\n      0xffffffffffffffffffffffffffffffffffffffff\n        /* \"#utility.yul\":1401:1406   */\n      dup3\n        /* \"#utility.yul\":1397:1451   */\n      and\n        /* \"#utility.yul\":1386:1451   */\n      swap1\n      pop\n        /* \"#utility.yul\":1331:1457   */\n      swap2\n      swap1\n      pop\n      jump\t// out\n        /* \"#utility.yul\":1463:1540   */\n    tag_39:\n        /* \"#utility.yul\":1500:1507   */\n      0x00\n        /* \"#utility.yul\":1529:1534   */\n      dup2\n        /* \"#utility.yul\":1518:1534   */\n      swap1\n      pop\n        /* \"#utility.yul\":1463:1540   */\n      swap2\n      swap1\n      pop\n      jump\t// out\n\n    auxdata: 0xa26469706673582212201423dc4bf05912af3c80a9fe9b5404272908704c3f1d71fe3b940991d9cfb0a764736f6c63430008070033\n}\n",
				"bytecode": {
					"linkReferences": {},
					"object": "6080604052738e27f274fa90b0b116b001626150d87c949939646000806101000a81548173ffffffffffffffffffffffffffffffffffffffff021916908373ffffffffffffffffffffffffffffffffffffffff16021790555060008054906101000a900473ffffffffffffffffffffffffffffffffffffffff16600160006101000a81548173ffffffffffffffffffffffffffffffffffffffff021916908373ffffffffffffffffffffffffffffffffffffffff1602179055503480156100c557600080fd5b506102ce806100d56000396000f3fe60806040526004361061003f5760003560e01c806306e99fef1461004457806312065fe01461004e5780634f8632ba14610079578063de274d18146100a4575b600080fd5b61004c6100cf565b005b34801561005a57600080fd5b50610063610142565b604051610070919061022f565b60405180910390f35b34801561008557600080fd5b5061008e610182565b60405161009b91906101f9565b60405180910390f35b3480156100b057600080fd5b506100b96101a6565b6040516100c69190610214565b60405180910390f35b600160009054906101000a900473ffffffffffffffffffffffffffffffffffffffff1673ffffffffffffffffffffffffffffffffffffffff166108fc670de0b6b3a76400009081150290604051600060405180830381858888f1935050505015801561013f573d6000803e3d6000fd5b50565b60008060009054906101000a900473ffffffffffffffffffffffffffffffffffffffff1673ffffffffffffffffffffffffffffffffffffffff1631905090565b60008054906101000a900473ffffffffffffffffffffffffffffffffffffffff1681565b600160009054906101000a900473ffffffffffffffffffffffffffffffffffffffff1681565b6101d58161025c565b82525050565b6101e48161024a565b82525050565b6101f38161028e565b82525050565b600060208201905061020e60008301846101db565b92915050565b600060208201905061022960008301846101cc565b92915050565b600060208201905061024460008301846101ea565b92915050565b60006102558261026e565b9050919050565b60006102678261026e565b9050919050565b600073ffffffffffffffffffffffffffffffffffffffff82169050919050565b600081905091905056fea26469706673582212201423dc4bf05912af3c80a9fe9b5404272908704c3f1d71fe3b940991d9cfb0a764736f6c63430008070033",
					"opcodes": "PUSH1 0x80 PUSH1 0x40 MSTORE PUSH20 0x8E27F274FA90B0B116B001626150D87C94993964 PUSH1 0x0 DUP1 PUSH2 0x100 EXP DUP2 SLOAD DUP2 PUSH20 0xFFFFFFFFFFFFFFFFFFFFFFFFFFFFFFFFFFFFFFFF MUL NOT AND SWAP1 DUP4 PUSH20 0xFFFFFFFFFFFFFFFFFFFFFFFFFFFFFFFFFFFFFFFF AND MUL OR SWAP1 SSTORE POP PUSH1 0x0 DUP1 SLOAD SWAP1 PUSH2 0x100 EXP SWAP1 DIV PUSH20 0xFFFFFFFFFFFFFFFFFFFFFFFFFFFFFFFFFFFFFFFF AND PUSH1 0x1 PUSH1 0x0 PUSH2 0x100 EXP DUP2 SLOAD DUP2 PUSH20 0xFFFFFFFFFFFFFFFFFFFFFFFFFFFFFFFFFFFFFFFF MUL NOT AND SWAP1 DUP4 PUSH20 0xFFFFFFFFFFFFFFFFFFFFFFFFFFFFFFFFFFFFFFFF AND MUL OR SWAP1 SSTORE POP CALLVALUE DUP1 ISZERO PUSH2 0xC5 JUMPI PUSH1 0x0 DUP1 REVERT JUMPDEST POP PUSH2 0x2CE DUP1 PUSH2 0xD5 PUSH1 0x0 CODECOPY PUSH1 0x0 RETURN INVALID PUSH1 0x80 PUSH1 0x40 MSTORE PUSH1 0x4 CALLDATASIZE LT PUSH2 0x3F JUMPI PUSH1 0x0 CALLDATALOAD PUSH1 0xE0 SHR DUP1 PUSH4 0x6E99FEF EQ PUSH2 0x44 JUMPI DUP1 PUSH4 0x12065FE0 EQ PUSH2 0x4E JUMPI DUP1 PUSH4 0x4F8632BA EQ PUSH2 0x79 JUMPI DUP1 PUSH4 0xDE274D18 EQ PUSH2 0xA4 JUMPI JUMPDEST PUSH1 0x0 DUP1 REVERT JUMPDEST PUSH2 0x4C PUSH2 0xCF JUMP JUMPDEST STOP JUMPDEST CALLVALUE DUP1 ISZERO PUSH2 0x5A JUMPI PUSH1 0x0 DUP1 REVERT JUMPDEST POP PUSH2 0x63 PUSH2 0x142 JUMP JUMPDEST PUSH1 0x40 MLOAD PUSH2 0x70 SWAP2 SWAP1 PUSH2 0x22F JUMP JUMPDEST PUSH1 0x40 MLOAD DUP1 SWAP2 SUB SWAP1 RETURN JUMPDEST CALLVALUE DUP1 ISZERO PUSH2 0x85 JUMPI PUSH1 0x0 DUP1 REVERT JUMPDEST POP PUSH2 0x8E PUSH2 0x182 JUMP JUMPDEST PUSH1 0x40 MLOAD PUSH2 0x9B SWAP2 SWAP1 PUSH2 0x1F9 JUMP JUMPDEST PUSH1 0x40 MLOAD DUP1 SWAP2 SUB SWAP1 RETURN JUMPDEST CALLVALUE DUP1 ISZERO PUSH2 0xB0 JUMPI PUSH1 0x0 DUP1 REVERT JUMPDEST POP PUSH2 0xB9 PUSH2 0x1A6 JUMP JUMPDEST PUSH1 0x40 MLOAD PUSH2 0xC6 SWAP2 SWAP1 PUSH2 0x214 JUMP JUMPDEST PUSH1 0x40 MLOAD DUP1 SWAP2 SUB SWAP1 RETURN JUMPDEST PUSH1 0x1 PUSH1 0x0 SWAP1 SLOAD SWAP1 PUSH2 0x100 EXP SWAP1 DIV PUSH20 0xFFFFFFFFFFFFFFFFFFFFFFFFFFFFFFFFFFFFFFFF AND PUSH20 0xFFFFFFFFFFFFFFFFFFFFFFFFFFFFFFFFFFFFFFFF AND PUSH2 0x8FC PUSH8 0xDE0B6B3A7640000 SWAP1 DUP2 ISZERO MUL SWAP1 PUSH1 0x40 MLOAD PUSH1 0x0 PUSH1 0x40 MLOAD DUP1 DUP4 SUB DUP2 DUP6 DUP9 DUP9 CALL SWAP4 POP POP POP POP ISZERO DUP1 ISZERO PUSH2 0x13F JUMPI RETURNDATASIZE PUSH1 0x0 DUP1 RETURNDATACOPY RETURNDATASIZE PUSH1 0x0 REVERT JUMPDEST POP JUMP JUMPDEST PUSH1 0x0 DUP1 PUSH1 0x0 SWAP1 SLOAD SWAP1 PUSH2 0x100 EXP SWAP1 DIV PUSH20 0xFFFFFFFFFFFFFFFFFFFFFFFFFFFFFFFFFFFFFFFF AND PUSH20 0xFFFFFFFFFFFFFFFFFFFFFFFFFFFFFFFFFFFFFFFF AND BALANCE SWAP1 POP SWAP1 JUMP JUMPDEST PUSH1 0x0 DUP1 SLOAD SWAP1 PUSH2 0x100 EXP SWAP1 DIV PUSH20 0xFFFFFFFFFFFFFFFFFFFFFFFFFFFFFFFFFFFFFFFF AND DUP2 JUMP JUMPDEST PUSH1 0x1 PUSH1 0x0 SWAP1 SLOAD SWAP1 PUSH2 0x100 EXP SWAP1 DIV PUSH20 0xFFFFFFFFFFFFFFFFFFFFFFFFFFFFFFFFFFFFFFFF AND DUP2 JUMP JUMPDEST PUSH2 0x1D5 DUP2 PUSH2 0x25C JUMP JUMPDEST DUP3 MSTORE POP POP JUMP JUMPDEST PUSH2 0x1E4 DUP2 PUSH2 0x24A JUMP JUMPDEST DUP3 MSTORE POP POP JUMP JUMPDEST PUSH2 0x1F3 DUP2 PUSH2 0x28E JUMP JUMPDEST DUP3 MSTORE POP POP JUMP JUMPDEST PUSH1 0x0 PUSH1 0x20 DUP3 ADD SWAP1 POP PUSH2 0x20E PUSH1 0x0 DUP4 ADD DUP5 PUSH2 0x1DB JUMP JUMPDEST SWAP3 SWAP2 POP POP JUMP JUMPDEST PUSH1 0x0 PUSH1 0x20 DUP3 ADD SWAP1 POP PUSH2 0x229 PUSH1 0x0 DUP4 ADD DUP5 PUSH2 0x1CC JUMP JUMPDEST SWAP3 SWAP2 POP POP JUMP JUMPDEST PUSH1 0x0 PUSH1 0x20 DUP3 ADD SWAP1 POP PUSH2 0x244 PUSH1 0x0 DUP4 ADD DUP5 PUSH2 0x1EA JUMP JUMPDEST SWAP3 SWAP2 POP POP JUMP JUMPDEST PUSH1 0x0 PUSH2 0x255 DUP3 PUSH2 0x26E JUMP JUMPDEST SWAP1 POP SWAP2 SWAP1 POP JUMP JUMPDEST PUSH1 0x0 PUSH2 0x267 DUP3 PUSH2 0x26E JUMP JUMPDEST SWAP1 POP SWAP2 SWAP1 POP JUMP JUMPDEST PUSH1 0x0 PUSH20 0xFFFFFFFFFFFFFFFFFFFFFFFFFFFFFFFFFFFFFFFF DUP3 AND SWAP1 POP SWAP2 SWAP1 POP JUMP JUMPDEST PUSH1 0x0 DUP2 SWAP1 POP SWAP2 SWAP1 POP JUMP INVALID LOG2 PUSH5 0x6970667358 0x22 SLT KECCAK256 EQ 0x23 0xDC 0x4B CREATE MSIZE SLT 0xAF EXTCODECOPY DUP1 0xA9 INVALID SWAP12 SLOAD DIV 0x27 0x29 ADDMOD PUSH17 0x4C3F1D71FE3B940991D9CFB0A764736F6C PUSH4 0x43000807 STOP CALLER "
				},
				"gasEstimates": {
					"creation": {
						"codeDepositCost": "143600",
						"executionCost": "50857",
						"totalCost": "194457"
					},
					"external": {
						"getBalance()": "5079",
						"payable_user()": "2558",
						"sendEth()": "infinite",
						"user()": "2533"
					}
				},
				"methodIdentifiers": {
					"getBalance()": "12065fe0",
					"payable_user()": "de274d18",
					"sendEth()": "06e99fef",
					"user()": "4f8632ba"
				}
			},
			"storageLayout": {
				"storage": [
					{
						"astId": 4,
						"contract": "test/Address.sol:Address",
						"label": "user",
						"offset": 0,
						"slot": "0",
						"type": "t_address"
					},
					{
						"astId": 10,
						"contract": "test/Address.sol:Address",
						"label": "payable_user",
						"offset": 0,
						"slot": "1",
						"type": "t_address_payable"
					}
				],
				"types": {
					"t_address": {
						"encoding": "inplace",
						"label": "address",
						"numberOfBytes": "20"
					},
					"t_address_payable": {
						"encoding": "inplace",
						"label": "address payable",
						"numberOfBytes": "20"
					}
				}
			},
			"userdoc": {
				"kind": "user",
				"methods": {},
				"version": 1
			}
		}
	}
}