{
	"test/Revert.sol": {
		"Revert": {
			"abi": [
				{
					"inputs": [],
					"name": "minPrice",
					"outputs": [
						{
							"internalType": "uint256",
							"name": "",
							"type": "uint256"
						}
					],
					"stateMutability": "view",
					"type": "function"
				},
				{
					"inputs": [],
					"name": "order",
					"outputs": [],
					"stateMutability": "payable",
					"type": "function"
				},
				{
					"inputs": [
						{
							"internalType": "address",
							"name": "",
							"type": "address"
						}
					],
					"name": "orderList",
					"outputs": [
						{
							"internalType": "uint256",
							"name": "",
							"type": "uint256"
						}
					],
					"stateMutability": "view",
					"type": "function"
				}
			],
			"devdoc": {
				"kind": "dev",
				"methods": {},
				"version": 1
			},
			"evm": {
				"assembly": "    /* \"test/Revert.sol\":35:334  contract Revert{\r... */\n  mstore(0x40, 0x80)\n    /* \"test/Revert.sol\":78:83  10000 */\n  0x2710\n    /* \"test/Revert.sol\":57:83  uint public minPrice=10000 */\n  0x00\n  sstore\n    /* \"test/Revert.sol\":35:334  contract Revert{\r... */\n  callvalue\n  dup1\n  iszero\n  tag_1\n  jumpi\n  0x00\n  dup1\n  revert\ntag_1:\n  pop\n  dataSize(sub_0)\n  dup1\n  dataOffset(sub_0)\n  0x00\n  codecopy\n  0x00\n  return\nstop\n\nsub_0: assembly {\n        /* \"test/Revert.sol\":35:334  contract Revert{\r... */\n      mstore(0x40, 0x80)\n      jumpi(tag_1, lt(calldatasize, 0x04))\n      shr(0xe0, calldataload(0x00))\n      dup1\n      0x7b989607\n      eq\n      tag_2\n      jumpi\n      dup1\n      0xbf15071d\n      eq\n      tag_3\n      jumpi\n      dup1\n      0xe45be8eb\n      eq\n      tag_4\n      jumpi\n    tag_1:\n      0x00\n      dup1\n      revert\n        /* \"test/Revert.sol\":90:130  mapping (address=>uint) public orderList */\n    tag_2:\n      callvalue\n      dup1\n      iszero\n      tag_5\n      jumpi\n      0x00\n      dup1\n      revert\n    tag_5:\n      pop\n      tag_6\n      0x04\n      dup1\n      calldatasize\n      sub\n      dup2\n      add\n      swap1\n      tag_7\n      swap2\n      swap1\n      tag_8\n      jump\t// in\n    tag_7:\n      tag_9\n      jump\t// in\n    tag_6:\n      mload(0x40)\n      tag_10\n      swap2\n      swap1\n      tag_11\n      jump\t// in\n    tag_10:\n      mload(0x40)\n      dup1\n      swap2\n      sub\n      swap1\n      return\n        /* \"test/Revert.sol\":137:331  function order() external payable{\r... */\n    tag_3:\n      tag_12\n      tag_13\n      jump\t// in\n    tag_12:\n      stop\n        /* \"test/Revert.sol\":57:83  uint public minPrice=10000 */\n    tag_4:\n      callvalue\n      dup1\n      iszero\n      tag_14\n      jumpi\n      0x00\n      dup1\n      revert\n    tag_14:\n      pop\n      tag_15\n      tag_16\n      jump\t// in\n    tag_15:\n      mload(0x40)\n      tag_17\n      swap2\n      swap1\n      tag_11\n      jump\t// in\n    tag_17:\n      mload(0x40)\n      dup1\n      swap2\n      sub\n      swap1\n      return\n        /* \"test/Revert.sol\":90:130  mapping (address=>uint) public orderList */\n    tag_9:\n      mstore(0x20, 0x01)\n      dup1\n      0x00\n      mstore\n      keccak256(0x00, 0x40)\n      0x00\n      swap2\n      pop\n      swap1\n      pop\n      sload\n      dup2\n      jump\t// out\n        /* \"test/Revert.sol\":137:331  function order() external payable{\r... */\n    tag_13:\n        /* \"test/Revert.sol\":197:205  minPrice */\n      sload(0x00)\n        /* \"test/Revert.sol\":185:194  msg.value */\n      callvalue\n        /* \"test/Revert.sol\":185:205  msg.value < minPrice */\n      lt\n        /* \"test/Revert.sol\":181:314  if (msg.value < minPrice){\r... */\n      iszero\n      tag_19\n      jumpi\n      jump(tag_20)\n    tag_19:\n        /* \"test/Revert.sol\":239:275  revert(\"Msg.value must not be zero\") */\n      mload(0x40)\n      0x08c379a000000000000000000000000000000000000000000000000000000000\n      dup2\n      mstore\n      0x04\n      add\n      tag_21\n      swap1\n      tag_22\n      jump\t// in\n    tag_21:\n      mload(0x40)\n      dup1\n      swap2\n      sub\n      swap1\n      revert\n        /* \"test/Revert.sol\":181:314  if (msg.value < minPrice){\r... */\n    tag_20:\n        /* \"test/Revert.sol\":137:331  function order() external payable{\r... */\n      jump\t// out\n        /* \"test/Revert.sol\":57:83  uint public minPrice=10000 */\n    tag_16:\n      sload(0x00)\n      dup2\n      jump\t// out\n        /* \"#utility.yul\":7:146   */\n    tag_24:\n        /* \"#utility.yul\":53:58   */\n      0x00\n        /* \"#utility.yul\":91:97   */\n      dup2\n        /* \"#utility.yul\":78:98   */\n      calldataload\n        /* \"#utility.yul\":69:98   */\n      swap1\n      pop\n        /* \"#utility.yul\":107:140   */\n      tag_26\n        /* \"#utility.yul\":134:139   */\n      dup2\n        /* \"#utility.yul\":107:140   */\n      tag_27\n      jump\t// in\n    tag_26:\n        /* \"#utility.yul\":7:146   */\n      swap3\n      swap2\n      pop\n      pop\n      jump\t// out\n        /* \"#utility.yul\":152:481   */\n    tag_8:\n        /* \"#utility.yul\":211:217   */\n      0x00\n        /* \"#utility.yul\":260:262   */\n      0x20\n        /* \"#utility.yul\":248:257   */\n      dup3\n        /* \"#utility.yul\":239:246   */\n      dup5\n        /* \"#utility.yul\":235:258   */\n      sub\n        /* \"#utility.yul\":231:263   */\n      slt\n        /* \"#utility.yul\":228:347   */\n      iszero\n      tag_29\n      jumpi\n        /* \"#utility.yul\":266:345   */\n      tag_30\n      tag_31\n      jump\t// in\n    tag_30:\n        /* \"#utility.yul\":228:347   */\n    tag_29:\n        /* \"#utility.yul\":386:387   */\n      0x00\n        /* \"#utility.yul\":411:464   */\n      tag_32\n        /* \"#utility.yul\":456:463   */\n      dup5\n        /* \"#utility.yul\":447:453   */\n      dup3\n        /* \"#utility.yul\":436:445   */\n      dup6\n        /* \"#utility.yul\":432:454   */\n      add\n        /* \"#utility.yul\":411:464   */\n      tag_24\n      jump\t// in\n    tag_32:\n        /* \"#utility.yul\":401:464   */\n      swap2\n      pop\n        /* \"#utility.yul\":357:474   */\n      pop\n        /* \"#utility.yul\":152:481   */\n      swap3\n      swap2\n      pop\n      pop\n      jump\t// out\n        /* \"#utility.yul\":487:853   */\n    tag_33:\n        /* \"#utility.yul\":629:632   */\n      0x00\n        /* \"#utility.yul\":650:717   */\n      tag_35\n        /* \"#utility.yul\":714:716   */\n      0x1a\n        /* \"#utility.yul\":709:712   */\n      dup4\n        /* \"#utility.yul\":650:717   */\n      tag_36\n      jump\t// in\n    tag_35:\n        /* \"#utility.yul\":643:717   */\n      swap2\n      pop\n        /* \"#utility.yul\":726:819   */\n      tag_37\n        /* \"#utility.yul\":815:818   */\n      dup3\n        /* \"#utility.yul\":726:819   */\n      tag_38\n      jump\t// in\n    tag_37:\n        /* \"#utility.yul\":844:846   */\n      0x20\n        /* \"#utility.yul\":839:842   */\n      dup3\n        /* \"#utility.yul\":835:847   */\n      add\n        /* \"#utility.yul\":828:847   */\n      swap1\n      pop\n        /* \"#utility.yul\":487:853   */\n      swap2\n      swap1\n      pop\n      jump\t// out\n        /* \"#utility.yul\":859:977   */\n    tag_39:\n        /* \"#utility.yul\":946:970   */\n      tag_41\n        /* \"#utility.yul\":964:969   */\n      dup2\n        /* \"#utility.yul\":946:970   */\n      tag_42\n      jump\t// in\n    tag_41:\n        /* \"#utility.yul\":941:944   */\n      dup3\n        /* \"#utility.yul\":934:971   */\n      mstore\n        /* \"#utility.yul\":859:977   */\n      pop\n      pop\n      jump\t// out\n        /* \"#utility.yul\":983:1402   */\n    tag_22:\n        /* \"#utility.yul\":1149:1153   */\n      0x00\n        /* \"#utility.yul\":1187:1189   */\n      0x20\n        /* \"#utility.yul\":1176:1185   */\n      dup3\n        /* \"#utility.yul\":1172:1190   */\n      add\n        /* \"#utility.yul\":1164:1190   */\n      swap1\n      pop\n        /* \"#utility.yul\":1236:1245   */\n      dup2\n        /* \"#utility.yul\":1230:1234   */\n      dup2\n        /* \"#utility.yul\":1226:1246   */\n      sub\n        /* \"#utility.yul\":1222:1223   */\n      0x00\n        /* \"#utility.yul\":1211:1220   */\n      dup4\n        /* \"#utility.yul\":1207:1224   */\n      add\n        /* \"#utility.yul\":1200:1247   */\n      mstore\n        /* \"#utility.yul\":1264:1395   */\n      tag_44\n        /* \"#utility.yul\":1390:1394   */\n      dup2\n        /* \"#utility.yul\":1264:1395   */\n      tag_33\n      jump\t// in\n    tag_44:\n        /* \"#utility.yul\":1256:1395   */\n      swap1\n      pop\n        /* \"#utility.yul\":983:1402   */\n      swap2\n      swap1\n      pop\n      jump\t// out\n        /* \"#utility.yul\":1408:1630   */\n    tag_11:\n        /* \"#utility.yul\":1501:1505   */\n      0x00\n        /* \"#utility.yul\":1539:1541   */\n      0x20\n        /* \"#utility.yul\":1528:1537   */\n      dup3\n        /* \"#utility.yul\":1524:1542   */\n      add\n        /* \"#utility.yul\":1516:1542   */\n      swap1\n      pop\n        /* \"#utility.yul\":1552:1623   */\n      tag_46\n        /* \"#utility.yul\":1620:1621   */\n      0x00\n        /* \"#utility.yul\":1609:1618   */\n      dup4\n        /* \"#utility.yul\":1605:1622   */\n      add\n        /* \"#utility.yul\":1596:1602   */\n      dup5\n        /* \"#utility.yul\":1552:1623   */\n      tag_39\n      jump\t// in\n    tag_46:\n        /* \"#utility.yul\":1408:1630   */\n      swap3\n      swap2\n      pop\n      pop\n      jump\t// out\n        /* \"#utility.yul\":1717:1886   */\n    tag_36:\n        /* \"#utility.yul\":1801:1812   */\n      0x00\n        /* \"#utility.yul\":1835:1841   */\n      dup3\n        /* \"#utility.yul\":1830:1833   */\n      dup3\n        /* \"#utility.yul\":1823:1842   */\n      mstore\n        /* \"#utility.yul\":1875:1879   */\n      0x20\n        /* \"#utility.yul\":1870:1873   */\n      dup3\n        /* \"#utility.yul\":1866:1880   */\n      add\n        /* \"#utility.yul\":1851:1880   */\n      swap1\n      pop\n        /* \"#utility.yul\":1717:1886   */\n      swap3\n      swap2\n      pop\n      pop\n      jump\t// out\n        /* \"#utility.yul\":1892:1988   */\n    tag_50:\n        /* \"#utility.yul\":1929:1936   */\n      0x00\n        /* \"#utility.yul\":1958:1982   */\n      tag_52\n        /* \"#utility.yul\":1976:1981   */\n      dup3\n        /* \"#utility.yul\":1958:1982   */\n      tag_53\n      jump\t// in\n    tag_52:\n        /* \"#utility.yul\":1947:1982   */\n      swap1\n      pop\n        /* \"#utility.yul\":1892:1988   */\n      swap2\n      swap1\n      pop\n      jump\t// out\n        /* \"#utility.yul\":1994:2120   */\n    tag_53:\n        /* \"#utility.yul\":2031:2038   */\n      0x00\n        /* \"#utility.yul\":2071:2113   */\n      0xffffffffffffffffffffffffffffffffffffffff\n        /* \"#utility.yul\":2064:2069   */\n      dup3\n        /* \"#utility.yul\":2060:2114   */\n      and\n        /* \"#utility.yul\":2049:2114   */\n      swap1\n      pop\n        /* \"#utility.yul\":1994:2120   */\n      swap2\n      swap1\n      pop\n      jump\t// out\n        /* \"#utility.yul\":2126:2203   */\n    tag_42:\n        /* \"#utility.yul\":2163:2170   */\n      0x00\n        /* \"#utility.yul\":2192:2197   */\n      dup2\n        /* \"#utility.yul\":2181:2197   */\n      swap1\n      pop\n        /* \"#utility.yul\":2126:2203   */\n      swap2\n      swap1\n      pop\n      jump\t// out\n        /* \"#utility.yul\":2332:2449   */\n    tag_31:\n        /* \"#utility.yul\":2441:2442   */\n      0x00\n        /* \"#utility.yul\":2438:2439   */\n      dup1\n        /* \"#utility.yul\":2431:2443   */\n      revert\n        /* \"#utility.yul\":2455:2631   */\n    tag_38:\n        /* \"#utility.yul\":2595:2623   */\n      0x4d73672e76616c7565206d757374206e6f74206265207a65726f000000000000\n        /* \"#utility.yul\":2591:2592   */\n      0x00\n        /* \"#utility.yul\":2583:2589   */\n      dup3\n        /* \"#utility.yul\":2579:2593   */\n      add\n        /* \"#utility.yul\":2572:2624   */\n      mstore\n        /* \"#utility.yul\":2455:2631   */\n      pop\n      jump\t// out\n        /* \"#utility.yul\":2637:2759   */\n    tag_27:\n        /* \"#utility.yul\":2710:2734   */\n      tag_61\n        /* \"#utility.yul\":2728:2733   */\n      dup2\n        /* \"#utility.yul\":2710:2734   */\n      tag_50\n      jump\t// in\n    tag_61:\n        /* \"#utility.yul\":2703:2708   */\n      dup2\n        /* \"#utility.yul\":2700:2735   */\n      eq\n        /* \"#utility.yul\":2690:2753   */\n      tag_62\n      jumpi\n        /* \"#utility.yul\":2749:2750   */\n      0x00\n        /* \"#utility.yul\":2746:2747   */\n      dup1\n        /* \"#utility.yul\":2739:2751   */\n      revert\n        /* \"#utility.yul\":2690:2753   */\n    tag_62:\n        /* \"#utility.yul\":2637:2759   */\n      pop\n      jump\t// out\n\n    auxdata: 0xa2646970667358221220dc457363477a2b83883ccd7e28d8bc5415601d7ebf43bf1125d6268ee0058e3e64736f6c63430008070033\n}\n",
				"bytecode": {
					"linkReferences": {},
					"object": "608060405261271060005534801561001657600080fd5b5061028c806100266000396000f3fe6080604052600436106100345760003560e01c80637b98960714610039578063bf15071d14610076578063e45be8eb14610080575b600080fd5b34801561004557600080fd5b50610060600480360381019061005b919061012a565b6100ab565b60405161006d91906101a9565b60405180910390f35b61007e6100c3565b005b34801561008c57600080fd5b5061009561010f565b6040516100a291906101a9565b60405180910390f35b60016020528060005260406000206000915090505481565b6000543410156100d25761010d565b6040517f08c379a000000000000000000000000000000000000000000000000000000000815260040161010490610189565b60405180910390fd5b565b60005481565b6000813590506101248161023f565b92915050565b6000602082840312156101405761013f610211565b5b600061014e84828501610115565b91505092915050565b6000610164601a836101c4565b915061016f82610216565b602082019050919050565b61018381610207565b82525050565b600060208201905081810360008301526101a281610157565b9050919050565b60006020820190506101be600083018461017a565b92915050565b600082825260208201905092915050565b60006101e0826101e7565b9050919050565b600073ffffffffffffffffffffffffffffffffffffffff82169050919050565b6000819050919050565b600080fd5b7f4d73672e76616c7565206d757374206e6f74206265207a65726f000000000000600082015250565b610248816101d5565b811461025357600080fd5b5056fea2646970667358221220dc457363477a2b83883ccd7e28d8bc5415601d7ebf43bf1125d6268ee0058e3e64736f6c63430008070033",
					"opcodes": "PUSH1 0x80 PUSH1 0x40 MSTORE PUSH2 0x2710 PUSH1 0x0 SSTORE CALLVALUE DUP1 ISZERO PUSH2 0x16 JUMPI PUSH1 0x0 DUP1 REVERT JUMPDEST POP PUSH2 0x28C DUP1 PUSH2 0x26 PUSH1 0x0 CODECOPY PUSH1 0x0 RETURN INVALID PUSH1 0x80 PUSH1 0x40 MSTORE PUSH1 0x4 CALLDATASIZE LT PUSH2 0x34 JUMPI PUSH1 0x0 CALLDATALOAD PUSH1 0xE0 SHR DUP1 PUSH4 0x7B989607 EQ PUSH2 0x39 JUMPI DUP1 PUSH4 0xBF15071D EQ PUSH2 0x76 JUMPI DUP1 PUSH4 0xE45BE8EB EQ PUSH2 0x80 JUMPI JUMPDEST PUSH1 0x0 DUP1 REVERT JUMPDEST CALLVALUE DUP1 ISZERO PUSH2 0x45 JUMPI PUSH1 0x0 DUP1 REVERT JUMPDEST POP PUSH2 0x60 PUSH1 0x4 DUP1 CALLDATASIZE SUB DUP2 ADD SWAP1 PUSH2 0x5B SWAP2 SWAP1 PUSH2 0x12A JUMP JUMPDEST PUSH2 0xAB JUMP JUMPDEST PUSH1 0x40 MLOAD PUSH2 0x6D SWAP2 SWAP1 PUSH2 0x1A9 JUMP JUMPDEST PUSH1 0x40 MLOAD DUP1 SWAP2 SUB SWAP1 RETURN JUMPDEST PUSH2 0x7E PUSH2 0xC3 JUMP JUMPDEST STOP JUMPDEST CALLVALUE DUP1 ISZERO PUSH2 0x8C JUMPI PUSH1 0x0 DUP1 REVERT JUMPDEST POP PUSH2 0x95 PUSH2 0x10F JUMP JUMPDEST PUSH1 0x40 MLOAD PUSH2 0xA2 SWAP2 SWAP1 PUSH2 0x1A9 JUMP JUMPDEST PUSH1 0x40 MLOAD DUP1 SWAP2 SUB SWAP1 RETURN JUMPDEST PUSH1 0x1 PUSH1 0x20 MSTORE DUP1 PUSH1 0x0 MSTORE PUSH1 0x40 PUSH1 0x0 KECCAK256 PUSH1 0x0 SWAP2 POP SWAP1 POP SLOAD DUP2 JUMP JUMPDEST PUSH1 0x0 SLOAD CALLVALUE LT ISZERO PUSH2 0xD2 JUMPI PUSH2 0x10D JUMP JUMPDEST PUSH1 0x40 MLOAD PUSH32 0x8C379A000000000000000000000000000000000000000000000000000000000 DUP2 MSTORE PUSH1 0x4 ADD PUSH2 0x104 SWAP1 PUSH2 0x189 JUMP JUMPDEST PUSH1 0x40 MLOAD DUP1 SWAP2 SUB SWAP1 REVERT JUMPDEST JUMP JUMPDEST PUSH1 0x0 SLOAD DUP2 JUMP JUMPDEST PUSH1 0x0 DUP2 CALLDATALOAD SWAP1 POP PUSH2 0x124 DUP2 PUSH2 0x23F JUMP JUMPDEST SWAP3 SWAP2 POP POP JUMP JUMPDEST PUSH1 0x0 PUSH1 0x20 DUP3 DUP5 SUB SLT ISZERO PUSH2 0x140 JUMPI PUSH2 0x13F PUSH2 0x211 JUMP JUMPDEST JUMPDEST PUSH1 0x0 PUSH2 0x14E DUP5 DUP3 DUP6 ADD PUSH2 0x115 JUMP JUMPDEST SWAP2 POP POP SWAP3 SWAP2 POP POP JUMP JUMPDEST PUSH1 0x0 PUSH2 0x164 PUSH1 0x1A DUP4 PUSH2 0x1C4 JUMP JUMPDEST SWAP2 POP PUSH2 0x16F DUP3 PUSH2 0x216 JUMP JUMPDEST PUSH1 0x20 DUP3 ADD SWAP1 POP SWAP2 SWAP1 POP JUMP JUMPDEST PUSH2 0x183 DUP2 PUSH2 0x207 JUMP JUMPDEST DUP3 MSTORE POP POP JUMP JUMPDEST PUSH1 0x0 PUSH1 0x20 DUP3 ADD SWAP1 POP DUP2 DUP2 SUB PUSH1 0x0 DUP4 ADD MSTORE PUSH2 0x1A2 DUP2 PUSH2 0x157 JUMP JUMPDEST SWAP1 POP SWAP2 SWAP1 POP JUMP JUMPDEST PUSH1 0x0 PUSH1 0x20 DUP3 ADD SWAP1 POP PUSH2 0x1BE PUSH1 0x0 DUP4 ADD DUP5 PUSH2 0x17A JUMP JUMPDEST SWAP3 SWAP2 POP POP JUMP JUMPDEST PUSH1 0x0 DUP3 DUP3 MSTORE PUSH1 0x20 DUP3 ADD SWAP1 POP SWAP3 SWAP2 POP POP JUMP JUMPDEST PUSH1 0x0 PUSH2 0x1E0 DUP3 PUSH2 0x1E7 JUMP JUMPDEST SWAP1 POP SWAP2 SWAP1 POP JUMP JUMPDEST PUSH1 0x0 PUSH20 0xFFFFFFFFFFFFFFFFFFFFFFFFFFFFFFFFFFFFFFFF DUP3 AND SWAP1 POP SWAP2 SWAP1 POP JUMP JUMPDEST PUSH1 0x0 DUP2 SWAP1 POP SWAP2 SWAP1 POP JUMP JUMPDEST PUSH1 0x0 DUP1 REVERT JUMPDEST PUSH32 0x4D73672E76616C7565206D757374206E6F74206265207A65726F000000000000 PUSH1 0x0 DUP3 ADD MSTORE POP JUMP JUMPDEST PUSH2 0x248 DUP2 PUSH2 0x1D5 JUMP JUMPDEST DUP2 EQ PUSH2 0x253 JUMPI PUSH1 0x0 DUP1 REVERT JUMPDEST POP JUMP INVALID LOG2 PUSH5 0x6970667358 0x22 SLT KECCAK256 0xDC GASLIMIT PUSH20 0x63477A2B83883CCD7E28D8BC5415601D7EBF43BF GT 0x25 0xD6 0x26 DUP15 0xE0 SDIV DUP15 RETURNDATACOPY PUSH5 0x736F6C6343 STOP ADDMOD SMOD STOP CALLER "
				},
				"gasEstimates": {
					"creation": {
						"codeDepositCost": "130400",
						"executionCost": "22283",
						"totalCost": "152683"
					},
					"external": {
						"minPrice()": "2451",
						"order()": "2535",
						"orderList(address)": "2792"
					}
				},
				"methodIdentifiers": {
					"minPrice()": "e45be8eb",
					"order()": "bf15071d",
					"orderList(address)": "7b989607"
				}
			},
			"storageLayout": {
				"storage": [
					{
						"astId": 4,
						"contract": "test/Revert.sol:Revert",
						"label": "minPrice",
						"offset": 0,
						"slot": "0",
						"type": "t_uint256"
					},
					{
						"astId": 8,
						"contract": "test/Revert.sol:Revert",
						"label": "orderList",
						"offset": 0,
						"slot": "1",
						"type": "t_mapping(t_address,t_uint256)"
					}
				],
				"types": {
					"t_address": {
						"encoding": "inplace",
						"label": "address",
						"numberOfBytes": "20"
					},
					"t_mapping(t_address,t_uint256)": {
						"encoding": "mapping",
						"key": "t_address",
						"label": "mapping(address => uint256)",
						"numberOfBytes": "32",
						"value": "t_uint256"
					},
					"t_uint256": {
						"encoding": "inplace",
						"label": "uint256",
						"numberOfBytes": "32"
					}
				}
			},
			"userdoc": {
				"kind": "user",
				"methods": {},
				"version": 1
			}
		}
	}
}