{
	"test/FunctionVisibility.sol": {
		"Function": {
			"abi": [
				{
					"inputs": [],
					"name": "data2",
					"outputs": [
						{
							"internalType": "uint8",
							"name": "",
							"type": "uint8"
						}
					],
					"stateMutability": "view",
					"type": "function"
				},
				{
					"inputs": [
						{
							"internalType": "uint8",
							"name": "_data",
							"type": "uint8"
						}
					],
					"name": "setData3",
					"outputs": [],
					"stateMutability": "nonpayable",
					"type": "function"
				},
				{
					"inputs": [
						{
							"internalType": "uint8",
							"name": "_data",
							"type": "uint8"
						}
					],
					"name": "setData4",
					"outputs": [],
					"stateMutability": "nonpayable",
					"type": "function"
				}
			],
			"devdoc": {
				"kind": "dev",
				"methods": {},
				"version": 1
			},
			"evm": {
				"assembly": "    /* \"test/FunctionVisibility.sol\":33:687  contract Function{... */\n  mstore(0x40, 0x80)\n    /* \"test/FunctionVisibility.sol\":77:80  255 */\n  0xff\n    /* \"test/FunctionVisibility.sol\":56:80  uint8 private data = 255 */\n  0x00\n  dup1\n  0x0100\n  exp\n  dup2\n  sload\n  dup2\n  0xff\n  mul\n  not\n  and\n  swap1\n  dup4\n  0xff\n  and\n  mul\n  or\n  swap1\n  sstore\n  pop\n    /* \"test/FunctionVisibility.sol\":173:176  255 */\n  0xff\n    /* \"test/FunctionVisibility.sol\":152:176  uint8 public data2 = 255 */\n  0x00\n  exp(0x0100, 0x01)\n  dup2\n  sload\n  dup2\n  0xff\n  mul\n  not\n  and\n  swap1\n  dup4\n  0xff\n  and\n  mul\n  or\n  swap1\n  sstore\n  pop\n    /* \"test/FunctionVisibility.sol\":33:687  contract Function{... */\n  callvalue\n  dup1\n  iszero\n  tag_1\n  jumpi\n  0x00\n  dup1\n  revert\ntag_1:\n  pop\n  dataSize(sub_0)\n  dup1\n  dataOffset(sub_0)\n  0x00\n  codecopy\n  0x00\n  return\nstop\n\nsub_0: assembly {\n        /* \"test/FunctionVisibility.sol\":33:687  contract Function{... */\n      mstore(0x40, 0x80)\n      callvalue\n      dup1\n      iszero\n      tag_1\n      jumpi\n      0x00\n      dup1\n      revert\n    tag_1:\n      pop\n      jumpi(tag_2, lt(calldatasize, 0x04))\n      shr(0xe0, calldataload(0x00))\n      dup1\n      0x384cdf3b\n      eq\n      tag_3\n      jumpi\n      dup1\n      0x4dbd39d9\n      eq\n      tag_4\n      jumpi\n      dup1\n      0xe3a7fd75\n      eq\n      tag_5\n      jumpi\n    tag_2:\n      0x00\n      dup1\n      revert\n        /* \"test/FunctionVisibility.sol\":561:683  function setData4(uint8 _data) external{ //외부공개o, 상속된 contract x, 내부에서 x... */\n    tag_3:\n      tag_6\n      0x04\n      dup1\n      calldatasize\n      sub\n      dup2\n      add\n      swap1\n      tag_7\n      swap2\n      swap1\n      tag_8\n      jump\t// in\n    tag_7:\n      tag_9\n      jump\t// in\n    tag_6:\n      stop\n        /* \"test/FunctionVisibility.sol\":436:556  function setData3(uint8 _data) public{ //외부공개o, 상속된 contract o, 내부에서 o... */\n    tag_4:\n      tag_10\n      0x04\n      dup1\n      calldatasize\n      sub\n      dup2\n      add\n      swap1\n      tag_11\n      swap2\n      swap1\n      tag_8\n      jump\t// in\n    tag_11:\n      tag_12\n      jump\t// in\n    tag_10:\n      stop\n        /* \"test/FunctionVisibility.sol\":152:176  uint8 public data2 = 255 */\n    tag_5:\n      tag_13\n      tag_14\n      jump\t// in\n    tag_13:\n      mload(0x40)\n      tag_15\n      swap2\n      swap1\n      tag_16\n      jump\t// in\n    tag_15:\n      mload(0x40)\n      dup1\n      swap2\n      sub\n      swap1\n      return\n        /* \"test/FunctionVisibility.sol\":561:683  function setData4(uint8 _data) external{ //외부공개o, 상속된 contract x, 내부에서 x... */\n    tag_9:\n        /* \"test/FunctionVisibility.sol\":671:676  _data */\n      dup1\n        /* \"test/FunctionVisibility.sol\":664:668  data */\n      0x00\n      dup1\n        /* \"test/FunctionVisibility.sol\":664:676  data = _data */\n      0x0100\n      exp\n      dup2\n      sload\n      dup2\n      0xff\n      mul\n      not\n      and\n      swap1\n      dup4\n      0xff\n      and\n      mul\n      or\n      swap1\n      sstore\n      pop\n        /* \"test/FunctionVisibility.sol\":561:683  function setData4(uint8 _data) external{ //외부공개o, 상속된 contract x, 내부에서 x... */\n      pop\n      jump\t// out\n        /* \"test/FunctionVisibility.sol\":436:556  function setData3(uint8 _data) public{ //외부공개o, 상속된 contract o, 내부에서 o... */\n    tag_12:\n        /* \"test/FunctionVisibility.sol\":544:549  _data */\n      dup1\n        /* \"test/FunctionVisibility.sol\":537:541  data */\n      0x00\n      dup1\n        /* \"test/FunctionVisibility.sol\":537:549  data = _data */\n      0x0100\n      exp\n      dup2\n      sload\n      dup2\n      0xff\n      mul\n      not\n      and\n      swap1\n      dup4\n      0xff\n      and\n      mul\n      or\n      swap1\n      sstore\n      pop\n        /* \"test/FunctionVisibility.sol\":436:556  function setData3(uint8 _data) public{ //외부공개o, 상속된 contract o, 내부에서 o... */\n      pop\n      jump\t// out\n        /* \"test/FunctionVisibility.sol\":152:176  uint8 public data2 = 255 */\n    tag_14:\n      0x00\n      0x01\n      swap1\n      sload\n      swap1\n      0x0100\n      exp\n      swap1\n      div\n      0xff\n      and\n      dup2\n      jump\t// out\n        /* \"#utility.yul\":7:142   */\n    tag_20:\n        /* \"#utility.yul\":51:56   */\n      0x00\n        /* \"#utility.yul\":89:95   */\n      dup2\n        /* \"#utility.yul\":76:96   */\n      calldataload\n        /* \"#utility.yul\":67:96   */\n      swap1\n      pop\n        /* \"#utility.yul\":105:136   */\n      tag_22\n        /* \"#utility.yul\":130:135   */\n      dup2\n        /* \"#utility.yul\":105:136   */\n      tag_23\n      jump\t// in\n    tag_22:\n        /* \"#utility.yul\":7:142   */\n      swap3\n      swap2\n      pop\n      pop\n      jump\t// out\n        /* \"#utility.yul\":148:473   */\n    tag_8:\n        /* \"#utility.yul\":205:211   */\n      0x00\n        /* \"#utility.yul\":254:256   */\n      0x20\n        /* \"#utility.yul\":242:251   */\n      dup3\n        /* \"#utility.yul\":233:240   */\n      dup5\n        /* \"#utility.yul\":229:252   */\n      sub\n        /* \"#utility.yul\":225:257   */\n      slt\n        /* \"#utility.yul\":222:341   */\n      iszero\n      tag_25\n      jumpi\n        /* \"#utility.yul\":260:339   */\n      tag_26\n      tag_27\n      jump\t// in\n    tag_26:\n        /* \"#utility.yul\":222:341   */\n    tag_25:\n        /* \"#utility.yul\":380:381   */\n      0x00\n        /* \"#utility.yul\":405:456   */\n      tag_28\n        /* \"#utility.yul\":448:455   */\n      dup5\n        /* \"#utility.yul\":439:445   */\n      dup3\n        /* \"#utility.yul\":428:437   */\n      dup6\n        /* \"#utility.yul\":424:446   */\n      add\n        /* \"#utility.yul\":405:456   */\n      tag_20\n      jump\t// in\n    tag_28:\n        /* \"#utility.yul\":395:456   */\n      swap2\n      pop\n        /* \"#utility.yul\":351:466   */\n      pop\n        /* \"#utility.yul\":148:473   */\n      swap3\n      swap2\n      pop\n      pop\n      jump\t// out\n        /* \"#utility.yul\":479:591   */\n    tag_29:\n        /* \"#utility.yul\":562:584   */\n      tag_31\n        /* \"#utility.yul\":578:583   */\n      dup2\n        /* \"#utility.yul\":562:584   */\n      tag_32\n      jump\t// in\n    tag_31:\n        /* \"#utility.yul\":557:560   */\n      dup3\n        /* \"#utility.yul\":550:585   */\n      mstore\n        /* \"#utility.yul\":479:591   */\n      pop\n      pop\n      jump\t// out\n        /* \"#utility.yul\":597:811   */\n    tag_16:\n        /* \"#utility.yul\":686:690   */\n      0x00\n        /* \"#utility.yul\":724:726   */\n      0x20\n        /* \"#utility.yul\":713:722   */\n      dup3\n        /* \"#utility.yul\":709:727   */\n      add\n        /* \"#utility.yul\":701:727   */\n      swap1\n      pop\n        /* \"#utility.yul\":737:804   */\n      tag_34\n        /* \"#utility.yul\":801:802   */\n      0x00\n        /* \"#utility.yul\":790:799   */\n      dup4\n        /* \"#utility.yul\":786:803   */\n      add\n        /* \"#utility.yul\":777:783   */\n      dup5\n        /* \"#utility.yul\":737:804   */\n      tag_29\n      jump\t// in\n    tag_34:\n        /* \"#utility.yul\":597:811   */\n      swap3\n      swap2\n      pop\n      pop\n      jump\t// out\n        /* \"#utility.yul\":898:984   */\n    tag_32:\n        /* \"#utility.yul\":933:940   */\n      0x00\n        /* \"#utility.yul\":973:977   */\n      0xff\n        /* \"#utility.yul\":966:971   */\n      dup3\n        /* \"#utility.yul\":962:978   */\n      and\n        /* \"#utility.yul\":951:978   */\n      swap1\n      pop\n        /* \"#utility.yul\":898:984   */\n      swap2\n      swap1\n      pop\n      jump\t// out\n        /* \"#utility.yul\":1113:1230   */\n    tag_27:\n        /* \"#utility.yul\":1222:1223   */\n      0x00\n        /* \"#utility.yul\":1219:1220   */\n      dup1\n        /* \"#utility.yul\":1212:1224   */\n      revert\n        /* \"#utility.yul\":1236:1354   */\n    tag_23:\n        /* \"#utility.yul\":1307:1329   */\n      tag_42\n        /* \"#utility.yul\":1323:1328   */\n      dup2\n        /* \"#utility.yul\":1307:1329   */\n      tag_32\n      jump\t// in\n    tag_42:\n        /* \"#utility.yul\":1300:1305   */\n      dup2\n        /* \"#utility.yul\":1297:1330   */\n      eq\n        /* \"#utility.yul\":1287:1348   */\n      tag_43\n      jumpi\n        /* \"#utility.yul\":1344:1345   */\n      0x00\n        /* \"#utility.yul\":1341:1342   */\n      dup1\n        /* \"#utility.yul\":1334:1346   */\n      revert\n        /* \"#utility.yul\":1287:1348   */\n    tag_43:\n        /* \"#utility.yul\":1236:1354   */\n      pop\n      jump\t// out\n\n    auxdata: 0xa2646970667358221220d2bf0a83bf8d8834f00a3871e92d3abadddc61575f822dfe48bcf3e676d8958e64736f6c63430008070033\n}\n",
				"bytecode": {
					"linkReferences": {},
					"object": "608060405260ff6000806101000a81548160ff021916908360ff16021790555060ff600060016101000a81548160ff021916908360ff16021790555034801561004757600080fd5b506101b4806100576000396000f3fe608060405234801561001057600080fd5b50600436106100415760003560e01c8063384cdf3b146100465780634dbd39d914610062578063e3a7fd751461007e575b600080fd5b610060600480360381019061005b91906100fe565b61009c565b005b61007c600480360381019061007791906100fe565b6100b9565b005b6100866100d6565b604051610093919061013a565b60405180910390f35b806000806101000a81548160ff021916908360ff16021790555050565b806000806101000a81548160ff021916908360ff16021790555050565b600060019054906101000a900460ff1681565b6000813590506100f881610167565b92915050565b60006020828403121561011457610113610162565b5b6000610122848285016100e9565b91505092915050565b61013481610155565b82525050565b600060208201905061014f600083018461012b565b92915050565b600060ff82169050919050565b600080fd5b61017081610155565b811461017b57600080fd5b5056fea2646970667358221220d2bf0a83bf8d8834f00a3871e92d3abadddc61575f822dfe48bcf3e676d8958e64736f6c63430008070033",
					"opcodes": "PUSH1 0x80 PUSH1 0x40 MSTORE PUSH1 0xFF PUSH1 0x0 DUP1 PUSH2 0x100 EXP DUP2 SLOAD DUP2 PUSH1 0xFF MUL NOT AND SWAP1 DUP4 PUSH1 0xFF AND MUL OR SWAP1 SSTORE POP PUSH1 0xFF PUSH1 0x0 PUSH1 0x1 PUSH2 0x100 EXP DUP2 SLOAD DUP2 PUSH1 0xFF MUL NOT AND SWAP1 DUP4 PUSH1 0xFF AND MUL OR SWAP1 SSTORE POP CALLVALUE DUP1 ISZERO PUSH2 0x47 JUMPI PUSH1 0x0 DUP1 REVERT JUMPDEST POP PUSH2 0x1B4 DUP1 PUSH2 0x57 PUSH1 0x0 CODECOPY PUSH1 0x0 RETURN INVALID PUSH1 0x80 PUSH1 0x40 MSTORE CALLVALUE DUP1 ISZERO PUSH2 0x10 JUMPI PUSH1 0x0 DUP1 REVERT JUMPDEST POP PUSH1 0x4 CALLDATASIZE LT PUSH2 0x41 JUMPI PUSH1 0x0 CALLDATALOAD PUSH1 0xE0 SHR DUP1 PUSH4 0x384CDF3B EQ PUSH2 0x46 JUMPI DUP1 PUSH4 0x4DBD39D9 EQ PUSH2 0x62 JUMPI DUP1 PUSH4 0xE3A7FD75 EQ PUSH2 0x7E JUMPI JUMPDEST PUSH1 0x0 DUP1 REVERT JUMPDEST PUSH2 0x60 PUSH1 0x4 DUP1 CALLDATASIZE SUB DUP2 ADD SWAP1 PUSH2 0x5B SWAP2 SWAP1 PUSH2 0xFE JUMP JUMPDEST PUSH2 0x9C JUMP JUMPDEST STOP JUMPDEST PUSH2 0x7C PUSH1 0x4 DUP1 CALLDATASIZE SUB DUP2 ADD SWAP1 PUSH2 0x77 SWAP2 SWAP1 PUSH2 0xFE JUMP JUMPDEST PUSH2 0xB9 JUMP JUMPDEST STOP JUMPDEST PUSH2 0x86 PUSH2 0xD6 JUMP JUMPDEST PUSH1 0x40 MLOAD PUSH2 0x93 SWAP2 SWAP1 PUSH2 0x13A JUMP JUMPDEST PUSH1 0x40 MLOAD DUP1 SWAP2 SUB SWAP1 RETURN JUMPDEST DUP1 PUSH1 0x0 DUP1 PUSH2 0x100 EXP DUP2 SLOAD DUP2 PUSH1 0xFF MUL NOT AND SWAP1 DUP4 PUSH1 0xFF AND MUL OR SWAP1 SSTORE POP POP JUMP JUMPDEST DUP1 PUSH1 0x0 DUP1 PUSH2 0x100 EXP DUP2 SLOAD DUP2 PUSH1 0xFF MUL NOT AND SWAP1 DUP4 PUSH1 0xFF AND MUL OR SWAP1 SSTORE POP POP JUMP JUMPDEST PUSH1 0x0 PUSH1 0x1 SWAP1 SLOAD SWAP1 PUSH2 0x100 EXP SWAP1 DIV PUSH1 0xFF AND DUP2 JUMP JUMPDEST PUSH1 0x0 DUP2 CALLDATALOAD SWAP1 POP PUSH2 0xF8 DUP2 PUSH2 0x167 JUMP JUMPDEST SWAP3 SWAP2 POP POP JUMP JUMPDEST PUSH1 0x0 PUSH1 0x20 DUP3 DUP5 SUB SLT ISZERO PUSH2 0x114 JUMPI PUSH2 0x113 PUSH2 0x162 JUMP JUMPDEST JUMPDEST PUSH1 0x0 PUSH2 0x122 DUP5 DUP3 DUP6 ADD PUSH2 0xE9 JUMP JUMPDEST SWAP2 POP POP SWAP3 SWAP2 POP POP JUMP JUMPDEST PUSH2 0x134 DUP2 PUSH2 0x155 JUMP JUMPDEST DUP3 MSTORE POP POP JUMP JUMPDEST PUSH1 0x0 PUSH1 0x20 DUP3 ADD SWAP1 POP PUSH2 0x14F PUSH1 0x0 DUP4 ADD DUP5 PUSH2 0x12B JUMP JUMPDEST SWAP3 SWAP2 POP POP JUMP JUMPDEST PUSH1 0x0 PUSH1 0xFF DUP3 AND SWAP1 POP SWAP2 SWAP1 POP JUMP JUMPDEST PUSH1 0x0 DUP1 REVERT JUMPDEST PUSH2 0x170 DUP2 PUSH2 0x155 JUMP JUMPDEST DUP2 EQ PUSH2 0x17B JUMPI PUSH1 0x0 DUP1 REVERT JUMPDEST POP JUMP INVALID LOG2 PUSH5 0x6970667358 0x22 SLT KECCAK256 0xD2 0xBF EXP DUP4 0xBF DUP14 DUP9 CALLVALUE CREATE EXP CODESIZE PUSH18 0xE92D3ABADDDC61575F822DFE48BCF3E676D8 SWAP6 DUP15 PUSH5 0x736F6C6343 STOP ADDMOD SMOD STOP CALLER "
				},
				"gasEstimates": {
					"creation": {
						"codeDepositCost": "87200",
						"executionCost": "48719",
						"totalCost": "135919"
					},
					"external": {
						"data2()": "2543",
						"setData3(uint8)": "24679",
						"setData4(uint8)": "24657"
					},
					"internal": {
						"setData(uint8)": "infinite",
						"setData2(uint8)": "infinite"
					}
				},
				"methodIdentifiers": {
					"data2()": "e3a7fd75",
					"setData3(uint8)": "4dbd39d9",
					"setData4(uint8)": "384cdf3b"
				}
			},
			"storageLayout": {
				"storage": [
					{
						"astId": 4,
						"contract": "test/FunctionVisibility.sol:Function",
						"label": "data",
						"offset": 0,
						"slot": "0",
						"type": "t_uint8"
					},
					{
						"astId": 7,
						"contract": "test/FunctionVisibility.sol:Function",
						"label": "data2",
						"offset": 1,
						"slot": "0",
						"type": "t_uint8"
					}
				],
				"types": {
					"t_uint8": {
						"encoding": "inplace",
						"label": "uint8",
						"numberOfBytes": "1"
					}
				}
			},
			"userdoc": {
				"kind": "user",
				"methods": {},
				"version": 1
			}
		}
	}
}