{
	"test/Loop.sol": {
		"Loop": {
			"abi": [
				{
					"inputs": [],
					"name": "doWhileLoop",
					"outputs": [],
					"stateMutability": "nonpayable",
					"type": "function"
				},
				{
					"inputs": [],
					"name": "forLoop",
					"outputs": [],
					"stateMutability": "nonpayable",
					"type": "function"
				},
				{
					"inputs": [],
					"name": "loopbreak",
					"outputs": [],
					"stateMutability": "nonpayable",
					"type": "function"
				},
				{
					"inputs": [],
					"name": "loopcontinue",
					"outputs": [],
					"stateMutability": "nonpayable",
					"type": "function"
				},
				{
					"inputs": [],
					"name": "whileLoop",
					"outputs": [],
					"stateMutability": "nonpayable",
					"type": "function"
				}
			],
			"devdoc": {
				"kind": "dev",
				"methods": {},
				"version": 1
			},
			"evm": {
				"assembly": "    /* \"test/Loop.sol\":37:968  contract Loop{\r... */\n  mstore(0x40, 0x80)\n  callvalue\n  dup1\n  iszero\n  tag_1\n  jumpi\n  0x00\n  dup1\n  revert\ntag_1:\n  pop\n  dataSize(sub_0)\n  dup1\n  dataOffset(sub_0)\n  0x00\n  codecopy\n  0x00\n  return\nstop\n\nsub_0: assembly {\n        /* \"test/Loop.sol\":37:968  contract Loop{\r... */\n      mstore(0x40, 0x80)\n      callvalue\n      dup1\n      iszero\n      tag_1\n      jumpi\n      0x00\n      dup1\n      revert\n    tag_1:\n      pop\n      jumpi(tag_2, lt(calldatasize, 0x04))\n      shr(0xe0, calldataload(0x00))\n      dup1\n      0x091da0cf\n      eq\n      tag_3\n      jumpi\n      dup1\n      0x174c9c7e\n      eq\n      tag_4\n      jumpi\n      dup1\n      0xe7c898ef\n      eq\n      tag_5\n      jumpi\n      dup1\n      0xf0d3799c\n      eq\n      tag_6\n      jumpi\n      dup1\n      0xfc0e6008\n      eq\n      tag_7\n      jumpi\n    tag_2:\n      0x00\n      dup1\n      revert\n        /* \"test/Loop.sol\":522:719  function loopbreak() public{\r... */\n    tag_3:\n      tag_8\n      tag_9\n      jump\t// in\n    tag_8:\n      stop\n        /* \"test/Loop.sol\":354:514  function doWhileLoop() public{\r... */\n    tag_4:\n      tag_10\n      tag_11\n      jump\t// in\n    tag_10:\n      stop\n        /* \"test/Loop.sol\":194:348  function whileLoop() public{\r... */\n    tag_5:\n      tag_12\n      tag_13\n      jump\t// in\n    tag_12:\n      stop\n        /* \"test/Loop.sol\":731:957  function loopcontinue() public{\r... */\n    tag_6:\n      tag_14\n      tag_15\n      jump\t// in\n    tag_14:\n      stop\n        /* \"test/Loop.sol\":57:186  function forLoop() public{\r... */\n    tag_7:\n      tag_16\n      tag_17\n      jump\t// in\n    tag_16:\n      stop\n        /* \"test/Loop.sol\":522:719  function loopbreak() public{\r... */\n    tag_9:\n        /* \"test/Loop.sol\":560:569  uint8 sum */\n      0x00\n        /* \"test/Loop.sol\":588:595  uint8 i */\n      dup1\n        /* \"test/Loop.sol\":596:597  1 */\n      0x01\n        /* \"test/Loop.sol\":588:597  uint8 i=1 */\n      swap1\n      pop\n        /* \"test/Loop.sol\":584:712  for(uint8 i=1; i < 11; i++){\r... */\n    tag_19:\n        /* \"test/Loop.sol\":603:605  11 */\n      0x0b\n        /* \"test/Loop.sol\":599:600  i */\n      dup2\n        /* \"test/Loop.sol\":599:605  i < 11 */\n      0xff\n      and\n      lt\n        /* \"test/Loop.sol\":584:712  for(uint8 i=1; i < 11; i++){\r... */\n      iszero\n      tag_20\n      jumpi\n        /* \"test/Loop.sol\":633:634  1 */\n      0x01\n        /* \"test/Loop.sol\":626:634  sum += 1 */\n      dup3\n      tag_22\n      swap2\n      swap1\n      tag_23\n      jump\t// in\n    tag_22:\n      swap2\n      pop\n        /* \"test/Loop.sol\":658:660  10 */\n      0x0a\n        /* \"test/Loop.sol\":654:657  sum */\n      dup3\n        /* \"test/Loop.sol\":654:660  sum>10 */\n      0xff\n      and\n      gt\n        /* \"test/Loop.sol\":650:701  if (sum>10){\r... */\n      iszero\n      tag_24\n      jumpi\n        /* \"test/Loop.sol\":680:685  break */\n      jump(tag_20)\n        /* \"test/Loop.sol\":650:701  if (sum>10){\r... */\n    tag_24:\n        /* \"test/Loop.sol\":607:610  i++ */\n      dup1\n      dup1\n      tag_25\n      swap1\n      tag_26\n      jump\t// in\n    tag_25:\n      swap2\n      pop\n      pop\n        /* \"test/Loop.sol\":584:712  for(uint8 i=1; i < 11; i++){\r... */\n      jump(tag_19)\n    tag_20:\n      pop\n        /* \"test/Loop.sol\":549:719  {\r... */\n      pop\n        /* \"test/Loop.sol\":522:719  function loopbreak() public{\r... */\n      jump\t// out\n        /* \"test/Loop.sol\":354:514  function doWhileLoop() public{\r... */\n    tag_11:\n        /* \"test/Loop.sol\":394:403  uint8 sum */\n      0x00\n        /* \"test/Loop.sol\":418:425  uint8 i */\n      dup1\n        /* \"test/Loop.sol\":428:429  1 */\n      0x01\n        /* \"test/Loop.sol\":418:429  uint8 i = 1 */\n      swap1\n      pop\n        /* \"test/Loop.sol\":440:507  do{\r... */\n    tag_28:\n        /* \"test/Loop.sol\":464:465  1 */\n      0x01\n        /* \"test/Loop.sol\":457:465  sum += 1 */\n      dup3\n      tag_31\n      swap2\n      swap1\n      tag_23\n      jump\t// in\n    tag_31:\n      swap2\n      pop\n        /* \"test/Loop.sol\":480:483  i++ */\n      dup1\n      dup1\n      tag_32\n      swap1\n      tag_26\n      jump\t// in\n    tag_32:\n      swap2\n      pop\n      pop\n        /* \"test/Loop.sol\":503:505  11 */\n      0x0b\n        /* \"test/Loop.sol\":501:502  i */\n      dup2\n        /* \"test/Loop.sol\":501:505  i<11 */\n      0xff\n      and\n      lt\n        /* \"test/Loop.sol\":440:507  do{\r... */\n      tag_28\n      jumpi\n        /* \"test/Loop.sol\":383:514  {\r... */\n      pop\n      pop\n        /* \"test/Loop.sol\":354:514  function doWhileLoop() public{\r... */\n      jump\t// out\n        /* \"test/Loop.sol\":194:348  function whileLoop() public{\r... */\n    tag_13:\n        /* \"test/Loop.sol\":232:241  uint8 sum */\n      0x00\n        /* \"test/Loop.sol\":254:261  uint8 i */\n      dup1\n        /* \"test/Loop.sol\":262:263  1 */\n      0x01\n        /* \"test/Loop.sol\":254:263  uint8 i=1 */\n      swap1\n      pop\n        /* \"test/Loop.sol\":274:339  while(i<11){\r... */\n    tag_34:\n        /* \"test/Loop.sol\":282:284  11 */\n      0x0b\n        /* \"test/Loop.sol\":280:281  i */\n      dup2\n        /* \"test/Loop.sol\":280:284  i<11 */\n      0xff\n      and\n      lt\n        /* \"test/Loop.sol\":274:339  while(i<11){\r... */\n      iszero\n      tag_35\n      jumpi\n        /* \"test/Loop.sol\":307:308  i */\n      dup1\n        /* \"test/Loop.sol\":300:308  sum += i */\n      dup3\n      tag_36\n      swap2\n      swap1\n      tag_23\n      jump\t// in\n    tag_36:\n      swap2\n      pop\n        /* \"test/Loop.sol\":324:327  i++ */\n      dup1\n      dup1\n      tag_37\n      swap1\n      tag_26\n      jump\t// in\n    tag_37:\n      swap2\n      pop\n      pop\n        /* \"test/Loop.sol\":274:339  while(i<11){\r... */\n      jump(tag_34)\n    tag_35:\n        /* \"test/Loop.sol\":221:348  {\r... */\n      pop\n      pop\n        /* \"test/Loop.sol\":194:348  function whileLoop() public{\r... */\n      jump\t// out\n        /* \"test/Loop.sol\":731:957  function loopcontinue() public{\r... */\n    tag_15:\n        /* \"test/Loop.sol\":772:781  uint8 sum */\n      0x00\n        /* \"test/Loop.sol\":800:807  uint8 i */\n      dup1\n        /* \"test/Loop.sol\":808:809  1 */\n      0x01\n        /* \"test/Loop.sol\":800:809  uint8 i=1 */\n      swap1\n      pop\n        /* \"test/Loop.sol\":796:950  for(uint8 i=1; i < 11; i++){\r... */\n    tag_39:\n        /* \"test/Loop.sol\":815:817  11 */\n      0x0b\n        /* \"test/Loop.sol\":811:812  i */\n      dup2\n        /* \"test/Loop.sol\":811:817  i < 11 */\n      0xff\n      and\n      lt\n        /* \"test/Loop.sol\":796:950  for(uint8 i=1; i < 11; i++){\r... */\n      iszero\n      tag_40\n      jumpi\n        /* \"test/Loop.sol\":847:848  5 */\n      0x05\n        /* \"test/Loop.sol\":842:843  i */\n      dup2\n        /* \"test/Loop.sol\":842:848  i == 5 */\n      0xff\n      and\n      eq\n        /* \"test/Loop.sol\":838:915  if (i == 5){\r... */\n      iszero\n      tag_42\n      jumpi\n        /* \"test/Loop.sol\":868:876  continue */\n      jump(tag_41)\n        /* \"test/Loop.sol\":838:915  if (i == 5){\r... */\n    tag_42:\n        /* \"test/Loop.sol\":936:937  1 */\n      0x01\n        /* \"test/Loop.sol\":929:937  sum += 1 */\n      dup3\n      tag_43\n      swap2\n      swap1\n      tag_23\n      jump\t// in\n    tag_43:\n      swap2\n      pop\n        /* \"test/Loop.sol\":796:950  for(uint8 i=1; i < 11; i++){\r... */\n    tag_41:\n        /* \"test/Loop.sol\":819:822  i++ */\n      dup1\n      dup1\n      tag_44\n      swap1\n      tag_26\n      jump\t// in\n    tag_44:\n      swap2\n      pop\n      pop\n        /* \"test/Loop.sol\":796:950  for(uint8 i=1; i < 11; i++){\r... */\n      jump(tag_39)\n    tag_40:\n      pop\n        /* \"test/Loop.sol\":761:957  {\r... */\n      pop\n        /* \"test/Loop.sol\":731:957  function loopcontinue() public{\r... */\n      jump\t// out\n        /* \"test/Loop.sol\":57:186  function forLoop() public{\r... */\n    tag_17:\n        /* \"test/Loop.sol\":93:102  uint8 sum */\n      0x00\n        /* \"test/Loop.sol\":121:128  uint8 i */\n      dup1\n        /* \"test/Loop.sol\":129:130  1 */\n      0x01\n        /* \"test/Loop.sol\":121:130  uint8 i=1 */\n      swap1\n      pop\n        /* \"test/Loop.sol\":117:179  for(uint8 i=1; i < 11; i++){\r... */\n    tag_46:\n        /* \"test/Loop.sol\":136:138  11 */\n      0x0b\n        /* \"test/Loop.sol\":132:133  i */\n      dup2\n        /* \"test/Loop.sol\":132:138  i < 11 */\n      0xff\n      and\n      lt\n        /* \"test/Loop.sol\":117:179  for(uint8 i=1; i < 11; i++){\r... */\n      iszero\n      tag_47\n      jumpi\n        /* \"test/Loop.sol\":166:167  i */\n      dup1\n        /* \"test/Loop.sol\":159:167  sum += i */\n      dup3\n      tag_49\n      swap2\n      swap1\n      tag_23\n      jump\t// in\n    tag_49:\n      swap2\n      pop\n        /* \"test/Loop.sol\":140:143  i++ */\n      dup1\n      dup1\n      tag_50\n      swap1\n      tag_26\n      jump\t// in\n    tag_50:\n      swap2\n      pop\n      pop\n        /* \"test/Loop.sol\":117:179  for(uint8 i=1; i < 11; i++){\r... */\n      jump(tag_46)\n    tag_47:\n      pop\n        /* \"test/Loop.sol\":82:186  {\r... */\n      pop\n        /* \"test/Loop.sol\":57:186  function forLoop() public{\r... */\n      jump\t// out\n        /* \"#utility.yul\":7:244   */\n    tag_23:\n        /* \"#utility.yul\":45:48   */\n      0x00\n        /* \"#utility.yul\":64:82   */\n      tag_53\n        /* \"#utility.yul\":80:81   */\n      dup3\n        /* \"#utility.yul\":64:82   */\n      tag_54\n      jump\t// in\n    tag_53:\n        /* \"#utility.yul\":59:82   */\n      swap2\n      pop\n        /* \"#utility.yul\":96:114   */\n      tag_55\n        /* \"#utility.yul\":112:113   */\n      dup4\n        /* \"#utility.yul\":96:114   */\n      tag_54\n      jump\t// in\n    tag_55:\n        /* \"#utility.yul\":91:114   */\n      swap3\n      pop\n        /* \"#utility.yul\":186:187   */\n      dup3\n        /* \"#utility.yul\":180:184   */\n      0xff\n        /* \"#utility.yul\":176:188   */\n      sub\n        /* \"#utility.yul\":173:174   */\n      dup3\n        /* \"#utility.yul\":170:189   */\n      gt\n        /* \"#utility.yul\":167:212   */\n      iszero\n      tag_56\n      jumpi\n        /* \"#utility.yul\":192:210   */\n      tag_57\n      tag_58\n      jump\t// in\n    tag_57:\n        /* \"#utility.yul\":167:212   */\n    tag_56:\n        /* \"#utility.yul\":236:237   */\n      dup3\n        /* \"#utility.yul\":233:234   */\n      dup3\n        /* \"#utility.yul\":229:238   */\n      add\n        /* \"#utility.yul\":222:238   */\n      swap1\n      pop\n        /* \"#utility.yul\":7:244   */\n      swap3\n      swap2\n      pop\n      pop\n      jump\t// out\n        /* \"#utility.yul\":250:336   */\n    tag_54:\n        /* \"#utility.yul\":285:292   */\n      0x00\n        /* \"#utility.yul\":325:329   */\n      0xff\n        /* \"#utility.yul\":318:323   */\n      dup3\n        /* \"#utility.yul\":314:330   */\n      and\n        /* \"#utility.yul\":303:330   */\n      swap1\n      pop\n        /* \"#utility.yul\":250:336   */\n      swap2\n      swap1\n      pop\n      jump\t// out\n        /* \"#utility.yul\":342:509   */\n    tag_26:\n        /* \"#utility.yul\":379:382   */\n      0x00\n        /* \"#utility.yul\":402:424   */\n      tag_61\n        /* \"#utility.yul\":418:423   */\n      dup3\n        /* \"#utility.yul\":402:424   */\n      tag_54\n      jump\t// in\n    tag_61:\n        /* \"#utility.yul\":393:424   */\n      swap2\n      pop\n        /* \"#utility.yul\":446:450   */\n      0xff\n        /* \"#utility.yul\":439:444   */\n      dup3\n        /* \"#utility.yul\":436:451   */\n      eq\n        /* \"#utility.yul\":433:474   */\n      iszero\n      tag_62\n      jumpi\n        /* \"#utility.yul\":454:472   */\n      tag_63\n      tag_58\n      jump\t// in\n    tag_63:\n        /* \"#utility.yul\":433:474   */\n    tag_62:\n        /* \"#utility.yul\":501:502   */\n      0x01\n        /* \"#utility.yul\":494:499   */\n      dup3\n        /* \"#utility.yul\":490:503   */\n      add\n        /* \"#utility.yul\":483:503   */\n      swap1\n      pop\n        /* \"#utility.yul\":342:509   */\n      swap2\n      swap1\n      pop\n      jump\t// out\n        /* \"#utility.yul\":515:695   */\n    tag_58:\n        /* \"#utility.yul\":563:640   */\n      0x4e487b7100000000000000000000000000000000000000000000000000000000\n        /* \"#utility.yul\":560:561   */\n      0x00\n        /* \"#utility.yul\":553:641   */\n      mstore\n        /* \"#utility.yul\":660:664   */\n      0x11\n        /* \"#utility.yul\":657:658   */\n      0x04\n        /* \"#utility.yul\":650:665   */\n      mstore\n        /* \"#utility.yul\":684:688   */\n      0x24\n        /* \"#utility.yul\":681:682   */\n      0x00\n        /* \"#utility.yul\":674:689   */\n      revert\n\n    auxdata: 0xa26469706673582212205bdb0b66e6050f915648fec38dd9a4f988df9f93db09326d78126beb70dcac9f64736f6c63430008070033\n}\n",
				"bytecode": {
					"linkReferences": {},
					"object": "608060405234801561001057600080fd5b5061029e806100206000396000f3fe608060405234801561001057600080fd5b50600436106100575760003560e01c8063091da0cf1461005c578063174c9c7e14610066578063e7c898ef14610070578063f0d3799c1461007a578063fc0e600814610084575b600080fd5b61006461008e565b005b61006e6100d9565b005b61007861010d565b005b610082610146565b005b61008c610192565b005b600080600190505b600b8160ff1610156100d5576001826100af91906101cb565b9150600a8260ff1611156100c2576100d5565b80806100cd9061020f565b915050610096565b5050565b600080600190505b6001826100ee91906101cb565b915080806100fb9061020f565b915050600b8160ff16106100e1575050565b600080600190505b600b8160ff16101561014257808261012d91906101cb565b9150808061013a9061020f565b915050610115565b5050565b600080600190505b600b8160ff16101561018e5760058160ff16141561016b5761017b565b60018261017891906101cb565b91505b80806101869061020f565b91505061014e565b5050565b600080600190505b600b8160ff1610156101c75780826101b291906101cb565b915080806101bf9061020f565b91505061019a565b5050565b60006101d682610202565b91506101e183610202565b92508260ff038211156101f7576101f6610239565b5b828201905092915050565b600060ff82169050919050565b600061021a82610202565b915060ff82141561022e5761022d610239565b5b600182019050919050565b7f4e487b7100000000000000000000000000000000000000000000000000000000600052601160045260246000fdfea26469706673582212205bdb0b66e6050f915648fec38dd9a4f988df9f93db09326d78126beb70dcac9f64736f6c63430008070033",
					"opcodes": "PUSH1 0x80 PUSH1 0x40 MSTORE CALLVALUE DUP1 ISZERO PUSH2 0x10 JUMPI PUSH1 0x0 DUP1 REVERT JUMPDEST POP PUSH2 0x29E DUP1 PUSH2 0x20 PUSH1 0x0 CODECOPY PUSH1 0x0 RETURN INVALID PUSH1 0x80 PUSH1 0x40 MSTORE CALLVALUE DUP1 ISZERO PUSH2 0x10 JUMPI PUSH1 0x0 DUP1 REVERT JUMPDEST POP PUSH1 0x4 CALLDATASIZE LT PUSH2 0x57 JUMPI PUSH1 0x0 CALLDATALOAD PUSH1 0xE0 SHR DUP1 PUSH4 0x91DA0CF EQ PUSH2 0x5C JUMPI DUP1 PUSH4 0x174C9C7E EQ PUSH2 0x66 JUMPI DUP1 PUSH4 0xE7C898EF EQ PUSH2 0x70 JUMPI DUP1 PUSH4 0xF0D3799C EQ PUSH2 0x7A JUMPI DUP1 PUSH4 0xFC0E6008 EQ PUSH2 0x84 JUMPI JUMPDEST PUSH1 0x0 DUP1 REVERT JUMPDEST PUSH2 0x64 PUSH2 0x8E JUMP JUMPDEST STOP JUMPDEST PUSH2 0x6E PUSH2 0xD9 JUMP JUMPDEST STOP JUMPDEST PUSH2 0x78 PUSH2 0x10D JUMP JUMPDEST STOP JUMPDEST PUSH2 0x82 PUSH2 0x146 JUMP JUMPDEST STOP JUMPDEST PUSH2 0x8C PUSH2 0x192 JUMP JUMPDEST STOP JUMPDEST PUSH1 0x0 DUP1 PUSH1 0x1 SWAP1 POP JUMPDEST PUSH1 0xB DUP2 PUSH1 0xFF AND LT ISZERO PUSH2 0xD5 JUMPI PUSH1 0x1 DUP3 PUSH2 0xAF SWAP2 SWAP1 PUSH2 0x1CB JUMP JUMPDEST SWAP2 POP PUSH1 0xA DUP3 PUSH1 0xFF AND GT ISZERO PUSH2 0xC2 JUMPI PUSH2 0xD5 JUMP JUMPDEST DUP1 DUP1 PUSH2 0xCD SWAP1 PUSH2 0x20F JUMP JUMPDEST SWAP2 POP POP PUSH2 0x96 JUMP JUMPDEST POP POP JUMP JUMPDEST PUSH1 0x0 DUP1 PUSH1 0x1 SWAP1 POP JUMPDEST PUSH1 0x1 DUP3 PUSH2 0xEE SWAP2 SWAP1 PUSH2 0x1CB JUMP JUMPDEST SWAP2 POP DUP1 DUP1 PUSH2 0xFB SWAP1 PUSH2 0x20F JUMP JUMPDEST SWAP2 POP POP PUSH1 0xB DUP2 PUSH1 0xFF AND LT PUSH2 0xE1 JUMPI POP POP JUMP JUMPDEST PUSH1 0x0 DUP1 PUSH1 0x1 SWAP1 POP JUMPDEST PUSH1 0xB DUP2 PUSH1 0xFF AND LT ISZERO PUSH2 0x142 JUMPI DUP1 DUP3 PUSH2 0x12D SWAP2 SWAP1 PUSH2 0x1CB JUMP JUMPDEST SWAP2 POP DUP1 DUP1 PUSH2 0x13A SWAP1 PUSH2 0x20F JUMP JUMPDEST SWAP2 POP POP PUSH2 0x115 JUMP JUMPDEST POP POP JUMP JUMPDEST PUSH1 0x0 DUP1 PUSH1 0x1 SWAP1 POP JUMPDEST PUSH1 0xB DUP2 PUSH1 0xFF AND LT ISZERO PUSH2 0x18E JUMPI PUSH1 0x5 DUP2 PUSH1 0xFF AND EQ ISZERO PUSH2 0x16B JUMPI PUSH2 0x17B JUMP JUMPDEST PUSH1 0x1 DUP3 PUSH2 0x178 SWAP2 SWAP1 PUSH2 0x1CB JUMP JUMPDEST SWAP2 POP JUMPDEST DUP1 DUP1 PUSH2 0x186 SWAP1 PUSH2 0x20F JUMP JUMPDEST SWAP2 POP POP PUSH2 0x14E JUMP JUMPDEST POP POP JUMP JUMPDEST PUSH1 0x0 DUP1 PUSH1 0x1 SWAP1 POP JUMPDEST PUSH1 0xB DUP2 PUSH1 0xFF AND LT ISZERO PUSH2 0x1C7 JUMPI DUP1 DUP3 PUSH2 0x1B2 SWAP2 SWAP1 PUSH2 0x1CB JUMP JUMPDEST SWAP2 POP DUP1 DUP1 PUSH2 0x1BF SWAP1 PUSH2 0x20F JUMP JUMPDEST SWAP2 POP POP PUSH2 0x19A JUMP JUMPDEST POP POP JUMP JUMPDEST PUSH1 0x0 PUSH2 0x1D6 DUP3 PUSH2 0x202 JUMP JUMPDEST SWAP2 POP PUSH2 0x1E1 DUP4 PUSH2 0x202 JUMP JUMPDEST SWAP3 POP DUP3 PUSH1 0xFF SUB DUP3 GT ISZERO PUSH2 0x1F7 JUMPI PUSH2 0x1F6 PUSH2 0x239 JUMP JUMPDEST JUMPDEST DUP3 DUP3 ADD SWAP1 POP SWAP3 SWAP2 POP POP JUMP JUMPDEST PUSH1 0x0 PUSH1 0xFF DUP3 AND SWAP1 POP SWAP2 SWAP1 POP JUMP JUMPDEST PUSH1 0x0 PUSH2 0x21A DUP3 PUSH2 0x202 JUMP JUMPDEST SWAP2 POP PUSH1 0xFF DUP3 EQ ISZERO PUSH2 0x22E JUMPI PUSH2 0x22D PUSH2 0x239 JUMP JUMPDEST JUMPDEST PUSH1 0x1 DUP3 ADD SWAP1 POP SWAP2 SWAP1 POP JUMP JUMPDEST PUSH32 0x4E487B7100000000000000000000000000000000000000000000000000000000 PUSH1 0x0 MSTORE PUSH1 0x11 PUSH1 0x4 MSTORE PUSH1 0x24 PUSH1 0x0 REVERT INVALID LOG2 PUSH5 0x6970667358 0x22 SLT KECCAK256 JUMPDEST 0xDB SIGNEXTEND PUSH7 0xE6050F915648FE 0xC3 DUP14 0xD9 LOG4 0xF9 DUP9 0xDF SWAP16 SWAP4 0xDB MULMOD ORIGIN PUSH14 0x78126BEB70DCAC9F64736F6C6343 STOP ADDMOD SMOD STOP CALLER "
				},
				"gasEstimates": {
					"creation": {
						"codeDepositCost": "134000",
						"executionCost": "177",
						"totalCost": "134177"
					},
					"external": {
						"doWhileLoop()": "infinite",
						"forLoop()": "infinite",
						"loopbreak()": "infinite",
						"loopcontinue()": "infinite",
						"whileLoop()": "infinite"
					}
				},
				"methodIdentifiers": {
					"doWhileLoop()": "174c9c7e",
					"forLoop()": "fc0e6008",
					"loopbreak()": "091da0cf",
					"loopcontinue()": "f0d3799c",
					"whileLoop()": "e7c898ef"
				}
			},
			"storageLayout": {
				"storage": [],
				"types": null
			},
			"userdoc": {
				"kind": "user",
				"methods": {},
				"version": 1
			}
		}
	}
}