{
	"test/Operation.sol": {
		"Operation": {
			"abi": [
				{
					"inputs": [],
					"name": "intData",
					"outputs": [
						{
							"internalType": "uint256",
							"name": "",
							"type": "uint256"
						}
					],
					"stateMutability": "view",
					"type": "function"
				},
				{
					"inputs": [],
					"name": "logical",
					"outputs": [],
					"stateMutability": "nonpayable",
					"type": "function"
				},
				{
					"inputs": [],
					"name": "math",
					"outputs": [],
					"stateMutability": "nonpayable",
					"type": "function"
				},
				{
					"inputs": [],
					"name": "stringData",
					"outputs": [
						{
							"internalType": "string",
							"name": "",
							"type": "string"
						}
					],
					"stateMutability": "view",
					"type": "function"
				},
				{
					"inputs": [],
					"name": "weiToEth",
					"outputs": [],
					"stateMutability": "nonpayable",
					"type": "function"
				}
			],
			"devdoc": {
				"kind": "dev",
				"methods": {},
				"version": 1
			},
			"evm": {
				"assembly": "    /* \"test/Operation.sol\":34:901  contract Operation{... */\n  mstore(0x40, 0x80)\n  callvalue\n  dup1\n  iszero\n  tag_1\n  jumpi\n  0x00\n  dup1\n  revert\ntag_1:\n  pop\n  dataSize(sub_0)\n  dup1\n  dataOffset(sub_0)\n  0x00\n  codecopy\n  0x00\n  return\nstop\n\nsub_0: assembly {\n        /* \"test/Operation.sol\":34:901  contract Operation{... */\n      mstore(0x40, 0x80)\n      callvalue\n      dup1\n      iszero\n      tag_1\n      jumpi\n      0x00\n      dup1\n      revert\n    tag_1:\n      pop\n      jumpi(tag_2, lt(calldatasize, 0x04))\n      shr(0xe0, calldataload(0x00))\n      dup1\n      0x44f5c17e\n      eq\n      tag_3\n      jumpi\n      dup1\n      0x65668700\n      eq\n      tag_4\n      jumpi\n      dup1\n      0x93daa367\n      eq\n      tag_5\n      jumpi\n      dup1\n      0xaddf3804\n      eq\n      tag_6\n      jumpi\n      dup1\n      0xb1b93471\n      eq\n      tag_7\n      jumpi\n    tag_2:\n      0x00\n      dup1\n      revert\n        /* \"test/Operation.sol\":58:77  uint public intData */\n    tag_3:\n      tag_8\n      tag_9\n      jump\t// in\n    tag_8:\n      mload(0x40)\n      tag_10\n      swap2\n      swap1\n      tag_11\n      jump\t// in\n    tag_10:\n      mload(0x40)\n      dup1\n      swap2\n      sub\n      swap1\n      return\n        /* \"test/Operation.sol\":83:107  string public stringData */\n    tag_4:\n      tag_12\n      tag_13\n      jump\t// in\n    tag_12:\n      mload(0x40)\n      tag_14\n      swap2\n      swap1\n      tag_15\n      jump\t// in\n    tag_14:\n      mload(0x40)\n      dup1\n      swap2\n      sub\n      swap1\n      return\n        /* \"test/Operation.sol\":588:897  function logical() public{... */\n    tag_5:\n      tag_16\n      tag_17\n      jump\t// in\n    tag_16:\n      stop\n        /* \"test/Operation.sol\":114:309  function math() public{... */\n    tag_6:\n      tag_18\n      tag_19\n      jump\t// in\n    tag_18:\n      stop\n        /* \"test/Operation.sol\":315:583  function weiToEth() public{ //화폐데이터 처리... */\n    tag_7:\n      tag_20\n      tag_21\n      jump\t// in\n    tag_20:\n      stop\n        /* \"test/Operation.sol\":58:77  uint public intData */\n    tag_9:\n      sload(0x00)\n      dup2\n      jump\t// out\n        /* \"test/Operation.sol\":83:107  string public stringData */\n    tag_13:\n      0x01\n      dup1\n      sload\n      tag_22\n      swap1\n      tag_23\n      jump\t// in\n    tag_22:\n      dup1\n      0x1f\n      add\n      0x20\n      dup1\n      swap2\n      div\n      mul\n      0x20\n      add\n      mload(0x40)\n      swap1\n      dup2\n      add\n      0x40\n      mstore\n      dup1\n      swap3\n      swap2\n      swap1\n      dup2\n      dup2\n      mstore\n      0x20\n      add\n      dup3\n      dup1\n      sload\n      tag_24\n      swap1\n      tag_23\n      jump\t// in\n    tag_24:\n      dup1\n      iszero\n      tag_25\n      jumpi\n      dup1\n      0x1f\n      lt\n      tag_26\n      jumpi\n      0x0100\n      dup1\n      dup4\n      sload\n      div\n      mul\n      dup4\n      mstore\n      swap2\n      0x20\n      add\n      swap2\n      jump(tag_25)\n    tag_26:\n      dup3\n      add\n      swap2\n      swap1\n      0x00\n      mstore\n      keccak256(0x00, 0x20)\n      swap1\n    tag_27:\n      dup2\n      sload\n      dup2\n      mstore\n      swap1\n      0x01\n      add\n      swap1\n      0x20\n      add\n      dup1\n      dup4\n      gt\n      tag_27\n      jumpi\n      dup3\n      swap1\n      sub\n      0x1f\n      and\n      dup3\n      add\n      swap2\n    tag_25:\n      pop\n      pop\n      pop\n      pop\n      pop\n      dup2\n      jump\t// out\n        /* \"test/Operation.sol\":588:897  function logical() public{... */\n    tag_17:\n        /* \"test/Operation.sol\":623:637  bool true_data */\n      0x00\n        /* \"test/Operation.sol\":640:644  true */\n      0x01\n        /* \"test/Operation.sol\":623:644  bool true_data = true */\n      swap1\n      pop\n        /* \"test/Operation.sol\":654:669  bool false_data */\n      0x00\n        /* \"test/Operation.sol\":691:700  true_data */\n      dup2\n        /* \"test/Operation.sol\":688:729  if(true_data){... */\n      iszero\n      tag_29\n      jumpi\n      jump(tag_30)\n    tag_29:\n    tag_30:\n        /* \"test/Operation.sol\":613:897  {... */\n      pop\n      pop\n        /* \"test/Operation.sol\":588:897  function logical() public{... */\n      jump\t// out\n        /* \"test/Operation.sol\":114:309  function math() public{... */\n    tag_19:\n        /* \"test/Operation.sol\":166:167  1 */\n      0x01\n        /* \"test/Operation.sol\":156:163  intData */\n      sload(0x00)\n        /* \"test/Operation.sol\":156:167  intData + 1 */\n      tag_32\n      swap2\n      swap1\n      tag_33\n      jump\t// in\n    tag_32:\n        /* \"test/Operation.sol\":146:153  intData */\n      0x00\n        /* \"test/Operation.sol\":146:167  intData = intData + 1 */\n      dup2\n      swap1\n      sstore\n      pop\n        /* \"test/Operation.sol\":188:189  1 */\n      0x01\n        /* \"test/Operation.sol\":177:184  intData */\n      0x00\n      dup1\n        /* \"test/Operation.sol\":177:189  intData += 1 */\n      dup3\n      dup3\n      sload\n      tag_34\n      swap2\n      swap1\n      tag_33\n      jump\t// in\n    tag_34:\n      swap3\n      pop\n      pop\n      dup2\n      swap1\n      sstore\n      pop\n        /* \"test/Operation.sol\":199:206  intData */\n      0x00\n      dup1\n        /* \"test/Operation.sol\":199:208  intData++ */\n      dup2\n      sload\n      dup1\n      swap3\n      swap2\n      swap1\n      tag_35\n      swap1\n      tag_36\n      jump\t// in\n    tag_35:\n      swap2\n      swap1\n      pop\n      sstore\n      pop\n        /* \"test/Operation.sol\":239:240  1 */\n      0x01\n        /* \"test/Operation.sol\":229:236  intData */\n      sload(0x00)\n        /* \"test/Operation.sol\":229:240  intData - 1 */\n      tag_37\n      swap2\n      swap1\n      tag_38\n      jump\t// in\n    tag_37:\n        /* \"test/Operation.sol\":219:226  intData */\n      0x00\n        /* \"test/Operation.sol\":219:240  intData = intData - 1 */\n      dup2\n      swap1\n      sstore\n      pop\n        /* \"test/Operation.sol\":270:271  1 */\n      0x01\n        /* \"test/Operation.sol\":260:267  intData */\n      sload(0x00)\n        /* \"test/Operation.sol\":260:271  intData / 1 */\n      tag_39\n      swap2\n      swap1\n      tag_40\n      jump\t// in\n    tag_39:\n        /* \"test/Operation.sol\":250:257  intData */\n      0x00\n        /* \"test/Operation.sol\":250:271  intData = intData / 1 */\n      dup2\n      swap1\n      sstore\n      pop\n        /* \"test/Operation.sol\":301:302  1 */\n      0x01\n        /* \"test/Operation.sol\":291:298  intData */\n      sload(0x00)\n        /* \"test/Operation.sol\":291:302  intData * 1 */\n      tag_41\n      swap2\n      swap1\n      tag_42\n      jump\t// in\n    tag_41:\n        /* \"test/Operation.sol\":281:288  intData */\n      0x00\n        /* \"test/Operation.sol\":281:302  intData = intData * 1 */\n      dup2\n      swap1\n      sstore\n      pop\n        /* \"test/Operation.sol\":114:309  function math() public{... */\n      jump\t// out\n        /* \"test/Operation.sol\":315:583  function weiToEth() public{ //화폐데이터 처리... */\n    tag_21:\n        /* \"test/Operation.sol\":376:389  uint wei_data */\n      0x00\n        /* \"test/Operation.sol\":392:397  1 wei */\n      0x01\n        /* \"test/Operation.sol\":376:397  uint wei_data = 1 wei */\n      swap1\n      pop\n        /* \"test/Operation.sol\":462:475  uint eth_data */\n      0x00\n        /* \"test/Operation.sol\":490:496  10**18 */\n      0x0de0b6b3a7640000\n        /* \"test/Operation.sol\":478:486  wei_data */\n      dup3\n        /* \"test/Operation.sol\":478:497  wei_data * (10**18) */\n      tag_44\n      swap2\n      swap1\n      tag_42\n      jump\t// in\n    tag_44:\n        /* \"test/Operation.sol\":462:497  uint eth_data = wei_data * (10**18) */\n      swap1\n      pop\n        /* \"test/Operation.sol\":540:554  uint gwei_data */\n      0x00\n        /* \"test/Operation.sol\":569:574  10**9 */\n      0x3b9aca00\n        /* \"test/Operation.sol\":557:565  wei_data */\n      dup4\n        /* \"test/Operation.sol\":557:575  wei_data * (10**9) */\n      tag_45\n      swap2\n      swap1\n      tag_42\n      jump\t// in\n    tag_45:\n        /* \"test/Operation.sol\":540:575  uint gwei_data = wei_data * (10**9) */\n      swap1\n      pop\n        /* \"test/Operation.sol\":341:583  { //화폐데이터 처리... */\n      pop\n      pop\n      pop\n        /* \"test/Operation.sol\":315:583  function weiToEth() public{ //화폐데이터 처리... */\n      jump\t// out\n        /* \"#utility.yul\":7:371   */\n    tag_47:\n        /* \"#utility.yul\":95:98   */\n      0x00\n        /* \"#utility.yul\":123:162   */\n      tag_49\n        /* \"#utility.yul\":156:161   */\n      dup3\n        /* \"#utility.yul\":123:162   */\n      tag_50\n      jump\t// in\n    tag_49:\n        /* \"#utility.yul\":178:249   */\n      tag_51\n        /* \"#utility.yul\":242:248   */\n      dup2\n        /* \"#utility.yul\":237:240   */\n      dup6\n        /* \"#utility.yul\":178:249   */\n      tag_52\n      jump\t// in\n    tag_51:\n        /* \"#utility.yul\":171:249   */\n      swap4\n      pop\n        /* \"#utility.yul\":258:310   */\n      tag_53\n        /* \"#utility.yul\":303:309   */\n      dup2\n        /* \"#utility.yul\":298:301   */\n      dup6\n        /* \"#utility.yul\":291:295   */\n      0x20\n        /* \"#utility.yul\":284:289   */\n      dup7\n        /* \"#utility.yul\":280:296   */\n      add\n        /* \"#utility.yul\":258:310   */\n      tag_54\n      jump\t// in\n    tag_53:\n        /* \"#utility.yul\":335:364   */\n      tag_55\n        /* \"#utility.yul\":357:363   */\n      dup2\n        /* \"#utility.yul\":335:364   */\n      tag_56\n      jump\t// in\n    tag_55:\n        /* \"#utility.yul\":330:333   */\n      dup5\n        /* \"#utility.yul\":326:365   */\n      add\n        /* \"#utility.yul\":319:365   */\n      swap2\n      pop\n        /* \"#utility.yul\":99:371   */\n      pop\n        /* \"#utility.yul\":7:371   */\n      swap3\n      swap2\n      pop\n      pop\n      jump\t// out\n        /* \"#utility.yul\":377:495   */\n    tag_57:\n        /* \"#utility.yul\":464:488   */\n      tag_59\n        /* \"#utility.yul\":482:487   */\n      dup2\n        /* \"#utility.yul\":464:488   */\n      tag_60\n      jump\t// in\n    tag_59:\n        /* \"#utility.yul\":459:462   */\n      dup3\n        /* \"#utility.yul\":452:489   */\n      mstore\n        /* \"#utility.yul\":377:495   */\n      pop\n      pop\n      jump\t// out\n        /* \"#utility.yul\":501:814   */\n    tag_15:\n        /* \"#utility.yul\":614:618   */\n      0x00\n        /* \"#utility.yul\":652:654   */\n      0x20\n        /* \"#utility.yul\":641:650   */\n      dup3\n        /* \"#utility.yul\":637:655   */\n      add\n        /* \"#utility.yul\":629:655   */\n      swap1\n      pop\n        /* \"#utility.yul\":701:710   */\n      dup2\n        /* \"#utility.yul\":695:699   */\n      dup2\n        /* \"#utility.yul\":691:711   */\n      sub\n        /* \"#utility.yul\":687:688   */\n      0x00\n        /* \"#utility.yul\":676:685   */\n      dup4\n        /* \"#utility.yul\":672:689   */\n      add\n        /* \"#utility.yul\":665:712   */\n      mstore\n        /* \"#utility.yul\":729:807   */\n      tag_62\n        /* \"#utility.yul\":802:806   */\n      dup2\n        /* \"#utility.yul\":793:799   */\n      dup5\n        /* \"#utility.yul\":729:807   */\n      tag_47\n      jump\t// in\n    tag_62:\n        /* \"#utility.yul\":721:807   */\n      swap1\n      pop\n        /* \"#utility.yul\":501:814   */\n      swap3\n      swap2\n      pop\n      pop\n      jump\t// out\n        /* \"#utility.yul\":820:1042   */\n    tag_11:\n        /* \"#utility.yul\":913:917   */\n      0x00\n        /* \"#utility.yul\":951:953   */\n      0x20\n        /* \"#utility.yul\":940:949   */\n      dup3\n        /* \"#utility.yul\":936:954   */\n      add\n        /* \"#utility.yul\":928:954   */\n      swap1\n      pop\n        /* \"#utility.yul\":964:1035   */\n      tag_64\n        /* \"#utility.yul\":1032:1033   */\n      0x00\n        /* \"#utility.yul\":1021:1030   */\n      dup4\n        /* \"#utility.yul\":1017:1034   */\n      add\n        /* \"#utility.yul\":1008:1014   */\n      dup5\n        /* \"#utility.yul\":964:1035   */\n      tag_57\n      jump\t// in\n    tag_64:\n        /* \"#utility.yul\":820:1042   */\n      swap3\n      swap2\n      pop\n      pop\n      jump\t// out\n        /* \"#utility.yul\":1048:1147   */\n    tag_50:\n        /* \"#utility.yul\":1100:1106   */\n      0x00\n        /* \"#utility.yul\":1134:1139   */\n      dup2\n        /* \"#utility.yul\":1128:1140   */\n      mload\n        /* \"#utility.yul\":1118:1140   */\n      swap1\n      pop\n        /* \"#utility.yul\":1048:1147   */\n      swap2\n      swap1\n      pop\n      jump\t// out\n        /* \"#utility.yul\":1153:1322   */\n    tag_52:\n        /* \"#utility.yul\":1237:1248   */\n      0x00\n        /* \"#utility.yul\":1271:1277   */\n      dup3\n        /* \"#utility.yul\":1266:1269   */\n      dup3\n        /* \"#utility.yul\":1259:1278   */\n      mstore\n        /* \"#utility.yul\":1311:1315   */\n      0x20\n        /* \"#utility.yul\":1306:1309   */\n      dup3\n        /* \"#utility.yul\":1302:1316   */\n      add\n        /* \"#utility.yul\":1287:1316   */\n      swap1\n      pop\n        /* \"#utility.yul\":1153:1322   */\n      swap3\n      swap2\n      pop\n      pop\n      jump\t// out\n        /* \"#utility.yul\":1328:1633   */\n    tag_33:\n        /* \"#utility.yul\":1368:1371   */\n      0x00\n        /* \"#utility.yul\":1387:1407   */\n      tag_68\n        /* \"#utility.yul\":1405:1406   */\n      dup3\n        /* \"#utility.yul\":1387:1407   */\n      tag_60\n      jump\t// in\n    tag_68:\n        /* \"#utility.yul\":1382:1407   */\n      swap2\n      pop\n        /* \"#utility.yul\":1421:1441   */\n      tag_69\n        /* \"#utility.yul\":1439:1440   */\n      dup4\n        /* \"#utility.yul\":1421:1441   */\n      tag_60\n      jump\t// in\n    tag_69:\n        /* \"#utility.yul\":1416:1441   */\n      swap3\n      pop\n        /* \"#utility.yul\":1575:1576   */\n      dup3\n        /* \"#utility.yul\":1507:1573   */\n      0xffffffffffffffffffffffffffffffffffffffffffffffffffffffffffffffff\n        /* \"#utility.yul\":1503:1577   */\n      sub\n        /* \"#utility.yul\":1500:1501   */\n      dup3\n        /* \"#utility.yul\":1497:1578   */\n      gt\n        /* \"#utility.yul\":1494:1601   */\n      iszero\n      tag_70\n      jumpi\n        /* \"#utility.yul\":1581:1599   */\n      tag_71\n      tag_72\n      jump\t// in\n    tag_71:\n        /* \"#utility.yul\":1494:1601   */\n    tag_70:\n        /* \"#utility.yul\":1625:1626   */\n      dup3\n        /* \"#utility.yul\":1622:1623   */\n      dup3\n        /* \"#utility.yul\":1618:1627   */\n      add\n        /* \"#utility.yul\":1611:1627   */\n      swap1\n      pop\n        /* \"#utility.yul\":1328:1633   */\n      swap3\n      swap2\n      pop\n      pop\n      jump\t// out\n        /* \"#utility.yul\":1639:1824   */\n    tag_40:\n        /* \"#utility.yul\":1679:1680   */\n      0x00\n        /* \"#utility.yul\":1696:1716   */\n      tag_74\n        /* \"#utility.yul\":1714:1715   */\n      dup3\n        /* \"#utility.yul\":1696:1716   */\n      tag_60\n      jump\t// in\n    tag_74:\n        /* \"#utility.yul\":1691:1716   */\n      swap2\n      pop\n        /* \"#utility.yul\":1730:1750   */\n      tag_75\n        /* \"#utility.yul\":1748:1749   */\n      dup4\n        /* \"#utility.yul\":1730:1750   */\n      tag_60\n      jump\t// in\n    tag_75:\n        /* \"#utility.yul\":1725:1750   */\n      swap3\n      pop\n        /* \"#utility.yul\":1769:1770   */\n      dup3\n        /* \"#utility.yul\":1759:1794   */\n      tag_76\n      jumpi\n        /* \"#utility.yul\":1774:1792   */\n      tag_77\n      tag_78\n      jump\t// in\n    tag_77:\n        /* \"#utility.yul\":1759:1794   */\n    tag_76:\n        /* \"#utility.yul\":1816:1817   */\n      dup3\n        /* \"#utility.yul\":1813:1814   */\n      dup3\n        /* \"#utility.yul\":1809:1818   */\n      div\n        /* \"#utility.yul\":1804:1818   */\n      swap1\n      pop\n        /* \"#utility.yul\":1639:1824   */\n      swap3\n      swap2\n      pop\n      pop\n      jump\t// out\n        /* \"#utility.yul\":1830:2178   */\n    tag_42:\n        /* \"#utility.yul\":1870:1877   */\n      0x00\n        /* \"#utility.yul\":1893:1913   */\n      tag_80\n        /* \"#utility.yul\":1911:1912   */\n      dup3\n        /* \"#utility.yul\":1893:1913   */\n      tag_60\n      jump\t// in\n    tag_80:\n        /* \"#utility.yul\":1888:1913   */\n      swap2\n      pop\n        /* \"#utility.yul\":1927:1947   */\n      tag_81\n        /* \"#utility.yul\":1945:1946   */\n      dup4\n        /* \"#utility.yul\":1927:1947   */\n      tag_60\n      jump\t// in\n    tag_81:\n        /* \"#utility.yul\":1922:1947   */\n      swap3\n      pop\n        /* \"#utility.yul\":2115:2116   */\n      dup2\n        /* \"#utility.yul\":2047:2113   */\n      0xffffffffffffffffffffffffffffffffffffffffffffffffffffffffffffffff\n        /* \"#utility.yul\":2043:2117   */\n      div\n        /* \"#utility.yul\":2040:2041   */\n      dup4\n        /* \"#utility.yul\":2037:2118   */\n      gt\n        /* \"#utility.yul\":2032:2033   */\n      dup3\n        /* \"#utility.yul\":2025:2034   */\n      iszero\n        /* \"#utility.yul\":2018:2035   */\n      iszero\n        /* \"#utility.yul\":2014:2119   */\n      and\n        /* \"#utility.yul\":2011:2142   */\n      iszero\n      tag_82\n      jumpi\n        /* \"#utility.yul\":2122:2140   */\n      tag_83\n      tag_72\n      jump\t// in\n    tag_83:\n        /* \"#utility.yul\":2011:2142   */\n    tag_82:\n        /* \"#utility.yul\":2170:2171   */\n      dup3\n        /* \"#utility.yul\":2167:2168   */\n      dup3\n        /* \"#utility.yul\":2163:2172   */\n      mul\n        /* \"#utility.yul\":2152:2172   */\n      swap1\n      pop\n        /* \"#utility.yul\":1830:2178   */\n      swap3\n      swap2\n      pop\n      pop\n      jump\t// out\n        /* \"#utility.yul\":2184:2375   */\n    tag_38:\n        /* \"#utility.yul\":2224:2228   */\n      0x00\n        /* \"#utility.yul\":2244:2264   */\n      tag_85\n        /* \"#utility.yul\":2262:2263   */\n      dup3\n        /* \"#utility.yul\":2244:2264   */\n      tag_60\n      jump\t// in\n    tag_85:\n        /* \"#utility.yul\":2239:2264   */\n      swap2\n      pop\n        /* \"#utility.yul\":2278:2298   */\n      tag_86\n        /* \"#utility.yul\":2296:2297   */\n      dup4\n        /* \"#utility.yul\":2278:2298   */\n      tag_60\n      jump\t// in\n    tag_86:\n        /* \"#utility.yul\":2273:2298   */\n      swap3\n      pop\n        /* \"#utility.yul\":2317:2318   */\n      dup3\n        /* \"#utility.yul\":2314:2315   */\n      dup3\n        /* \"#utility.yul\":2311:2319   */\n      lt\n        /* \"#utility.yul\":2308:2342   */\n      iszero\n      tag_87\n      jumpi\n        /* \"#utility.yul\":2322:2340   */\n      tag_88\n      tag_72\n      jump\t// in\n    tag_88:\n        /* \"#utility.yul\":2308:2342   */\n    tag_87:\n        /* \"#utility.yul\":2367:2368   */\n      dup3\n        /* \"#utility.yul\":2364:2365   */\n      dup3\n        /* \"#utility.yul\":2360:2369   */\n      sub\n        /* \"#utility.yul\":2352:2369   */\n      swap1\n      pop\n        /* \"#utility.yul\":2184:2375   */\n      swap3\n      swap2\n      pop\n      pop\n      jump\t// out\n        /* \"#utility.yul\":2381:2458   */\n    tag_60:\n        /* \"#utility.yul\":2418:2425   */\n      0x00\n        /* \"#utility.yul\":2447:2452   */\n      dup2\n        /* \"#utility.yul\":2436:2452   */\n      swap1\n      pop\n        /* \"#utility.yul\":2381:2458   */\n      swap2\n      swap1\n      pop\n      jump\t// out\n        /* \"#utility.yul\":2464:2771   */\n    tag_54:\n        /* \"#utility.yul\":2532:2533   */\n      0x00\n        /* \"#utility.yul\":2542:2655   */\n    tag_91:\n        /* \"#utility.yul\":2556:2562   */\n      dup4\n        /* \"#utility.yul\":2553:2554   */\n      dup2\n        /* \"#utility.yul\":2550:2563   */\n      lt\n        /* \"#utility.yul\":2542:2655   */\n      iszero\n      tag_93\n      jumpi\n        /* \"#utility.yul\":2641:2642   */\n      dup1\n        /* \"#utility.yul\":2636:2639   */\n      dup3\n        /* \"#utility.yul\":2632:2643   */\n      add\n        /* \"#utility.yul\":2626:2644   */\n      mload\n        /* \"#utility.yul\":2622:2623   */\n      dup2\n        /* \"#utility.yul\":2617:2620   */\n      dup5\n        /* \"#utility.yul\":2613:2624   */\n      add\n        /* \"#utility.yul\":2606:2645   */\n      mstore\n        /* \"#utility.yul\":2578:2580   */\n      0x20\n        /* \"#utility.yul\":2575:2576   */\n      dup2\n        /* \"#utility.yul\":2571:2581   */\n      add\n        /* \"#utility.yul\":2566:2581   */\n      swap1\n      pop\n        /* \"#utility.yul\":2542:2655   */\n      jump(tag_91)\n    tag_93:\n        /* \"#utility.yul\":2673:2679   */\n      dup4\n        /* \"#utility.yul\":2670:2671   */\n      dup2\n        /* \"#utility.yul\":2667:2680   */\n      gt\n        /* \"#utility.yul\":2664:2765   */\n      iszero\n      tag_94\n      jumpi\n        /* \"#utility.yul\":2753:2754   */\n      0x00\n        /* \"#utility.yul\":2744:2750   */\n      dup5\n        /* \"#utility.yul\":2739:2742   */\n      dup5\n        /* \"#utility.yul\":2735:2751   */\n      add\n        /* \"#utility.yul\":2728:2755   */\n      mstore\n        /* \"#utility.yul\":2664:2765   */\n    tag_94:\n        /* \"#utility.yul\":2513:2771   */\n      pop\n        /* \"#utility.yul\":2464:2771   */\n      pop\n      pop\n      pop\n      jump\t// out\n        /* \"#utility.yul\":2777:3097   */\n    tag_23:\n        /* \"#utility.yul\":2821:2827   */\n      0x00\n        /* \"#utility.yul\":2858:2859   */\n      0x02\n        /* \"#utility.yul\":2852:2856   */\n      dup3\n        /* \"#utility.yul\":2848:2860   */\n      div\n        /* \"#utility.yul\":2838:2860   */\n      swap1\n      pop\n        /* \"#utility.yul\":2905:2906   */\n      0x01\n        /* \"#utility.yul\":2899:2903   */\n      dup3\n        /* \"#utility.yul\":2895:2907   */\n      and\n        /* \"#utility.yul\":2926:2944   */\n      dup1\n        /* \"#utility.yul\":2916:2997   */\n      tag_96\n      jumpi\n        /* \"#utility.yul\":2982:2986   */\n      0x7f\n        /* \"#utility.yul\":2974:2980   */\n      dup3\n        /* \"#utility.yul\":2970:2987   */\n      and\n        /* \"#utility.yul\":2960:2987   */\n      swap2\n      pop\n        /* \"#utility.yul\":2916:2997   */\n    tag_96:\n        /* \"#utility.yul\":3044:3046   */\n      0x20\n        /* \"#utility.yul\":3036:3042   */\n      dup3\n        /* \"#utility.yul\":3033:3047   */\n      lt\n        /* \"#utility.yul\":3013:3031   */\n      dup2\n        /* \"#utility.yul\":3010:3048   */\n      eq\n        /* \"#utility.yul\":3007:3091   */\n      iszero\n      tag_97\n      jumpi\n        /* \"#utility.yul\":3063:3081   */\n      tag_98\n      tag_99\n      jump\t// in\n    tag_98:\n        /* \"#utility.yul\":3007:3091   */\n    tag_97:\n        /* \"#utility.yul\":2828:3097   */\n      pop\n        /* \"#utility.yul\":2777:3097   */\n      swap2\n      swap1\n      pop\n      jump\t// out\n        /* \"#utility.yul\":3103:3336   */\n    tag_36:\n        /* \"#utility.yul\":3142:3145   */\n      0x00\n        /* \"#utility.yul\":3165:3189   */\n      tag_101\n        /* \"#utility.yul\":3183:3188   */\n      dup3\n        /* \"#utility.yul\":3165:3189   */\n      tag_60\n      jump\t// in\n    tag_101:\n        /* \"#utility.yul\":3156:3189   */\n      swap2\n      pop\n        /* \"#utility.yul\":3211:3277   */\n      0xffffffffffffffffffffffffffffffffffffffffffffffffffffffffffffffff\n        /* \"#utility.yul\":3204:3209   */\n      dup3\n        /* \"#utility.yul\":3201:3278   */\n      eq\n        /* \"#utility.yul\":3198:3301   */\n      iszero\n      tag_102\n      jumpi\n        /* \"#utility.yul\":3281:3299   */\n      tag_103\n      tag_72\n      jump\t// in\n    tag_103:\n        /* \"#utility.yul\":3198:3301   */\n    tag_102:\n        /* \"#utility.yul\":3328:3329   */\n      0x01\n        /* \"#utility.yul\":3321:3326   */\n      dup3\n        /* \"#utility.yul\":3317:3330   */\n      add\n        /* \"#utility.yul\":3310:3330   */\n      swap1\n      pop\n        /* \"#utility.yul\":3103:3336   */\n      swap2\n      swap1\n      pop\n      jump\t// out\n        /* \"#utility.yul\":3342:3522   */\n    tag_72:\n        /* \"#utility.yul\":3390:3467   */\n      0x4e487b7100000000000000000000000000000000000000000000000000000000\n        /* \"#utility.yul\":3387:3388   */\n      0x00\n        /* \"#utility.yul\":3380:3468   */\n      mstore\n        /* \"#utility.yul\":3487:3491   */\n      0x11\n        /* \"#utility.yul\":3484:3485   */\n      0x04\n        /* \"#utility.yul\":3477:3492   */\n      mstore\n        /* \"#utility.yul\":3511:3515   */\n      0x24\n        /* \"#utility.yul\":3508:3509   */\n      0x00\n        /* \"#utility.yul\":3501:3516   */\n      revert\n        /* \"#utility.yul\":3528:3708   */\n    tag_78:\n        /* \"#utility.yul\":3576:3653   */\n      0x4e487b7100000000000000000000000000000000000000000000000000000000\n        /* \"#utility.yul\":3573:3574   */\n      0x00\n        /* \"#utility.yul\":3566:3654   */\n      mstore\n        /* \"#utility.yul\":3673:3677   */\n      0x12\n        /* \"#utility.yul\":3670:3671   */\n      0x04\n        /* \"#utility.yul\":3663:3678   */\n      mstore\n        /* \"#utility.yul\":3697:3701   */\n      0x24\n        /* \"#utility.yul\":3694:3695   */\n      0x00\n        /* \"#utility.yul\":3687:3702   */\n      revert\n        /* \"#utility.yul\":3714:3894   */\n    tag_99:\n        /* \"#utility.yul\":3762:3839   */\n      0x4e487b7100000000000000000000000000000000000000000000000000000000\n        /* \"#utility.yul\":3759:3760   */\n      0x00\n        /* \"#utility.yul\":3752:3840   */\n      mstore\n        /* \"#utility.yul\":3859:3863   */\n      0x22\n        /* \"#utility.yul\":3856:3857   */\n      0x04\n        /* \"#utility.yul\":3849:3864   */\n      mstore\n        /* \"#utility.yul\":3883:3887   */\n      0x24\n        /* \"#utility.yul\":3880:3881   */\n      0x00\n        /* \"#utility.yul\":3873:3888   */\n      revert\n        /* \"#utility.yul\":3900:4002   */\n    tag_56:\n        /* \"#utility.yul\":3941:3947   */\n      0x00\n        /* \"#utility.yul\":3992:3994   */\n      0x1f\n        /* \"#utility.yul\":3988:3995   */\n      not\n        /* \"#utility.yul\":3983:3985   */\n      0x1f\n        /* \"#utility.yul\":3976:3981   */\n      dup4\n        /* \"#utility.yul\":3972:3986   */\n      add\n        /* \"#utility.yul\":3968:3996   */\n      and\n        /* \"#utility.yul\":3958:3996   */\n      swap1\n      pop\n        /* \"#utility.yul\":3900:4002   */\n      swap2\n      swap1\n      pop\n      jump\t// out\n\n    auxdata: 0xa26469706673582212200b12c04ce192253c088cc6e12bc82de09649e56d883ff1cf1c14ddb8c4833fda64736f6c63430008070033\n}\n",
				"bytecode": {
					"linkReferences": {},
					"object": "608060405234801561001057600080fd5b50610561806100206000396000f3fe608060405234801561001057600080fd5b50600436106100575760003560e01c806344f5c17e1461005c578063656687001461007a57806393daa36714610098578063addf3804146100a2578063b1b93471146100ac575b600080fd5b6100646100b6565b6040516100719190610289565b60405180910390f35b6100826100bc565b60405161008f9190610267565b60405180910390f35b6100a061014a565b005b6100aa610162565b005b6100b46101e8565b005b60005481565b600180546100c990610412565b80601f01602080910402602001604051908101604052809291908181526020018280546100f590610412565b80156101425780601f1061011757610100808354040283529160200191610142565b820191906000526020600020905b81548152906001019060200180831161012557829003601f168201915b505050505081565b6000600190506000811561015d5761015e565b5b5050565b600160005461017191906102c0565b600081905550600160008082825461018991906102c0565b925050819055506000808154809291906101a290610444565b919050555060016000546101b691906103a1565b60008190555060016000546101cb9190610316565b60008190555060016000546101e09190610347565b600081905550565b6000600190506000670de0b6b3a7640000826102049190610347565b90506000633b9aca00836102189190610347565b9050505050565b600061022a826102a4565b61023481856102af565b93506102448185602086016103df565b61024d8161051a565b840191505092915050565b610261816103d5565b82525050565b60006020820190508181036000830152610281818461021f565b905092915050565b600060208201905061029e6000830184610258565b92915050565b600081519050919050565b600082825260208201905092915050565b60006102cb826103d5565b91506102d6836103d5565b9250827fffffffffffffffffffffffffffffffffffffffffffffffffffffffffffffffff0382111561030b5761030a61048d565b5b828201905092915050565b6000610321826103d5565b915061032c836103d5565b92508261033c5761033b6104bc565b5b828204905092915050565b6000610352826103d5565b915061035d836103d5565b9250817fffffffffffffffffffffffffffffffffffffffffffffffffffffffffffffffff04831182151516156103965761039561048d565b5b828202905092915050565b60006103ac826103d5565b91506103b7836103d5565b9250828210156103ca576103c961048d565b5b828203905092915050565b6000819050919050565b60005b838110156103fd5780820151818401526020810190506103e2565b8381111561040c576000848401525b50505050565b6000600282049050600182168061042a57607f821691505b6020821081141561043e5761043d6104eb565b5b50919050565b600061044f826103d5565b91507fffffffffffffffffffffffffffffffffffffffffffffffffffffffffffffffff8214156104825761048161048d565b5b600182019050919050565b7f4e487b7100000000000000000000000000000000000000000000000000000000600052601160045260246000fd5b7f4e487b7100000000000000000000000000000000000000000000000000000000600052601260045260246000fd5b7f4e487b7100000000000000000000000000000000000000000000000000000000600052602260045260246000fd5b6000601f19601f830116905091905056fea26469706673582212200b12c04ce192253c088cc6e12bc82de09649e56d883ff1cf1c14ddb8c4833fda64736f6c63430008070033",
					"opcodes": "PUSH1 0x80 PUSH1 0x40 MSTORE CALLVALUE DUP1 ISZERO PUSH2 0x10 JUMPI PUSH1 0x0 DUP1 REVERT JUMPDEST POP PUSH2 0x561 DUP1 PUSH2 0x20 PUSH1 0x0 CODECOPY PUSH1 0x0 RETURN INVALID PUSH1 0x80 PUSH1 0x40 MSTORE CALLVALUE DUP1 ISZERO PUSH2 0x10 JUMPI PUSH1 0x0 DUP1 REVERT JUMPDEST POP PUSH1 0x4 CALLDATASIZE LT PUSH2 0x57 JUMPI PUSH1 0x0 CALLDATALOAD PUSH1 0xE0 SHR DUP1 PUSH4 0x44F5C17E EQ PUSH2 0x5C JUMPI DUP1 PUSH4 0x65668700 EQ PUSH2 0x7A JUMPI DUP1 PUSH4 0x93DAA367 EQ PUSH2 0x98 JUMPI DUP1 PUSH4 0xADDF3804 EQ PUSH2 0xA2 JUMPI DUP1 PUSH4 0xB1B93471 EQ PUSH2 0xAC JUMPI JUMPDEST PUSH1 0x0 DUP1 REVERT JUMPDEST PUSH2 0x64 PUSH2 0xB6 JUMP JUMPDEST PUSH1 0x40 MLOAD PUSH2 0x71 SWAP2 SWAP1 PUSH2 0x289 JUMP JUMPDEST PUSH1 0x40 MLOAD DUP1 SWAP2 SUB SWAP1 RETURN JUMPDEST PUSH2 0x82 PUSH2 0xBC JUMP JUMPDEST PUSH1 0x40 MLOAD PUSH2 0x8F SWAP2 SWAP1 PUSH2 0x267 JUMP JUMPDEST PUSH1 0x40 MLOAD DUP1 SWAP2 SUB SWAP1 RETURN JUMPDEST PUSH2 0xA0 PUSH2 0x14A JUMP JUMPDEST STOP JUMPDEST PUSH2 0xAA PUSH2 0x162 JUMP JUMPDEST STOP JUMPDEST PUSH2 0xB4 PUSH2 0x1E8 JUMP JUMPDEST STOP JUMPDEST PUSH1 0x0 SLOAD DUP2 JUMP JUMPDEST PUSH1 0x1 DUP1 SLOAD PUSH2 0xC9 SWAP1 PUSH2 0x412 JUMP JUMPDEST DUP1 PUSH1 0x1F ADD PUSH1 0x20 DUP1 SWAP2 DIV MUL PUSH1 0x20 ADD PUSH1 0x40 MLOAD SWAP1 DUP2 ADD PUSH1 0x40 MSTORE DUP1 SWAP3 SWAP2 SWAP1 DUP2 DUP2 MSTORE PUSH1 0x20 ADD DUP3 DUP1 SLOAD PUSH2 0xF5 SWAP1 PUSH2 0x412 JUMP JUMPDEST DUP1 ISZERO PUSH2 0x142 JUMPI DUP1 PUSH1 0x1F LT PUSH2 0x117 JUMPI PUSH2 0x100 DUP1 DUP4 SLOAD DIV MUL DUP4 MSTORE SWAP2 PUSH1 0x20 ADD SWAP2 PUSH2 0x142 JUMP JUMPDEST DUP3 ADD SWAP2 SWAP1 PUSH1 0x0 MSTORE PUSH1 0x20 PUSH1 0x0 KECCAK256 SWAP1 JUMPDEST DUP2 SLOAD DUP2 MSTORE SWAP1 PUSH1 0x1 ADD SWAP1 PUSH1 0x20 ADD DUP1 DUP4 GT PUSH2 0x125 JUMPI DUP3 SWAP1 SUB PUSH1 0x1F AND DUP3 ADD SWAP2 JUMPDEST POP POP POP POP POP DUP2 JUMP JUMPDEST PUSH1 0x0 PUSH1 0x1 SWAP1 POP PUSH1 0x0 DUP2 ISZERO PUSH2 0x15D JUMPI PUSH2 0x15E JUMP JUMPDEST JUMPDEST POP POP JUMP JUMPDEST PUSH1 0x1 PUSH1 0x0 SLOAD PUSH2 0x171 SWAP2 SWAP1 PUSH2 0x2C0 JUMP JUMPDEST PUSH1 0x0 DUP2 SWAP1 SSTORE POP PUSH1 0x1 PUSH1 0x0 DUP1 DUP3 DUP3 SLOAD PUSH2 0x189 SWAP2 SWAP1 PUSH2 0x2C0 JUMP JUMPDEST SWAP3 POP POP DUP2 SWAP1 SSTORE POP PUSH1 0x0 DUP1 DUP2 SLOAD DUP1 SWAP3 SWAP2 SWAP1 PUSH2 0x1A2 SWAP1 PUSH2 0x444 JUMP JUMPDEST SWAP2 SWAP1 POP SSTORE POP PUSH1 0x1 PUSH1 0x0 SLOAD PUSH2 0x1B6 SWAP2 SWAP1 PUSH2 0x3A1 JUMP JUMPDEST PUSH1 0x0 DUP2 SWAP1 SSTORE POP PUSH1 0x1 PUSH1 0x0 SLOAD PUSH2 0x1CB SWAP2 SWAP1 PUSH2 0x316 JUMP JUMPDEST PUSH1 0x0 DUP2 SWAP1 SSTORE POP PUSH1 0x1 PUSH1 0x0 SLOAD PUSH2 0x1E0 SWAP2 SWAP1 PUSH2 0x347 JUMP JUMPDEST PUSH1 0x0 DUP2 SWAP1 SSTORE POP JUMP JUMPDEST PUSH1 0x0 PUSH1 0x1 SWAP1 POP PUSH1 0x0 PUSH8 0xDE0B6B3A7640000 DUP3 PUSH2 0x204 SWAP2 SWAP1 PUSH2 0x347 JUMP JUMPDEST SWAP1 POP PUSH1 0x0 PUSH4 0x3B9ACA00 DUP4 PUSH2 0x218 SWAP2 SWAP1 PUSH2 0x347 JUMP JUMPDEST SWAP1 POP POP POP POP JUMP JUMPDEST PUSH1 0x0 PUSH2 0x22A DUP3 PUSH2 0x2A4 JUMP JUMPDEST PUSH2 0x234 DUP2 DUP6 PUSH2 0x2AF JUMP JUMPDEST SWAP4 POP PUSH2 0x244 DUP2 DUP6 PUSH1 0x20 DUP7 ADD PUSH2 0x3DF JUMP JUMPDEST PUSH2 0x24D DUP2 PUSH2 0x51A JUMP JUMPDEST DUP5 ADD SWAP2 POP POP SWAP3 SWAP2 POP POP JUMP JUMPDEST PUSH2 0x261 DUP2 PUSH2 0x3D5 JUMP JUMPDEST DUP3 MSTORE POP POP JUMP JUMPDEST PUSH1 0x0 PUSH1 0x20 DUP3 ADD SWAP1 POP DUP2 DUP2 SUB PUSH1 0x0 DUP4 ADD MSTORE PUSH2 0x281 DUP2 DUP5 PUSH2 0x21F JUMP JUMPDEST SWAP1 POP SWAP3 SWAP2 POP POP JUMP JUMPDEST PUSH1 0x0 PUSH1 0x20 DUP3 ADD SWAP1 POP PUSH2 0x29E PUSH1 0x0 DUP4 ADD DUP5 PUSH2 0x258 JUMP JUMPDEST SWAP3 SWAP2 POP POP JUMP JUMPDEST PUSH1 0x0 DUP2 MLOAD SWAP1 POP SWAP2 SWAP1 POP JUMP JUMPDEST PUSH1 0x0 DUP3 DUP3 MSTORE PUSH1 0x20 DUP3 ADD SWAP1 POP SWAP3 SWAP2 POP POP JUMP JUMPDEST PUSH1 0x0 PUSH2 0x2CB DUP3 PUSH2 0x3D5 JUMP JUMPDEST SWAP2 POP PUSH2 0x2D6 DUP4 PUSH2 0x3D5 JUMP JUMPDEST SWAP3 POP DUP3 PUSH32 0xFFFFFFFFFFFFFFFFFFFFFFFFFFFFFFFFFFFFFFFFFFFFFFFFFFFFFFFFFFFFFFFF SUB DUP3 GT ISZERO PUSH2 0x30B JUMPI PUSH2 0x30A PUSH2 0x48D JUMP JUMPDEST JUMPDEST DUP3 DUP3 ADD SWAP1 POP SWAP3 SWAP2 POP POP JUMP JUMPDEST PUSH1 0x0 PUSH2 0x321 DUP3 PUSH2 0x3D5 JUMP JUMPDEST SWAP2 POP PUSH2 0x32C DUP4 PUSH2 0x3D5 JUMP JUMPDEST SWAP3 POP DUP3 PUSH2 0x33C JUMPI PUSH2 0x33B PUSH2 0x4BC JUMP JUMPDEST JUMPDEST DUP3 DUP3 DIV SWAP1 POP SWAP3 SWAP2 POP POP JUMP JUMPDEST PUSH1 0x0 PUSH2 0x352 DUP3 PUSH2 0x3D5 JUMP JUMPDEST SWAP2 POP PUSH2 0x35D DUP4 PUSH2 0x3D5 JUMP JUMPDEST SWAP3 POP DUP2 PUSH32 0xFFFFFFFFFFFFFFFFFFFFFFFFFFFFFFFFFFFFFFFFFFFFFFFFFFFFFFFFFFFFFFFF DIV DUP4 GT DUP3 ISZERO ISZERO AND ISZERO PUSH2 0x396 JUMPI PUSH2 0x395 PUSH2 0x48D JUMP JUMPDEST JUMPDEST DUP3 DUP3 MUL SWAP1 POP SWAP3 SWAP2 POP POP JUMP JUMPDEST PUSH1 0x0 PUSH2 0x3AC DUP3 PUSH2 0x3D5 JUMP JUMPDEST SWAP2 POP PUSH2 0x3B7 DUP4 PUSH2 0x3D5 JUMP JUMPDEST SWAP3 POP DUP3 DUP3 LT ISZERO PUSH2 0x3CA JUMPI PUSH2 0x3C9 PUSH2 0x48D JUMP JUMPDEST JUMPDEST DUP3 DUP3 SUB SWAP1 POP SWAP3 SWAP2 POP POP JUMP JUMPDEST PUSH1 0x0 DUP2 SWAP1 POP SWAP2 SWAP1 POP JUMP JUMPDEST PUSH1 0x0 JUMPDEST DUP4 DUP2 LT ISZERO PUSH2 0x3FD JUMPI DUP1 DUP3 ADD MLOAD DUP2 DUP5 ADD MSTORE PUSH1 0x20 DUP2 ADD SWAP1 POP PUSH2 0x3E2 JUMP JUMPDEST DUP4 DUP2 GT ISZERO PUSH2 0x40C JUMPI PUSH1 0x0 DUP5 DUP5 ADD MSTORE JUMPDEST POP POP POP POP JUMP JUMPDEST PUSH1 0x0 PUSH1 0x2 DUP3 DIV SWAP1 POP PUSH1 0x1 DUP3 AND DUP1 PUSH2 0x42A JUMPI PUSH1 0x7F DUP3 AND SWAP2 POP JUMPDEST PUSH1 0x20 DUP3 LT DUP2 EQ ISZERO PUSH2 0x43E JUMPI PUSH2 0x43D PUSH2 0x4EB JUMP JUMPDEST JUMPDEST POP SWAP2 SWAP1 POP JUMP JUMPDEST PUSH1 0x0 PUSH2 0x44F DUP3 PUSH2 0x3D5 JUMP JUMPDEST SWAP2 POP PUSH32 0xFFFFFFFFFFFFFFFFFFFFFFFFFFFFFFFFFFFFFFFFFFFFFFFFFFFFFFFFFFFFFFFF DUP3 EQ ISZERO PUSH2 0x482 JUMPI PUSH2 0x481 PUSH2 0x48D JUMP JUMPDEST JUMPDEST PUSH1 0x1 DUP3 ADD SWAP1 POP SWAP2 SWAP1 POP JUMP JUMPDEST PUSH32 0x4E487B7100000000000000000000000000000000000000000000000000000000 PUSH1 0x0 MSTORE PUSH1 0x11 PUSH1 0x4 MSTORE PUSH1 0x24 PUSH1 0x0 REVERT JUMPDEST PUSH32 0x4E487B7100000000000000000000000000000000000000000000000000000000 PUSH1 0x0 MSTORE PUSH1 0x12 PUSH1 0x4 MSTORE PUSH1 0x24 PUSH1 0x0 REVERT JUMPDEST PUSH32 0x4E487B7100000000000000000000000000000000000000000000000000000000 PUSH1 0x0 MSTORE PUSH1 0x22 PUSH1 0x4 MSTORE PUSH1 0x24 PUSH1 0x0 REVERT JUMPDEST PUSH1 0x0 PUSH1 0x1F NOT PUSH1 0x1F DUP4 ADD AND SWAP1 POP SWAP2 SWAP1 POP JUMP INVALID LOG2 PUSH5 0x6970667358 0x22 SLT KECCAK256 SIGNEXTEND SLT 0xC0 0x4C 0xE1 SWAP3 0x25 EXTCODECOPY ADDMOD DUP13 0xC6 0xE1 0x2B 0xC8 0x2D 0xE0 SWAP7 0x49 0xE5 PUSH14 0x883FF1CF1C14DDB8C4833FDA6473 PUSH16 0x6C634300080700330000000000000000 "
				},
				"gasEstimates": {
					"creation": {
						"codeDepositCost": "275400",
						"executionCost": "318",
						"totalCost": "275718"
					},
					"external": {
						"intData()": "2407",
						"logical()": "215",
						"math()": "infinite",
						"stringData()": "infinite",
						"weiToEth()": "infinite"
					}
				},
				"methodIdentifiers": {
					"intData()": "44f5c17e",
					"logical()": "93daa367",
					"math()": "addf3804",
					"stringData()": "65668700",
					"weiToEth()": "b1b93471"
				}
			},
			"storageLayout": {
				"storage": [
					{
						"astId": 3,
						"contract": "test/Operation.sol:Operation",
						"label": "intData",
						"offset": 0,
						"slot": "0",
						"type": "t_uint256"
					},
					{
						"astId": 5,
						"contract": "test/Operation.sol:Operation",
						"label": "stringData",
						"offset": 0,
						"slot": "1",
						"type": "t_string_storage"
					}
				],
				"types": {
					"t_string_storage": {
						"encoding": "bytes",
						"label": "string",
						"numberOfBytes": "32"
					},
					"t_uint256": {
						"encoding": "inplace",
						"label": "uint256",
						"numberOfBytes": "32"
					}
				}
			},
			"userdoc": {
				"kind": "user",
				"methods": {},
				"version": 1
			}
		}
	}
}