{
	"test/BlockProperty.sol": {
		"BlockProperty": {
			"abi": [
				{
					"inputs": [],
					"name": "blcok5",
					"outputs": [
						{
							"internalType": "uint256",
							"name": "",
							"type": "uint256"
						}
					],
					"stateMutability": "view",
					"type": "function"
				},
				{
					"inputs": [],
					"name": "block1",
					"outputs": [
						{
							"internalType": "uint256",
							"name": "",
							"type": "uint256"
						}
					],
					"stateMutability": "view",
					"type": "function"
				},
				{
					"inputs": [],
					"name": "block2",
					"outputs": [
						{
							"internalType": "uint256",
							"name": "",
							"type": "uint256"
						}
					],
					"stateMutability": "view",
					"type": "function"
				},
				{
					"inputs": [],
					"name": "block3",
					"outputs": [
						{
							"internalType": "address payable",
							"name": "",
							"type": "address"
						}
					],
					"stateMutability": "view",
					"type": "function"
				},
				{
					"inputs": [],
					"name": "block4",
					"outputs": [
						{
							"internalType": "uint256",
							"name": "",
							"type": "uint256"
						}
					],
					"stateMutability": "view",
					"type": "function"
				},
				{
					"inputs": [],
					"name": "block6",
					"outputs": [
						{
							"internalType": "uint256",
							"name": "",
							"type": "uint256"
						}
					],
					"stateMutability": "view",
					"type": "function"
				},
				{
					"inputs": [],
					"name": "block7",
					"outputs": [
						{
							"internalType": "uint256",
							"name": "",
							"type": "uint256"
						}
					],
					"stateMutability": "view",
					"type": "function"
				}
			],
			"devdoc": {
				"kind": "dev",
				"methods": {},
				"version": 1
			},
			"evm": {
				"assembly": "    /* \"test/BlockProperty.sol\":35:400  contract BlockProperty{ //블록 속성 가져오기\r... */\n  mstore(0x40, 0x80)\n    /* \"test/BlockProperty.sol\":116:129  block.basefee */\n  basefee\n    /* \"test/BlockProperty.sol\":95:129  uint public block1 = block.basefee */\n  0x00\n  sstore\n    /* \"test/BlockProperty.sol\":157:170  block.chainid */\n  chainid\n    /* \"test/BlockProperty.sol\":136:170  uint public block2 = block.chainid */\n  0x01\n  sstore\n    /* \"test/BlockProperty.sol\":209:223  block.coinbase */\n  coinbase\n    /* \"test/BlockProperty.sol\":177:223  address payable public block3 = block.coinbase */\n  0x02\n  exp(0x0100, 0x00)\n  dup2\n  sload\n  dup2\n  0xffffffffffffffffffffffffffffffffffffffff\n  mul\n  not\n  and\n  swap1\n  dup4\n  0xffffffffffffffffffffffffffffffffffffffff\n  and\n  mul\n  or\n  swap1\n  sstore\n  pop\n    /* \"test/BlockProperty.sol\":251:267  block.difficulty */\n  difficulty\n    /* \"test/BlockProperty.sol\":230:267  uint public block4 = block.difficulty */\n  0x03\n  sstore\n    /* \"test/BlockProperty.sol\":295:309  block.gaslimit */\n  gaslimit\n    /* \"test/BlockProperty.sol\":274:309  uint public blcok5 = block.gaslimit */\n  0x04\n  sstore\n    /* \"test/BlockProperty.sol\":337:349  block.number */\n  number\n    /* \"test/BlockProperty.sol\":316:349  uint public block6 = block.number */\n  0x05\n  sstore\n    /* \"test/BlockProperty.sol\":377:392  block.timestamp */\n  timestamp\n    /* \"test/BlockProperty.sol\":356:392  uint public block7 = block.timestamp */\n  0x06\n  sstore\n    /* \"test/BlockProperty.sol\":35:400  contract BlockProperty{ //블록 속성 가져오기\r... */\n  callvalue\n  dup1\n  iszero\n  tag_1\n  jumpi\n  0x00\n  dup1\n  revert\ntag_1:\n  pop\n  dataSize(sub_0)\n  dup1\n  dataOffset(sub_0)\n  0x00\n  codecopy\n  0x00\n  return\nstop\n\nsub_0: assembly {\n        /* \"test/BlockProperty.sol\":35:400  contract BlockProperty{ //블록 속성 가져오기\r... */\n      mstore(0x40, 0x80)\n      callvalue\n      dup1\n      iszero\n      tag_1\n      jumpi\n      0x00\n      dup1\n      revert\n    tag_1:\n      pop\n      jumpi(tag_2, lt(calldatasize, 0x04))\n      shr(0xe0, calldataload(0x00))\n      dup1\n      0x9163f897\n      gt\n      tag_10\n      jumpi\n      dup1\n      0x9163f897\n      eq\n      tag_6\n      jumpi\n      dup1\n      0x93c7542b\n      eq\n      tag_7\n      jumpi\n      dup1\n      0xa58c30c5\n      eq\n      tag_8\n      jumpi\n      dup1\n      0xe9f03c7d\n      eq\n      tag_9\n      jumpi\n      jump(tag_2)\n    tag_10:\n      dup1\n      0x0eb524d4\n      eq\n      tag_3\n      jumpi\n      dup1\n      0x0fa2d864\n      eq\n      tag_4\n      jumpi\n      dup1\n      0x705a3644\n      eq\n      tag_5\n      jumpi\n    tag_2:\n      0x00\n      dup1\n      revert\n        /* \"test/BlockProperty.sol\":95:129  uint public block1 = block.basefee */\n    tag_3:\n      tag_11\n      tag_12\n      jump\t// in\n    tag_11:\n      mload(0x40)\n      tag_13\n      swap2\n      swap1\n      tag_14\n      jump\t// in\n    tag_13:\n      mload(0x40)\n      dup1\n      swap2\n      sub\n      swap1\n      return\n        /* \"test/BlockProperty.sol\":230:267  uint public block4 = block.difficulty */\n    tag_4:\n      tag_15\n      tag_16\n      jump\t// in\n    tag_15:\n      mload(0x40)\n      tag_17\n      swap2\n      swap1\n      tag_14\n      jump\t// in\n    tag_17:\n      mload(0x40)\n      dup1\n      swap2\n      sub\n      swap1\n      return\n        /* \"test/BlockProperty.sol\":177:223  address payable public block3 = block.coinbase */\n    tag_5:\n      tag_18\n      tag_19\n      jump\t// in\n    tag_18:\n      mload(0x40)\n      tag_20\n      swap2\n      swap1\n      tag_21\n      jump\t// in\n    tag_20:\n      mload(0x40)\n      dup1\n      swap2\n      sub\n      swap1\n      return\n        /* \"test/BlockProperty.sol\":316:349  uint public block6 = block.number */\n    tag_6:\n      tag_22\n      tag_23\n      jump\t// in\n    tag_22:\n      mload(0x40)\n      tag_24\n      swap2\n      swap1\n      tag_14\n      jump\t// in\n    tag_24:\n      mload(0x40)\n      dup1\n      swap2\n      sub\n      swap1\n      return\n        /* \"test/BlockProperty.sol\":356:392  uint public block7 = block.timestamp */\n    tag_7:\n      tag_25\n      tag_26\n      jump\t// in\n    tag_25:\n      mload(0x40)\n      tag_27\n      swap2\n      swap1\n      tag_14\n      jump\t// in\n    tag_27:\n      mload(0x40)\n      dup1\n      swap2\n      sub\n      swap1\n      return\n        /* \"test/BlockProperty.sol\":136:170  uint public block2 = block.chainid */\n    tag_8:\n      tag_28\n      tag_29\n      jump\t// in\n    tag_28:\n      mload(0x40)\n      tag_30\n      swap2\n      swap1\n      tag_14\n      jump\t// in\n    tag_30:\n      mload(0x40)\n      dup1\n      swap2\n      sub\n      swap1\n      return\n        /* \"test/BlockProperty.sol\":274:309  uint public blcok5 = block.gaslimit */\n    tag_9:\n      tag_31\n      tag_32\n      jump\t// in\n    tag_31:\n      mload(0x40)\n      tag_33\n      swap2\n      swap1\n      tag_14\n      jump\t// in\n    tag_33:\n      mload(0x40)\n      dup1\n      swap2\n      sub\n      swap1\n      return\n        /* \"test/BlockProperty.sol\":95:129  uint public block1 = block.basefee */\n    tag_12:\n      sload(0x00)\n      dup2\n      jump\t// out\n        /* \"test/BlockProperty.sol\":230:267  uint public block4 = block.difficulty */\n    tag_16:\n      sload(0x03)\n      dup2\n      jump\t// out\n        /* \"test/BlockProperty.sol\":177:223  address payable public block3 = block.coinbase */\n    tag_19:\n      0x02\n      0x00\n      swap1\n      sload\n      swap1\n      0x0100\n      exp\n      swap1\n      div\n      0xffffffffffffffffffffffffffffffffffffffff\n      and\n      dup2\n      jump\t// out\n        /* \"test/BlockProperty.sol\":316:349  uint public block6 = block.number */\n    tag_23:\n      sload(0x05)\n      dup2\n      jump\t// out\n        /* \"test/BlockProperty.sol\":356:392  uint public block7 = block.timestamp */\n    tag_26:\n      sload(0x06)\n      dup2\n      jump\t// out\n        /* \"test/BlockProperty.sol\":136:170  uint public block2 = block.chainid */\n    tag_29:\n      sload(0x01)\n      dup2\n      jump\t// out\n        /* \"test/BlockProperty.sol\":274:309  uint public blcok5 = block.gaslimit */\n    tag_32:\n      sload(0x04)\n      dup2\n      jump\t// out\n        /* \"#utility.yul\":7:149   */\n    tag_35:\n        /* \"#utility.yul\":110:142   */\n      tag_37\n        /* \"#utility.yul\":136:141   */\n      dup2\n        /* \"#utility.yul\":110:142   */\n      tag_38\n      jump\t// in\n    tag_37:\n        /* \"#utility.yul\":105:108   */\n      dup3\n        /* \"#utility.yul\":98:143   */\n      mstore\n        /* \"#utility.yul\":7:149   */\n      pop\n      pop\n      jump\t// out\n        /* \"#utility.yul\":155:273   */\n    tag_39:\n        /* \"#utility.yul\":242:266   */\n      tag_41\n        /* \"#utility.yul\":260:265   */\n      dup2\n        /* \"#utility.yul\":242:266   */\n      tag_42\n      jump\t// in\n    tag_41:\n        /* \"#utility.yul\":237:240   */\n      dup3\n        /* \"#utility.yul\":230:267   */\n      mstore\n        /* \"#utility.yul\":155:273   */\n      pop\n      pop\n      jump\t// out\n        /* \"#utility.yul\":279:533   */\n    tag_21:\n        /* \"#utility.yul\":388:392   */\n      0x00\n        /* \"#utility.yul\":426:428   */\n      0x20\n        /* \"#utility.yul\":415:424   */\n      dup3\n        /* \"#utility.yul\":411:429   */\n      add\n        /* \"#utility.yul\":403:429   */\n      swap1\n      pop\n        /* \"#utility.yul\":439:526   */\n      tag_44\n        /* \"#utility.yul\":523:524   */\n      0x00\n        /* \"#utility.yul\":512:521   */\n      dup4\n        /* \"#utility.yul\":508:525   */\n      add\n        /* \"#utility.yul\":499:505   */\n      dup5\n        /* \"#utility.yul\":439:526   */\n      tag_35\n      jump\t// in\n    tag_44:\n        /* \"#utility.yul\":279:533   */\n      swap3\n      swap2\n      pop\n      pop\n      jump\t// out\n        /* \"#utility.yul\":539:761   */\n    tag_14:\n        /* \"#utility.yul\":632:636   */\n      0x00\n        /* \"#utility.yul\":670:672   */\n      0x20\n        /* \"#utility.yul\":659:668   */\n      dup3\n        /* \"#utility.yul\":655:673   */\n      add\n        /* \"#utility.yul\":647:673   */\n      swap1\n      pop\n        /* \"#utility.yul\":683:754   */\n      tag_46\n        /* \"#utility.yul\":751:752   */\n      0x00\n        /* \"#utility.yul\":740:749   */\n      dup4\n        /* \"#utility.yul\":736:753   */\n      add\n        /* \"#utility.yul\":727:733   */\n      dup5\n        /* \"#utility.yul\":683:754   */\n      tag_39\n      jump\t// in\n    tag_46:\n        /* \"#utility.yul\":539:761   */\n      swap3\n      swap2\n      pop\n      pop\n      jump\t// out\n        /* \"#utility.yul\":767:871   */\n    tag_38:\n        /* \"#utility.yul\":812:819   */\n      0x00\n        /* \"#utility.yul\":841:865   */\n      tag_48\n        /* \"#utility.yul\":859:864   */\n      dup3\n        /* \"#utility.yul\":841:865   */\n      tag_49\n      jump\t// in\n    tag_48:\n        /* \"#utility.yul\":830:865   */\n      swap1\n      pop\n        /* \"#utility.yul\":767:871   */\n      swap2\n      swap1\n      pop\n      jump\t// out\n        /* \"#utility.yul\":877:1003   */\n    tag_49:\n        /* \"#utility.yul\":914:921   */\n      0x00\n        /* \"#utility.yul\":954:996   */\n      0xffffffffffffffffffffffffffffffffffffffff\n        /* \"#utility.yul\":947:952   */\n      dup3\n        /* \"#utility.yul\":943:997   */\n      and\n        /* \"#utility.yul\":932:997   */\n      swap1\n      pop\n        /* \"#utility.yul\":877:1003   */\n      swap2\n      swap1\n      pop\n      jump\t// out\n        /* \"#utility.yul\":1009:1086   */\n    tag_42:\n        /* \"#utility.yul\":1046:1053   */\n      0x00\n        /* \"#utility.yul\":1075:1080   */\n      dup2\n        /* \"#utility.yul\":1064:1080   */\n      swap1\n      pop\n        /* \"#utility.yul\":1009:1086   */\n      swap2\n      swap1\n      pop\n      jump\t// out\n\n    auxdata: 0xa2646970667358221220324c257dd3853c5379069edca30e01f650a3a53172733e7bd10417518b21850264736f6c63430008070033\n}\n",
				"bytecode": {
					"linkReferences": {},
					"object": "6080604052486000554660015541600260006101000a81548173ffffffffffffffffffffffffffffffffffffffff021916908373ffffffffffffffffffffffffffffffffffffffff1602179055504460035545600455436005554260065534801561006957600080fd5b50610264806100796000396000f3fe608060405234801561001057600080fd5b506004361061007d5760003560e01c80639163f8971161005b5780639163f897146100dc57806393c7542b146100fa578063a58c30c514610118578063e9f03c7d146101365761007d565b80630eb524d4146100825780630fa2d864146100a0578063705a3644146100be575b600080fd5b61008a610154565b60405161009791906101d7565b60405180910390f35b6100a861015a565b6040516100b591906101d7565b60405180910390f35b6100c6610160565b6040516100d391906101bc565b60405180910390f35b6100e4610186565b6040516100f191906101d7565b60405180910390f35b61010261018c565b60405161010f91906101d7565b60405180910390f35b610120610192565b60405161012d91906101d7565b60405180910390f35b61013e610198565b60405161014b91906101d7565b60405180910390f35b60005481565b60035481565b600260009054906101000a900473ffffffffffffffffffffffffffffffffffffffff1681565b60055481565b60065481565b60015481565b60045481565b6101a7816101f2565b82525050565b6101b681610224565b82525050565b60006020820190506101d1600083018461019e565b92915050565b60006020820190506101ec60008301846101ad565b92915050565b60006101fd82610204565b9050919050565b600073ffffffffffffffffffffffffffffffffffffffff82169050919050565b600081905091905056fea2646970667358221220324c257dd3853c5379069edca30e01f650a3a53172733e7bd10417518b21850264736f6c63430008070033",
					"opcodes": "PUSH1 0x80 PUSH1 0x40 MSTORE BASEFEE PUSH1 0x0 SSTORE CHAINID PUSH1 0x1 SSTORE COINBASE PUSH1 0x2 PUSH1 0x0 PUSH2 0x100 EXP DUP2 SLOAD DUP2 PUSH20 0xFFFFFFFFFFFFFFFFFFFFFFFFFFFFFFFFFFFFFFFF MUL NOT AND SWAP1 DUP4 PUSH20 0xFFFFFFFFFFFFFFFFFFFFFFFFFFFFFFFFFFFFFFFF AND MUL OR SWAP1 SSTORE POP DIFFICULTY PUSH1 0x3 SSTORE GASLIMIT PUSH1 0x4 SSTORE NUMBER PUSH1 0x5 SSTORE TIMESTAMP PUSH1 0x6 SSTORE CALLVALUE DUP1 ISZERO PUSH2 0x69 JUMPI PUSH1 0x0 DUP1 REVERT JUMPDEST POP PUSH2 0x264 DUP1 PUSH2 0x79 PUSH1 0x0 CODECOPY PUSH1 0x0 RETURN INVALID PUSH1 0x80 PUSH1 0x40 MSTORE CALLVALUE DUP1 ISZERO PUSH2 0x10 JUMPI PUSH1 0x0 DUP1 REVERT JUMPDEST POP PUSH1 0x4 CALLDATASIZE LT PUSH2 0x7D JUMPI PUSH1 0x0 CALLDATALOAD PUSH1 0xE0 SHR DUP1 PUSH4 0x9163F897 GT PUSH2 0x5B JUMPI DUP1 PUSH4 0x9163F897 EQ PUSH2 0xDC JUMPI DUP1 PUSH4 0x93C7542B EQ PUSH2 0xFA JUMPI DUP1 PUSH4 0xA58C30C5 EQ PUSH2 0x118 JUMPI DUP1 PUSH4 0xE9F03C7D EQ PUSH2 0x136 JUMPI PUSH2 0x7D JUMP JUMPDEST DUP1 PUSH4 0xEB524D4 EQ PUSH2 0x82 JUMPI DUP1 PUSH4 0xFA2D864 EQ PUSH2 0xA0 JUMPI DUP1 PUSH4 0x705A3644 EQ PUSH2 0xBE JUMPI JUMPDEST PUSH1 0x0 DUP1 REVERT JUMPDEST PUSH2 0x8A PUSH2 0x154 JUMP JUMPDEST PUSH1 0x40 MLOAD PUSH2 0x97 SWAP2 SWAP1 PUSH2 0x1D7 JUMP JUMPDEST PUSH1 0x40 MLOAD DUP1 SWAP2 SUB SWAP1 RETURN JUMPDEST PUSH2 0xA8 PUSH2 0x15A JUMP JUMPDEST PUSH1 0x40 MLOAD PUSH2 0xB5 SWAP2 SWAP1 PUSH2 0x1D7 JUMP JUMPDEST PUSH1 0x40 MLOAD DUP1 SWAP2 SUB SWAP1 RETURN JUMPDEST PUSH2 0xC6 PUSH2 0x160 JUMP JUMPDEST PUSH1 0x40 MLOAD PUSH2 0xD3 SWAP2 SWAP1 PUSH2 0x1BC JUMP JUMPDEST PUSH1 0x40 MLOAD DUP1 SWAP2 SUB SWAP1 RETURN JUMPDEST PUSH2 0xE4 PUSH2 0x186 JUMP JUMPDEST PUSH1 0x40 MLOAD PUSH2 0xF1 SWAP2 SWAP1 PUSH2 0x1D7 JUMP JUMPDEST PUSH1 0x40 MLOAD DUP1 SWAP2 SUB SWAP1 RETURN JUMPDEST PUSH2 0x102 PUSH2 0x18C JUMP JUMPDEST PUSH1 0x40 MLOAD PUSH2 0x10F SWAP2 SWAP1 PUSH2 0x1D7 JUMP JUMPDEST PUSH1 0x40 MLOAD DUP1 SWAP2 SUB SWAP1 RETURN JUMPDEST PUSH2 0x120 PUSH2 0x192 JUMP JUMPDEST PUSH1 0x40 MLOAD PUSH2 0x12D SWAP2 SWAP1 PUSH2 0x1D7 JUMP JUMPDEST PUSH1 0x40 MLOAD DUP1 SWAP2 SUB SWAP1 RETURN JUMPDEST PUSH2 0x13E PUSH2 0x198 JUMP JUMPDEST PUSH1 0x40 MLOAD PUSH2 0x14B SWAP2 SWAP1 PUSH2 0x1D7 JUMP JUMPDEST PUSH1 0x40 MLOAD DUP1 SWAP2 SUB SWAP1 RETURN JUMPDEST PUSH1 0x0 SLOAD DUP2 JUMP JUMPDEST PUSH1 0x3 SLOAD DUP2 JUMP JUMPDEST PUSH1 0x2 PUSH1 0x0 SWAP1 SLOAD SWAP1 PUSH2 0x100 EXP SWAP1 DIV PUSH20 0xFFFFFFFFFFFFFFFFFFFFFFFFFFFFFFFFFFFFFFFF AND DUP2 JUMP JUMPDEST PUSH1 0x5 SLOAD DUP2 JUMP JUMPDEST PUSH1 0x6 SLOAD DUP2 JUMP JUMPDEST PUSH1 0x1 SLOAD DUP2 JUMP JUMPDEST PUSH1 0x4 SLOAD DUP2 JUMP JUMPDEST PUSH2 0x1A7 DUP2 PUSH2 0x1F2 JUMP JUMPDEST DUP3 MSTORE POP POP JUMP JUMPDEST PUSH2 0x1B6 DUP2 PUSH2 0x224 JUMP JUMPDEST DUP3 MSTORE POP POP JUMP JUMPDEST PUSH1 0x0 PUSH1 0x20 DUP3 ADD SWAP1 POP PUSH2 0x1D1 PUSH1 0x0 DUP4 ADD DUP5 PUSH2 0x19E JUMP JUMPDEST SWAP3 SWAP2 POP POP JUMP JUMPDEST PUSH1 0x0 PUSH1 0x20 DUP3 ADD SWAP1 POP PUSH2 0x1EC PUSH1 0x0 DUP4 ADD DUP5 PUSH2 0x1AD JUMP JUMPDEST SWAP3 SWAP2 POP POP JUMP JUMPDEST PUSH1 0x0 PUSH2 0x1FD DUP3 PUSH2 0x204 JUMP JUMPDEST SWAP1 POP SWAP2 SWAP1 POP JUMP JUMPDEST PUSH1 0x0 PUSH20 0xFFFFFFFFFFFFFFFFFFFFFFFFFFFFFFFFFFFFFFFF DUP3 AND SWAP1 POP SWAP2 SWAP1 POP JUMP JUMPDEST PUSH1 0x0 DUP2 SWAP1 POP SWAP2 SWAP1 POP JUMP INVALID LOG2 PUSH5 0x6970667358 0x22 SLT KECCAK256 ORIGIN 0x4C 0x25 PUSH30 0xD3853C5379069EDCA30E01F650A3A53172733E7BD10417518B2185026473 PUSH16 0x6C634300080700330000000000000000 "
				},
				"gasEstimates": {
					"creation": {
						"codeDepositCost": "122400",
						"executionCost": "157067",
						"totalCost": "279467"
					},
					"external": {
						"blcok5()": "2495",
						"block1()": "2430",
						"block2()": "2473",
						"block3()": "2559",
						"block4()": "2452",
						"block6()": "2429",
						"block7()": "2451"
					}
				},
				"methodIdentifiers": {
					"blcok5()": "e9f03c7d",
					"block1()": "0eb524d4",
					"block2()": "a58c30c5",
					"block3()": "705a3644",
					"block4()": "0fa2d864",
					"block6()": "9163f897",
					"block7()": "93c7542b"
				}
			},
			"storageLayout": {
				"storage": [
					{
						"astId": 5,
						"contract": "test/BlockProperty.sol:BlockProperty",
						"label": "block1",
						"offset": 0,
						"slot": "0",
						"type": "t_uint256"
					},
					{
						"astId": 9,
						"contract": "test/BlockProperty.sol:BlockProperty",
						"label": "block2",
						"offset": 0,
						"slot": "1",
						"type": "t_uint256"
					},
					{
						"astId": 13,
						"contract": "test/BlockProperty.sol:BlockProperty",
						"label": "block3",
						"offset": 0,
						"slot": "2",
						"type": "t_address_payable"
					},
					{
						"astId": 17,
						"contract": "test/BlockProperty.sol:BlockProperty",
						"label": "block4",
						"offset": 0,
						"slot": "3",
						"type": "t_uint256"
					},
					{
						"astId": 21,
						"contract": "test/BlockProperty.sol:BlockProperty",
						"label": "blcok5",
						"offset": 0,
						"slot": "4",
						"type": "t_uint256"
					},
					{
						"astId": 25,
						"contract": "test/BlockProperty.sol:BlockProperty",
						"label": "block6",
						"offset": 0,
						"slot": "5",
						"type": "t_uint256"
					},
					{
						"astId": 29,
						"contract": "test/BlockProperty.sol:BlockProperty",
						"label": "block7",
						"offset": 0,
						"slot": "6",
						"type": "t_uint256"
					}
				],
				"types": {
					"t_address_payable": {
						"encoding": "inplace",
						"label": "address payable",
						"numberOfBytes": "20"
					},
					"t_uint256": {
						"encoding": "inplace",
						"label": "uint256",
						"numberOfBytes": "32"
					}
				}
			},
			"userdoc": {
				"kind": "user",
				"methods": {},
				"version": 1
			}
		}
	}
}